:020000040800F2
:1000000000000120F9900008D70D0008DD0D000860
:10001000E30D0008E90D0008EF0D000800000000E6
:10002000000000000000000000000000218D00081A
:10003000F50D000800000000718F0008BD83000866
:100040004991000849910008499100084991000828
:100050004991000849910008499100084991000818
:1000600049910008030E0008110E0008499100088C
:100070004991000849910008210E0008350E00083A
:10008000499100084991000849910008490E00086B
:100090005D0E00084991000849910008710E0008A2
:1000A00049910008850E000849910008499100080F
:1000B000499100080000000000000000499100087C
:1000C000499100080000000000000000499100086C
:1000D00000000000990E000849910008000000008F
:1000E000AD0E00084991000800000000000000006B
:1000F0000000000000000000000000000000000000
:10010000000000000000000000000000499100080D
:10011000000000000000000049910008499100081B
:100120004991000849910008499100084991000847
:1001300049910008000000000000000000000000DD
:100140004991000849910008499100084991000827
:100150004991000849910008499100084991000817
:1001600049910008499100084991000800000000E9
:1001700049910008499100080000000000000000BB
:1001800049910008499100084991000800000000C9
:1001900010B5054C237833B9044B13B10448AFF3C1
:1001A00000800123237010BD7800002000000000B3
:1001B0004893000808B5034B1BB103490348AFF34C
:1001C000008008BD000000007C000020489300086B
:1001D00053B94AB9002908BF00281CBF4FF0FF31AE
:1001E0004FF0FF3000F074B9ADF1080C6DE904CEAA
:1001F00000F006F8DDF804E0DDE9022304B0704702
:100200002DE9F047089D04468E46002B4DD18A42C9
:10021000944669D9B2FA82F252B101FA02F3C2F1FC
:10022000200120FA01F10CFA02FC41EA030E94408D
:100230004FEA1C48210CBEFBF8F61FFA8CF708FBAE
:1002400016E341EA034306FB07F199420AD91CEB86
:10025000030306F1FF3080F01F81994240F21C81B8
:10026000023E63445B1AA4B2B3FBF8F008FB103300
:1002700044EA034400FB07F7A7420AD91CEB040435
:1002800000F1FF3380F00A81A74240F20781644405
:10029000023840EA0640E41B00261DB1D44000238A
:1002A000C5E900433146BDE8F0878B4209D9002DEE
:1002B00000F0EF800026C5E9000130463146BDE878
:1002C000F087B3FA83F6002E4AD18B4202D38242E2
:1002D00000F2F980841A61EB030301209E46002D91
:1002E000E0D0C5E9004EDDE702B9FFDEB2FA82F2E6
:1002F000002A40F09280A1EB0C014FEA1C471FFA44
:100300008CFE0126200CB1FBF7F307FB131140EA2A
:1003100001410EFB03F0884208D91CEB010103F1F7
:10032000FF3802D2884200F2CB804346091AA4B2B9
:10033000B1FBF7F007FB101144EA01440EFB00FE8D
:10034000A64508D91CEB040400F1FF3102D2A645F2
:1003500000F2BB800846A4EB0E0440EA03409CE791
:10036000C6F12007B34022FA07FC4CEA030C20FA3E
:1003700007F401FA06F31C43F9404FEA1C4900FA5E
:1003800006F3B1FBF9F8200C1FFA8CFE09FB1811DB
:1003900040EA014108FB0EF0884202FA06F20BD94E
:1003A0001CEB010108F1FF3A80F08880884240F29E
:1003B0008580A8F102086144091AA4B2B1FBF9F0E2
:1003C00009FB101144EA014100FB0EFE8E4508D9DD
:1003D0001CEB010100F1FF346CD28E456AD9023862
:1003E000614440EA0840A0FB0294A1EB0E01A14247
:1003F000C846A64656D353D05DB1B3EB080261EBB5
:100400000E0101FA07F722FA06F3F1401F43C5E98E
:10041000007100263146BDE8F087C2F12003D840C4
:100420000CFA02FC21FA03F3914001434FEA1C4706
:100430001FFA8CFEB3FBF7F007FB10360B0C43EAF8
:10044000064300FB0EF69E4204FA02F408D91CEBA8
:10045000030300F1FF382FD29E422DD902386344A6
:100460009B1B89B2B3FBF7F607FB163341EA034146
:1004700006FB0EF38B4208D91CEB010106F1FF3895
:1004800016D28B4214D9023E6144C91A46EA00468C
:1004900038E72E46284605E70646E3E61846F8E61E
:1004A0004B45A9D2B9EB020864EB0C0E0138A3E767
:1004B0004646EAE7204694E74046D1E7D0467BE748
:1004C000023B614432E7304609E76444023842E7C0
:1004D000704700BF80B582B000AF7860044B054A1A
:1004E0000021786801F075F900BF0837BD4680BD6E
:1004F00018160020F815002080B582B000AF786093
:10050000074B1B68012B07D1054B00221A60054BD6
:100510001B68184608F040F900BF0837BD4680BD8B
:1005200014160020D015002080B582B000AF78608E
:10053000074B1B68022B07D1054B00221A60054BA5
:100540001B68184608F028F900BF0837BD4680BD73
:1005500014160020D015002080B582B000AF78605E
:10056000074B1B68042B07D1054B00221A60054B73
:100570001B68184608F010F900BF0837BD4680BD5B
:1005800014160020D0150020B0B58CB000AF7860F4
:10059000204B1B78042B0BD11F4B1B789BB21A46A8
:1005A0001E49786803F066FF1B4B00221A7028E092
:1005B000194B1B781A46174B1978184B9954164B40
:1005C0001B781F2B17D1164B07F108041D460FCDC2
:1005D0000FC40FCD0FC495E80300206004342180C0
:1005E00007F1080326221946786803F043FF0A4BF7
:1005F00000221A7005E0084B1B780133DAB2064B73
:100600001A7001220349786803F0C4FF00BF303735
:10061000BD46B0BD20160020441600202416002040
:100620008C93000880B582B000AF0346FB80FB8846
:10063000B3F5004F48D0B3F5004F47DCB3F5804F1A
:100640000FD0B3F5804F41DC402B39D0402B3DDC3F
:10065000202B3DD0202B39DC082B23D0102B39D078
:1006600034E001F02BFC02461E4B1B68D31AB3F595
:100670007A7F31D91C4B1B7803F00703002B08D07D
:1006800001F01CFC0346174A1360174B00221A7036
:1006900022E001F013FC0346124A1360124B0122C0
:1006A0001A7019E0104B1B7803F00703002B03D0DE
:1006B0000D4B00221A7010E00B4B01221A700CE057
:1006C000094B00221A7008E000BF06E000BF04E0FA
:1006D00000BF02E000BF00E000BF00BF0837BD461A
:1006E00080BD00BF48160020D415002080B500AFA3
:1006F00001F0B8FB00F076F800F0B8F900F090F9DE
:1007000000F0C6F800F01CF900F05AF9254800F096
:100710004CFF0221234801F06EF90121214801F02C
:100720006AF901F0CBFB03461F4A13600122022144
:100730001E4802F0BFFE01221D491E4803F02AFF99
:1007400007F056FE1C4A0021012007F049FF03462E
:100750001A4A13601A4A00211A4807F093FE03460A
:10076000194A1360194A0021194807F08BFE034605
:10077000184A1360184A0021184807F083FE034600
:10078000174A1360104B1B68002B07D0114B1B68D6
:10079000002B03D0124B1B68002B00D1FEE707F0A3
:1007A0004BFEFEE79400002048160020000400489D
:1007B000201600201001002040940008D0150020D1
:1007C000D4930008510C000824020020F89300087C
:1007D000610C0008B00800201C940008710C00088F
:1007E000400F002080B596B000AF07F114034422FB
:1007F0000021184608F0DCFC3B4600221A605A60D3
:100800009A60DA601A614FF4007003F02DFA034623
:10081000002B01D000F0DAFA01237B614FF4A02312
:10082000BB610223FB6303233B6401237B6414232A
:10083000BB640723FB6402233B6502237B6507F14E
:100840001403184601F046FB0346002B01D000F0CC
:10085000BDFA0F233B6003237B600023BB600023B2
:10086000FB6000233B613B460421184601F046FF34
:100870000346002B01D000F0A9FA4FF040524FF090
:100880008061002002F03AF800BF5837BD4680BDB5
:1008900080B58AB000AF284B284A1A60264B102238
:1008A0005A60254B4FF080429A60234B0022DA6059
:1008B000214B4FF400321A611F4B00225A611E4B2C
:1008C00000221A761C4B00225A761B4B00229A7685
:1008D000194B0022DA76184B00221A77164B0022A9
:1008E0005A77154800F09CFC0346002B01D000F01D
:1008F0006DFA4FF400533B604FF46043BB6000233C
:100900007B600023FB6000233B6100237B610023AD
:10091000BB610123FB6101233B623B46194606484C
:1009200000F079FD0346002B01D000F04FFA00BF24
:100930002837BD4680BD00BF940000200064004001
:1009400080B500AF1B4B1C4A1A601A4B1B4A5A60F9
:10095000184B00229A60174B0122DA60154B0022D7
:100960001A61144B00225A61124B00229A61114BFA
:100970000022DA610F4B00221A620E4802F0CAFD13
:100980000346002B01D000F021FA0021094802F0B3
:1009900050FE0346002B01D000F018FA0021054854
:1009A00002F092FE0346002B01D000F00FFA00BFC8
:1009B00080BD00BFBC00002000540040EC9C9010A3
:1009C00080B500AF144B154A1A60134B4FF4E13257
:1009D0005A60114B00229A600F4B0022DA600E4BD6
:1009E00000221A610C4B0C225A610B4B4FF44072DF
:1009F0009A61094B0022DA61074B00221A62064B0A
:100A000000225A62044803F0E7FC0346002B01D0A1
:100A100000F0DCF900BF80BD10010020003801406B
:100A200080B582B000AF104B9B6C0F4A43F00103BE
:100A300093640D4B9B6C03F001037B607B68002289
:100A400005210E2003F01EFA0E2003F037FA0022D3
:100A500005210F2003F016FA0F2003F02FFA00BF34
:100A60000837BD4680BD00BF0010024080B58AB087
:100A700000AF07F1140300221A605A609A60DA602E
:100A80001A616F4BDB6C6E4A43F00403D3646C4B0A
:100A9000DB6C03F004033B613B69694BDB6C684A28
:100AA00043F00103D364664BDB6C03F00103FB608E
:100AB000FB68634BDB6C624A43F00203D364604B18
:100AC000DB6C03F00203BB60BB685D4BDB6C5C4A14
:100AD00043F08003D3645A4BDB6C03F080037B60EC
:100AE0007B68002248F206014FF0904002F0E2FCE1
:100AF00000220221534802F0DDFC4FF440437B61A9
:100B00004FF40413BB610123FB6107F11403194681
:100B10004D4802F065FB48F206037B610123BB618F
:100B20000223FB6100233B6207F1140319464FF0D7
:100B3000904002F055FB48237B614FF40413BB61E6
:100B40000123FB6107F1140319464FF0904002F0B6
:100B500047FB30237B614FF48813BB610223FB61A9
:100B600007F1140319464FF0904002F039FB80233F
:100B70007B610323BB610023FB6107F1140319466A
:100B80004FF0904002F02CFB21237B610323BB61DB
:100B90000023FB6107F1140319462A4802F020FBE9
:100BA00002237B610123BB610123FB6100233B62C4
:100BB00007F114031946234802F012FB4FF4807327
:100BC0007B610223BB610023FB6100233B620023A6
:100BD0007B6207F1140319464FF0904002F000FBCE
:100BE00008237B610323BB610023FB6107F114032E
:100BF0001946164802F0F4FA00220521092003F0F4
:100C000041F9092003F05AF9002205210A2003F0D6
:100C100039F90A2003F052F900220521172003F0C8
:100C200031F9172003F04AF900220521282003F0AA
:100C300029F9282003F042F900BF2837BD4680BDBE
:100C4000001002400004004800080048001C004852
:100C500080B582B000AF78600A2007F0A6FCFBE701
:100C600080B582B000AF7860012007F09EFCFBE702
:100C700080B586B000AF7860444B00229A60434B49
:100C80000022DA60414B00225A60404B00221A7564
:100C90003F4B1B78042BFBD801A252F823F000BF76
:100CA000B50C0008CF0C00086B0D0008910C000873
:100CB000910C0008002204214FF0904002F0FAFB52
:100CC000002202214FF0904002F0F4FB5CE02F4B39
:100CD00040F203121A602D4B08221A612D4A07F1C7
:100CE000080392E8030083E8030001F0E7F8786165
:100CF00007F10802284B2549284800F09AFC0346D2
:100D0000FB74FB7C002B08D001F0D8F802467B690D
:100D1000D31A41F287329342EAD9214B1B6841F240
:100D20008831184607F0E6FC0346002B19D1012252
:100D300002214FF0904002F0BDFB012204214FF050
:100D4000904002F0B7FB4FF4FA7007F02EFC00223F
:100D500004214FF0904002F0ADFB0D4B02221A70BF
:100D600012E00B4B00221A700EE00E4BD3ED017A0D
:100D7000B3EE027AF4EEC77AF1EE10FA00DA02E08E
:100D8000034B04221A7000BF82E700BFE015002069
:100D9000D4150020B49300081416002094000020FD
:100DA000D0150020D815002080B582B000AF786043
:100DB0007B681B68044A934201D101F06BF800BFC5
:100DC0000837BD4680BD00BF002C014080B400AF95
:100DD00072B600BFFEE780B400AFFEE780B400AF9C
:100DE000FEE780B400AFFEE780B400AFFEE780B45A
:100DF00000AFFEE780B400AF00BFBD465DF8047BE6
:100E0000704780B500AF082002F06CFB00BF80BDCA
:100E100080B500AF102002F065FB00BF80BD000070
:100E200080B500AF024802F032FE00BF80BD00BFB7
:100E3000DC01002080B500AF024802F028FE00BFB0
:100E400080BD00BF9401002080B500AF024800F0D3
:100E5000F8FD00BF80BD00BF9400002080B500AF4A
:100E6000024800F0EEFD00BF80BD00BF94000020EE
:100E700080B500AF202002F035FB402002F032FBAD
:100E800000BF80BD80B500AF024803F0DBF800BFB3
:100E900080BD00BF5016002080B500AF024803F0AF
:100EA000CFFB00BF80BD00BF1001002080B500AFA8
:100EB0004FF4804002F016FB4FF4004002F012FBAA
:100EC00000BF80BD80B582B000AF114B1B6E104AD1
:100ED00043F0010313660E4B1B6E03F001037B60AE
:100EE0007B680B4B9B6D0A4A43F080539365084B1C
:100EF0009B6D03F080533B603B6800220F216FF035
:100F0000010002F0BFFF00BF0837BD4680BD00BF33
:100F10000010024080B58AB000AF786007F114037A
:100F200000221A605A609A60DA601A617B681B6856
:100F3000204A934239D1204B9B6D1F4A43F00073E6
:100F400093651D4B9B6D03F000733B613B691A4B2E
:100F5000DB6C194A43F00103D364174BDB6C03F0DD
:100F60000103FB60FB684FF4C0537B610223BB614C
:100F70000023FB6103233B6209237B6207F1140317
:100F800019464FF0904002F02BF900220521132062
:100F900002F078FF132002F091FF002205211420B7
:100FA00002F070FF142002F089FF00BF2837BD4611
:100FB00080BD00BF006400400010024080B59EB0BC
:100FC00000AF786007F1640300221A605A609A60EB
:100FD000DA601A6107F1100354220021184608F064
:100FE000E7F87B681B681E4A934235D140233B617A
:100FF0000023FB6307F11003184601F009FE0346C6
:10100000002B01D0FFF7E2FE164BDB6C154A43F0D4
:101010000203D364134BDB6C03F00203FB60FB6839
:10102000C0237B661223BB660023FB6603233B675A
:1010300004237B6707F1640319460B4802F0D0F8DC
:10104000084B9B6D074A43F400139365054B9B6D5A
:1010500003F40013BB60BB6800BF7837BD4680BD9A
:1010600000540040001002400004004880B5A0B0C9
:1010700000AF786007F16C0300221A605A609A6032
:10108000DA601A6107F1180354220021184608F0AB
:101090008FF87B681B685B4A934240F0AE80012367
:1010A000BB610023BB6307F11803184601F0B0FDD4
:1010B0000346002B01D0FFF789FE534B1B6E524AAB
:1010C00043F480431366504B1B6E03F480437B61F3
:1010D0007B694D4BDB6C4C4A43F00103D3644A4BB4
:1010E000DB6C03F001033B613B69474BDB6C464A19
:1010F00043F00203D364444BDB6C03F00203FB6058
:10110000FB684FF4C063FB6602233B6700237B67E9
:101110000323BB670723FB6707F16C0319464FF0F6
:10112000904002F05DF81823FB6602233B67002322
:101130007B670323BB670723FB6707F16C03194633
:10114000324802F04DF8324B324A1A60304B0222DC
:101150005A602F4B00229A602D4B0022DA602C4BF4
:1011600080221A612A4B00225A61294B00229A617F
:10117000274B2022DA61264B00221A62244802F013
:10118000EFFA0346002B01D0FFF720FE7B68204AD0
:101190001A671F4A7B6893621F4B204A1A601E4BD6
:1011A00002225A601C4B10229A601B4B0022DA600C
:1011B000194B80221A61184B00225A61164B0022EB
:1011C0009A61154B0022DA61134B00221A62124811
:1011D00002F0C6FA0346002B01D0FFF7F7FD7B684B
:1011E0000D4ADA660C4A7B689362002205212520AD
:1011F00002F048FE252002F061FE00BF8037BD46A8
:1012000080BD00BF003801400010024000040048CB
:101210009401002058000240DC01002044000240FC
:1012200080B584B000AF78607B68002B01D10123CA
:10123000EDE07B6893F82030DBB2002B02D17868B8
:10124000FFF768FE7B681B681A687B681B6842F0C2
:1012500001021A6000F032FEF86012E000F02EFE8B
:101260000246FB68D31A0A2B0BD97B685B6A43F4EE
:1012700000327B685A627B68052283F820200123B4
:10128000C5E07B681B685B6803F00103002BE5D0B9
:101290007B681B681A687B681B6822F002021A6070
:1012A00000F00CFEF86012E000F008FE0246FB6859
:1012B000D31A0A2B0BD97B685B6A43F400327B6834
:1012C0005A627B68052283F8202001239FE07B6817
:1012D0001B685B6803F00203002BE5D17B681B7E73
:1012E000012B08D17B681B681A687B681B6842F079
:1012F00080021A6007E07B681B681A687B681B68BD
:1013000022F080021A607B685B7E012B08D17B682B
:101310001B681A687B681B6842F040021A6007E08D
:101320007B681B681A687B681B6822F040021A60A1
:101330007B689B7E012B08D17B681B681A687B68E1
:101340001B6842F020021A6007E07B681B681A687D
:101350007B681B6822F020021A607B68DB7E012B11
:1013600008D17B681B681A687B681B6822F0100232
:101370001A6007E07B681B681A687B681B6842F08C
:1013800010021A607B681B7F012B08D17B681B68E9
:101390001A687B681B6842F008021A6007E07B68E5
:1013A0001B681A687B681B6822F008021A607B6859
:1013B0005B7F012B08D17B681B681A687B681B6800
:1013C00042F004021A6007E07B681B681A687B68B9
:1013D0001B6822F004021A607B689A687B68DB68ED
:1013E0001A437B681B691A437B685B6942EA030105
:1013F0007B685B685A1E7B681B680A43DA617B68FE
:1014000000225A627B68012283F8202000231846BC
:101410001037BD4680BD80B487B000AF78603960BA
:101420007B681B687B617B6893F82030FB74FB7CD6
:10143000012B03D0FB7C022B40F0AA807B69D3F800
:10144000003243F001027B69C3F800223B685B690C
:1014500003F01F03012202FA03F3FB607B69D3F858
:101460001C22FB68DB431A407B69C3F81C223B68E3
:10147000DB69002B23D17B69D3F80C22FB68DB43AB
:101480001A407B69C3F80C223B68DB6819043B688F
:101490005B689BB23A68526919437B69483243F8EA
:1014A00032103B689B6819043B681B689AB23B6822
:1014B0005B690A4379694833DB000B445A603B6837
:1014C000DB69012B22D17B69D3F80C22FB681A431C
:1014D0007B69C3F80C223B681B6819043B685B6896
:1014E0009BB23A68526919437B69483243F832101B
:1014F0003B689B6819043B68DB689AB23B685B6990
:101500000A4379694833DB000B445A603B689B69A6
:10151000002B09D17B69D3F80422FB68DB431A4016
:101520007B69C3F8042207E07B69D3F80422FB68D7
:101530001A437B69C3F804223B681B69002B09D15D
:101540007B69D3F81422FB68DB431A407B69C3F83C
:10155000142207E07B69D3F81422FB681A437B69E5
:10156000C3F814223B681B6A012B07D17B69D3F8AF
:101570001C22FB681A437B69C3F81C227B69D3F8E1
:10158000003223F001027B69C3F80022002306E049
:101590007B685B6A43F480227B685A6201231846A9
:1015A0001C37BD465DF8047B704780B584B000AF42
:1015B00078607B6893F82030DBB2012B2ED17B68FA
:1015C000022283F820207B681B681A687B681B68EE
:1015D00022F001021A6000F071FCF86012E000F0E5
:1015E0006DFC0246FB68D31A0A2B0BD97B685B6A39
:1015F00043F400327B685A627B68052283F820201E
:10160000012312E07B681B685B6803F00103002B79
:10161000E5D17B6800225A62002306E07B685B6AA2
:1016200043F400227B685A62012318461037BD46F6
:1016300080BD80B489B000AFF860B9607A603B606B
:10164000FB6893F82030FB77FB681B689B68BB61E5
:10165000FB7F012B03D0FB7F022B40F0AD80BB69E9
:1016600003F08063002B0AD1BB6903F00063002BF9
:1016700005D1BB6903F08053002B00F09580BB6956
:101680001B0E03F003037B6101227B699A403B68D8
:101690001A60BB689B68002B0DD1BB681B685A059C
:1016A000BB68DB68F96809681A437B6918331B015A
:1016B0000B441A600FE0BB685B68DA00BB689B688C
:1016C0001A43BB68DB68F96809681A437B691833F9
:1016D0001B010B441A60FB681968BB681A697B69B7
:1016E00018331B010B4404331A60BB681B7D012BAC
:1016F00011D1FB681A687B6918331B01134404334A
:101700001B68FA68116843F480727B6918331B0107
:101710000B4404331A607B6807331B781A067B6816
:1017200006331B781B041A437B6805331B781B02A6
:1017300013437A68043212781046FA68116843EA53
:1017400000027B691B010B4403F5C6731A607B68BA
:1017500003331B781A067B6802331B781B041A4379
:101760007B6801331B781B0213437A68127810469A
:10177000FA68116843EA00027B691B010B4403F518
:10178000C4731A60FB681A687B6918331B01134421
:101790001B68FA68116843F001027B6918331B016A
:1017A0000B441A6000230EE0FB685B6A43F40012EE
:1017B000FB685A62012306E0FB685B6A43F48022FF
:1017C000FB685A62012318462437BD465DF8047B46
:1017D000704780B487B000AFF860B9607A603B6052
:1017E000FB6893F82030FB75FB7D012B03D0FB7D5C
:1017F000022B40F0F380BB68002B0ED1FB681B6806
:10180000DB6803F00303002B16D1FB685B6A43F42B
:101810000012FB685A620123E7E0FB681B681B6942
:1018200003F00303002B07D1FB685B6A43F400124B
:10183000FB685A620123D8E0FB681A68BB681B3357
:101840001B0113441B6803F004027B689A607B68E9
:101850009B68002B0CD1FB681A68BB681B331B010B
:1018600013441B685B0DC3F30A027B681A600BE02C
:10187000FB681A68BB681B331B0113441B68DB0839
:1018800023F060427B685A60FB681A68BB681B33B0
:101890001B0113441B6803F002027B68DA60FB68DB
:1018A0001A68BB681B331B01134404331B6803F025
:1018B0000F027B681A61FB681A68BB681B331B0147
:1018C000134404331B681B0ADAB27B689A61FB6815
:1018D0001A68BB681B331B01134404331B681B0CC1
:1018E0009AB27B685A61FB681A68BB681B01134493
:1018F00003F5DC731B68DAB23B681A70FB681A6880
:10190000BB681B01134403F5DC731B681A0A3B68B0
:101910000133D2B21A70FB681A68BB681B0113440A
:1019200003F5DC731B681A0C3B680233D2B21A70E1
:10193000FB681A68BB681B01134403F5DC731B6862
:101940001A0E3B680333D2B21A70FB681A68BB6880
:101950001B01134403F5DE731A683B680433D2B2EB
:101960001A70FB681A68BB681B01134403F5DE7329
:101970001B681A0A3B680533D2B21A70FB681A68F2
:10198000BB681B01134403F5DE731B681A0C3B682C
:101990000633D2B21A70FB681A68BB681B01134485
:1019A00003F5DE731B681A0E3B680733D2B21A7058
:1019B000BB68002B08D1FB681B68DA68FB681B68F2
:1019C00042F02002DA6007E0FB681B681A69FB68D6
:1019D0001B6842F020021A61002306E0FB685B6A84
:1019E00043F48022FB685A62012318461C37BD4627
:1019F0005DF8047B704780B485B000AF78603960D3
:101A00007B6893F82030FB73FB7B012B02D0FB7BC0
:101A1000022B09D17B681B6859697B681B683A688F
:101A20000A435A61002306E07B685B6A43F4802224
:101A30007B685A62012318461437BD465DF8047B63
:101A4000704780B58AB000AF786000237B627B6806
:101A50001B685B693B627B681B685B68FB617B683A
:101A60001B689B68BB617B681B68DB687B617B686C
:101A70001B681B693B617B681B689B69FB603B6A59
:101A800003F00103002B7CD0BB6903F00103002BA2
:101A900023D07B681B6801229A60BB6903F00203B4
:101AA000002B03D07868FEF727FD16E0BB6903F032
:101AB0000403002B04D07B6A43F400637B620CE0D8
:101AC000BB6903F00803002B04D07B6A43F4805306
:101AD0007B6202E0786800F06BF9BB6903F4807305
:101AE000002B24D07B681B684FF480729A60BB691E
:101AF00003F40073002B03D07868FEF715FD16E0A1
:101B0000BB6903F48063002B04D07B6A43F4005369
:101B10007B620CE0BB6903F40063002B04D07B6A9A
:101B200043F480437B6202E0786800F04BF9BB69C4
:101B300003F48033002B24D07B681B684FF4803281
:101B40009A60BB6903F40033002B03D07868FEF77A
:101B500003FD16E0BB6903F48023002B04D07B6AED
:101B600043F400437B620CE0BB6903F40023002BC9
:101B700004D07B6A43F480337B6202E0786800F033
:101B80002BF93B6A03F00803002B0CD07B6903F0B0
:101B90001003002B07D07B6A43F400737B627B68E1
:101BA0001B681022DA603B6A03F00403002B0BD0A1
:101BB0007B6903F00803002B06D07B681B680822B2
:101BC000DA60786800F012F93B6A03F00203002B38
:101BD00009D07B681B68DB6803F00303002B02D08D
:101BE0007868FEF777FC3B6A03F04003002B0CD0CB
:101BF0003B6903F01003002B07D07B6A43F480633A
:101C00007B627B681B6810221A613B6A03F0200329
:101C1000002B0BD03B6903F00803002B06D07B6838
:101C20001B6808221A61786800F0F4F83B6A03F038
:101C30001003002B09D07B681B681B6903F00303AA
:101C4000002B02D0786800F0DBF83B6A03F4003325
:101C5000002B0BD0FB6903F01003002B06D07B6830
:101C60001B6810225A60786800F0DEF83B6A03F4C3
:101C70008033002B0BD0FB6903F00803002B06D048
:101C80007B681B6808225A60786800F0D7F83B6AC6
:101C900003F40043002B7BD0FB6903F00403002B0B
:101CA00072D03B6A03F48073002B08D0FB6803F00A
:101CB0000103002B03D07B6A43F001037B623B6A84
:101CC00003F40073002B08D0FB6803F00203002B21
:101CD00003D07B6A43F002037B623B6A03F48063B8
:101CE000002B08D0FB6803F00403002B03D07B6AB1
:101CF00043F004037B623B6A03F40063002B43D090
:101D0000FB6803F07003002B3ED0FB6803F0700308
:101D1000602B2BD0602B2ED8502B22D0502B2AD8C2
:101D2000402B19D0402B26D8302B10D0302B22D866
:101D3000102B02D0202B05D01DE07B6A43F0080356
:101D40007B6219E07B6A43F010037B6214E07B6ADC
:101D500043F020037B620FE07B6A43F040037B6229
:101D60000AE07B6A43F080037B6205E07B6A43F410
:101D700080737B6200E000BF7B681B689A697B68A8
:101D80001B6822F070029A617B681B6804225A600B
:101D90007B6A002B08D07B685A6A7B6A1A437B688F
:101DA0005A62786800F054F800BF2837BD4680BDFD
:101DB00080B483B000AF786000BF0C37BD465DF8DB
:101DC000047B704780B483B000AF786000BF0C37ED
:101DD000BD465DF8047B704780B483B000AF786087
:101DE00000BF0C37BD465DF8047B704780B483B0FC
:101DF00000AF786000BF0C37BD465DF8047B7047CC
:101E000080B483B000AF786000BF0C37BD465DF88A
:101E1000047B704780B483B000AF786000BF0C379C
:101E2000BD465DF8047B704780B483B000AF786036
:101E300000BF0C37BD465DF8047B704780B483B0AB
:101E400000AF786000BF0C37BD465DF8047B70477B
:101E500080B483B000AF786000BF0C37BD465DF83A
:101E6000047B704780B582B000AF0023FB71032074
:101E700001F0FDFF0F2003F0A7FD0346002B02D069
:101E80000123FB7101E0FFF71DF8FB7918460837C5
:101E9000BD4680BD80B400AF064B1B781A46064B8A
:101EA0001B681344044A136000BFBD465DF8047B01
:101EB000704700BF040000204C16002080B400AF23
:101EC000034B1B681846BD465DF8047B704700BF96
:101ED0004C16002080B588B000AF78607B68002B7E
:101EE00002D1012300F002BC964B9B6803F00C0367
:101EF000BB61944BDB6803F003037B617B681B6869
:101F000003F01003002B00F0E480BB69002B07D026
:101F1000BB690C2B40F08B807B69012B40F08780E4
:101F2000884B1B6803F00203002B05D07B689B697C
:101F3000002B01D10123D9E37B681A6A814B1B680E
:101F400003F00803002B04D07E4B1B6803F0F00362
:101F500005E07C4BD3F894301B0903F0F003934267
:101F600023D27B681B6A184600F0F2FD0346002B63
:101F700001D00123BAE3734B1B68724A43F0080394
:101F80001360704B1B6823F0F0027B681B6A6D497D
:101F900013430B606B4B5B6823F47F427B68DB6908
:101FA0001B02684913434B6025E0664B1B68654A7A
:101FB00043F008031360634B1B6823F0F0027B6857
:101FC0001B6A604913430B605E4B5B6823F47F42DE
:101FD0007B68DB691B025B4913434B60BB69002BC9
:101FE00009D17B681B6A184600F0B2FD0346002B3E
:101FF00001D001237AE300F0B5FC0246514B9B6807
:102000001B0903F00F035049CB5C03F01F0322FAB6
:1020100003F34E4A13604E4B1B68184603F0D4FC82
:102020000346FB73FB7B002B52D0FB7B5EE37B689C
:102030009B69002B32D0434B1B68424A43F001039B
:102040001360FFF73BFF386108E0FFF737FF0246F8
:102050003B69D31A022B01D9032347E3394B1B6891
:1020600003F00203002BF0D0364B1B68354A43F0D7
:1020700008031360334B1B6823F0F0027B681B6A74
:10208000304913430B602F4B5B6823F47F427B681E
:10209000DB691B022B4913434B601AE0294B1B6879
:1020A000284A23F001031360FFF708FF386108E0B6
:1020B000FFF704FF02463B69D31A022B01D9032321
:1020C00014E3204B1B6803F00203002BF0D100E067
:1020D00000BF7B681B6803F00103002B73D0BB6952
:1020E000082B05D0BB690C2B0ED17B69032B0BD1C0
:1020F000144B1B6803F40033002B63D07B685B68D0
:10210000002B5FD10123F1E27B685B68B3F5803F70
:1021100006D10C4B1B680B4A43F48033136025E057
:102120007B685B68B3F5A02F14D1064B1B68054A8A
:1021300043F480231360034B1B68024A43F480334B
:10214000136013E0001002405094000808000020C3
:1021500000000020A04B1B689F4A23F480331360CB
:102160009D4B1B689C4A23F4802313607B685B684B
:10217000002B13D0FFF7A2FE386108E0FFF79EFEA8
:1021800002463B69D31A642B01D90323AEE2924B7A
:102190001B6803F40033002BF0D014E0FFF78EFE31
:1021A000386108E0FFF78AFE02463B69D31A642BC8
:1021B00001D903239AE2884B1B6803F40033002BF8
:1021C000F0D100E000BF7B681B6803F00203002B26
:1021D00060D0BB69042B05D0BB690C2B19D17B697E
:1021E000022B16D17C4B1B6803F48063002B05D0B7
:1021F0007B68DB68002B01D1012377E2764B5B68BB
:1022000023F0F8527B681B691B06734913434B602C
:1022100040E07B68DB68002B23D06F4B1B686E4A65
:1022200043F480731360FFF749FE386108E0FFF75D
:1022300045FE02463B69D31A022B01D9032355E21E
:10224000654B1B6803F48063002BF0D0624B5B6826
:1022500023F0F8527B681B691B065F4913434B60F0
:1022600018E05D4B1B685C4A23F480731360FFF732
:1022700025FE386108E0FFF721FE02463B69D31ACC
:10228000022B01D9032331E2534B1B6803F4806313
:10229000002BF0D17B681B6803F00803002B3CD0B7
:1022A0007B685B69002B1CD04B4BD3F894304A4AB7
:1022B00043F00103C2F89430FFF700FE386108E0F4
:1022C000FFF7FCFD02463B69D31A022B01D9032319
:1022D0000CE2414BD3F8943003F00203002BEFD013
:1022E0001BE03D4BD3F894303B4A23F00103C2F886
:1022F0009430FFF7E3FD386108E0FFF7DFFD0246A9
:102300003B69D31A022B01D90323EFE1324BD3F8F7
:10231000943003F00203002BEFD17B681B6803F0BD
:102320000403002B00F0A6800023FB772A4B9B6D53
:1023300003F08053002B0DD1274B9B6D264A43F0B1
:1023400080539365244B9B6D03F08053BB60BB6847
:102350000123FB77214B1B6803F48073002B18D1FA
:102360001E4B1B681D4A43F480731360FFF7A6FDE4
:10237000386108E0FFF7A2FD02463B69D31A022B41
:1023800001D90323B2E1154B1B6803F48073002BC2
:10239000F0D07B689B68012B08D10F4BD3F89030AD
:1023A0000D4A43F00103C2F8903029E07B689B6836
:1023B000052B15D1084BD3F89030074A43F004039E
:1023C000C2F89030044BD3F89030034A43F0010335
:1023D000C2F8903014E000BF0010024000700040CE
:1023E0009A4BD3F89030994A23F00103C2F8903009
:1023F000964BD3F89030954A23F00403C2F89030FE
:102400007B689B68002B16D0FFF758FD38610AE007
:10241000FFF754FD02463B69D31A41F288329342DA
:1024200001D9032362E1894BD3F8903003F0020312
:10243000002BEDD015E0FFF741FD38610AE0FFF712
:102440003DFD02463B69D31A41F28832934201D9DD
:1024500003234BE17D4BD3F8903003F00203002BB4
:10246000EDD1FB7F012B05D1784B9B6D774A23F093
:10247000805393657B681B6803F02003002B3CD0DE
:102480007B685B6A002B1CD0704BD3F898306F4A86
:1024900043F00103C2F89830FFF710FD386108E0FF
:1024A000FFF70CFD02463B69D31A022B01D9032327
:1024B0001CE1664BD3F8983003F00203002BEFD0F9
:1024C0001BE0624BD3F89830604A23F00103C2F856
:1024D0009830FFF7F3FC386108E0FFF7EFFC0246A5
:1024E0003B69D31A022B01D90323FFE0574BD3F8E2
:1024F000983003F00203002BEFD17B689B6A002B1E
:1025000000F0F3807B689B6A022B40F0C9804F4B40
:10251000DB687B617B6903F003027B68DB6A9A42BC
:102520002CD17B6903F070027B681B6B013B1B01A4
:102530009A4223D17B6903F4FE427B685B6B1B02EA
:102540009A421BD17B6903F078427B689B6BDB0668
:102550009A4213D17B6903F4C0027B68DB6B5B0892
:10256000013B5B059A4209D17B6903F0C0627B683D
:102570001B6C5B08013B5B069A426BD0BB690C2B62
:1025800062D0324B1B6803F08063002B01D0012323
:10259000ACE02E4B1B682D4A23F080731360FFF7CD
:1025A0008DFC386108E0FFF789FC02463B69D31ACD
:1025B000022B01D9032399E0244B1B6803F000731D
:1025C000002BF0D1214BDA68214B13407A68D16A95
:1025D0007A68126B013A120111437A68526B120247
:1025E00011437A68D26B5208013A520511437A6856
:1025F000126C5208013A520611437A68926BD20665
:102600000A4312491343CB60104B1B680F4A43F037
:10261000807313600D4BDB680C4A43F08073D3600A
:10262000FFF74CFC386108E0FFF748FC02463B69C5
:10263000D31A022B01D9032358E0044B1B6803F083
:102640000073002BF0D050E001234FE00010024057
:102650008C809D01274B1B6803F00073002B44D135
:10266000244B1B68234A43F080731360214BDB68C3
:10267000204A43F08073D360FFF720FC386108E004
:10268000FFF71CFC02463B69D31A022B01D9032336
:102690002CE0184B1B6803F00073002BF0D024E0F3
:1026A000BB690C2B1FD0134B1B68124A23F080739D
:1026B0001360FFF703FC386108E0FFF7FFFB0246F9
:1026C0003B69D31A022B01D903230FE0094B1B6886
:1026D00003F00073002BF0D1064BDA680549064B76
:1026E0001340CB6001E0012300E0002318462037AF
:1026F000BD4680BD00100240FCFFEEFE80B584B0F8
:1027000000AF786039607B68002B01D10123E7E0DE
:10271000754B1B6803F007033A689A4210D9724B55
:102720001B6823F0070270493B6813430B606E4B34
:102730001B6803F007033A689A4201D00123CFE0F7
:102740007B681B6803F00203002B10D07B689A683B
:10275000664B9B6803F0F0039A4208D9634B9B6871
:1027600023F0F0027B689B68604913438B607B68B1
:102770001B6803F00103002B4CD07B685B68032BC4
:1027800007D15A4B1B6803F00073002B21D10123A2
:10279000A6E07B685B68022B07D1544B1B6803F4EF
:1027A0000033002B15D101239AE07B685B68002B76
:1027B00007D14E4B1B6803F00203002B09D1012304
:1027C0008EE04A4B1B6803F48063002B01D1012388
:1027D00086E0464B9B6823F003027B685B684349B5
:1027E00013438B60FFF76AFBF8600AE0FFF766FBB4
:1027F0000246FB68D31A41F28832934201D903237F
:102800006EE03A4B9B6803F00C027B685B689B00B0
:102810009A42EBD17B681B6803F00203002B10D0B7
:102820007B689A68314B9B6803F0F0039A4208D2A8
:102830002E4B9B6823F0F0027B689B682B49134367
:102840008B60294B1B6803F007033A689A4210D249
:10285000254B1B6823F0070223493B6813430B6099
:10286000214B1B6803F007033A689A4201D0012309
:1028700036E07B681B6803F00403002B08D01B4B79
:102880009B6823F4E0627B68DB68184913438B6024
:102890007B681B6803F00803002B09D0134B9B686F
:1028A00023F460527B681B69DB00104913438B6083
:1028B00000F058F802460D4B9B681B0903F00F030C
:1028C0000B49CB5C03F01F0322FA03F3094A1360A0
:1028D000094B1B68184603F077F80346FB72FB7A36
:1028E00018461037BD4680BD00200240001002404F
:1028F00050940008080000200000002080B58AB035
:1029000000AFF860B9607A60154BDB6C144A43F095
:102910000103D364124BDB6C03F001033B613B69A1
:102920004FF480737B610223BB6102233B6200236F
:10293000FB6100237B6207F1140319464FF09040BE
:1029400000F04EFC064B9B6823F0FE42B9687B68A2
:102950000B43034913438B6000BF2837BD4680BD3E
:102960000010024080B489B000AF0023FB61002357
:10297000BB613E4B9B6803F00C033B613B4BDB6848
:1029800003F00303FB603B69002B05D03B690C2B74
:1029900021D1FB68012B1ED1344B1B6803F00803C7
:1029A000002B07D1314BD3F894301B0A03F00F03EF
:1029B000FB6105E02D4B1B681B0903F00F03FB6156
:1029C0002B4AFB6952F82330FB613B69002B0DD188
:1029D000FB69BB610AE03B69042B02D1254BBB615B
:1029E00004E03B69082B01D1234BBB613B690C2BF5
:1029F00034D11E4BDB6803F00303BB60BB68022BC2
:102A000003D0BB68032B03D005E01A4B7B6105E0C4
:102A1000194B7B6102E0FB697B6100BF134BDB68F4
:102A20001B0903F0070301337B60104BDB681B0AB3
:102A300003F07F037A6903FB02F27B68B2FBF3F3D6
:102A40007B610A4BDB685B0E03F0030301335B0021
:102A50003B607A693B68B2FBF3F3BB61BB69184624
:102A60002437BD465DF8047B704700BF001002406C
:102A7000689400080024F40000127A0080B400AFCB
:102A8000034B1B681846BD465DF8047B704700BFCA
:102A90000800002080B500AFFFF7F0FF0246064BAC
:102AA0009B681B0A03F007030449CB5C03F01F0378
:102AB00022FA03F3184680BD00100240609400081B
:102AC00080B500AFFFF7DAFF0246064B9B68DB0AD2
:102AD00003F007030449CB5C03F01F0322FA03F35E
:102AE000184680BD001002406094000880B483B096
:102AF00000AF786039607B680F221A60124B9B68C8
:102B000003F003027B685A600F4B9B6803F0F002EE
:102B10007B689A600C4B9B6803F4E0627B68DA6028
:102B2000094B9B68DB0803F4E0627B681A61074B82
:102B30001B6803F007023B681A6000BF0C37BD46F4
:102B40005DF8047B704700BF001002400020024087
:102B500080B586B000AF786000233B612A4B9B6D47
:102B600003F08053002B03D001F070F8786114E07B
:102B7000254B9B6D244A43F080539365224B9B6DFC
:102B800003F08053FB60FB6801F060F878611E4B36
:102B90009B6D1D4A23F0805393657B69B3F5007FDD
:102BA0000BD17B68802B19D97B68A02B02D902231B
:102BB0003B6113E001233B6110E07B68802B02D96D
:102BC00003233B610AE07B68802B02D102233B6137
:102BD00004E07B68702B01D101233B610B4B1B6828
:102BE00023F0070209493B6913430B60074B1B683D
:102BF00003F007033A699A4201D0012300E0002361
:102C000018461837BD4680BD001002400020024023
:102C100080B586B000AF78600023FB740023BB74DE
:102C20007B681B6803F40063002B31D07B68DB6B8F
:102C3000B3F5400F1AD0B3F5400F14D8002B09D0CC
:102C4000B3F5000F0FD15D4BDB685C4A43F4803372
:102C5000D3600CE07B6804330021184600F0CEF905
:102C60000346FB7403E00123FB7400E000BFFB7C20
:102C7000002B0BD1514BD3F8883023F440027B68F2
:102C8000DB6B4E491343C1F8883001E0FB7CBB7419
:102C90007B681B6803F40033002B00F09E80002348
:102CA0007B74464B9B6D03F08053002B01D10123B5
:102CB00000E00023002B0DD0404B9B6D3F4A43F0BA
:102CC000805393653D4B9B6D03F08053BB60BB68A5
:102CD00001237B743A4B1B68394A43F480731360B9
:102CE000FFF7ECF8F86009E0FFF7E8F80246FB6848
:102CF000D31A022B02D90323FB7405E0304B1B6867
:102D000003F48073002BEFD0FB7C002B5AD12B4BAC
:102D1000D3F8903003F440737B617B69002B1ED0A5
:102D20007B681B6D7A699A4219D0244BD3F8903096
:102D300023F440737B61214BD3F890301F4A43F456
:102D40008033C2F890301D4BD3F890301B4A23F4E7
:102D50008033C2F89030194A7B69C2F890307B69A1
:102D600003F00103002B16D0FFF7A8F8F8600BE082
:102D7000FFF7A4F80246FB68D31A41F28832934267
:102D800002D90323FB7406E00C4BD3F8903003F018
:102D90000203002BECD0FB7C002B0BD1074BD3F8AC
:102DA000903023F440727B681B6D04491343C1F8D3
:102DB000903009E0FB7CBB7406E000BF00100240CD
:102DC00000700040FB7CBB747B7C012B05D18A4BDF
:102DD0009B6D894A23F0805393657B681B6803F0E1
:102DE0000103002B0AD0844BD3F8883023F0030270
:102DF0007B681B6A80491343C1F888307B681B6875
:102E000003F00203002B0AD07B4BD3F8883023F069
:102E10000C027B685B6A78491343C1F888307B6891
:102E20001B6803F02003002B0AD0734BD3F88830C3
:102E300023F440627B689B6A6F491343C1F8883072
:102E40007B681B6803F40073002B0AD06A4BD3F82D
:102E5000883023F440227B685B6B67491343C1F8D9
:102E600088307B681B6803F48063002B0AD0624BB8
:102E7000D3F8883023F440127B689B6B5E49134380
:102E8000C1F888307B681B6803F04003002B0AD030
:102E9000594BD3F8883023F440527B68DB6A56499B
:102EA0001343C1F888307B681B6803F48073002BE0
:102EB0000AD0514BD3F8883023F440327B681B6B27
:102EC0004D491343C1F888307B681B6803F40053F5
:102ED000002B28D0484BD3F8883023F040627B6821
:102EE0001B6C45491343C1F888307B681B6CB3F1F8
:102EF000006F06D1404BDB683F4A43F48013D36038
:102F000011E07B681B6CB3F1806F0CD17B680433DC
:102F10000121184600F072F80346FB74FB7C002B7D
:102F200001D0FB7CBB747B681B6803F48023002BFF
:102F300028D0314BD3F8883023F040627B685B6C3B
:102F40002D491343C1F888307B685B6CB3F1006F87
:102F500006D1294BDB68284A43F48013D36011E083
:102F60007B685B6CB3F1806F0CD17B68043301210B
:102F7000184600F043F80346FB74FB7C002B01D09D
:102F8000FB7CBB747B681B6803F48043002B1CD064
:102F9000194BD3F8883023F040527B689B6C16495C
:102FA0001343C1F888307B689B6CB3F1805F0CD110
:102FB0007B6804330221184600F020F80346FB74B6
:102FC000FB7C002B01D0FB7CBB747B681B6803F48B
:102FD0000043002B0AD0084BD3F8883023F08042FE
:102FE0007B68DB6C04491343C1F88830BB7C18460E
:102FF0001837BD4680BD00BF0010024080B584B0C8
:1030000000AF786039600023FB73744BDB6803F01A
:103010000303002B18D0714BDB6803F003027B68BD
:103020001B689A420DD17B681B68002B09D06B4B43
:10303000DB681B0903F007035A1C7B685B689A4234
:1030400047D00123FB7344E07B681B68032B18D037
:10305000032B25D8012B02D0022B09D020E05F4B97
:103060001B6803F00203002B1DD10123FB731AE040
:103070005A4B1B6803F48063002B16D10123FB73AA
:1030800013E0564B1B6803F40033002B0FD1534B56
:103090001B6803F48023002B09D10123FB7306E096
:1030A0000123FB7304E000BF02E000BF00E000BFAB
:1030B000FB7B002B0DD1494BDB6823F073027B684F
:1030C00019687B685B68013B1B010B434349134351
:1030D000CB60FB7B002B7CD1404B1B683F4A23F02D
:1030E00080631360FEF7EAFEB86009E0FEF7E6FED3
:1030F0000246BB68D31A022B02D90323FB7305E0F7
:10310000364B1B6803F00063002BEFD1FB7B002BD9
:103110005FD13B68002B10D1304B1B6923F0784303
:1031200023F4FE437A68926811027A68D268D20664
:103130000A432A4913430B6127E03B68012B12D154
:10314000264B1B6923F4C00323F4FE437A6892687C
:1031500011027A6812695208013A52050A431F495E
:1031600013430B6111E01D4B1B6923F0C06323F473
:10317000FE437A68926811027A6852695208013AED
:1031800052060A43154913430B61144B1B68134A3B
:1031900043F080631360FEF791FEB86009E0FEF72C
:1031A0008DFE0246BB68D31A022B02D90323FB73A0
:1031B00005E00A4B1B6803F00063002BEFD0FB7B9C
:1031C000002B06D1054B1A697B689B6903491343A1
:1031D0000B61FB7B18461037BD4680BD00100240D6
:1031E00080B487B000AF7860396000237B6148E12C
:1031F0003B681A6801217B6901FA03F31340FB6005
:10320000FB68002B00F03A813B685B6803F0030326
:10321000012B05D03B685B6803F00303022B30D120
:103220007B689B683B617B695B00032202FA03F3C6
:10323000DB433A6913403B613B68DA687B695B00BA
:1032400002FA03F33A6913433B617B683A699A6077
:103250007B685B683B6101227B6902FA03F3DB4315
:103260003A6913403B613B685B681B0903F001024C
:103270007B6902FA03F33A6913433B617B683A695D
:103280005A603B685B6803F00303032B17D07B682D
:10329000DB683B617B695B00032202FA03F3DB43DB
:1032A0003A6913403B613B689A687B695B0002FAAC
:1032B00003F33A6913433B617B683A69DA603B6820
:1032C0005B6803F00303022B23D17B69DA087B6878
:1032D000083253F822303B617B6903F007039B00FF
:1032E0000F2202FA03F3DB433A6913403B613B6868
:1032F0001A697B6903F007039B0002FA03F33A693A
:1033000013433B617B69DA087B680832396943F80B
:1033100022107B681B683B617B695B00032202FA19
:1033200003F3DB433A6913403B613B685B6803F09E
:1033300003027B695B0002FA03F33A6913433B61C2
:103340007B683A691A603B685B6803F44033002B82
:1033500000F09480524B1B6E514A43F001031366F8
:103360004F4B1B6E03F00103BB60BB684D4A7B698A
:103370009B08023352F823303B617B6903F003035F
:103380009B000F2202FA03F3DB433A6913403B61CF
:103390007B68B3F1904F0DD07B68434A934207D0CE
:1033A0007B68424A934201D1022304E0072302E0F2
:1033B000012300E000237A6902F0030292009340A7
:1033C0003A6913433B6137497B699B0802333A6989
:1033D00041F82320364B9B683B61FB68DB433A692D
:1033E00013403B613B685B6803F48013002B03D000
:1033F0003A69FB6813433B612D4A3B6993602C4B50
:10340000DB683B61FB68DB433A6913403B613B6827
:103410005B6803F40013002B03D03A69FB68134385
:103420003B61234A3B69D360214B5B683B61FB688E
:10343000DB433A6913403B613B685B6803F400334C
:10344000002B03D03A69FB6813433B61184A3B6980
:103450005360174B1B683B61FB68DB433A691340C1
:103460003B613B685B6803F48033002B03D03A690F
:10347000FB6813433B610E4A3B6913607B69013370
:103480007B613B681A687B6922FA03F3002B7FF4A7
:10349000AFAE00BF00BF1C37BD465DF8047B704770
:1034A00000100240000001400004004800080048ED
:1034B0000004014080B483B000AF78600B467B808D
:1034C00013467B707B78002B03D07A887B689A61E7
:1034D00002E07A887B689A6200BF0C37BD465DF8CF
:1034E000047B704780B582B000AF0346FB80084B79
:1034F0005A69FB881340002B06D0054AFB885361AC
:10350000FB881846FDF78EF800BF0837BD4680BD22
:103510000004014080B582B000AF78607B68002B6A
:1035200001D1012381E07B6893F84130DBB2002BAD
:1035300006D17B68002283F840207868FDF73EFDC5
:103540007B68242283F841207B681B681A687B68AB
:103550001B6822F001021A607B685A687B681B684E
:1035600022F070621A617B681B689A687B681B682E
:1035700022F400429A607B68DB68012B07D17B68EC
:103580009A687B681B6842F400429A6006E07B6898
:103590009A687B681B6842F404429A607B68DB6827
:1035A000022B04D17B681B684FF400625A607B6871
:1035B0001B685B687A68126843F0007343F4004349
:1035C00053607B681B68DA687B681B6822F40042E2
:1035D000DA607B681A697B685B6942EA03017B6891
:1035E0009B691A027B681B680A43DA607B68D969A9
:1035F0007B681A6A7B681B680A431A607B681B68D1
:103600001A687B681B6842F001021A607B6800221E
:103610005A647B68202283F841207B6800221A6369
:103620007B68002283F84220002318460837BD46F5
:1036300080BD80B483B000AF786039607B6893F858
:103640004130DBB2202B38D17B6893F84030012B1E
:1036500001D1022332E07B68012283F840207B689D
:10366000242283F841207B681B681A687B681B68EA
:1036700022F001021A607B681B681A687B681B686D
:1036800022F480521A607B681B6819687B681B688B
:103690003A680A431A607B681B681A687B681B6873
:1036A00042F001021A607B68202283F841207B6887
:1036B000002283F84020002300E0022318460C3744
:1036C000BD465DF8047B704780B485B000AF78607C
:1036D00039607B6893F84130DBB2202B39D17B68AD
:1036E00093F84030012B01D1022333E07B680122A3
:1036F00083F840207B68242283F841207B681B6884
:103700001A687B681B6822F001021A607B681B68DC
:103710001B68FB60FB6823F47063FB603B681B0263
:10372000FA681343FB607B681B68FA681A607B6861
:103730001B681A687B681B6842F001021A607B688C
:10374000202283F841207B68002283F84020002358
:1037500000E0022318461437BD465DF8047B70472D
:1037600080B485B000AF78607B68002B01D1012365
:1037700098E07B681B681A464D4B9A420FD87B68CD
:103780001B681A464B4B13444B4AA2FB03231B09ED
:103790009A007B685A647B68484A1A640EE07B682A
:1037A0001B681A46464B1344434AA2FB03231B09DA
:1037B0009A007B685A647B68424A1A647B680222DA
:1037C00083F825207B681B681B68FB60FB6823F47B
:1037D000FF4323F07003FB607B689A687B68DB68BB
:1037E0001A437B681B691A437B685B691A437B68D1
:1037F0009B691A437B68DB691A437B681B6A134326
:10380000FA681343FB607B681B68FA681A607B6880
:103810009B68B3F5804F39D07B681B6C274A934275
:103820001AD1294B1A687B685B6C03F01C030F21CB
:1038300001FA03F3DB43244913400B60224B1A685F
:103840007B6859687B685B6C03F01C0301FA03F327
:103850001D4913430B6019E01C4B1A687B685B6CB5
:1038600003F01C030F2101FA03F3DB431749134054
:103870000B60164B1A687B6859687B685B6C03F0B9
:103880001C0301FA03F3114913430B607B68002208
:10389000DA637B68012283F825207B68002283F8A5
:1038A0002420002318461437BD465DF8047B70477A
:1038B00007040240F8FFFDBFCDCCCCCC0000024095
:1038C000F8FBFDBF00040240A8000240A80402402B
:1038D00080B586B000AFF860B9607A603B600023C5
:1038E000FB75FB6893F82430012B01D102234BE0D8
:1038F000FB68012283F82420FB6893F82530DBB2B3
:10390000012B3AD1FB68022283F82520FB680022B4
:10391000DA63FB681B681A68FB681B6822F0010207
:103920001A603B687A68B968F86800F05FF9FB686C
:103930001B6B002B08D0FB681B681A68FB681B68B0
:1039400042F00E021A600FE0FB681B681A68FB6801
:103950001B6822F004021A60FB681B681A68FB6887
:103960001B6842F00A021A60FB681B681A68FB6851
:103970001B6842F001021A6005E0FB68002283F830
:1039800024200223FB75FB7D18461837BD4680BDF9
:1039900080B485B000AF78600023FB737B6893F838
:1039A0002530DBB2022B08D07B680422DA637B6807
:1039B000002283F82420012322E07B681B681A6818
:1039C0007B681B6822F00E021A607B681B681A680D
:1039D0007B681B6822F001021A607B685B6C03F055
:1039E0001C027B681B6C012101FA02F25A607B68A1
:1039F000012283F825207B68002283F82420FB7BAA
:103A000018461437BD465DF8047B704780B584B016
:103A100000AF78600023FB737B6893F82530DBB23E
:103A2000022B05D07B680422DA630123FB7329E0B3
:103A30007B681B681A687B681B6822F00E021A609C
:103A40007B681B681A687B681B6822F001021A6099
:103A50007B685B6C03F01C027B681B6C012101FA24
:103A600002F25A607B68012283F825207B680022DD
:103A700083F824207B689B6B002B03D07B689B6BB7
:103A800078689847FB7B18461037BD4680BD80B5E7
:103A900084B000AF78607B681B6C1B68FB607B6840
:103AA0001B681B68BB607B685B6C03F01C03042213
:103AB0009A40FB681340002B26D0BB6803F0040338
:103AC000002B21D07B681B681B6803F02003002BB0
:103AD00007D17B681B681A687B681B6822F00402A8
:103AE0001A607B685B6C03F01C027B681B6C042112
:103AF00001FA02F25A607B681B6B002B71D07B6865
:103B00001B6B786898476CE07B685B6C03F01C0368
:103B100002229A40FB681340002B2ED0BB6803F0B2
:103B20000203002B29D07B681B681B6803F020036D
:103B3000002B0BD17B681B681A687B681B6822F01E
:103B40000A021A607B68012283F825207B685B6C7F
:103B500003F01C027B681B6C022101FA02F25A601E
:103B60007B68002283F824207B68DB6A002B38D036
:103B70007B68DB6A7868984733E07B685B6C03F0AE
:103B80001C0308229A40FB681340002B2AD0BB6814
:103B900003F00803002B25D07B681B681A687B683C
:103BA0001B6822F00E021A607B685B6C03F01C023B
:103BB0007B681B6C012101FA02F25A607B680122CA
:103BC000DA637B68012283F825207B68002283F872
:103BD00024207B685B6B002B04D07B685B6B786870
:103BE000984700BF00BF1037BD4680BD80B485B088
:103BF00000AFF860B9607A603B60FB685B6C03F013
:103C00001C02FB681B6C012101FA02F25A60FB687E
:103C10001B683A685A60FB689B68102B08D1FB68E8
:103C20001B687A689A60FB681B68BA68DA6007E00C
:103C3000FB681B68BA689A60FB681B687A68DA6080
:103C400000BF1437BD465DF8047B704780B400AFF9
:103C5000044B1B6803F4C0631846BD465DF8047B43
:103C6000704700BF0070004080B485B000AF78603E
:103C70007B68B3F5007F30D1234B1B6803F4C0632E
:103C8000B3F5007F38D0204B1B6823F4C0631E4A75
:103C900043F4007313601D4B1B68322202FB03F3D5
:103CA0001B4AA2FB03239B0C0133FB6002E0FB6871
:103CB000013BFB60144B5B6903F48063B3F5806FD9
:103CC00002D1FB68002BF2D10F4B5B6903F48063D8
:103CD000B3F5806F10D103230FE00B4B1B6803F487
:103CE000C063B3F5806F07D0074B1B6823F4C06334
:103CF000054A43F480631360002318461437BD4619
:103D00005DF8047B704700BF007000400800002091
:103D100083DE1B4380B485B000AF78607B6803F01E
:103D20000703FB600C4BDB68BB60BA684FF6FF0310
:103D30001340BB60FB681A02BB68134343F0BF63C8
:103D400043F40033BB60044ABB68D36000BF143740
:103D5000BD465DF8047B704700ED00E080B400AF25
:103D6000044BDB681B0A03F007031846BD465DF8E9
:103D7000047B704700ED00E080B483B000AF0346E1
:103D8000FB7197F90730002B0BDBFB7903F01F0267
:103D9000074997F907305B09012000FA02F241F860
:103DA000232000BF0C37BD465DF8047B704700BF81
:103DB00000E100E080B483B000AF03463960FB71DE
:103DC00097F90730002B0ADB3B68DAB20C4997F908
:103DD00007301201D2B20B4483F800230AE03B689B
:103DE000DAB20849FB7903F00F03043B1201D2B2A7
:103DF0000B441A7600BF0C37BD465DF8047B704754
:103E000000E100E000ED00E080B489B000AFF860B0
:103E1000B9607A60FB6803F00703FB61FB69C3F1DB
:103E20000703042B28BF0423BB61FB690433062B63
:103E300002D9FB69033B00E000237B614FF0FF32B6
:103E4000BB6902FA03F3DA43BB681A407B699A4004
:103E50004FF0FF317B6901FA03F3D9437B680B40D4
:103E6000134318462437BD465DF8047B704780B580
:103E700082B000AF78607868FFF74CFF00BF08376A
:103E8000BD4680BD80B586B000AF0346B9607A609C
:103E9000FB7300237B61FFF761FF78617A68B96883
:103EA0007869FFF7B1FF024697F90F3011461846BF
:103EB000FFF780FF00BF1837BD4680BD80B582B0D8
:103EC00000AF0346FB7197F907301846FFF754FF20
:103ED00000BF0837BD4680BD80B582B000AF7860B6
:103EE0007B68002B01D1012349E07B6893F83D30CA
:103EF000DBB2002B06D17B68002283F83C20786877
:103F000000F041F87B68022283F83D207B681A6844
:103F10007B6804331946104600F0DCF97B68012207
:103F200083F848207B68012283F83E207B680122C9
:103F300083F83F207B68012283F840207B680122C0
:103F400083F841207B68012283F842207B680122AC
:103F500083F843207B68012283F844207B68012298
:103F600083F845207B68012283F846207B68012284
:103F700083F847207B68012283F83D200023184600
:103F80000837BD4680BD80B483B000AF786000BF05
:103F90000C37BD465DF8047B7047000080B485B0E7
:103FA00000AF78607B6893F83D30DBB2012B01D025
:103FB00001233BE07B68022283F83D207B681B687D
:103FC000DA687B681B6842F00102DA607B681B6874
:103FD000194A934209D07B681B68B3F1804F04D023
:103FE0007B681B68154A934215D17B681B689A68E9
:103FF000134B1340FB60FB68062B15D0FB68B3F531
:10400000803F11D07B681B681A687B681B6842F090
:1040100001021A6008E07B681B681A687B681B68ED
:1040200042F001021A6000E000BF00231846143776
:10403000BD465DF8047B7047002C01400040014004
:104040000700010080B582B000AF78607B681B6814
:104050001B6903F00203022B22D17B681B68DB681B
:1040600003F00203022B1BD17B681B686FF0020276
:104070001A617B6801221A777B681B689B6903F0D1
:104080000303002B03D0786800F005F905E0786899
:1040900000F0F7F8786800F008F97B6800221A77DA
:1040A0007B681B681B6903F00403042B22D17B6827
:1040B0001B68DB6803F00403042B1BD17B681B68BF
:1040C0006FF004021A617B6802221A777B681B6812
:1040D0009B6903F44073002B03D0786800F0DBF891
:1040E00005E0786800F0CDF8786800F0DEF87B68CD
:1040F00000221A777B681B681B6903F00803082BF2
:1041000022D17B681B68DB6803F00803082B1BD1F6
:104110007B681B686FF008021A617B6804221A77BB
:104120007B681B68DB6903F00303002B03D078680E
:1041300000F0B1F805E0786800F0A3F8786800F0C6
:10414000B4F87B6800221A777B681B681B6903F050
:104150001003102B22D17B681B68DB6803F010036F
:10416000102B1BD17B681B686FF010021A617B68F3
:1041700008221A777B681B68DB6903F44073002B05
:1041800003D0786800F087F805E0786800F079F8E7
:10419000786800F08AF87B6800221A777B681B68D1
:1041A0001B6903F00103012B0ED17B681B68DB68E0
:1041B00003F00103012B07D17B681B686FF001023C
:1041C0001A617868FCF7F0FD7B681B681B6903F0D7
:1041D0008003802B0ED17B681B68DB6803F08003B3
:1041E000802B07D17B681B686FF080021A617868AA
:1041F00000F0DEF87B681B681B6903F48073B3F57D
:10420000807F0ED17B681B68DB6803F08003802B06
:1042100007D17B681B686FF480721A61786800F0C0
:10422000D1F87B681B681B6903F04003402B0ED15B
:104230007B681B68DB6803F04003402B07D17B6879
:104240001B686FF040021A61786800F038F87B68EC
:104250001B681B6903F02003202B0ED17B681B68B1
:10426000DB6803F02003202B07D17B681B686FF00D
:1042700020021A61786800F091F800BF0837BD4647
:1042800080BD80B483B000AF786000BF0C37BD46FE
:104290005DF8047B704780B483B000AF786000BFE6
:1042A0000C37BD465DF8047B704780B483B000AF27
:1042B000786000BF0C37BD465DF8047B704780B462
:1042C00083B000AF786000BF0C37BD465DF8047B5B
:1042D0007047000080B485B000AF786039607B68BB
:1042E0001B68FB607B682A4A934203D07B68B3F16A
:1042F000804F08D1FB6823F07003FB603B685B686C
:10430000FA681343FB607B68214A93420BD07B68B9
:10431000B3F1804F07D07B681E4A934203D07B687D
:104320001D4A934208D1FB6823F44073FB603B684D
:10433000DB68FA681343FB60FB6823F080023B688C
:104340005B691343FB607B68FA681A603B689A6894
:104350007B68DA623B681A687B689A627B680C4A01
:10436000934207D07B680B4A934203D07B680A4A8A
:10437000934203D13B681A697B681A637B68012208
:104380005A6100BF1437BD465DF8047B704700BF1B
:10439000002C0140004001400044014080B483B043
:1043A00000AF786000BF0C37BD465DF8047B7047F6
:1043B00080B483B000AF786000BF0C37BD465DF8B5
:1043C000047B704780B483B000AF786000BF0C37C7
:1043D000BD465DF8047B704780B582B000AF786061
:1043E0007B68002B01D1012340E07B689B6F002B91
:1043F00006D17B68002283F874207868FCF736FECB
:104400007B6824229A677B681B681A687B681B6834
:1044100022F001021A60786800F028FC0346012BA4
:1044200001D1012322E07B685B6A002B02D078680F
:1044300000F048FE7B681B685A687B681B6822F4A2
:1044400090425A607B681B689A687B681B6822F000
:104450002A029A607B681B681A687B681B6842F0B6
:1044600001021A60786800F0CFFE0346184608374C
:10447000BD4680BD80B58AB000AFF860B960134614
:10448000FB80FB689B6F202B78D1BB68002B02D090
:10449000FB88002B01D1012371E0FB6893F8743095
:1044A000012B01D102236AE0FB68012283F874200A
:1044B000FB68BA68DA64FB68FA88A3F85020FB68E6
:1044C000FA88A3F85220FB680022C3F88020FB681A
:1044D00021229A67FB68DB6E002B2BD0FB68DB6E1A
:1044E000294ADA62FB68DB6E284A1A63FB68DB6ED6
:1044F000274A5A63FB68DB6E00229A63FB68D86E1A
:10450000FB68DB6C1946FB681B6828331A46FB887E
:10451000FFF7DEF90346002B0CD0FB681022C3F82E
:104520008020FB68002283F87420FB6820229A67B1
:10453000012324E0FB681B6840221A62FB6800220A
:1045400083F87420FB681B6808337B617B6953E840
:10455000003F3B613B6943F080037B62FB681B6863
:1045600008337A6A3A62FB61F9693A6A41E80023E2
:10457000BB61BB69002BE5D1002300E00223184694
:104580002837BD4680BD00BF835600081D57000870
:104590009558000880B58AB000AFF860B96013463E
:1045A000FB80FB68DB6F202B42D1BB68002B02D065
:1045B000FB88002B01D101233BE0FB6893F87430AA
:1045C000012B01D1022334E0FB68012283F874201F
:1045D000FB6800221A66FB681B68184A93421FD0CA
:1045E000FB681B685B6803F40003002B18D0FB68B2
:1045F0001B687B617B6953E8003F3B613B6943F08B
:1046000080637B62FB681B681A467B6A3B62FA61C7
:10461000F9693A6A41E80023BB61BB69002BE6D126
:10462000FB881A46B968F86800F0FCFE034600E013
:10463000022318462837BD4680BD00BF00800040D9
:1046400080B5BAB000AF78607B681B68DB69C7F8DB
:10465000E4307B681B681B68C7F8E0307B681B6828
:104660009B68C7F8DC30D7F8E42040F60F0313400E
:10467000C7F8D830D7F8D830002B15D1D7F8E430A8
:1046800003F02003002B0FD0D7F8E03003F0200315
:10469000002B09D07B685B6E002B00F0A6827B6844
:1046A0005B6E78689847A0E2D7F8D830002B00F00E
:1046B0001781D7F8DC3003F00103002B06D1D7F8BF
:1046C000E020854B1340002B00F00A81D7F8E4303E
:1046D00003F00103002B11D0D7F8E03003F480730E
:1046E000002B0BD07B681B6801221A627B68D3F811
:1046F000803043F001027B68C3F88020D7F8E430B3
:1047000003F00203002B11D0D7F8DC3003F00103D3
:10471000002B0BD07B681B6802221A627B68D3F8DF
:10472000803043F004027B68C3F88020D7F8E4307F
:1047300003F00403002B11D0D7F8DC3003F00103A1
:10474000002B0BD07B681B6804221A627B68D3F8AD
:10475000803043F002027B68C3F88020D7F8E43051
:1047600003F00803002B17D0D7F8E03003F0200344
:10477000002B05D1D7F8DC3003F00103002B0BD060
:104780007B681B6808221A627B68D3F8803043F08C
:1047900008027B68C3F88020D7F8E43003F4006394
:1047A000002B12D0D7F8E03003F08063002B0CD040
:1047B0007B681B684FF400621A627B68D3F8803014
:1047C00043F020027B68C3F880207B68D3F88030F8
:1047D000002B00F00C82D7F8E43003F02003002B0C
:1047E0000DD0D7F8E03003F02003002B07D07B6812
:1047F0005B6E002B03D07B685B6E786898477B68A4
:10480000D3F88030C7F8D4307B681B689B6803F00E
:104810004003402B05D0D7F8D43003F02803002BF9
:104820004FD0786800F0CAFE7B681B689B6803F075
:104830004003402B41D17B681B680833C7F89C308C
:10484000D7F89C3053E8003FC7F89830D7F8983035
:1048500023F04003C7F8D0307B681B680833D7F8D3
:10486000D020C7F8A820C7F8A430D7F8A410D7F8EC
:10487000A82041E80023C7F8A030D7F8A030002BCB
:10488000D9D17B681B6F002B13D07B681B6F134A39
:104890009A637B681B6F1846FFF7B8F80346002B36
:1048A00017D07B681B6F9B6B7A68126F1046984716
:1048B0000FE0786800F0C4F90BE0786800F0C0F908
:1048C00007E0786800F0BCF97B680022C3F880201C
:1048D0008DE100BF8BE100BF2001000411590008E9
:1048E0007B681B6E012B40F04681D7F8E43003F063
:1048F0001003002B00F03F81D7F8E03003F01003E5
:10490000002B00F038817B681B6810221A627B68DC
:104910001B689B6803F04003402B40F0B4807B6829
:104920001B6F1B685B68A7F8BE30B7F8BE30002B62
:1049300000F05F817B68B3F85830B7F8BE209A4228
:1049400080F057817B68B7F8BE20A3F85A207B68B7
:104950001B6F1B681B6803F02003002B40F0858051
:104960007B681B68C7F88830D7F8883053E8003F69
:10497000C7F88430D7F8843023F48073C7F8B83090
:104980007B681B681A46D7F8B830C7F89430C7F868
:104990009020D7F89010D7F8942041E80023C7F86A
:1049A0008C30D7F88C30002BDAD17B681B68083349
:1049B0007B677B6F53E8003F3B673B6F23F001034E
:1049C000C7F8B4307B681B680833D7F8B420C7F841
:1049D0008020FB67F96FD7F8802041E80023BB6790
:1049E000BB6F002BE1D17B681B6808333B663B6ED5
:1049F00053E8003FFB65FB6D23F04003C7F8B03080
:104A00007B681B680833D7F8B020FA66BB66B96EBE
:104A1000FA6E41E800237B667B6E002BE3D17B6856
:104A20002022DA677B6800221A667B681B68FB64B9
:104A3000FB6C53E8003FBB64BB6C23F01003C7F86A
:104A4000AC307B681B681A46D7F8AC30BB657A651A
:104A5000796DBA6D41E800233B653B6D002BE4D1D5
:104A60007B681B6F1846FEF793FF7B68B3F85820EE
:104A70007B68B3F85A309BB2D31A9BB21946786858
:104A800000F0E8F8B5E07B68B3F858207B68B3F82D
:104A90005A309BB2D31AA7F8CE307B68B3F85A309D
:104AA0009BB2002B00F0A780B7F8CE30002B00F0AF
:104AB000A2807B681B68BB63BB6B53E8003F7B63D2
:104AC0007B6B23F49073C7F8C8307B681B681A4669
:104AD000D7F8C8307B643A64396C7A6C41E80023BB
:104AE000FB63FB6B002BE4D17B681B6808337B62A4
:104AF0007B6A53E8003F3B623B6A23F00103C7F83F
:104B0000C4307B681B680833D7F8C4203A63FB6263
:104B1000F96A3A6B41E80023BB62BB6A002BE3D120
:104B20007B682022DA677B6800221A667B68002295
:104B30005A667B681B683B613B6953E8003FFB603A
:104B4000FB6823F01003C7F8C0307B681B681A4667
:104B5000D7F8C030FB61BA61B969FA6941E800234E
:104B60007B617B69002BE4D1B7F8CE3019467868B9
:104B700000F070F83FE0D7F8E43003F48013002B26
:104B80000ED0D7F8DC3003F48003002B08D07B680C
:104B90001B684FF480121A62786800F0F9FE2DE06D
:104BA000D7F8E43003F08003002B0ED0D7F8E030C4
:104BB00003F08003002B08D07B689B6E002B1CD079
:104BC0007B689B6E7868984717E0D7F8E43003F06D
:104BD0004003002B12D0D7F8E03003F04003002B45
:104BE0000CD0786800F0AAFE08E000BF06E000BF25
:104BF00004E000BF02E000BF00E000BFE837BD46B0
:104C000080BD00BF80B483B000AF786000BF0C37B8
:104C1000BD465DF8047B704780B483B000AF786018
:104C200000BF0C37BD465DF8047B704780B483B08D
:104C300000AF786000BF0C37BD465DF8047B70475D
:104C400080B483B000AF786000BF0C37BD465DF81C
:104C5000047B704780B483B000AF78600B467B80E4
:104C600000BF0C37BD465DF8047B70472DE9B04F9F
:104C70008AB000AFF860002387F82230FB689A689A
:104C8000FB681B691A43FB685B691A43FB68DB69B5
:104C900013437B62FB681B681A68B44B1340FA68C5
:104CA0001268796A0B431360FB681B685B6823F426
:104CB0004051FB68DA68FB681B680A435A60FB686E
:104CC0009B697B62FB681B68A94A934204D0FB681E
:104CD0001B6A7A6A13437B62FB681B689B6823F438
:104CE0003061FB681B687A6A0A439A60FB681B683C
:104CF000A04A934226D1A04BD3F8883003F0030397
:104D0000032B1BD801A252F823F000BF1D4D000851
:104D10002D4D0008254D0008354D0008012387F86A
:104D2000233080E0022387F823307CE0042387F8D7
:104D3000233078E0082387F8233074E0102387F8C5
:104D4000233070E0FB681B688C4A934238D18A4B51
:104D5000D3F8883003F00C030C2B2DD801A252F8A5
:104D600023F000BF994D0008B94D0008B94D000867
:104D7000B94D0008A94D0008B94D0008B94D00080B
:104D8000B94D0008A14D0008B94D0008B94D000803
:104D9000B94D0008B14D0008002387F8233042E0E8
:104DA000022387F823303EE0042387F823303AE0DB
:104DB000082387F8233036E0102387F8233032E0C9
:104DC000FB681B686A4A93422AD16B4BD3F8883040
:104DD00003F44063B3F5406F1AD0B3F5406F1BD8AE
:104DE000B3F5006F0CD0B3F5006F15D8002B03D0CE
:104DF000B3F5806F08D00FE0002387F8233012E06E
:104E0000022387F823300EE0042387F823300AE0DA
:104E1000082387F8233006E0102387F8233002E0C8
:104E2000102387F82330FB681B68514A93427AD1DC
:104E300097F82330082B24D801A252F823F000BFA2
:104E4000654E0008834E00086D4E0008834E000832
:104E5000734E0008834E0008834E0008834E0008FE
:104E60007B4E0008FDF716FEF86110E0444BFB6135
:104E70000DE0FDF777FDF86109E04FF40043FB61B9
:104E800005E00023FB61012387F8223000BFFB69A6
:104E9000002B00F00781FB685A6813465B0013443F
:104EA000FA699A4205D3FB685B681B03FA699A4268
:104EB00003D9012387F82230F4E0FB6900221C4665
:104EC00015464FF000024FF000032B0243EA146333
:104ED0002202F9684968490800208846814612EB99
:104EE000080A43EB090BFB685B6800223B607A60B1
:104EF000D7E9002350465946FBF76AF902460B46AC
:104F00001346BB61BB69B3F5407F08D3BB69B3F5FA
:104F1000801F04D2FB681B68BA69DA60C2E0012313
:104F200087F82230BEE0FB68DB69B3F5004F6AD139
:104F300097F82330082B34D801A252F823F000BF91
:104F4000654F0008854F00088D4F0008A34F0008EB
:104F5000934F0008A34F0008A34F0008A34F000879
:104F60009B4F0008FDF796FDF86120E0F369FFEF25
:104F70000080004000380140001002400044004022
:104F80000024F400FDF79CFDF86110E04C4BFB6140
:104F90000DE0FDF7E7FCF86109E04FF40043FB6129
:104FA00005E00023FB61012387F8223000BFFB6985
:104FB000002B77D0FB695A00FB685B685B081A44DA
:104FC000FB685B68B2FBF3F3BB61BB690F2B16D9BF
:104FD000BB69B3F5803F12D2BB699BB223F00F03CC
:104FE000FB82BB695B089BB203F007039AB2FB8AA2
:104FF0001343FB82FB681B68FA8ADA6052E00123E4
:1050000087F822304EE097F82330082B27D801A2EA
:1050100052F823F039500008415000084950000868
:105020005F5000084F5000085F5000085F500008B4
:105030005F50000857500008FDF72CFDF86114E0A0
:10504000FDF73EFDF86110E01D4BFB610DE0FDF743
:1050500089FCF86109E04FF40043FB6105E000239F
:10506000FB61012387F8223000BFFB69002B19D0B8
:10507000FB685B685A08FB691A44FB685B68B2FB13
:10508000F3F3BB61BB690F2B09D9BB69B3F5803F53
:1050900005D2BB699AB2FB681B68DA6002E00123A3
:1050A00087F82230FB6800225A66FB6800229A6665
:1050B00097F8223018462837BD46BDE8B08F00BFAC
:1050C0000024F40080B483B000AF78607B685B6A32
:1050D00003F00103002B0AD07B681B685B6823F494
:1050E00000317B689A6A7B681B680A435A607B6858
:1050F0005B6A03F00203002B0AD07B681B685B68C5
:1051000023F480317B68DA6A7B681B680A435A6043
:105110007B685B6A03F00403002B0AD07B681B6882
:105120005B6823F480217B681A6B7B681B680A43E9
:105130005A607B685B6A03F00803002B0AD07B6827
:105140001B685B6823F400417B685A6B7B681B68B3
:105150000A435A607B685B6A03F01003002B0AD095
:105160007B681B689B6823F480517B689A6B7B6823
:105170001B680A439A607B685B6A03F02003002B7C
:105180000AD07B681B689B6823F400517B68DA6B4C
:105190007B681B680A439A607B685B6A03F0400384
:1051A000002B1AD07B681B685B6823F480117B6836
:1051B0001A6C7B681B680A435A607B681B6CB3F5EA
:1051C000801F0AD17B681B685B6823F4C0017B6881
:1051D0005A6C7B681B680A435A607B685B6A03F001
:1051E0008003002B0AD07B681B685B6823F40021D6
:1051F0007B689A6C7B681B680A435A6000BF0C3757
:10520000BD465DF8047B704780B586B002AF78601C
:105210007B680022C3F88020FCF750FEF8607B68B2
:105220001B681B6803F00803082B0ED16FF07E4348
:105230000093FB6800224FF40011786800F02DF80D
:105240000346002B01D0032323E07B681B681B6807
:1052500003F00403042B0ED16FF07E430093FB6830
:1052600000224FF48001786800F017F80346002B05
:1052700001D003230DE07B6820229A677B682022FF
:10528000DA677B6800221A667B68002283F8742044
:10529000002318461037BD4680BD80B59CB000AFD6
:1052A000F860B9603B601346FB71A5E0BB6FB3F1DA
:1052B000FF3F00F0A180FCF701FE02463B68D31AD5
:1052C000BA6F9A4202D3BB6F002B3ED1FB681B68BA
:1052D0003B653B6D53E8003FFB64FB6C23F4D073EC
:1052E0007B66FB681B681A467B6EFB65BA65B96D09
:1052F000FA6D41E800237B657B6D002BE6D1FB68EE
:105300001B680833FB63FB6B53E8003FBB63BB6B5D
:1053100023F001033B66FB681B6808333A6EBA64EE
:105320007B64796CBA6C41E800233B643B6C002BD6
:10533000E5D1FB6820229A67FB682022DA67FB68C8
:10534000002283F87420032367E0FB681B681B6856
:1053500003F00403002B4FD0FB681B68DB6903F4E8
:105360000063B3F5006F47D1FB681B684FF4006220
:105370001A62FB681B68BB62BB6A53E8003F7B6232
:105380007B6A23F4D073FB66FB681B681A46FB6ECE
:105390007B633A63396B7A6B41E80023FB62FB6AFB
:1053A000002BE6D1FB681B6808337B617B6953E8FF
:1053B000003F3B613B6923F00103BB66FB681B6850
:1053C0000833BA6E3A62FB61F9693A6A41E8002330
:1053D000BB61BB69002BE5D1FB6820229A67FB68A3
:1053E0002022DA67FB682022C3F88020FB680022B5
:1053F00083F87420032310E0FB681B68DA69BB683C
:105400001340BA689A420CBF01230023DBB21A464C
:10541000FB799A423FF44AAF002318467037BD46E5
:1054200080BD000080B596B000AFF860B96013464B
:10543000FB80FB68BA685A65FB68FA88A3F85820B5
:10544000FB680022C3F88020FB682222DA67FB6831
:105450001B6F002B2BD0FB681B6F424ADA62FB6884
:105460001B6F414A1A63FB681B6F404A5A63FB6813
:105470001B6F00229A63FB68186FFB681B6824335C
:105480001946FB685B6D1A46FB88FEF721FA034656
:10549000002B0CD0FB681022C3F88020FB68002290
:1054A00083F87420FB682022DA67012355E0FB684B
:1054B000002283F87420FB681B69002B18D0FB685E
:1054C0001B68FB63FB6B53E8003FBB63BB6B43F4A0
:1054D00080737B65FB681B681A467B6DBB647A64CE
:1054E000796CBA6C41E800233B643B6C002BE6D13D
:1054F000FB681B680833BB62BB6A53E8003F7B62F2
:105500007B6A43F001033B65FB681B6808333A6D17
:105510007A633B63396B7A6B41E80023FB62FB6A79
:10552000002BE5D1FB681B6808337B617B6953E87E
:10553000003F3B613B6943F04003FB64FB681B6831
:105540000833FA6C3A62FB61F9693A6A41E8002370
:10555000BB61BB69002BE5D1002318465837BD4617
:1055600080BD00BF395700085D58000895580008F5
:1055700080B489B000AF78607B681B68FB60FB6813
:1055800053E8003FBB60BB6823F0C003FB617B684E
:105590001B681A46FB69BB617A617969BA6941E89F
:1055A00000233B613B69002BE6D17B6820229A6790
:1055B00000BF2437BD465DF8047B704780B495B0CA
:1055C00000AF78607B681B687B637B6B53E8003FB0
:1055D0003B633B6B23F49073FB647B681B681A4648
:1055E000FB6C3B64FA63F96B3A6C41E80023BB63E4
:1055F000BB6B002BE6D17B681B6808333B623B6AC0
:1056000053E8003FFB61FB6923F00103BB647B6847
:105610001B680833BA6CFA62BB62B96AFA6A41E87D
:1056200000237B627B6A002BE5D17B681B6E012B1C
:1056300018D17B681B68FB60FB6853E8003FBB60C8
:10564000BB6823F010037B647B681B681A467B6C85
:10565000BB617A617969BA6941E800233B613B69C2
:10566000002BE6D17B682022DA677B6800221A666D
:105670007B6800225A6600BF5437BD465DF8047B44
:10568000704780B590B000AF78607B689B6AFB6321
:105690007B681B681B6803F02003002B37D1FB6B72
:1056A0000022A3F85220FB6B1B6808337B627B6AE5
:1056B00053E8003F3B623B6A23F08003BB63FB6B14
:1056C0001B680833BA6B3A63FB62F96A3A6B41E8CC
:1056D0000023BB62BB6A002BE5D1FB6B1B683B61FF
:1056E0003B6953E8003FFB60FB6843F040037B638A
:1056F000FB6B1B681A467B6BFB61BA61B969FA697F
:1057000041E800237B617B69002BE6D102E0F86B66
:10571000FFF778FA00BF4037BD4680BD80B584B042
:1057200000AF78607B689B6AFB60F868FFF774FAEB
:1057300000BF1037BD4680BD80B59CB000AF78601B
:105740007B689B6AFB667B681B681B6803F0200311
:10575000002B70D1FB6E0022A3F85A20FB6E1B6851
:10576000FB64FB6C53E8003FBB64BB6C23F48073A9
:10577000BB66FB6E1B681A46BB6EBB657A65796DAE
:10578000BA6D41E800233B653B6D002BE6D1FB6E13
:105790001B680833BB63BB6B53E8003F7B637B6BC9
:1057A00023F001037B66FB6E1B6808337A6E7A6414
:1057B0003B64396C7A6C41E80023FB63FB6B002B84
:1057C000E5D1FB6E1B6808337B627B6A53E8003FC0
:1057D0003B623B6A23F040033B66FB6E1B68083369
:1057E0003A6E3A63FB62F96A3A6B41E80023BB62A6
:1057F000BB6A002BE5D1FB6E2022DA67FB6E1B6EC5
:10580000012B18D1FB6E1B683B613B6953E8003FDD
:10581000FB60FB6823F01003FB65FB6E1B681A46F8
:10582000FB6DFB61BA61B969FA6941E800237B61EC
:105830007B69002BE6D1FB6E1B6E012B07D1FB6E43
:10584000B3F858301946F86EFFF704FA02E0F86E24
:10585000FAF79AFE00BF7037BD4680BD80B584B0B0
:1058600000AF78607B689B6AFB60FB681B6E012B56
:1058700009D1FB68B3F858305B089BB21946F86849
:10588000FFF7E8F902E0F868FFF7D0F900BF10373A
:10589000BD4680BD80B586B000AF78607B689B6AEE
:1058A0007B617B699B6F3B617B69DB6FFB607B6925
:1058B0001B689B6803F08003802B09D13B69212B77
:1058C00006D17B690022A3F852207869FFF750FEC9
:1058D0007B691B689B6803F04003402B09D1FB6880
:1058E000222B06D17B690022A3F85A207869FFF7A2
:1058F00065FE7B69D3F8803043F010027B69C3F802
:1059000080207869FFF79CF900BF1837BD4680BD3D
:1059100080B584B000AF78607B689B6AFB60FB68F1
:105920000022A3F85A20FB680022A3F85220F8684E
:10593000FFF786F900BF1037BD4680BD80B588B03F
:1059400000AF78607B681B68FB60FB6853E8003F32
:10595000BB60BB6823F04003FB617B681B681A4691
:10596000FB69BB617A617969BA6941E800233B61EF
:105970003B69002BE6D17B6820229A677B68002276
:105980009A667868FFF73EF900BF2037BD4680BDB4
:1059900080B483B000AF786000BF0C37BD465DF8BF
:1059A000047B704780B400AF064BD3F88830054ABB
:1059B00043F47003C2F8883000BFBD465DF8047B35
:1059C000704700BF00ED00E080B58CB000AF78609C
:1059D000002387F82F302E4B1B6E2D4A43F40063B3
:1059E00013662B4B1B6E03F40063BB60BB6807F1AF
:1059F0000C0207F1100311461846FDF777F8FDF782
:105A00005FF8B862BB6A234AA2FB03239B0C013BED
:105A10007B62214B214A1A601F4B40F2E732DA6069
:105A20001D4A7B6A53601C4B00221A611A4B0022EC
:105A30009A60194B00229A611748FEF74DFA034607
:105A400087F82F3097F82F30002B1BD11248FEF724
:105A5000A5FA034687F82F3097F82F30002B11D185
:105A60001920FEF72BFA7B680F2B08D800227968E3
:105A70001920FEF707FA0A4A7B68136002E0012347
:105A800087F82F3097F82F3018463037BD4680BD45
:105A90000010024083DE1B4350160020002C014002
:105AA0000000002080B483B000AF78607B6803F111
:105AB00008027B685A607B684FF0FF329A607B680F
:105AC00003F108027B68DA607B6803F108027B68F7
:105AD0001A617B6800221A6000BF0C37BD465DF872
