:020000040800F2
:1000000000000120AD4B0008090900080B09000899
:100010000D0900080F090008110900080000000080
:10002000000000000000000000000000E14800089F
:100030001309000800000000814900086744000817
:10004000FD4B0008FD4B0008FD4B0008FD4B000870
:10005000FD4B0008FD4B0008FD4B0008FD4B000860
:10006000FD4B0008150900081F090008FD4B00089A
:10007000FD4B0008FD4B0008FD4B0008FD4B000840
:10008000FD4B0008FD4B0008FD4B0008FD4B000830
:1000900029090008FD4B0008FD4B0008390900083C
:1000A000FD4B000849090008FD4B0008FD4B000806
:1000B000FD4B00080000000000000000FD4B0008A0
:1000C000FD4B00080000000000000000FD4B000890
:1000D00000000000FD4B0008FD4B00080000000080
:1000E00059090008FD4B0008000000000000000056
:1000F0000000000000000000000000000000000000
:10010000000000000000000000000000FD4B00089F
:100110000000000000000000FD4B0008FD4B00083F
:10012000FD4B0008FD4B0008FD4B0008FD4B00088F
:10013000FD4B00080000000000000000000000006F
:10014000FD4B0008FD4B0008FD4B0008FD4B00086F
:10015000FD4B0008FD4B0008FD4B0008FD4B00085F
:10016000FD4B0008FD4B0008FD4B0008000000009F
:10017000FD4B0008FD4B00080000000000000000DF
:10018000FD4B0008FD4B0008FD4B0008000000007F
:1001900010B5054C237833B9044B13B10448AFF3C1
:1001A00000800123237010BD7800002000000000B3
:1001B000FC4D000808B5034B1BB103490348AFF3DE
:1001C000008008BD000000007C000020FC4D0008FD
:1001D00053B94AB9002908BF00281CBF4FF0FF31AE
:1001E0004FF0FF3000F074B9ADF1080C6DE904CEAA
:1001F00000F006F8DDF804E0DDE9022304B0704702
:100200002DE9F047089D04468E46002B4DD18A42C9
:10021000944669D9B2FA82F252B101FA02F3C2F1FC
:10022000200120FA01F10CFA02FC41EA030E94408D
:100230004FEA1C48210CBEFBF8F61FFA8CF708FBAE
:1002400016E341EA034306FB07F199420AD91CEB86
:10025000030306F1FF3080F01F81994240F21C81B8
:10026000023E63445B1AA4B2B3FBF8F008FB103300
:1002700044EA034400FB07F7A7420AD91CEB040435
:1002800000F1FF3380F00A81A74240F20781644405
:10029000023840EA0640E41B00261DB1D44000238A
:1002A000C5E900433146BDE8F0878B4209D9002DEE
:1002B00000F0EF800026C5E9000130463146BDE878
:1002C000F087B3FA83F6002E4AD18B4202D38242E2
:1002D00000F2F980841A61EB030301209E46002D91
:1002E000E0D0C5E9004EDDE702B9FFDEB2FA82F2E6
:1002F000002A40F09280A1EB0C014FEA1C471FFA44
:100300008CFE0126200CB1FBF7F307FB131140EA2A
:1003100001410EFB03F0884208D91CEB010103F1F7
:10032000FF3802D2884200F2CB804346091AA4B2B9
:10033000B1FBF7F007FB101144EA01440EFB00FE8D
:10034000A64508D91CEB040400F1FF3102D2A645F2
:1003500000F2BB800846A4EB0E0440EA03409CE791
:10036000C6F12007B34022FA07FC4CEA030C20FA3E
:1003700007F401FA06F31C43F9404FEA1C4900FA5E
:1003800006F3B1FBF9F8200C1FFA8CFE09FB1811DB
:1003900040EA014108FB0EF0884202FA06F20BD94E
:1003A0001CEB010108F1FF3A80F08880884240F29E
:1003B0008580A8F102086144091AA4B2B1FBF9F0E2
:1003C00009FB101144EA014100FB0EFE8E4508D9DD
:1003D0001CEB010100F1FF346CD28E456AD9023862
:1003E000614440EA0840A0FB0294A1EB0E01A14247
:1003F000C846A64656D353D05DB1B3EB080261EBB5
:100400000E0101FA07F722FA06F3F1401F43C5E98E
:10041000007100263146BDE8F087C2F12003D840C4
:100420000CFA02FC21FA03F3914001434FEA1C4706
:100430001FFA8CFEB3FBF7F007FB10360B0C43EAF8
:10044000064300FB0EF69E4204FA02F408D91CEBA8
:10045000030300F1FF382FD29E422DD902386344A6
:100460009B1B89B2B3FBF7F607FB163341EA034146
:1004700006FB0EF38B4208D91CEB010106F1FF3895
:1004800016D28B4214D9023E6144C91A46EA00468C
:1004900038E72E46284605E70646E3E61846F8E61E
:1004A0004B45A9D2B9EB020864EB0C0E0138A3E767
:1004B0004646EAE7204694E74046D1E7D0467BE748
:1004C000023B614432E7304609E76444023842E7C0
:1004D000704700BF2DE9F0418AB0002405940694CE
:1004E000079408940994584BDA6C42F00402DA64D9
:1004F000DA6C02F004020192019ADA6C42F0010215
:10050000DA64DA6C02F001020292029ADA6C42F0CA
:100510000202DA64DA6C02F002020392039ADA6CE5
:1005200042F08002DA64DB6C03F080030493049BE6
:10053000224648F206014FF0904001F0F5FEDFF848
:10054000148122460221404601F0EEFE4FF4404362
:1005500005934FF4041706970125079505A93B4815
:1005600001F00AFE48F20603059306950226079657
:10057000089405A94FF0904001F0FEFD4823059333
:100580000697079505A94FF0904001F0F5FD30233F
:1005900005934FF488130693079605A94FF09040F2
:1005A00001F0EAFD8023059303270697079405A928
:1005B0004FF0904001F0E0FD21230593069707944A
:1005C00005A9404601F0D8FD0596069507950894C3
:1005D00005A9404601F0D0FD4FF4807305930696BF
:1005E00007940894099405A94FF0904001F0C4FDC8
:1005F000082305930697079405A9154801F0BCFD4B
:1006000022460521092001F0BDFF092001F0F2FF7B
:10061000224605210A2001F0B5FF0A2001F0EAFF79
:1006200022460521172001F0ADFF172001F0E2FF5F
:1006300022460521282001F0A5FF282001F0DAFF3D
:100640000AB0BDE8F08100BF001002400008004879
:10065000001C00480004004808B5034B034A002171
:1006600000F04AFC08BD00BF940000209C00002060
:100670007047000008B50268034B9A4200D008BDDD
:1006800000F032FEFBE700BF002C014072B6FEE72F
:1006900000B58BB01848194B0360102343604FF02E
:1006A000804383600023C3604FF4003202614361E2
:1006B000037643768376C3760377437700F050FA68
:1006C000B0B94FF4005300934FF4604302930023FA
:1006D00001930393049305930693012307930893CF
:1006E0006946054800F0E2FA20B90BB05DF804FB5A
:1006F000FFF7CCFFFFF7CAFFD800002000640040DE
:1007000008B51148114B0360114B4360002383600F
:100710000122C260036143618361C361036201F02E
:1007200017FE50B90021084801F070FE38B90021C9
:10073000054801F099FE20B908BDFFF7A7FFFFF7B4
:10074000A5FFFFF7A3FF00BF0001002000540040F9
:10075000EC9C901008B50C480C4B03604FF4E1334F
:10076000436000238360C36003610C2242614FF445
:1007700040728261C3610362436202F0F6FA00B91B
:1007800008BDFFF783FF00BF54010020003801407F
:1007900000B597B04422002105A804F063FA0023B5
:1007A000009301930293039304934FF4007001F0BC
:1007B0008FFE58BB022305934FF4807208921022DB
:1007C00009920F931093012211920A22129207228A
:1007D00013921493159305A800F062FEC0B90F237D
:1007E00000930323019300230293039304930421B2
:1007F000684601F08BF968B94FF080424FF0807184
:10080000002000F0CBFD17B05DF804FBFFF73EFFC2
:10081000FFF73CFFFFF73AFF08B500F055FDFFF783
:10082000B7FFFFF757FEFFF733FFFFF769FFFFF74B
:1008300091FF154C204600F0BCFA0221204600F042
:1008400000FC124B08221A6100245C609C60DC6092
:100850004FF480721A601C750D4B69221A800D4A84
:100860005A6044F2062159809A600B4ADA6003F01C
:1008700007FE0A4A21460A4803F030FE094B186079
:1008800003F010FEFEE700BFD8000020B8000020F3
:10089000D8010020C17E344267452301244E000860
:1008A000A9080008D400002008B505E0FFF7EEFE17
:1008B0004FF4FA7003F071FE0F494FF481730B602F
:1008C0000E4B0F4A12680F4800F0A1FA0028EDD134
:1008D0004FF4FA7003F061FE074940F203130B6016
:1008E000074B1A68054B0832064800F090FA0028BA
:1008F000DED0FFF7CBFE00BFB8000020D000002004
:1009000000000020D8000020FEE7FEE7FEE7FEE73B
:10091000FEE7704708B5082001F00CFD08BD08B5DA
:10092000102001F007FD08BD08B5024800F0A7FB44
:1009300008BD00BFD800002008B5202001F0FAFC57
:10094000402001F0F7FC08BD08B5024801F09CFE0C
:1009500008BD00BFEC01002008B54FF4804001F055
:10096000E9FC4FF4004001F0E5FC08BD00B583B0A0
:100970000D4B1A6E42F001021A661A6E02F0010265
:100980000092009A9A6D42F080529A659B6D03F036
:1009900080530193019B00220F216FF0010001F0B1
:1009A000F1FD03B05DF804FB0010024000B589B012
:1009B0000023039304930593069307930268184B4F
:1009C0009A4202D009B05DF804FB03F5D6339A6D64
:1009D00042F000729A659A6D02F000720192019ADB
:1009E000DA6C42F00102DA64DB6C03F0010302937B
:1009F000029B4FF4C05303930223049303230693F3
:100A00000923079303A94FF0904001F0B5FB0022A2
:100A10000521142001F0B6FD142001F0EBFDD1E713
:100A20000064004010B59CB0044600211791189155
:100A300019911A911B91542202A804F013F922680B
:100A4000174B9A4201D01CB010BD4023029302A85C
:100A500001F01EFA08BB134CE36C43F00203E3649D
:100A6000E36C03F002030093009BC023179312234F
:100A700018930023199303231A9304231B9317A994
:100A8000094801F079FBA36D43F40013A365A36D3E
:100A900003F400130193019BD5E7FFF7F7FDDAE7B5
:100AA000005400400010024000040048F0B59FB020
:100AB0000446002119911A911B911C911D915422F9
:100AC00004A804F0CFF82268224B9A4201D01FB04C
:100AD000F0BD0123049304A801F0DAF9002836D10F
:100AE0001D4B1A6E42F480421A661A6E02F480425E
:100AF0000192019ADA6C42F00102DA64DA6C02F0D7
:100B000001020292029ADA6C42F00202DA64DB6CB1
:100B100003F002030393039B4FF4C063199302276E
:100B20001A9700261B9603251C9507241D9419A9C6
:100B30004FF0904001F020FB182319931A971B9651
:100B40001C951D9419A9054801F016FBBFE7FFF796
:100B50009DFDC5E700380140001002400004004838
:100B6000002800F0A18038B5044690F82030D3B1B9
:100B70002268136843F00103136000F0C1FB0546CF
:100B800023685A6812F0010F10D100F0B9FB401B26
:100B90000A28F5D9636A43F400336362052384F8B5
:100BA0002030012038BDFFF701FFE1E71A6822F08D
:100BB00002021A6000F0A4FB054623685A6812F08E
:100BC000020F0DD000F09CFB401B0A28F5D9636A88
:100BD00043F400336362052384F820300120E1E709
:100BE000227E012A3DD01A6822F080021A60637EBC
:100BF000012B3BD02268136823F040031360A37ECF
:100C0000012B39D02268136823F020031360E37EA0
:100C1000012B37D02268136843F010031360237F41
:100C2000012B35D02268136823F008031360637F1B
:100C3000012B33D02268136823F004031360A368E8
:100C4000E268134322691343626913436268013AFD
:100C500021681343CB6100206062012384F82030B7
:100C6000A0E71A6842F080021A60C0E722681368A1
:100C700043F040031360C2E72268136843F0200387
:100C80001360C4E72268136823F010031360C6E7FB
:100C90002268136843F008031360C8E722681368EA
:100CA00043F004031360CAE701207047026890F81C
:100CB0002030013BDBB2012B05D9436A43F480238A
:100CC00043620120704730B4D2F8003243F0010390
:100CD000C2F800324B6903F01F03012000FA03F34E
:100CE000D2F81C026FEA030C20EA0300C2F81C02CF
:100CF000C869B0B9D2F80C020CEA0000C2F80C02C4
:100D00008C884869CD6844EA0544483042F8304050
:100D10000C8848698D6844EA0544483002EBC000FD
:100D20004460C86901281BD0886980BBD2F80402DE
:100D30000CEA0000C2F80402086970BBD2F8140281
:100D40000CEA0000C2F81402096A01292BD0D2F87B
:100D5000003223F00103C2F80032002030BC70479B
:100D6000D2F80C021843C2F80C028C8848690D684E
:100D700044EA0544483042F830408C8948698D681F
:100D800044EA0544483002EBC0004460CCE7D2F8A6
:100D900004021843C2F80402CEE7D2F81402184342
:100DA000C2F81402D0E7D2F81C120B43C2F81C326E
:100DB000CDE770B5044690F82050EDB2012D06D075
:100DC000436A43F4002343620125284670BD022391
:100DD00080F820300268136823F00103136000F0EC
:100DE0008FFA064623685B6813F0010F0CD000F001
:100DF00087FA831B0A2BF5D9636A43F400336362D5
:100E0000052384F82030E0E700256562DDE730B592
:100E100090F820C00468A4680CF1FF3C5FFA8CFCD9
:100E2000BCF1010F62D814F0E05F59D0C4F3016C3B
:100E3000012404FA0CF41C608B68002B3DD10D6872
:100E4000CB68046843EA45550CF118031B01E550D3
:100E500003680C690CF1180E03EB0E135C600B7D3C
:100E6000012B35D0D17993791B0443EA0163517981
:100E700043EA012314790168234301EB0C11C1F803
:100E80008C31D17893781B0443EA0163517843EAAB
:100E90000123117802680B4302EB0C12C2F888316F
:100EA00002680CF1180C4FEA0C1C52F80C3043F09D
:100EB000010342F80C3000201DE04C6843EAC403F3
:100EC000CC6823430CF11804240105682B51BFE7BB
:100ED000036803EB0E13596841F480715960C1E750
:100EE000436A43F400134362012004E0436A43F47D
:100EF00080234362012030BD90F820C00CF1FF3CFC
:100F00005FFA8CFCBCF1010F00F2958030B451B94E
:100F10000468E46814F0030F10D1436A43F400132B
:100F20004362012077E00468246914F0030F05D1BF
:100F3000436A43F40013436201206CE001F11B0497
:100F4000240105682C5904F004049460002C64D139
:100F500001F11B04240105682C59640D1460046818
:100F600001F11B0C4FEA0C1C54F80C4004F0020475
:100F7000D46004686444646804F00F041461046875
:100F800064446468C4F30724946104686444646836
:100F9000240C5461026802EB0112D2F8B8211A70D5
:100FA000026802EB0112D2F8B821C2F307225A708C
:100FB000026802EB0112D2F8B821C2F307429A701C
:100FC000026802EB0112D2F8B821120EDA70026840
:100FD00002EB0112D2F8BC211A71026802EB011275
:100FE000D2F8BC21C2F307225A71026802EB011247
:100FF000D2F8BC21C2F307429A71026802EB0112D7
:10100000D2F8BC21120EDA7179B90268D36843F0C4
:101010002003D360002030BC704701F11B04240181
:1010200005682C59E408546099E70268136943F095
:1010300020031361EEE7436A43F4802343620120F7
:10104000704790F82030013BDBB2012B05D9436A91
:1010500043F48023436201207047026853691943B7
:101060005161002070477047704770477047704764
:1010700070477047704770477047704770472DE959
:10108000F84F054603685C69D3F804809F68D3F87D
:101090000CB0D3F810A0D3F8189014F001063BD090
:1010A00017F0010616D001229A6017F0020F08D13E
:1010B00017F0040F0CD117F0080606D04FF4805635
:1010C00008E0FFF7D0FF002604E0FFF7CFFF01E0C4
:1010D0004FF4006617F4807F0DD02B684FF48072B8
:1010E0009A6017F4007F40F0868017F4806F00F05C
:1010F000868046F4005617F4803F0DD02B684FF4DD
:1011000080329A6017F4003F40F0838017F4802FFC
:1011100000F0838046F4004614F0080F07D01BF05F
:10112000100F04D046F400762B681022DA6014F019
:10113000040F02D01BF0080F79D114F0020F04D075
:101140002B68DB6813F0030F78D114F0400F07D041
:101150001AF0100F04D046F480662B6810221A6132
:1011600014F0200F02D01AF0080F6BD114F0100FFA
:1011700004D02B681B6913F0030F6AD114F4003FED
:1011800002D018F0100F68D114F4803F02D018F08C
:10119000080F69D114F4004F7AD018F0040F74D0FE
:1011A00014F4807F04D019F0010F01D046F001063D
:1011B00014F4007F04D019F0020F01D046F00206AB
:1011C00014F4806F04D019F0040F01D046F0040627
:1011D00014F4006F59D019F0700956D0B9F1400FCE
:1011E00065D058D8B9F1200F5ED0B9F1300F42D197
:1011F00046F0200644E02846FFF736FF7BE717F469
:10120000006F02D046F4804675E72846FFF72FFFAF
:1012100071E72846FFF729FF7EE717F4002F02D079
:1012200046F4803678E72846FFF722FF74E72B68FC
:101230000822DA602846FFF71CFF7EE72846FFF702
:101240000BFA82E72B6808221A612846FFF713FF82
:101250008CE72846FFF70EFF90E72B6810225A60B4
:101260002846FFF709FF8FE72B6808225A602846B7
:10127000FFF703FF8EE7B9F1100F01D146F0080622
:101280002A68936923F0700393612B6804225A60E3
:101290009EB9BDE8F88FB9F1500F0BD0B9F1600FCE
:1012A000EED146F48076EBE746F01006E8E746F02C
:1012B0004006E5E746F08006E2E76B6A1E436E6291
:1012C0002846FFF7DBFEE4E710B5032001F048F9FC
:1012D0000F2001F085FD10B10124204610BD044609
:1012E000FFF744FBF9E70000034B1B78034A116842
:1012F0000B441360704700BF04000020E801002089
:10130000014B1868704700BFE801002030B583B07A
:101310000446204B9B6D13F0805F0BD001F0D0F89A
:10132000B0F5007F17D0802C1FD82DD0702C2DD079
:1013300000211BE0174DAB6D43F08053AB65AB6DE7
:1013400003F080530193019B01F0BAF8AB6D23F0D9
:101350008053AB65E4E7802C03D9A02C03D902218C
:1013600004E0002102E0012100E003210A4A1368A1
:1013700023F007030B431360136803F007038B424A
:1013800006D1002003B030BD0221EFE70121EDE7D7
:101390000120F7E7001002400020024070B586B03F
:1013A0000D461646104CE36C43F00103E364E36C16
:1013B00003F001030093009B4FF480730193022319
:1013C0000293049300230393059301A94FF09040E7
:1013D00000F0D2FEA36823F0FE4345EA06021A435A
:1013E000A26006B070BD00BF00100240284A93689A
:1013F000D26802F0030213F00C030AD00C2B06D0C3
:10140000042B1FD0082B20D00020024610E0012A18
:10141000F6D11F4A126812F0080F0CD11C4AD2F8FC
:101420009420C2F303221B4951F8222043B100202B
:101430000C2B0DD07047164A1268C2F30312F2E764
:101440001046F5E714480022F2E714480022EFE7BF
:101450000F4BDB6803F00303022B16D0032B00D1E4
:101460000E4A0B49C868C0F30210431CC868C0F399
:10147000062002FB00F0B0FBF3F0CB68C3F341633E
:1014800001335B00B0FBF3F0D4E7034AE9E700BFA8
:1014900000100240604E00080024F40000127A00A0
:1014A000002800F01C83F0B583B00446964B9D687D
:1014B00005F00C05DE6806F00306036813F0100F54
:1014C0005AD0E5B10C2D18D0A369002B00F0BB80D9
:1014D0008D4A136843F001031360FFF711FF0746BD
:1014E000894B1B6813F0020F40F09A80FFF708FF4A
:1014F000C01B0228F4D90320FCE2012EE4D1824B68
:101500001B6813F0020F03D0A369002B00F0E982DF
:10151000206A7D4B1B6813F0080F5BD07A4B1B6869
:1015200003F0F00398425CD8774B1A6842F0080247
:101530001A601A6822F0F002216A0A431A605A6897
:1015400022F47F42E16942EA01225A60002D60D014
:10155000FFF74CFF6C4B9B68C3F303136B4AD35CE0
:1015600003F01F03D8406A4B18606A4B186801F0FB
:1015700037FC002840F0BE82236813F0010F00F012
:101580008180082D75D00C2D71D06368B3F5803F34
:1015900000F09780B3F5A02F00F099805A4B1A689D
:1015A00022F480321A601A6822F480221A6063687A
:1015B000002B00F09980FFF7A3FE0746524B1B68F3
:1015C00013F4003F5ED1FFF79BFEC01B6428F5D9E2
:1015D00003208FE24C4BD3F894301B0903F0F00347
:1015E000A0E7FFF793FE002840F07D82464B1A6883
:1015F00042F008021A601A6822F0F002216A0A43D7
:101600001A605A6822F47F42E16942EA01225A6074
:101610009EE7206AFFF77AFE002899D0012069E250
:10162000394B1A6842F008021A601A6822F0F00278
:10163000216A0A431A605A6822F47F42E16942EA49
:1016400001225A6098E7304A136823F001031360BF
:10165000FFF756FE07462C4B1B6813F0020F8BD08A
:10166000FFF74EFEC01B0228F5D9032042E2032EED
:101670008BD1254B1B6813F4003F03D06368002B0C
:1016800000F03382236813F0020F58D0042D45D0A8
:101690000C2D41D0E368002B77D01B4A136843F42C
:1016A00080731360FFF72CFE0646174B1B6813F47C
:1016B000806F61D1FFF724FE801B0228F5D903203B
:1016C00018E2114A136843F4803313606FE703F1A3
:1016D0008043A3F53C331A6842F480221A601A68EA
:1016E00042F480321A6062E7FFF70AFE0746064BB3
:1016F0001B6813F4003FC5D0FFF702FEC01B64282F
:10170000F5D90320F6E100BF00100240484E000862
:101710000C00002008000020022EBBD1A44B1B6847
:1017200013F4806F03D0E368002B00F0E081A04A3F
:10173000536823F0F853216943EA01635360236837
:1017400013F0080F4CD063699BB3994AD2F89430D8
:1017500043F00103C2F89430FFF7D2FD0646944BE4
:10176000D3F8943013F0020F3AD1FFF7C9FD801B74
:101770000228F4D90320BDE18D4A536823F0F853C1
:10178000216943EA01635360D9E7894A136823F466
:1017900080731360FFF7B4FD0646854B1B6813F496
:1017A000806FCCD0FFF7ACFD801B0228F5D9032059
:1017B000A0E17F4AD2F8943023F00103C2F89430BC
:1017C000FFF79EFD06467A4BD3F8943013F0020FD4
:1017D00006D0FFF795FD801B0228F4D9032089E18C
:1017E000236813F0040F7AD0714B9B6D13F0805F68
:1017F00036D16F4B9A6D42F080529A659B6D03F023
:1018000080530193019B01266A4B1B6813F4807F70
:1018100028D0A368012B39D0052B3FD0644BD3F8D7
:10182000902022F00102C3F89020D3F8902022F0FB
:101830000402C3F89020A368002B3DD0FFF760FDA1
:1018400007465B4BD3F8903013F0020F46D1FFF7F9
:1018500057FDC01B41F288339842F2D9032049E179
:101860000026D1E7534A136843F480731360FFF7EF
:1018700047FD07464F4B1B6813F4807FC9D1FFF724
:101880003FFDC01B0228F5D9032033E1484AD2F8B6
:10189000903043F00103C2F89030CCE7444BD3F8CA
:1018A000902042F00402C3F89020D3F8902042F038
:1018B0000102C3F89020BEE7FFF722FD07463C4B2C
:1018C000D3F8903013F0020F08D0FFF719FDC01BBA
:1018D00041F288339842F2D903200BE1E6B923683C
:1018E00013F0200F35D0636AE3B1314AD2F8983053
:1018F00043F00103C2F89830FFF702FD06462C4B77
:10190000D3F8983013F0020F23D1FFF7F9FC801BB6
:101910000228F4D90320EDE0254A936D23F080538B
:101920009365DCE7224AD2F8983023F00103C2F82D
:101930009830FFF7E5FC06461D4BD3F8983013F0BE
:10194000020F06D0FFF7DCFC801B0228F4D903202D
:10195000D0E0A36A002B00F0CC80022B17D00C2D16
:1019600000F0CC80124A136823F080731360FFF7F5
:10197000C7FC04460E4B1B6813F0007F00F0A880E4
:10198000FFF7BEFC001B0228F4D90320B2E0084B8D
:10199000DB6803F00301E26A91420DD00C2D00F0E8
:1019A000AB80034B1B6813F0806F2FD00120A1E0A8
:1019B000001002400070004003F07002216B0139FA
:1019C000B2EB011FEAD103F4FE42616BB2EB012FCF
:1019D000E4D103F07842A16BB2EBC16FDED103F426
:1019E000C001E26B5208013AB1EB425FD6D103F07D
:1019F000C063226C5208013AB3EB426FCED1404B28
:101A00001B6813F0007F49D0002073E03C4A136844
:101A100023F080731360FFF773FC0546384B1B6897
:101A200013F0007F06D0FFF76BFC401B0228F5D9AE
:101A300003205FE0324AD36832491940E36A206BE1
:101A4000013843EA0013606B43EA0023E06B40086F
:101A5000013843EA4053206C4008013843EA4063B0
:101A6000A06B43EAC0630B43D360136843F08073F9
:101A70001360D36843F08073D360FFF741FC0446E2
:101A80001F4B1B6813F0007F06D1FFF739FC001BCA
:101A90000228F5D903202DE000202BE0184B1A680E
:101AA00042F080721A60DA6842F08072DA60FFF702
:101AB00027FC0446124B1B6813F0007F06D1FFF78A
:101AC0001FFC031B022BF5D9032013E0002011E0BB
:101AD0000B4AD1680C4B0B40D36000200AE0012078
:101AE0007047012006E0012004E0012002E001200F
:101AF00000E0002003B0F0BD0120FBE70120F9E782
:101B0000001002408C809D01FCFFEEFE002800F0DA
:101B1000AF8070B50D460446594B1B6803F00703B0
:101B20008B420BD2564A136823F007030B43136012
:101B3000136803F007038B4240F09C80236813F086
:101B4000020F0CD0A2684F4B9B6803F0F0039A423F
:101B500005D94C498B6823F0F0031A438A60236847
:101B600013F0010F39D06368032B09D0022B26D064
:101B700063BB444A126812F0020F06D1012076E0DE
:101B8000404A126812F0007F76D03E498A6822F0FF
:101B9000030213438B60FFF7B3FB0646394B9B6888
:101BA00003F00C036268B3EB820F16D0FFF7A8FBBB
:101BB000801B41F288339842F0D9032057E0314A24
:101BC000126812F4003FE0D1012050E02D4A126863
:101BD00012F4806FD9D1012049E0236813F0020F7D
:101BE0000CD0A268274B9B6803F0F0039A4205D201
:101BF00024498B6823F0F0031A438A60204B1B684A
:101C000003F00703AB420AD91D4A136823F0070308
:101C10002B431360136803F00703AB422ED12368F4
:101C200013F0040F06D0174A936823F4E063E168C9
:101C30000B439360236813F0080F07D0114A936891
:101C400023F46053216943EAC1039360FFF7CEFB9D
:101C50000C4B9B68C3F303130B4AD35C03F01F03C5
:101C6000D8400A4B18600A4B186801F0B9F870BDEB
:101C7000012070470120FAE70120F8E70120F6E78C
:101C80000020024000100240484E00080C000020D6
:101C900008000020014B1868704700BF0C000020AE
:101CA00008B5FFF7F7FF054B9B68C3F30223044A0F
:101CB000D35C03F01F03D84008BD00BF00100240F2
:101CC000584E000808B5FFF7E5FF054B9B68C3F3C6
:101CD000C223044AD35C03F01F03D84008BD00BFF1
:101CE00000100240584E00080F2303600B4B9A6807
:101CF00002F0030242609A6802F0F00282609A6881
:101D000002F4E062C2609B68DB0803F4E0630361F5
:101D1000034B1B6803F007030B6070470010024081
:101D200000200240F8B504460F46584BDB6813F01C
:101D3000030F18D0554BDB6803F00303026893428E
:101D400002D001252846F8BD002A00F09D804F4BA7
:101D5000DB68C3F3021301334268934201D00125CB
:101D6000F0E7002509E00368022B56D0032B5BD077
:101D7000012B41D00125002DE4D1444A136823F002
:101D800080631360FFF7BCFA0646404B1B6813F0F4
:101D9000006F05D0FFF7B4FA831B022BF5D903259A
:101DA000002DCFD1002F4DD138490B6923F0784356
:101DB00023F4FE43A068E268D20642EA00221343FD
:101DC0000B61324A136843F080631360FFF798FA9F
:101DD00006462E4B1B6813F0006F05D1FFF790FAF3
:101DE000831B022BF5D90325002DABD1274A13699C
:101DF000A1690B431361A5E7244A126812F0020F90
:101E00001ED02248C26822F073026168013943EA99
:101E100001131343C3600025ADE71C4A126812F496
:101E2000806FEED10125A6E7184A126812F4003F30
:101E3000E7D1164A126812F4802FE2D101259AE701
:101E4000012598E7012F0FD01048026922F0C062E7
:101E500022F4FE42A16863695B08013B5B0643EA2A
:101E6000012313430361ACE70848026922F4C0026E
:101E700022F4FE42A16823695B08013B5B0543EA4B
:101E80000123134303619CE701255BE70010024037
:101E90002DE9F04182B00446036813F4006F25D0A9
:101EA000C36BB3F5000F06D0B3F5400F12D04BB1A2
:101EB000012637461CE0AE4AD36843F48033D36032
:101EC000002708E000210430FFF72CFF074610B17F
:101ED00006460DE00027A64AD2F8883023F44003D6
:101EE000E16B0B43C2F88830002601E0002637463C
:101EF000236813F4003F6BD09D4B9B6D13F0805F04
:101F00004CD19B4B9A6D42F080529A659B6D03F0C9
:101F100080530193019B4FF00108964A136843F4E4
:101F200080731360FFF7ECF90546924B1B6813F4BE
:101F3000807F05D1FFF7E4F9401B0228F5D903277C
:101F4000002F40D18A4BD3F8903013F4407315D052
:101F5000226D9A4212D0864AD2F8903023F4407310
:101F6000D2F8901041F48031C2F89010D2F890105D
:101F700021F48031C2F89010C2F8903013F0010FB4
:101F80000FD1002F40F0C980794AD2F8903023F465
:101F90004073216D0B43C2F8903015E04FF00008FC
:101FA000BBE7FFF7ADF90546714BD3F8903013F05E
:101FB000020FE6D1FFF7A4F9401B41F288339842A3
:101FC000F2D90327DDE73E46B8F1000F40F0A780C5
:101FD000236813F0010F08D0654AD2F8883023F047
:101FE0000303216A0B43C2F88830236813F0020F01
:101FF00008D05F4AD2F8883023F00C03616A0B43A3
:10200000C2F88830236813F0200F08D0584AD2F85D
:10201000883023F44063A16A0B43C2F888302368F8
:1020200013F4007F08D0524AD2F8883023F44023BA
:10203000616B0B43C2F88830236813F4806F08D0BB
:102040004B4AD2F8883023F44013A16B0B43C2F8FB
:102050008830236813F0400F08D0454AD2F8883002
:1020600023F44053E16A0B43C2F88830236813F429
:10207000807F08D03E4AD2F8883023F44033216B69
:102080000B43C2F88830236813F4005F0FD0384A3E
:10209000D2F8883023F04063216C0B43C2F88830BB
:1020A000236CB3F1006F40D0B3F1806F42D023684E
:1020B00013F4802F0FD02E4AD2F8883023F04063DB
:1020C000616C0B43C2F88830636CB3F1006F39D098
:1020D000B3F1806F3BD0236813F4804F0CD0244AB7
:1020E000D2F8883023F04053A16C0B43C2F88830FB
:1020F000A36CB3F1805F32D0236813F4004F08D093
:102100001B4AD2F8883023F08043E16C0B43C2F8BD
:102110008830304602B0BDE8F0813E4654E7144AAC
:10212000936D23F08053936552E7D36843F4801393
:10213000D360BCE70121201DFFF7F4FD0028B6D0D5
:102140000646B4E7D36843F48013D360C3E70121A4
:10215000201DFFF7E7FD0028BDD00646BBE70221A2
:10216000201DFFF7DFFD0028C6D00646C4E700BFEC
:102170000010024000700040F0B583B0002362E020
:1021800085685E000324B44025EA0405CC68B440A9
:102190002C438460446824EA0C0C4C68C4F300149B
:1021A0009C4044EA0C0444605EE0DD08083550F8C9
:1021B000256003F007044FEA840C0F2404FA0CF4A2
:1021C00026EA040E0C6904FA0CF444EA0E0440F802
:1021D000254060E0022400E0002404FA0EF42C43C1
:1021E0000CF1020C4C4D45F82C404C4CA568D443E6
:1021F00025EA02064F6817F4801F01D042EA05065F
:10220000464DAE60ED6804EA05064F6817F4001FFE
:1022100001D042EA0506414DEE606D6804EA05060C
:102220004F6817F4003F01D042EA05063B4D6E604F
:102230002D682C404E6816F4803F01D042EA050418
:10224000364A146001330A6832FA03F462D04FF060
:10225000010C0CFA03FC1CEA0202F3D04C6804F0F7
:102260000304013C012C8BD94C6804F00304032CBB
:102270000CD0C4685D004FF0030C0CFA05FC24EA96
:102280000C0C8C68AC4044EA0C04C4604C6804F04C
:102290000304022C89D004684FEA430E4FF0030C6C
:1022A0000CFA0EFC24EA0C0C4C6804F0030404FA4B
:1022B0000EF444EA0C0404604C6814F4403FC1D0AE
:1022C000174C256E45F001052566246E04F00104C7
:1022D0000194019C4FEA930C0CF102050E4C54F84A
:1022E000255003F003044FEA840E0F2404FA0EF481
:1022F00025EA0405B0F1904F3FF46EAF094CA042BF
:1023000006D004F58064A0423FF464AF072464E77C
:10231000012462E703B0F0BD000001400004014069
:1023200000100240000400480AB1816170478162D8
:102330007047000008B5054B5B69034200D108BD3A
:10234000024B5861FEF794F9F9E700BF0004014021
:10235000002859D010B5044690F84130002B43D0E6
:10236000242384F841302268136823F001031360AA
:102370006368226823F0706313612268936823F412
:1023800000439360E368012B33D0A368226843F4D1
:1023900004439360E368022B31D02268536843F012
:1023A000007343F4004353602268D36823F400436E
:1023B000D360236962691343A169226843EA012358
:1023C000D360E369216A22680B43136022681368B3
:1023D00043F00103136000206064202384F841303F
:1023E000206384F8420010BD80F84030FEF71AFBED
:1023F000B6E7A368226843F400439360CAE7236802
:102400004FF400625A60C8E70120704790F84130ED
:10241000DBB2202B24D190F84030012B22D00123B5
:1024200080F84030242380F841300268136823F09C
:10243000010313600268136823F480531360026879
:102440001368194311600268136843F001031360B5
:10245000202380F84130002380F840301846704730
:10246000022070470220704790F84130DBB2202BE9
:1024700022D190F84030012B20D0012380F8403049
:10248000242380F841300268136823F001031360AD
:102490000268136823F4706343EA01211160026843
:1024A000136843F001031360202380F841300023B8
:1024B00080F840301846704702207047022070476D
:1024C000024B186800F4C060704700BF0070004005
:1024D000B0F5007F0FD01F4B1B6803F4C063B3F54A
:1024E000806F34D01B4A136823F4C06343F48063C5
:1024F000136000207047174B1B6803F4C063B3F5EB
:10250000007F20D0134A136823F4C06343F40073A0
:102510001360114B1B68322202FB03F30F4AA2FB2C
:1025200003239B0C013300E0013B0A4A526912F479
:10253000806F01D0002BF7D1064B5B6913F4806FDD
:1025400003D100207047002070470320704700200F
:10255000704700BF007000400C00002083DE1B436A
:10256000074AD36823F4E0631B041B0C000200F449
:10257000E060034343F0BF6343F40033D36070472C
:1025800000ED00E000B5194BDB68C3F30223C3F193
:10259000070CBCF1040F28BF4FF0040C03F1040E2C
:1025A000BEF1060F18D9033B4FF0FF3E0EFA0CFCAC
:1025B00021EA0C0199400EFA03F322EA03031943BE
:1025C00000280BDB0901C9B200F1604000F5614051
:1025D00080F800135DF804FB0023E5E700F00F002E
:1025E0000901C9B2024B1954F4E700BF00ED00E045
:1025F00014ED00E0002807DB00F01F024009012372
:102600009340024A42F82030704700BF00E100E0EA
:102610007047000090F83D30DBB2012B26D1022339
:1026200080F83D300268D36843F00103D36003684B
:10263000114A93420CD0B3F1804F09D002F5A05259
:10264000934205D01A6842F001021A6000207047D8
:1026500099680A4A0A40062A0AD0B2F5803F09D092
:102660001A6842F001021A6000207047012070478A
:102670000020704700207047002C01400700010037
:10268000704770477047704710B5044603681A6971
:1026900012F0020F11D0DA6812F0020F0DD06FF0B5
:1026A00002021A610123037703689B6913F0030F89
:1026B00079D0FFF7E6FF0023237723681A6912F029
:1026C000040F12D0DA6812F0040F0ED06FF004027B
:1026D0001A610223237723689B6913F4407F68D033
:1026E0002046FFF7CEFF0023237723681A6912F0F4
:1026F000080F12D0DA6812F0080F0ED06FF008023F
:102700001A61042323772368DB6913F0030F57D082
:102710002046FFF7B6FF0023237723681A6912F0DB
:10272000100F12D0DA6812F0100F0ED06FF01002F6
:102730001A61082323772368DB6913F4407F46D0AE
:102740002046FFF79EFF0023237723681A6912F0C3
:10275000010F03D0DA6812F0010F3FD123681A6924
:1027600012F0800F03D0DA6812F0800F3DD1236899
:102770001A6912F4807F03D0DA6812F0800F3BD11F
:1027800023681A6912F0400F03D0DA6812F0400F84
:1027900039D123681A6912F0200F03D0DA6812F0D9
:1027A000200F37D110BDFFF76BFF2046FFF76AFF00
:1027B00081E72046FFF764FF2046FFF763FF92E7BB
:1027C0002046FFF75DFF2046FFF75CFFA3E72046AA
:1027D000FFF756FF2046FFF755FFB4E76FF0010201
:1027E0001A612046FDF746FFB8E76FF080021A61D4
:1027F000204600F080F8BAE76FF480721A61204634
:1028000000F07AF8BCE76FF040021A612046FFF74B
:102810003AFFBEE76FF020021A61204600F06AF826
:10282000C0E7000003681A4A904202D0B0F1804F1E
:1028300003D123F070034A681343154A90420AD02B
:10284000B0F1804F07D002F5A052904203D002F5BC
:102850008062904203D123F44073CA68134323F08B
:1028600080034A69134303608B68C3620B68836209
:10287000074B984207D003F5A053984203D003F5C5
:102880008063984201D10B69036301234361704760
:10289000002C014060B310B5044690F83D3013B3EE
:1028A000022384F83D30214651F8040BFFF7BAFFAC
:1028B000012384F8483084F83E3084F83F3084F8AF
:1028C000403084F8413084F8423084F8433084F852
:1028D000443084F8453084F8463084F8473084F832
:1028E0003D30002010BD80F83C30FFF791FED7E767
:1028F00001207047704770477047000010B50446CC
:10290000016883680269134342691343C269134330
:1029100008688C4A024013430B602268536823F412
:102920004053E1680B435360A1692268864B9A4289
:1029300001D0236A1943936823F430630B439360F7
:102940002368824A93421CD0814A93422DD07E4A0A
:10295000934243D010227C498B4260D0E069B0F5AD
:10296000004F00F08C80082A00F2E580DFE812F0CA
:10297000B400CA00B200E300CD00E300E300E300CE
:10298000D00002F55842D2F8882002F00302032A50
:1029900009D8DFE802F0020438060122DBE704224E
:1029A000D9E70822D7E71022D5E702F5E632D2F8B8
:1029B000882002F00C020C2A0ED8DFE802F0070D86
:1029C0000D0D090D0D0D260D0D0D0B000022C2E79A
:1029D0000422C0E70822BEE71022BCE702F5C83295
:1029E000D2F8882002F44062B2F5006F0FD005D80B
:1029F0007AB1B2F5806F0ED10422ACE7B2F5406F28
:102A00000BD10822A7E70222A5E70222A3E70222B0
:102A1000A1E700229FE710229DE710229BE7082AEA
:102A200079D8DFE802F008782A78277878780500E6
:102A30004FF4004003E0FFF733F900286DD06268DF
:102A400002EB420383426AD8B0EB023F69D8010E21
:102A500000025308C0184FF0000341F10001FDF7D8
:102A6000B7FBA0F540723B4B9A425CD82368D86014
:102A7000002043E0FEF7BAFCDFE73748DFE7082A2B
:102A800053D8DFE802F007210552245252520B00BE
:102A9000314803E0FFF704F9002848D06268530882
:102AA00003EB4000B0FBF2F0A0F110024FF6EF7321
:102AB0009A423ED883B223F00F03C0F3420018437A
:102AC0002368D860002019E0FFF7FCF8E4E7FEF780
:102AD0008DFCE1E7204802E0FFF7E2F868B36368A5
:102AE00000EB5300B0FBF3F0A0F110024FF6EF73D0
:102AF0009A4224D8236880B2D860002000236366FD
:102B0000A36610BDFFF7DEF8E8E7FEF76FFCE5E728
:102B10004FF40040E3E70120F0E70020EEE701205A
:102B2000ECE70120EAE70120E8E70120E6E70020E2
:102B3000E4E70120E2E70120E0E70020DEE70120F2
:102B4000DCE700BFF369FFEF008000400038014080
:102B500000440040FFFC0F000024F400436A13F01F
:102B6000010F06D00268536823F40033816A0B43D7
:102B70005360436A13F0020F06D00268536823F4CF
:102B80008033C16A0B435360436A13F0040F06D0CD
:102B90000268536823F48023016B0B435360436A3C
:102BA00013F0080F06D00268536823F40043416B0A
:102BB0000B435360436A13F0100F06D0026893680A
:102BC00023F48053816B0B439360436A13F0200F0F
:102BD00006D00268936823F40053C16B0B439360E3
:102BE000436A13F0400F0AD00268536823F480133D
:102BF000016C0B435360036CB3F5801F0BD0436A29
:102C000013F0800F06D00268536823F40023816C10
:102C10000B43536070470268536823F4C003416C50
:102C20000B435360EBE72DE9F84305460F46164684
:102C30009946DDF820802C68E46937EA04030CBF6C
:102C40004FF0010C4FF0000CB44553D1B8F1FF3FE9
:102C5000F1D0FEF755FBA0EB090040452DD8B8F1A7
:102C6000000F2AD02B681A6812F0040FE3D0DA693B
:102C700012F4006FDFD04FF400621A622A6852E843
:102C8000003F23F4D07342E800310029F6D12A68CE
:102C900002F1080353E8003F23F00103083242E841
:102CA00000310029F3D12023AB67EB67C5F88030F2
:102CB000002385F8743003201DE02A6852E8003FA5
:102CC00023F4D07342E800310029F6D12A6802F1DA
:102CD000080353E8003F23F00103083242E80031C3
:102CE0000029F3D12023AB67EB67002385F874300C
:102CF000032000E00020BDE8F88330B583B004462F
:102D00000023C0F88030FEF7FBFA054622681268FF
:102D100012F0080F0DD123681B6813F0040F16D1B1
:102D20002023A367E3670020206684F8740003B0C3
:102D300030BD6FF07E430093034600224FF4001134
:102D40002046FFF770FF0028E5D00320EFE76FF083
:102D50007E4300932B4600224FF480012046FFF76C
:102D600062FF0028DCD00320E1E768B310B5044619
:102D7000836F03B32423A3672268136823F001033E
:102D800013602046FFF7BAFD012813D0636ABBB970
:102D90002268536823F4904353602268936823F0B9
:102DA0002A0393602268136843F0010313602046EE
:102DB000FFF7A3FF10BD80F87430FDF777FED9E769
:102DC0002046FFF7CBFEE3E701207047034AD2F825
:102DD000883043F47003C2F88830704700ED00E09B
:102DE00030B589B004461E4B1A6E42F400621A6672
:102DF0001B6E03F400630193019B02A903A8FEF775
:102E000073FFFEF75FFF03461648A0FB03239B0CEE
:102E1000013B1548154A026040F2E732C260436048
:102E20000023036183608361FFF734FD054610B121
:102E3000284609B030BD0C48FFF7ECFB05460028DA
:102E4000F6D11920FFF7D6FB0F2C01D90125EFE7AA
:102E5000002221461920FFF795FB054B1C60E7E790
:102E60000010024083DE1B43EC010020002C0140D7
:102E70000800002000F1080343604FF0FF32826039
:102E8000C360036100230360704700230361704740
:102E900043684B609A688A60516099600861036872
:102EA00001330360704730B40D68B5F1FF3F11D0B6
:102EB00000F108031C465B681A68AA42FAD96368E5
:102EC0004B6099608C606160086103680133036046
:102ED00030BC70470469F2E70369416882688A6020
:102EE000416851605A68824206D0002202611A6825
:102EF000013A1A601868704782685A60F5E710B5A1
:102F0000044601F0FFFCA26BE36B9A4204D000245C
:102F100001F01AFD204610BD0124F9E710B5044662
:102F200001F0F0FCA36B23B9012401F00DFD204654
:102F300010BD0024F9E770B504461546866B026C97
:102F40005AB903681BB100200136A66370BD8068C2
:102F500001F018F80023A360F6E76DB9406801F0AE
:102F600073FE226C636813446360A268934219D3B2
:102F7000236863602846E7E7C06801F065FE226CBD
:102F80005142E3689B1AE3602268934202D2A3682D
:102F90000B44E360022D01D00020D5E726B1013EAD
:102FA0000020D1E72846CFE70020CDE70346026C9A
:102FB0006AB110B50846D9681144D9609C68A1422D
:102FC00001D31968D960D96801F03EFE10BD704781
:102FD00038B5054601F096FC95F8454064B201E02D
:102FE000013C64B2002C0ADD6B6A43B105F1240098
:102FF00000F01EFF0028F3D000F0AEFFF0E7FF2343
:1030000085F8453001F0A0FC01F07CFC95F84440C7
:1030100064B201E0013C64B2002C0ADD2B6943B1CB
:1030200005F1100000F004FF0028F3D000F094FF39
:10303000F0E7FF2385F8443001F086FC38BD38B551
:10304000E0B10D46044601F05DFC2368E26B216CA3
:1030500001FB0230A0600020A0636360013A02FB24
:103060000133E360FF2384F8443084F84530FDB930
:10307000236963B901F068FC012038BD4FF05003AB
:1030800083F31188BFF36F8FBFF34F8FFEE704F117
:10309000100000F0CDFE0028ECD04FF0E0234FF000
:1030A0008052C3F8042DBFF34F8FBFF36F8FE1E75A
:1030B00004F11000FFF7DEFE04F12400FFF7DAFE52
:1030C000D8E738B51D46049C0B4649B92460E06337
:1030D000236401212046FFF7B2FF84F84C5038BD2D
:1030E0002260F4E740B94FF0500383F31188BFF337
:1030F0006F8FBFF34F8FFEE710B584B01C46844638
:1031000053B192B189B94FF0500383F31188BFF3E3
:103110006F8FBFF34F8FFEE74FF0500383F311889B
:10312000BFF36F8FBFF34F8FFEE76AB15023039356
:10313000039B502B13D04FF0500383F31188BFF340
:103140006F8FBFF34F8FFEE70029EFD04FF0500392
:1031500083F31188BFF36F8FBFF34F8FFEE7039B9D
:10316000012384F8463000949DF818306046FFF73C
:10317000A8FF204604B010BDF0B585B0019288B11B
:103180000F461D460446B1B1022D20D1E36B012B41
:103190001DD04FF0500383F31188BFF36F8FBFF33F
:1031A0004F8FFEE74FF0500383F31188BFF36F8F0B
:1031B000BFF34F8FFEE7036C002BE5D04FF05003B9
:1031C00083F31188BFF36F8FBFF34F8FFEE700F0DB
:1031D000C9FE064658B9019B002B48D04FF050035A
:1031E00083F31188BFF36F8FBFF34F8FFEE7002685
:1031F0003DE02A4639462046FFF79DFE636A7BB9CB
:1032000048B14FF0E0234FF08052C3F8042DBFF3D4
:103210004F8FBFF36F8F01F097FB012005B0F0BD1A
:1032200004F1240000F004FE0028F4D04FF0E02365
:103230004FF08052C3F8042DBFF34F8FBFF36F8F51
:10324000E9E701F081FB0020E8E702A800F036FE84
:10325000012619E0002384F8443021E0002384F89B
:10326000453023E02046FFF7B3FE00F0BBFC01F041
:1032700049FBA26BE36B9A42BBD3022DB9D0019BF1
:10328000002BDED0002EE0D001F05EFB00F010FC41
:1032900001F038FB94F8442052B2B2F1FF3FD9D08C
:1032A00094F8452052B2B2F1FF3FD7D001F04CFB69
:1032B00001A902A800F00EFED8B92046FFF71FFEB4
:1032C0000028CFD0019904F1100000F07DFD2046C8
:1032D000FFF77EFE00F086FC0028C8D14FF0E02307
:1032E0004FF08052C3F8042DBFF34F8FBFF36F8FA1
:1032F000BDE72046FFF76CFE00F074FC00208DE770
:103300002DE9F84390B10F4616461C460546B1B16B
:10331000022C20D1EB6B012B1DD04FF0500383F317
:103320001188BFF36F8FBFF34F8FFEE74FF050034D
:1033300083F31188BFF36F8FBFF34F8FFEE7036CEA
:10334000002BE5D04FF0500383F31188BFF36F8F4C
:10335000BFF34F8FFEE701F0FBFBEFF311894FF056
:10336000500383F31188BFF36F8FBFF34F8FAA6BA6
:10337000EB6B9A4206D3022C04D0002089F311880B
:10338000BDE8F88395F845804FFA88F8AB6B224684
:1033900039462846FFF7CFFDB8F1FF3F06D008F1C8
:1033A00001035BB285F845300120E7E76B6A0BB992
:1033B0000120E3E705F1240000F03AFD18B126B141
:1033C00001203060DAE70120D8E70120D6E7F0B528
:1033D00085B0019290B10F460446C1B100F0C2FD24
:1033E000064600BB019B002B5ED04FF0500383F3D9
:1033F0001188BFF36F8FBFF34F8FFEE74FF050037D
:1034000083F31188BFF36F8FBFF34F8FFEE7036C19
:10341000002BE3D04FF0500383F31188BFF36F8F7D
:10342000BFF34F8FFEE700263EE039462046FFF708
:10343000BDFD013DA563236923B901F085FA012093
:1034400005B0F0BD04F1100000F0F2FC0028F4D04B
:103450004FF0E0234FF08052C3F8042DBFF34F8F9D
:10346000BFF36F8FE9E701F06FFA0020E8E702A8E9
:1034700000F024FD012621E0002384F8443029E0F7
:10348000002384F845302BE02046FFF7A1FD00F033
:10349000A9FB09E02046FFF79BFD00F0A3FB2046B7
:1034A000FFF73CFD00283FD101F02CFAA56B002D61
:1034B000BBD1019B002BD6D0002ED8D001F044FA0E
:1034C00000F0F6FA01F01EFA94F844305BB2B3F162
:1034D000FF3FD1D094F845305BB2B3F1FF3FCFD07E
:1034E00001F032FA01A902A800F0F4FC0028D1D1C1
:1034F0002046FFF713FD0028C6D0019904F12400EF
:1035000000F062FC2046FFF763FD00F06BFB002833
:10351000CAD14FF0E0234FF08052C3F8042DBFF31F
:103520004F8FBFF36F8FBFE7002089E70023072B82
:103530000CD8074A52F833200AB10133F7E7044A9E
:1035400042F8331002EBC30358607047704700BF66
:103550003802002070B504460D46164601F0D2F937
:1035600094F844305BB2B3F1FF3F0DD094F845308E
:103570005BB2B3F1FF3F0BD001F0E6F9A36B5BB197
:103580002046FFF725FD70BD002384F84430EDE7A9
:10359000002384F84530EFE73246294604F1240041
:1035A00000F02AFCECE70000084B1B681B6823B9FD
:1035B000074B4FF0FF321A607047044B1B68DB6803
:1035C000DB685A68024B1A60704700BF7C0200201B
:1035D000240700202DE9F04780460D4617469946FE
:1035E000089EDDF824A00A9C9200A521206B01F022
:1035F00039FB236B07F18042013A03EB820727F086
:103600000707002D65D04FF0000CBCF10F0F0BD851
:1036100015F80C2004EB0C0383F8342015F80C305B
:1036200013B10CF1010CF0E7002384F84330372E7E
:1036300000D93726E662E66400252565201DFFF7E0
:1036400024FC04F11800FFF720FC2461C6F13806C1
:10365000A6616462C4F8805484F884544FF485628F
:10366000294604F1580001F0FDFA04F55173E365B1
:1036700004F56B73236604F214436366012200238E
:10368000C4E9402343F20E33A4F808314AF6CD339F
:10369000A4F80A3141F23423A4F80C314EF26D63E0
:1036A000A4F80E314DF6EC63A4F810310523A4F80C
:1036B00012310B23A4F814314A464146384601F032
:1036C000F3F82060BAF1000F01D0CAF80040BDE85D
:1036D000F087002384F83430A9E7000038B50024CF
:1036E00007E004EB840293000E481844FFF7C2FB86
:1036F0000134372CF5D90C4D2846FFF7BBFB0B4C9A
:103700002046FFF7B7FB0A48FFF7B4FB0948FFF76D
:10371000B1FB0948FFF7AEFB084B1D60084B1C606E
:1037200038BD00BF84020020F80600200C070020EE
:10373000300700205C070020480700207C020020A2
:103740008002002010B5044601F0DCF8224A13681C
:1037500001331360214B1B685BB1214B1B686BB9B4
:103760001E4B1B68DA6AE36A9A4207D81B4B1C603F
:1037700004E01A4B1C601368012B29D0194A136806
:10378000013313606364E06A174B1B68984201D9E8
:10379000154B186000EB8000211D144B03EB8000DB
:1037A000FFF776FB01F0D0F80D4B1B687BB10B4B9C
:1037B0001B68DA6AE36A9A4209D24FF0E0234FF0BD
:1037C0008052C3F8042DBFF34F8FBFF36F8F10BD2E
:1037D000FFF784FFD2E700BFE40600207802002054
:1037E00044070020F0060020F40600208402002098
:1037F00010B50446583001F04BFA94F8853463B1A3
:10380000012B11D0022B0ED04FF0500383F31188FF
:10381000BFF36F8FBFF34F8FFEE7206B00F0C8FF41
:10382000204600F0C5FF10BD204600F0C1FFFAE7BA
:103830000F4B1B68D3B110B501F064F80D4BDB687A
:10384000DC68201DFFF748FB0B4A1368013B13603F
:10385000074A1368013B136001F076F82046FFF732
:10386000C7FF034B1B68002BE6D110BD704700BF9C
:10387000E80600205C070020E406002008B5FFF7FA
:10388000D7FF074B1B68012BF9D94FF0E0234FF00E
:103890008052C3F8042DBFF34F8FBFF36F8FEEE755
:1038A0008402002070B504460D46174B1E68174B66
:1038B00018680430FFF710FBB4F1FF3F0DD034441B
:1038C000124B1B685C60A64210D9114B18680F4B55
:1038D00019680431FFF7E7FA70BD002DEFD00B4BEC
:1038E000196804310B48FFF7D3FAF5E70A4B18685B
:1038F000064B19680431FFF7D6FA084B1B68A34240
:10390000EAD9064B1C60E7E7700700207802002028
:1039100080020020480700207C02002024070020AD
:1039200030B587B00B9C8CB10C9DC5B14FF491653F
:103930000495049DB5F5916F1AD04FF0500383F3B1
:103940001188BFF36F8FBFF34F8FFEE74FF0500327
:1039500083F31188BFF36F8FBFF34F8FFEE74FF0F4
:10396000500383F31188BFF36F8FBFF34F8FFEE7D0
:10397000049D0C9D2C63022485F885440024039447
:10398000029505AC01940A9C0094FFF723FE0C9865
:10399000FFF7D8FE059807B030BD2DE9F04385B09C
:1039A0000746884614461E46900000F083FE08B382
:1039B00081464FF4916000F07DFE0546B0B1C0F83D
:1039C0003090E5B1002385F88534039302950D9B73
:1039D00001930C9B00933346224641463846FFF73D
:1039E000F9FD2846FFF7AEFE012005E0484600F04D
:1039F000DFFEE6E74FF0FF3005B0BDE8F0834FF0A3
:103A0000FF30F9E710B588B000240594069407AAA2
:103A100006A905A800F0D0FD059B0293069B019323
:103A200000942346079A1A491A48FFF779FF1A4B60
:103A3000186040B100F05AFB012806D0B0F1FF3FFA
:103A40001DD008B010BD0020F6E74FF0500383F3FF
:103A50001188BFF36F8FBFF34F8F104B1B68583324
:103A60000F4A13600F4B4FF0FF321A600E4B0122CA
:103A70001A600E4B00221A6000F0DEFFE1E74FF003
:103A8000500383F31188BFF36F8FBFF34F8FFEE7AF
:103A9000904E00087D3800082007002078020020A2
:103AA0001400002024070020440700207007002095
:103AB000024A136801331360704700BFEC06002010
:103AC000014B1868704700BF70070020F8B53A4BEB
:103AD0001B68002B69D1394B1D6801351D60C5B9C4
:103AE000374B1B681B6843B14FF0500383F31188B9
:103AF000BFF36F8FBFF34F8FFEE7314A1168314B31
:103B0000186810601960304A136801331360FFF7BA
:103B10004BFD2E4B1B68AB423DD900272C4B1B683D
:103B2000DB6A03EB83039A002A4B9B58012B00D9D5
:103B30000127294B1B68002B3CD001273AE00127C5
:103B40001F4B1B681B6843B31D4B1B68DB68DC689D
:103B500063689D4226D3261D3046FFF7BDF9A36A50
:103B60001BB104F11800FFF7B7F9E36A1B4A1268AA
:103B7000934201D9194A136003EB83039A0031463B
:103B800014481044FFF784F9E26A114B1B68DB6AA2
:103B90009A42D4D2D4E70027D2E70C4B4FF0FF3241
:103BA0001A60BBE7094A1360B8E70D4A136801338E
:103BB000136000273846F8BDEC060020700700208F
:103BC0007C0200208002002028070020240700201B
:103BD000780200208402002074070020F4060020F0
:103BE0002C07002038B5354B1B6843B94FF0500304
:103BF00083F31188BFF36F8FBFF34F8FFEE700F0A1
:103C000081FE2E4B1A68013A1A601B68002B4FD1B7
:103C10002B4B1B680BB900244BE00024294B1B687D
:103C20001BB3284BDB68DC6804F11800FFF754F97C
:103C3000251D2846FFF750F9E06A234B1B68984280
:103C400001D9214B186000EB800029461F4B03EB84
:103C50008000FFF71DF9E26A1D4B1B68DB6A9A4280
:103C6000DCD31C4B01221A60D8E70CB1FFF79CFC97
:103C7000194B1C6884B9174B1C68D4B14FF0E02372
:103C80004FF08052C3F8042DBFF34F8FBFF36F8FF7
:103C900001240EE0013C07D0FFF718FF0028F9D0FF
:103CA0000C4B01221A60F5E70B4B00221A60E2E789
:103CB000002400F049FE204638BD00BFEC0600207D
:103CC000E406002030070020F406002084020020D3
:103CD00078020020740700202C07002010B5A8B13E
:103CE0000446104B1B6843B14FF0500383F3118817
:103CF000BFF36F8FBFF34F8FFEE7FFF7D9FE0021B1
:103D00002046FFF7CFFDFFF76DFF48B94FF0E023E6
:103D10004FF08052C3F8042DBFF34F8FBFF36F8F66
:103D200010BD00BFEC060020214B1B681BB1214BCE
:103D300001221A6070471F4B00221A601E4B1B683D
:103D400003EB83018A001D498A585AB90BB1013B24
:103D5000F6E74FF0500383F31188BFF36F8FBFF383
:103D60004F8FFEE703EB830082000A4450684068EF
:103D7000506003EB830C4FEA8C02083211448842F6
:103D80000FD003EB830291000C4A0A445268D168B9
:103D90000B4A116008490B6013685833094A1360D5
:103DA0007047406862469100044A0A445060E8E760
:103DB000EC06002074070020F40600208402002096
:103DC000780200201400002058B110B50C46094AB2
:103DD00011681831FFF767F801212046FFF762FDEF
:103DE00010BD4FF0500383F31188BFF36F8FBFF303
:103DF0004F8FFEE77802002038B570B10D461446AB
:103E00000A4A11681831FFF743F80CB14FF0FF353B
:103E100021462846FFF746FD38BD4FF0500383F397
:103E20001188BFF36F8FBFF34F8FFEE7780200203A
:103E300038B5C368DC6824B304F118052846FFF7D9
:103E40004BF8184B1B682BBB251D2846FFF744F881
:103E5000E06A154B1B68984201D9134B186000EBC0
:103E600080002946114B03EB8000FFF711F8E26A4E
:103E70000F4B1B68DB6A9A4211D901200D4B186069
:103E800038BD4FF0500383F31188BFF36F8FBFF33A
:103E90004F8FFEE729460848FEF7FAFFE7E70020C4
:103EA000EEE700BFEC060020F406002084020020AC
:103EB000780200207407002030070020034B1B68A5
:103EC0000360034B1B684360704700BF2807002056
:103ED00070070020F8B5C8B10C460546F9B100F0EE
:103EE00011FD1B4B19686B68C81A2268B2F1FF3FBD
:103EF00026D0184E36682F68B74201D08B4224D99D
:103F0000824215D80023236001241AE04FF05003A9
:103F100083F31188BFF36F8FBFF34F8FFEE74FF02E
:103F2000500383F31188BFF36F8FBFF34F8FFEE70A
:103F30005B1A134423602846FFF7C0FF002400E00B
:103F4000002400F001FD2046F8BD0124F9E700BF80
:103F50007007002028070020014B01221A607047DB
:103F600074070020054B1B6833B1054B1B680BB170
:103F7000002070470220704701207047440700204E
:103F8000EC06002000283BD038B504461E4B1B68C9
:103F9000834208D04FF0500383F31188BFF36F8F33
:103FA000BFF34F8FFEE7036D43B94FF0500383F328
:103FB0001188BFF36F8FBFF34F8FFEE7013B03659F
:103FC000C16AC26C91421DD00BB1002038BD051DE5
:103FD0002846FEF781FFE06CE062C0F13803A36180
:103FE0000A4B1B68984201D9084B186000EB80000F
:103FF0002946074B03EB8000FEF74AFF0120E5E767
:10400000002070470020E1E778020020F40600203D
:1040100084020020064B1A6813682BB90123036041
:1040200023B9D368186870470023F8E70020704769
:104030007807002008B54160006191420CD8D21A7F
:1040400083699A4201D3012008BD011D094B1868FC
:10405000FEF729FF0020F7E79A4201D2994206D2E3
:10406000011D054B1868FEF71EFF0020ECE701203C
:10407000EAE700BF7C0700207807002030B583B056
:1040800000F040FC114B1B681BB100F05DFC03B05D
:1040900030BD0F4D2846FEF7EDFE0E4C2046FEF7D4
:1040A000E9FE0D4B1D600D4B1C60002300930C4B73
:1040B0000C4A10210A20FFF715F8044B186000285D
:1040C000E3D00949FFF732FADFE700BF9C08002080
:1040D0002008002034080020780700207C070020FA
:1040E0004C08002080070020984E000810B588B0CA
:1040F000FFF7C4FF124B1B68CBB100240594069454
:1041000007AA06A905A800F063FA059B0293069B7F
:104110000193022300932346079A0A490A48FFF7AE
:10412000FFFB0A4B186010B1012008B010BD4FF022
:10413000500383F31188BFF36F8FBFF34F8FFEE7F8
:104140009C080020A04E000851440008A008002050
:10415000B8B19C4603461848006858B300B585B00E
:1041600000910192029305291CDCFFF7FBFE022857
:1041700010D000231A4669460F480068FEF7FCFF7E
:1041800015E04FF0500383F31188BFF36F8FBFF337
:104190004F8FFEE70023069A694607480068FEF73E
:1041A000EBFF04E0002362466946FFF7A9F805B07B
:1041B0005DF804FB002070479C08002070B582B0B9
:1041C0001B4B1B681A6862B3DB681E68DC68251D20
:1041D0002846FEF781FE236A2046984794F8283047
:1041E00013F0040FECD0A36933449E4207D26360FE
:1041F000246129460E4B1868FEF755FEE0E70021C2
:1042000000910B4632462046FFF7A2FF0028D7D187
:104210004FF0500383F31188BFF36F8FBFF34F8FBD
:10422000FEE7044A106802490860136002B070BDDE
:10423000780700207C07002038B50546FFF740FCD2
:104240000446074B1B68834205D800232B60044BB0
:104250001C60204638BDFFF7B1FF01232B60F6E755
:104260004808002070B582B006460D461749096817
:10427000C968CC68201DFEF72FFE94F828C01CF0FA
:10428000040F08D12CF0010C84F828C0236A2046C2
:10429000984702B070BDA16933462A463144204692
:1042A000FFF7C8FE0028F1D0002100910B463246EE
:1042B0002046FFF74DFF0028E8D14FF0500383F36D
:1042C0001188BFF36F8FBFF34F8FFEE77807002091
:1042D00070B582B006460C46FFF7EAFB01A8FFF76F
:1042E000ABFF019B33BB05460CB9B04219D224B1D8
:1042F000124A12681268DAB901242246711B104B67
:104300001868FFF727F9FFF76DFCA8B94FF0E02315
:104310004FF08052C3F8042DBFF34F8FBFF36F8F60
:104320000AE0FFF75FFC29463046FFF79BFF03E0FA
:104330001C46E2E7FFF756FC02B070BD7C07002088
:104340009C08002010B588B002E0049B002B0FDA17
:10435000002204A93D4B1868FFF739F8002873D0F4
:10436000049B002BF1DA07990698059B9847ECE728
:10437000069C636913B1201DFEF7AEFD03A8FFF78D
:104380005BFF049B092BE3D8DFE803F0050505304C
:1043900037500505303794F8283043F0010384F88E
:1043A0002830059BA169024619442046FFF742FECA
:1043B0000028CDD0236A2046984794F8283013F07F
:1043C000040FC5D0A269002100910B460598024454
:1043D0002046FFF7BDFE0028BAD14FF0500383F30B
:1043E0001188BFF36F8FBFF34F8FFEE794F828302B
:1043F00023F0010384F82830AAE794F8283043F02A
:10440000010384F828300599A16131B103460246C1
:1044100001442046FFF70EFE9AE74FF0500383F366
:104420001188BFF36F8FBFF34F8FFEE794F82830EA
:1044300013F0020F04D023F0010384F8283087E73B
:10444000204600F0B5F983E708B010BD9C080020B5
:1044500000B583B001A8FFF7DDFD0199FFF738FF34
:10446000FFF770FFF6E708B54FF0E0231B69FFF791
:1044700079FD012800D108BD00F0B4FAFBE7000087
:10448000EFF305832BB9064B186828B901221A608F
:1044900070476FF0050070474FF0FF30704700BF66
:1044A000300F0020EFF3058373B90A4B1B68012B13
:1044B0000DD110B50024084BDC77064B02221A60A0
:1044C000FFF7A0FA204610BD6FF0050070474FF0CF
:1044D000FF307047300F002000ED00E0F0B587B0EE
:1044E00000240594EFF305847CBB70B32AB31568F0
:1044F000936903B918235C1E372C4AD8546814F00A
:10450000010F48D1566976B14FEA960C946834B1E0
:10451000D768B7F5916F02D3176907B1C6B92CB147
:104520004FF0FF340EE04FF0800CEFE7D4688CB909
:10453000146994B14FF0FF3404E0154600241823A9
:104540004FF0800C012C0AD0ACB1059807B0F0BD3B
:104550000124F7E74FF0FF34F4E70024F2E7146991
:1045600092680292019400930B4662462946FFF737
:10457000D7F90590E9E705AA019200930B461FFAC7
:104580008CF22946FFF709FA0128DED000230593B3
:10459000DBE70020DAE70020D8E708B5EFF3058372
:1045A00033B908B9002008BDFFF798FB0020FAE7EF
:1045B0006FF00500F7E70000034B0360034B0B604F
:1045C00080231360704700BFA80A0020A4080020C1
:1045D000034B0360034B0B604FF480731360704711
:1045E00038130020340F0020134A12F0070F1FD099
:1045F000D11D21F00701C1F53B63083313440A467E
:104600000E480260002141601344083B23F0070379
:104610000B48036059601960991A51601360094B87
:104620001960094B1960094B4FF000421A6070473E
:1046300040F6B833E4E700BFC41700209023002001
:10464000C017002084230020802300207C2300202A
:10465000164B1A461B688342FBD3516802EB010CD0
:10466000844509D0416800EB010C634509D0036023
:10467000904219D010607047406801445160104664
:10468000F0E710B40A4C2468A3420BD05B681944CD
:10469000416013681B680360904200D010605DF8B1
:1046A000044B70470460F7E7704700BF9023002079
:1046B000C017002070B50546FFF7FAF9364B1B68A6
:1046C000A3B1364B1B681D424ED135B1083515F0EC
:1046D000070F02D025F007050835002D46D0304BD6
:1046E0001B68AB4251D32F4A146804E0FFF77CFFEC
:1046F000E7E722461C466368AB4202D22368002BE0
:10470000F7D1254B1B68A34241D0166808362368B1
:10471000136063685B1B102B10D9601910F0070F32
:1047200008D04FF0500383F31188BFF36F8FBFF3AE
:104730004F8FFEE743606560FFF78AFF62681849A4
:104740000B689B1A0B60184909688B4201D2164905
:104750000B60124B1B681343636000232360134AF2
:1047600013680133136002E0002600E00026FFF723
:1047700039FA16F0070F0CD04FF0500383F311886D
:10478000BFF36F8FBFF34F8FFEE70026EFE70026E2
:10479000EDE7304670BD00BFC01700207C2300202D
:1047A00080230020902300208423002088230020E1
:1047B000002834D038B50446A0F1080550F8043C70
:1047C000174A1268134208D14FF0500383F311883F
:1047D000BFF36F8FBFF34F8FFEE750F8081C41B156
:1047E0004FF0500383F31188BFF36F8FBFF34F8FE8
:1047F000FEE723EA020340F8043CFFF759F954F8B6
:10480000041C084A13680B4413602846FFF720FF76
:10481000054A136801331360FFF7E4F938BD7047A8
:104820007C230020802300208C23002082B00023E2
:1048300001930D4B1B68B3F1FF3F08D04FF05003BD
:1048400083F31188BFF36F8FBFF34F8FFEE74FF0F5
:10485000500383F31188BFF36F8FBFF34F8F019B1A
:10486000002BFCD002B07047100000200848006800
:10487000006880F308884FF0000080F3148862B667
:1048800061B6BFF34F8FBFF36F8F00DF00BF000033
:1048900008ED00E0DFF80C00016841F470010160F0
:1048A0007047000088ED00E04FF0807340F8043C52
:1048B00021F0010140F8081C054B40F80C3C40F881
:1048C000202C6FF0020340F8243C4438704700BFAE
:1048D0002D4800080000000000000000000000005B
:1048E000074B19680868B0E8F04F80F30988BFF3F8
:1048F0006F8F4FF0000080F311887047AFF3008096
:10490000780200204FF0500383F31188BFF36F8FBC
:10491000BFF34F8F0B4A136801331360012B00D094
:1049200070474FF0E023D3F8043D13F0FF0FF7D0AA
:104930004FF0500383F31188BFF36F8FBFF34F8F96
:10494000FEE700BF10000020094B1B6843B94FF081
:10495000500383F31188BFF36F8FBFF34F8FFEE7D0
:10496000013B034A13600BB983F31188704700BF02
:104970001000002000000000000000000000000007
:10498000EFF30980BFF36F8F154B1A681EF0100FFD
:1049900008BF20ED108A20E9F04F10602DE90900D2
:1049A0004FF0500080F31188BFF34F8FBFF36F8F2C
:1049B000FFF7BAF94FF0000080F3118809BC1968BD
:1049C0000868B0E8F04F1EF0100F08BFB0EC108A76
:1049D00080F30988BFF36F8F704700BFAFF300808B
:1049E0007802002008B54FF0500383F31188BFF31D
:1049F0006F8FBFF34F8FFFF769F828B14FF0E023B7
:104A00004FF08052C3F8042D002383F3118808BDB2
:104A10004FF0E022002313619361054B1B680549A9
:104A2000A1FB03139B09013B5361072313617047EB
:104A30000C000020D34D62104FF0E023D3F8002D7E
:104A40003D4B9A421CD04FF0E023D3F8002D3B4B56
:104A50009A421ED030B583B0394B1A78D2B2019247
:104A6000FF221A701B78DBB28DF803309DF80330FB
:104A700003F05003334A1370334B07221A601BE0D4
:104A80004FF0500383F31188BFF36F8FBFF34F8F45
:104A9000FEE74FF0500383F31188BFF36F8FBFF32E
:104AA0004F8FFEE7284A1368013B13609DF80330DF
:104AB0005B00DBB28DF803309DF8033013F0800FFC
:104AC000F0D1214B1B68032B08D04FF0500383F328
:104AD0001188BFF36F8FBFF34F8FFEE71B021A4A97
:104AE000136003F4E0631360019BDBB2144A13709C
:104AF0004FF0E024D4F8203D43F47003C4F8203D87
:104B0000D4F8203D43F07043C4F8203DFFF780FF08
:104B100000250E4B1D60FFF7BDFED4F8343F43F077
:104B20004043C4F8343FFFF7A1FEFFF7FDF8FFF75D
:104B30007DFE284603B030BD71C20F4170C20F41E7
:104B400000E400E0982300209C23002010000020B7
:104B5000EFF305830F2B0FD9114A9B5CDBB2114A8F
:104B600012789A4208D94FF0500383F31188BFF3AB
:104B70006F8FBFF34F8FFEE74FF0E023D3F80C3D6C
:104B800003F4E063084A1268934208D94FF05003D7
:104B900083F31188BFF36F8FBFF34F8FFEE770472A
:104BA000F0E300E0982300209C230020DFF834D0BD
:104BB000FEF70CF90C480D490D4A002302E0D458C9
:104BC000C4500433C4188C42F9D30A4A0A4C002357
:104BD00001E013600432A242FBD300F011F8FBF7AE
:104BE0001BFEFEE7000001200000002078000020EE
:104BF000C04E000878000020A8230020FEE7000037
:104C000070B50D4D0D4C641BA4100026A64209D1B1
:104C10000B4D0C4C00F0F2F8641BA4100026A642C9
:104C200005D170BD55F8043B98470136EEE755F8BD
:104C3000043B98470136F2E7B04E0008B04E00083A
:104C4000B04E0008B44E00080A44914200F1FF3310
:104C500000D1704710B511F8014B03F8014F914294
:104C6000F9D110BD02440346934200D1704703F8C6
:104C7000011BF9E738B50C460968054609B1FFF78D
:104C8000F9FF21462846BDE8384000F05DB8000035
:104C90002C4B1B68834270B5044651D0436A43B124
:104CA000DB68002B4AD1636A196811B1204600F015
:104CB0004BF8616911B1204600F046F8616A11B104
:104CC000204600F041F8A16B11B1204600F03CF8FD
:104CD000E16B11B1204600F037F8216C11B120468C
:104CE00000F032F8E16D11B1204600F02DF8A16D11
:104CF00011B1204600F028F8616B11B1204600F098
:104D000023F8A369E3B1A36A20469847A16CB9B11F
:104D10002046BDE87040FFF7ADBF495941B90435A1
:104D2000636A802DD968F8D1204600F00DF8BAE703
:104D30000E68204600F008F83146EFE70025EFE75F
:104D400070BD00BF1400002037B5002944D051F8D1
:104D5000043C0190002BA1F10404B8BFE41800F05A
:104D60003FF81E4A0198136833B96360146003B0BA
:104D7000BDE8304000F03AB8A34208D9256861196F
:104D80008B4201BF19685B6849192160EDE71A463B
:104D90005B680BB1A342FAD911685518A5420BD133
:104DA000246821445418A3421160E0D11C685B6858
:104DB000536021441160DAE702D90C230360D6E77F
:104DC000256861198B4204BF19685B68636004BF82
:104DD000491921605460CAE703B030BDA023002008
:104DE000014800F009B800BFA4230020014800F0EA
:104DF00004B800BFA423002070477047F8B500BF77
:104E0000F8BC08BC9E467047F8B500BFF8BC08BCAB
:084E10009E46704700000000FF
:104E180064656661756C745461736B00184E0008A4
:104E2800000000000000000000000000000000007A
:104E38000002000018000000000000000000000050
:104E48000000000000000000010203040607080932
:104E58000000000001020304A0860100400D0300C9
:104E6800801A060000350C0040420F0080841E00A6
:104E780000093D0000127A000024F40000366E019B
:104E88000048E801006CDC0249444C450000000081
:104E9800546D725100000000546D72205376630007
:084EA80058B3FF7F0100000078
:084EB000B5010008000000003C
:084EB800910100080000000058
:104EC000D8010020010000001000000000093D0092
:104ED000AAAAAAAA180000200000000000000000F2
:104EE00000000000000000000000000000000000C2
:104EF00000000000000000000000000000000000B2
:104F000000000000000000000000000000000000A1
:104F10000000000000000000000000000000000091
:104F20000000000000000000000000000000000081
:084F3000000000000000000079
:0400000508004BADF7
:00000001FF
