:020000040800F2
:1000000000000120797C0008C30C0008C90C00081E
:10001000CF0C0008D50C0008DB0C00080000000025
:10002000000000000000000000000000A1780008AF
:10003000E10C000800000000F17A0008416F0008A0
:10004000C97C0008C97C0008C97C0008C97C00087C
:10005000C97C0008C97C0008C97C0008C97C00086C
:10006000C97C0008EF0C0008FD0C0008C97C0008E2
:10007000C97C0008C97C0008C97C0008C97C00084C
:10008000C97C0008C97C0008C97C00080D0D000867
:10009000210D0008C97C0008C97C0008350D000846
:1000A000C97C0008490D0008C97C0008C97C00080B
:1000B000C97C00080000000000000000C97C0008A6
:1000C000C97C00080000000000000000C97C000896
:1000D00000000000C97C0008C97C00080000000086
:1000E0005D0D0008C97C0008000000000000000051
:1000F0000000000000000000000000000000000000
:10010000000000000000000000000000C97C0008A2
:100110000000000000000000C97C0008C97C000845
:10012000C97C0008C97C0008C97C0008C97C00089B
:10013000C97C000800000000000000000000000072
:10014000C97C0008C97C0008C97C0008C97C00087B
:10015000C97C0008C97C0008C97C0008C97C00086B
:10016000C97C0008C97C0008C97C000800000000A8
:10017000C97C0008C97C00080000000000000000E5
:10018000C97C0008C97C0008C97C00080000000088
:1001900010B5054C237833B9044B13B10448AFF3C1
:1001A00000800123237010BD7800002000000000B3
:1001B000C87E000808B5034B1BB103490348AFF3E1
:1001C000008008BD000000007C000020C87E000800
:1001D00053B94AB9002908BF00281CBF4FF0FF31AE
:1001E0004FF0FF3000F074B9ADF1080C6DE904CEAA
:1001F00000F006F8DDF804E0DDE9022304B0704702
:100200002DE9F047089D04468E46002B4DD18A42C9
:10021000944669D9B2FA82F252B101FA02F3C2F1FC
:10022000200120FA01F10CFA02FC41EA030E94408D
:100230004FEA1C48210CBEFBF8F61FFA8CF708FBAE
:1002400016E341EA034306FB07F199420AD91CEB86
:10025000030306F1FF3080F01F81994240F21C81B8
:10026000023E63445B1AA4B2B3FBF8F008FB103300
:1002700044EA034400FB07F7A7420AD91CEB040435
:1002800000F1FF3380F00A81A74240F20781644405
:10029000023840EA0640E41B00261DB1D44000238A
:1002A000C5E900433146BDE8F0878B4209D9002DEE
:1002B00000F0EF800026C5E9000130463146BDE878
:1002C000F087B3FA83F6002E4AD18B4202D38242E2
:1002D00000F2F980841A61EB030301209E46002D91
:1002E000E0D0C5E9004EDDE702B9FFDEB2FA82F2E6
:1002F000002A40F09280A1EB0C014FEA1C471FFA44
:100300008CFE0126200CB1FBF7F307FB131140EA2A
:1003100001410EFB03F0884208D91CEB010103F1F7
:10032000FF3802D2884200F2CB804346091AA4B2B9
:10033000B1FBF7F007FB101144EA01440EFB00FE8D
:10034000A64508D91CEB040400F1FF3102D2A645F2
:1003500000F2BB800846A4EB0E0440EA03409CE791
:10036000C6F12007B34022FA07FC4CEA030C20FA3E
:1003700007F401FA06F31C43F9404FEA1C4900FA5E
:1003800006F3B1FBF9F8200C1FFA8CFE09FB1811DB
:1003900040EA014108FB0EF0884202FA06F20BD94E
:1003A0001CEB010108F1FF3A80F08880884240F29E
:1003B0008580A8F102086144091AA4B2B1FBF9F0E2
:1003C00009FB101144EA014100FB0EFE8E4508D9DD
:1003D0001CEB010100F1FF346CD28E456AD9023862
:1003E000614440EA0840A0FB0294A1EB0E01A14247
:1003F000C846A64656D353D05DB1B3EB080261EBB5
:100400000E0101FA07F722FA06F3F1401F43C5E98E
:10041000007100263146BDE8F087C2F12003D840C4
:100420000CFA02FC21FA03F3914001434FEA1C4706
:100430001FFA8CFEB3FBF7F007FB10360B0C43EAF8
:10044000064300FB0EF69E4204FA02F408D91CEBA8
:10045000030300F1FF382FD29E422DD902386344A6
:100460009B1B89B2B3FBF7F607FB163341EA034146
:1004700006FB0EF38B4208D91CEB010106F1FF3895
:1004800016D28B4214D9023E6144C91A46EA00468C
:1004900038E72E46284605E70646E3E61846F8E61E
:1004A0004B45A9D2B9EB020864EB0C0E0138A3E767
:1004B0004646EAE7204694E74046D1E7D0467BE748
:1004C000023B614432E7304609E76444023842E7C0
:1004D000704700BF80B582B000AF7860044B054A1A
:1004E0000021786801F069F800BF0837BD4680BD7B
:1004F000881500206815002080B582B000AF7860B4
:10050000074B1B68012B07D1054B00221A60054BD6
:100510001B68184606F002FF00BF0837BD4680BDC5
:10052000841500204015002080B582B000AF7860AF
:10053000074B1B68022B07D1054B00221A60054BA5
:100540001B68184606F0EAFE00BF0837BD4680BDAE
:10055000841500204015002080B582B000AF78607F
:10056000074B1B68042B07D1054B00221A60054B73
:100570001B68184606F0D2FE00BF0837BD4680BD96
:10058000841500204015002080B582B000AF0346DE
:10059000FB80FB88B3F5004F45D0B3F5004F44DC3A
:1005A000B3F5804F0FD0B3F5804F3EDC402B36D0F3
:1005B000402B3ADC202B3AD0202B36DC082B20D0E5
:1005C000102B36D031E001F06DFB02461C4B1B684E
:1005D000D31AB3F57A7F2ED91A4B1B7803F0070391
:1005E000002B08D001F05EFB0346154A1360154B43
:1005F00000221A701FE001F055FB124B01221A7005
:1006000019E0104B1B7803F00703002B03D00D4BB0
:1006100000221A7010E00B4B01221A700CE0094BFB
:1006200000221A7008E000BF06E000BF04E000BF2F
:1006300002E000BF00E000BF00BF0837BD4680BD3C
:10064000901500204415002080B500AF01F0FEFA9F
:1006500000F064F800F080F900F0B6F800F00CF952
:1006600000F04AF9204800F094FE02211E4801F0F3
:10067000B6F801211C4801F0B2F801F013FB034663
:100680001A4A136006F076FC194A0021012006F090
:1006900069FD0346174A1360174A0021174806F000
:1006A000B3FC0346164A1360164A0021164806F0AA
:1006B000ABFC0346154A1360154A0021154806F0A5
:1006C000A3FC0346144A13600D4B1B68002B07D094
:1006D0000E4B1B68002B03D00F4B1B68002B00D167
:1006E000FEE706F06BFCFEE794000020901500206A
:1006F000987F0008401500202C7F00083D0B000863
:1007000094010020507F00084D0B000820080020B5
:10071000747F00085D0B0008B00E002080B596B015
:1007200000AF07F1140344220021184607F000FB34
:100730003B4600221A605A609A60DA601A614FF4F0
:10074000007002F00FFF0346002B01D000F0B4FA56
:1007500001237B614FF4A023BB610223FB630323CE
:100760003B6401237B641423BB640723FB640223E3
:100770003B6502237B6507F11403184601F09EFADE
:100780000346002B01D000F097FA0F233B600323B0
:100790007B600023BB600023FB6000233B613B4682
:1007A0000421184601F09EFE0346002B01D000F004
:1007B00083FA4FF040524FF08061002001F092FF29
:1007C00000BF5837BD4680BD80B58AB000AF284B0A
:1007D000284A1A60264B10225A60254B4FF080425F
:1007E0009A60234B0022DA60214B4FF400321A61E9
:1007F0001F4B00225A611E4B00221A761C4B00220E
:100800005A761B4B00229A76194B0022DA76184B47
:1008100000221A77164B00225A77154800F0F4FB95
:100820000346002B01D000F047FA4FF400533B6021
:100830004FF46043BB6000237B600023FB60002318
:100840003B6100237B610023BB610123FB6101232A
:100850003B623B461946064800F0D1FC0346002B9C
:1008600001D000F029FA00BF2837BD4680BD00BF87
:10087000940000200064004080B500AF1B4B1C4A70
:100880001A601A4B1B4A5A60184B00229A60174B89
:100890000122DA60154B00221A61144B00225A61C2
:1008A000124B00229A61114B0022DA610F4B002299
:1008B0001A620E4802F022FD0346002B01D000F020
:1008C000FBF90021094802F0A8FD0346002B01D0E6
:1008D00000F0F2F90021054802F0EAFD0346002B82
:1008E00001D000F0E9F900BF80BD00BFBC000020CE
:1008F00000540040EC9C901080B500AF144B154A9A
:100900001A60134B4FF4E1325A60114B00229A6087
:100910000F4B0022DA600E4B00221A610C4B0C22A6
:100920005A610B4B4FF440729A61094B0022DA6115
:10093000074B00221A62064B00225A62044803F059
:10094000C9F90346002B01D000F0B6F900BF80BD05
:10095000100100200038014080B58AB000AF07F1D7
:10096000140300221A605A609A60DA601A616F4BB1
:10097000DB6C6E4A43F00403D3646C4BDB6C03F016
:1009800004033B613B69694BDB6C684A43F001033C
:10099000D364664BDB6C03F00103FB60FB68634BC5
:1009A000DB6C624A43F00203D364604BDB6C03F000
:1009B0000203BB60BB685D4BDB6C5C4A43F08003A9
:1009C000D3645A4BDB6C03F080037B607B680022AE
:1009D00048F206014FF0904002F060FC0022022134
:1009E000534802F05BFC4FF440437B614FF4041327
:1009F000BB610123FB6107F1140319464D4802F066
:100A0000E3FA48F206037B610123BB610223FB6129
:100A100000233B6207F1140319464FF0904002F0A7
:100A2000D3FA48237B614FF40413BB610123FB61BC
:100A300007F1140319464FF0904002F0C5FA302335
:100A40007B614FF48813BB610223FB6107F1140340
:100A500019464FF0904002F0B7FA80237B610323E0
:100A6000BB610023FB6107F1140319464FF090406E
:100A700002F0AAFA21237B610323BB610023FB61FF
:100A800007F1140319462A4802F09EFA02237B61FB
:100A90000123BB610123FB6100233B6207F11403C7
:100AA0001946234802F090FA4FF480737B610223C9
:100AB000BB610023FB6100233B6200237B6207F1E3
:100AC000140319464FF0904002F07EFA08237B6130
:100AD0000323BB610023FB6107F114031946164889
:100AE00002F072FA00220521092002F049FE0920D5
:100AF00002F062FE002205210A2002F041FE0A20D7
:100B000002F05AFE00220521172002F039FE1720BC
:100B100002F052FE00220521282002F031FE28209A
:100B200002F04AFE00BF2837BD4680BD00100240DB
:100B30000004004800080048001C004880B582B04E
:100B400000AF7860012006F0F2FAFBE780B582B0D2
:100B500000AF7860012006F0EAFAFBE780B586B0C6
:100B600000AF7860444B00229A60434B0022DA6069
:100B7000414B00225A60404B00221A753F4B1B78B4
:100B8000042BFBD801A252F823F000BFA10B0008F0
:100B9000BB0B0008570C00087D0B00087D0B0008FC
:100BA000002204214FF0904002F078FB0022022145
:100BB0004FF0904002F072FB5CE02F4B40F20312CA
:100BC0001A602D4B08221A612D4A07F1080392E89A
:100BD000030083E8030001F065F8786107F108027B
:100BE000284B2549284800F018FC0346FB74FB7C81
:100BF000002B08D001F056F802467B69D31A41F267
:100C000087329342EAD9214B1B6841F2883118465A
:100C100006F032FB0346002B19D1012202214FF0CE
:100C2000904002F03BFB012204214FF0904002F083
:100C300035FB4FF4FA7006F07AFA002204214FF0E7
:100C4000904002F02BFB0D4B02221A7012E00B4B6E
:100C500000221A700EE00E4BD3ED017AB3EE027A49
:100C6000F4EEC77AF1EE10FA00DA02E0034B042248
:100C70001A7000BF82E700BF501500204415002005
:100C80000C7F0008841500209400002040150020EF
:100C90004815002080B582B000AF78607B681B6883
:100CA000044A934201D100F0E9FF00BF0837BD4676
:100CB00080BD00BF002C014080B400AF72B600BF01
:100CC000FEE780B400AFFEE780B400AFFEE780B47B
:100CD00000AFFEE780B400AFFEE780B400AFFEE7F0
:100CE00080B400AF00BFBD465DF8047B704780B59F
:100CF00000AF082002F0EAFA00BF80BD80B500AF67
:100D0000102002F0E3FA00BF80BD000080B500AF04
:100D1000024800F08AFD00BF80BD00BF94000020A3
:100D200080B500AF024800F080FD00BF80BD00BF6D
:100D30009400002080B500AF202002F0C7FA4020C8
:100D400002F0C4FA00BF80BD80B500AF024802F0D7
:100D5000F7FD00BF80BD00BF9815002080B500AF33
:100D60004FF4804002F0B2FA4FF4004002F0AEFAC5
:100D700000BF80BD80B582B000AF114B1B6E104A22
:100D800043F0010313660E4B1B6E03F001037B60FF
:100D90007B680B4B9B6D0A4A43F080539365084B6D
:100DA0009B6D03F080533B603B6800220F216FF086
:100DB000010002F0E5FC00BF0837BD4680BD00BF62
:100DC0000010024080B58AB000AF786007F11403CC
:100DD00000221A605A609A60DA601A617B681B68A8
:100DE000204A934239D1204B9B6D1F4A43F0007338
:100DF00093651D4B9B6D03F000733B613B691A4B80
:100E0000DB6C194A43F00103D364174BDB6C03F02E
:100E10000103FB60FB684FF4C0537B610223BB619D
:100E20000023FB6103233B6209237B6207F1140368
:100E300019464FF0904002F0C7F800220521132018
:100E400002F09EFC132002F0B7FC002205211420C2
:100E500002F096FC142002F0AFFC00BF2837BD461C
:100E600080BD00BF006400400010024080B59EB00D
:100E700000AF786007F1640300221A605A609A603C
:100E8000DA601A6107F1100354220021184606F0B7
:100E90004FFF7B681B681E4A934235D140233B615C
:100EA0000023FB6307F11003184601F0A5FD03467C
:100EB000002B01D0FFF700FF164BDB6C154A43F007
:100EC0000203D364134BDB6C03F00203FB60FB688B
:100ED000C0237B661223BB660023FB6603233B67AC
:100EE00004237B6707F1640319460B4802F06CF892
:100EF000084B9B6D074A43F400139365054B9B6DAC
:100F000003F40013BB60BB6800BF7837BD4680BDEB
:100F100000540040001002400004004880B5A0B01A
:100F200000AF786007F16C0300221A605A609A6083
:100F3000DA601A6107F1180354220021184606F0FE
:100F4000F7FE7B681B682D4A934253D10123BB6196
:100F50000023BB6307F11803184601F04DFD03465B
:100F6000002B01D0FFF7A8FE254B1B6E244A43F44B
:100F700080431366224B1B6E03F480437B617B69C5
:100F80001F4BDB6C1E4A43F00103D3641C4BDB6C2C
:100F900003F001033B613B69194BDB6C184A43F0DA
:100FA0000203D364164BDB6C03F00203FB60FB68A7
:100FB0004FF4C063FB6602233B6700237B67032378
:100FC000BB670723FB6707F16C0319464FF090409E
:100FD00001F0FAFF1823FB6602233B6700237B67BF
:100FE0000323BB670723FB6707F16C03194605481A
:100FF00001F0EAFF00BF8037BD4680BD00380140E8
:10100000001002400004004880B584B000AF786052
:101010007B68002B01D10123EDE07B6893F8203041
:10102000DBB2002B02D17868FFF7CCFE7B681B682F
:101030001A687B681B6842F001021A6000F032FEF9
:10104000F86012E000F02EFE0246FB68D31A0A2B6D
:101050000BD97B685B6A43F400327B685A627B6819
:10106000052283F820200123C5E07B681B685B68AC
:1010700003F00103002BE5D07B681B681A687B68CE
:101080001B6822F002021A6000F00CFEF86012E009
:1010900000F008FE0246FB68D31A0A2B0BD97B68C6
:1010A0005B6A43F400327B685A627B68052283F8EE
:1010B000202001239FE07B681B685B6803F002032C
:1010C000002BE5D17B681B7E012B08D17B681B6858
:1010D0001A687B681B6842F080021A6007E07B6830
:1010E0001B681A687B681B6822F080021A607B68A4
:1010F0005B7E012B08D17B681B681A687B681B68C4
:1011000042F040021A6007E07B681B681A687B683F
:101110001B6822F040021A607B689B7E012B08D17D
:101120007B681B681A687B681B6842F020021A60A3
:1011300007E07B681B681A687B681B6822F0200246
:101140001A607B68DB7E012B08D17B681B681A68FC
:101150007B681B6822F010021A6007E07B681B683E
:101160001A687B681B6842F010021A607B681B7F5C
:10117000012B08D17B681B681A687B681B6842F0EA
:1011800008021A6007E07B681B681A687B681B68A6
:1011900022F008021A607B685B7F012B08D17B6814
:1011A0001B681A687B681B6842F004021A6007E03B
:1011B0007B681B681A687B681B6822F004021A604F
:1011C0007B689A687B68DB681A437B681B691A43F3
:1011D0007B685B6942EA03017B685B685A1E7B6837
:1011E0001B680A43DA617B6800225A627B6801222D
:1011F00083F82020002318461037BD4680BD80B4F8
:1012000087B000AF786039607B681B687B617B6862
:1012100093F82030FB74FB7C012B03D0FB7C022B6A
:1012200040F0AA807B69D3F8003243F001027B6969
:10123000C3F800223B685B6903F01F03012202FA36
:1012400003F3FB607B69D3F81C22FB68DB431A4085
:101250007B69C3F81C223B68DB69002B23D17B69C7
:10126000D3F80C22FB68DB431A407B69C3F80C22DD
:101270003B68DB6819043B685B689BB23A6852695B
:1012800019437B69483243F832103B689B68190464
:101290003B681B689AB23B685B690A4379694833CB
:1012A000DB000B445A603B68DB69012B22D17B6970
:1012B000D3F80C22FB681A437B69C3F80C223B6805
:1012C0001B6819043B685B689BB23A685269194312
:1012D0007B69483243F832103B689B6819043B68CD
:1012E000DB689AB23B685B690A4379694833DB0083
:1012F0000B445A603B689B69002B09D17B69D3F88A
:101300000422FB68DB431A407B69C3F8042207E030
:101310007B69D3F80422FB681A437B69C3F8042273
:101320003B681B69002B09D17B69D3F81422FB6849
:10133000DB431A407B69C3F8142207E07B69D3F8CA
:101340001422FB681A437B69C3F814223B681B6AAA
:10135000012B07D17B69D3F81C22FB681A437B69F8
:10136000C3F81C227B69D3F8003223F001027B69A9
:10137000C3F80022002306E07B685B6A43F4802206
:101380007B685A62012318461C37BD465DF8047B12
:10139000704780B584B000AF78607B6893F82030E8
:1013A000DBB2012B2ED17B68022283F820207B68E0
:1013B0001B681A687B681B6822F001021A6000F043
:1013C00071FCF86012E000F06DFC0246FB68D31A75
:1013D0000A2B0BD97B685B6A43F400327B685A6244
:1013E0007B68052283F82020012312E07B681B68BC
:1013F0005B6803F00103002BE5D17B6800225A6291
:10140000002306E07B685B6A43F400227B685A6233
:10141000012318461037BD4680BD80B489B000AFA7
:10142000F860B9607A603B60FB6893F82030FB7726
:10143000FB681B689B68BB61FB7F012B03D0FB7FB4
:10144000022B40F0AD80BB6903F08063002B0AD112
:10145000BB6903F00063002B05D1BB6903F0805327
:10146000002B00F09580BB691B0E03F003037B612A
:1014700001227B699A403B681A60BB689B68002B1D
:101480000DD1BB681B685A05BB68DB68F968096841
:101490001A437B6918331B010B441A600FE0BB68C9
:1014A0005B68DA00BB689B681A43BB68DB68F96855
:1014B00009681A437B6918331B010B441A60FB68E7
:1014C0001968BB681A697B6918331B010B44043324
:1014D0001A60BB681B7D012B11D1FB681A687B6900
:1014E00018331B01134404331B68FA68116843F472
:1014F00080727B6918331B010B4404331A607B68CC
:1015000007331B781A067B6806331B781B041A43C3
:101510007B6805331B781B0213437A680432127808
:101520001046FA68116843EA00027B691B010B440C
:1015300003F5C6731A607B6803331B781A067B6851
:1015400002331B781B041A437B6801331B781B0290
:1015500013437A6812781046FA68116843EA000269
:101560007B691B010B4403F5C4731A60FB681A689E
:101570007B6918331B0113441B68FA68116843F038
:1015800001027B6918331B010B441A6000230EE033
:10159000FB685B6A43F40012FB685A62012306E0B1
:1015A000FB685B6A43F48022FB685A620123184699
:1015B0002437BD465DF8047B704780B487B000AF28
:1015C000F860B9607A603B60FB6893F82030FB7587
:1015D000FB7D012B03D0FB7D022B40F0F380BB6829
:1015E000002B0ED1FB681B68DB6803F00303002BA4
:1015F00016D1FB685B6A43F40012FB685A62012350
:10160000E7E0FB681B681B6903F00303002B07D1AD
:10161000FB685B6A43F40012FB685A620123D8E05E
:10162000FB681A68BB681B331B0113441B6803F07B
:1016300004027B689A607B689B68002B0CD1FB6876
:101640001A68BB681B331B0113441B685B0DC3F393
:101650000A027B681A600BE0FB681A68BB681B33E0
:101660001B0113441B68DB0823F060427B685A604F
:10167000FB681A68BB681B331B0113441B6803F02B
:1016800002027B68DA60FB681A68BB681B331B01C7
:10169000134404331B6803F00F027B681A61FB6874
:1016A0001A68BB681B331B01134404331B681B0AF5
:1016B000DAB27B689A61FB681A68BB681B331B014E
:1016C000134404331B681B0C9AB27B685A61FB6895
:1016D0001A68BB681B01134403F5DC731B68DAB29C
:1016E0003B681A70FB681A68BB681B01134403F55A
:1016F000DC731B681A0A3B680133D2B21A70FB68AC
:101700001A68BB681B01134403F5DC731B681A0CD1
:101710003B680233D2B21A70FB681A68BB681B01BF
:10172000134403F5DC731B681A0E3B680333D2B213
:101730001A70FB681A68BB681B01134403F5DE735B
:101740001A683B680433D2B21A70FB681A68BB6827
:101750001B01134403F5DE731B681A0A3B6805334B
:10176000D2B21A70FB681A68BB681B01134403F5F8
:10177000DE731B681A0C3B680633D2B21A70FB6822
:101780001A68BB681B01134403F5DE731B681A0E4D
:101790003B680733D2B21A70BB68002B08D1FB68D4
:1017A0001B68DA68FB681B6842F02002DA6007E019
:1017B000FB681B681A69FB681B6842F020021A610B
:1017C000002306E0FB685B6A43F48022FB685A62F0
:1017D000012318461C37BD465DF8047B704780B472
:1017E00085B000AF786039607B6893F82030FB7378
:1017F000FB7B012B02D0FB7B022B09D17B681B6892
:1018000059697B681B683A680A435A61002306E0FD
:101810007B685B6A43F480227B685A620123184626
:101820001437BD465DF8047B704780B58AB000AFC1
:10183000786000237B627B681B685B693B627B6826
:101840001B685B68FB617B681B689B68BB617B688E
:101850001B68DB687B617B681B681B693B617B687D
:101860001B689B69FB603B6A03F00103002B7CD083
:10187000BB6903F00103002B23D07B681B680122A6
:101880009A60BB6903F00203002B03D07868FEF76F
:1018900033FE16E0BB6903F00403002B04D07B6A1F
:1018A00043F400637B620CE0BB6903F00803002B88
:1018B00004D07B6A43F480537B6202E0786800F0D6
:1018C0006BF9BB6903F48073002B24D07B681B6821
:1018D0004FF480729A60BB6903F40073002B03D04D
:1018E0007868FEF721FE16E0BB6903F48063002BE5
:1018F00004D07B6A43F400537B620CE0BB6903F4C1
:101900000063002B04D07B6A43F480437B6202E0D7
:10191000786800F04BF9BB6903F48033002B24D0C6
:101920007B681B684FF480329A60BB6903F4003314
:10193000002B03D07868FEF70FFE16E0BB6903F4B6
:101940008023002B04D07B6A43F400437B620CE0CD
:10195000BB6903F40023002B04D07B6A43F480337B
:101960007B6202E0786800F02BF93B6A03F0080321
:10197000002B0CD07B6903F01003002B07D07B6A8F
:1019800043F400737B627B681B681022DA603B6A59
:1019900003F00403002B0BD07B6903F00803002B3A
:1019A00006D07B681B680822DA60786800F012F9BC
:1019B0003B6A03F00203002B09D07B681B68DB68DD
:1019C00003F00303002B02D07868FEF783FD3B6A27
:1019D00003F04003002B0CD03B6903F01003002BF5
:1019E00007D07B6A43F480637B627B681B681022AC
:1019F0001A613B6A03F02003002B0BD03B6903F014
:101A00000803002B06D07B681B6808221A617868DF
:101A100000F0F4F83B6A03F01003002B09D07B6858
:101A20001B681B6903F00303002B02D0786800F0E9
:101A3000DBF83B6A03F40033002B0BD0FB6903F0A7
:101A40001003002B06D07B681B6810225A60786850
:101A500000F0DEF83B6A03F48033002B0BD0FB6907
:101A600003F00803002B06D07B681B6808225A602D
:101A7000786800F0D7F83B6A03F40043002B7BD072
:101A8000FB6903F00403002B72D03B6A03F48073FC
:101A9000002B08D0FB6803F00103002B03D07B6A06
:101AA00043F001037B623B6A03F40073002B08D010
:101AB000FB6803F00203002B03D07B6A43F00203B0
:101AC0007B623B6A03F48063002B08D0FB6803F061
:101AD0000403002B03D07B6A43F004037B623B6A60
:101AE00003F40063002B43D0FB6803F07003002B6A
:101AF0003ED0FB6803F07003602B2BD0602B2ED8F8
:101B0000502B22D0502B2AD8402B19D0402B26D82E
:101B1000302B10D0302B22D8102B02D0202B05D008
:101B20001DE07B6A43F008037B6219E07B6A43F0A7
:101B300010037B6214E07B6A43F020037B620FE0BA
:101B40007B6A43F040037B620AE07B6A43F08003D8
:101B50007B6205E07B6A43F480737B6200E000BF38
:101B60007B681B689A697B681B6822F070029A6127
:101B70007B681B6804225A607B6A002B08D07B6854
:101B80005A6A7B6A1A437B685A62786800F054F894
:101B900000BF2837BD4680BD80B483B000AF7860F9
:101BA00000BF0C37BD465DF8047B704780B483B03E
:101BB00000AF786000BF0C37BD465DF8047B70470E
:101BC00080B483B000AF786000BF0C37BD465DF8CD
:101BD000047B704780B483B000AF786000BF0C37DF
:101BE000BD465DF8047B704780B483B000AF786079
:101BF00000BF0C37BD465DF8047B704780B483B0EE
:101C000000AF786000BF0C37BD465DF8047B7047BD
:101C100080B483B000AF786000BF0C37BD465DF87C
:101C2000047B704780B483B000AF786000BF0C378E
:101C3000BD465DF8047B704780B483B000AF786028
:101C400000BF0C37BD465DF8047B704780B582B09D
:101C500000AF0023FB71032001F087FD0F2002F08D
:101C600075FC0346002B02D00123FB7101E0FFF756
:101C700081F8FB7918460837BD4680BD80B400AFB7
:101C8000064B1B781A46064B1B681344044A136024
:101C900000BFBD465DF8047B704700BF0400002014
:101CA0009415002080B400AF034B1B681846BD4656
:101CB0005DF8047B704700BF9415002080B588B0A4
:101CC00000AF78607B68002B02D1012300F002BCDA
:101CD000964B9B6803F00C03BB61944BDB6803F0ED
:101CE00003037B617B681B6803F01003002B00F08B
:101CF000E480BB69002B07D0BB690C2B40F08B80C4
:101D00007B69012B40F08780884B1B6803F002033E
:101D1000002B05D07B689B69002B01D10123D9E3FF
:101D20007B681A6A814B1B6803F00803002B04D000
:101D30007E4B1B6803F0F00305E07C4BD3F8943036
:101D40001B0903F0F003934223D27B681B6A1846F9
:101D500000F0F2FD0346002B01D00123BAE3734BE0
:101D60001B68724A43F008031360704B1B6823F032
:101D7000F0027B681B6A6D4913430B606B4B5B6819
:101D800023F47F427B68DB691B02684913434B6085
:101D900025E0664B1B68654A43F008031360634BFC
:101DA0001B6823F0F0027B681B6A604913430B60D9
:101DB0005E4B5B6823F47F427B68DB691B025B49F7
:101DC00013434B60BB69002B09D17B681B6A184623
:101DD00000F0B2FD0346002B01D001237AE300F0AE
:101DE000B5FC0246514B9B681B0903F00F03504999
:101DF000CB5C03F01F0322FA03F34E4A13604E4BF1
:101E00001B68184602F0A2FB0346FB73FB7B002B0A
:101E100052D0FB7B5EE37B689B69002B32D0434B47
:101E20001B68424A43F001031360FFF73BFF386130
:101E300008E0FFF737FF02463B69D31A022B01D9AE
:101E4000032347E3394B1B6803F00203002BF0D058
:101E5000364B1B68354A43F008031360334B1B684D
:101E600023F0F0027B681B6A304913430B602F4B51
:101E70005B6823F47F427B68DB691B022B491343B9
:101E80004B601AE0294B1B68284A23F001031360BA
:101E9000FFF708FF386108E0FFF704FF02463B69DF
:101EA000D31A022B01D9032314E3204B1B6803F040
:101EB0000203002BF0D100E000BF7B681B6803F039
:101EC0000103002B73D0BB69082B05D0BB690C2B19
:101ED0000ED17B69032B0BD1144B1B6803F4003329
:101EE000002B63D07B685B68002B5FD10123F1E29C
:101EF0007B685B68B3F5803F06D10C4B1B680B4ACF
:101F000043F48033136025E07B685B68B3F5A02F52
:101F100014D1064B1B68054A43F480231360034B1E
:101F20001B68024A43F48033136013E00010024040
:101F3000A87F00080800002000000020A04B1B68BC
:101F40009F4A23F4803313609D4B1B689C4A23F403
:101F5000802313607B685B68002B13D0FFF7A2FE21
:101F6000386108E0FFF79EFE02463B69D31A642BF6
:101F700001D90323AEE2924B1B6803F40033002B1C
:101F8000F0D014E0FFF78EFE386108E0FFF78AFE1C
:101F900002463B69D31A642B01D903239AE2884B8A
:101FA0001B6803F40033002BF0D100E000BF7B6816
:101FB0001B6803F00203002B60D0BB69042B05D023
:101FC000BB690C2B19D17B69022B16D17C4B1B688A
:101FD00003F48063002B05D07B68DB68002B01D104
:101FE000012377E2764B5B6823F0F8527B681B692C
:101FF0001B06734913434B6040E07B68DB68002B92
:1020000023D06F4B1B686E4A43F480731360FFF755
:1020100049FE386108E0FFF745FE02463B69D31AE6
:10202000022B01D9032355E2654B1B6803F480633F
:10203000002BF0D0624B5B6823F0F8527B681B6981
:102040001B065F4913434B6018E05D4B1B685C4AFD
:1020500023F480731360FFF725FE386108E0FFF773
:1020600021FE02463B69D31A022B01D9032331E238
:10207000534B1B6803F48063002BF0D17B681B6813
:1020800003F00803002B3CD07B685B69002B1CD05D
:102090004B4BD3F894304A4A43F00103C2F89430D2
:1020A000FFF700FE386108E0FFF7FCFD02463B69E0
:1020B000D31A022B01D903230CE2414BD3F89430FD
:1020C00003F00203002BEFD01BE03D4BD3F894301C
:1020D0003B4A23F00103C2F89430FFF7E3FD386177
:1020E00008E0FFF7DFFD02463B69D31A022B01D956
:1020F0000323EFE1324BD3F8943003F00203002BBB
:10210000EFD17B681B6803F00403002B00F0A6806E
:102110000023FB772A4B9B6D03F08053002B0DD1DE
:10212000274B9B6D264A43F080539365244B9B6D50
:1021300003F08053BB60BB680123FB77214B1B6816
:1021400003F48073002B18D11E4B1B681D4A43F407
:1021500080731360FFF7A6FD386108E0FFF7A2FD6A
:1021600002463B69D31A022B01D90323B2E1154B76
:102170001B6803F48073002BF0D07B689B68012BF5
:1021800008D10F4BD3F890300D4A43F00103C2F849
:10219000903029E07B689B68052B15D1084BD3F85C
:1021A0009030074A43F00403C2F89030044BD3F850
:1021B0009030034A43F00103C2F8903014E000BFAE
:1021C00000100240007000409A4BD3F89030994ABA
:1021D00023F00103C2F89030964BD3F89030954A23
:1021E00023F00403C2F890307B689B68002B16D064
:1021F000FFF758FD38610AE0FFF754FD02463B69DE
:10220000D31A41F28832934201D9032362E1894B08
:10221000D3F8903003F00203002BEDD015E0FFF768
:1022200041FD38610AE0FFF73DFD02463B69D31AE4
:1022300041F28832934201D903234BE17D4BD3F81D
:10224000903003F00203002BEDD1FB7F012B05D171
:10225000784B9B6D774A23F0805393657B681B68AE
:1022600003F02003002B3CD07B685B6A002B1CD062
:10227000704BD3F898306F4A43F00103C2F898309E
:10228000FFF710FD386108E0FFF70CFD02463B69DF
:10229000D31A022B01D903231CE1664BD3F89830E3
:1022A00003F00203002BEFD01BE0624BD3F8983011
:1022B000604A23F00103C2F89830FFF7F3FC38615D
:1022C00008E0FFF7EFFC02463B69D31A022B01D965
:1022D0000323FFE0574BD3F8983003F00203002BA1
:1022E000EFD17B689B6A002B00F0F3807B689B6AD0
:1022F000022B40F0C9804F4BDB687B617B6903F0A8
:1023000003027B68DB6A9A422CD17B6903F070027E
:102310007B681B6B013B1B019A4223D17B6903F451
:10232000FE427B685B6B1B029A421BD17B6903F008
:1023300078427B689B6BDB069A4213D17B6903F47E
:10234000C0027B68DB6B5B08013B5B059A4209D1ED
:102350007B6903F0C0627B681B6C5B08013B5B061A
:102360009A426BD0BB690C2B62D0324B1B6803F0D6
:102370008063002B01D00123ACE02E4B1B682D4A5B
:1023800023F080731360FFF78DFC386108E0FFF7DE
:1023900089FC02463B69D31A022B01D9032399E039
:1023A000244B1B6803F00073002BF0D1214BDA683B
:1023B000214B13407A68D16A7A68126B013A120194
:1023C00011437A68526B120211437A68D26B520839
:1023D000013A520511437A68126C5208013A5206CA
:1023E00011437A68926BD2060A4312491343CB60B9
:1023F000104B1B680F4A43F0807313600D4BDB6872
:102400000C4A43F08073D360FFF74CFC386108E05E
:10241000FFF748FC02463B69D31A022B01D903237C
:1024200058E0044B1B6803F00073002BF0D050E021
:1024300001234FE0001002408C809D01274B1B6858
:1024400003F00073002B44D1244B1B68234A43F054
:1024500080731360214BDB68204A43F08073D360A4
:10246000FFF720FC386108E0FFF71CFC02463B69DF
:10247000D31A022B01D903232CE0184B1B6803F05D
:102480000073002BF0D024E0BB690C2B1FD0134B42
:102490001B68124A23F080731360FFF703FC386156
:1024A00008E0FFF7FFFB02463B69D31A022B01D974
:1024B00003230FE0094B1B6803F00073002BF0D1DE
:1024C000064BDA680549064B1340CB6001E0012357
:1024D00000E0002318462037BD4680BD00100240B2
:1024E000FCFFEEFE80B584B000AF786039607B6899
:1024F000002B01D10123E7E0754B1B6803F00703B4
:102500003A689A4210D9724B1B6823F0070270494F
:102510003B6813430B606E4B1B6803F007033A687C
:102520009A4201D00123CFE07B681B6803F00203CD
:10253000002B10D07B689A68664B9B6803F0F00311
:102540009A4208D9634B9B6823F0F0027B689B6832
:10255000604913438B607B681B6803F00103002B09
:102560004CD07B685B68032B07D15A4B1B6803F088
:102570000073002B21D10123A6E07B685B68022B4E
:1025800007D1544B1B6803F40033002B15D10123F2
:102590009AE07B685B68002B07D14E4B1B6803F009
:1025A0000203002B09D101238EE04A4B1B6803F480
:1025B0008063002B01D1012386E0464B9B6823F00A
:1025C00003027B685B68434913438B60FFF76AFB38
:1025D000F8600AE0FFF766FB0246FB68D31A41F297
:1025E0008832934201D903236EE03A4B9B6803F093
:1025F0000C027B685B689B009A42EBD17B681B688E
:1026000003F00203002B10D07B689A68314B9B6863
:1026100003F0F0039A4208D22E4B9B6823F0F0029D
:102620007B689B682B4913438B60294B1B6803F025
:1026300007033A689A4210D2254B1B6823F0070221
:1026400023493B6813430B60214B1B6803F00703CE
:102650003A689A4201D0012336E07B681B6803F098
:102660000403002B08D01B4B9B6823F4E0627B68BB
:10267000DB68184913438B607B681B6803F0080311
:10268000002B09D0134B9B6823F460527B681B69B5
:10269000DB00104913438B6000F058F802460D4BE5
:1026A0009B681B0903F00F030B49CB5C03F01F036E
:1026B00022FA03F3094A1360094B1B68184601F01C
:1026C00045FF0346FB72FB7A18461037BD4680BDB6
:1026D0000020024000100240A87F000808000020EF
:1026E0000000002080B58AB000AFF860B9607A6061
:1026F000154BDB6C144A43F00103D364124BDB6CC3
:1027000003F001033B613B694FF480737B6102235B
:10271000BB6102233B620023FB6100237B6207F164
:10272000140319464FF0904000F04EFC064B9B6896
:1027300023F0FE42B9687B680B43034913438B6067
:1027400000BF2837BD4680BD0010024080B489B06C
:1027500000AF0023FB610023BB613E4B9B6803F08D
:102760000C033B613B4BDB6803F00303FB603B69FD
:10277000002B05D03B690C2B21D1FB68012B1ED10E
:10278000344B1B6803F00803002B07D1314BD3F8FF
:1027900094301B0A03F00F03FB6105E02D4B1B680F
:1027A0001B0903F00F03FB612B4AFB6952F823302E
:1027B000FB613B69002B0DD1FB69BB610AE03B6902
:1027C000042B02D1254BBB6104E03B69082B01D1EE
:1027D000234BBB613B690C2B34D11E4BDB6803F0F0
:1027E0000303BB60BB68022B03D0BB68032B03D081
:1027F00005E01A4B7B6105E0194B7B6102E0FB6948
:102800007B6100BF134BDB681B0903F00703013337
:102810007B60104BDB681B0A03F07F037A6903FBC4
:1028200002F27B68B2FBF3F37B610A4BDB685B0E61
:1028300003F0030301335B003B607A693B68B2FB42
:10284000F3F3BB61BB6918462437BD465DF8047BD2
:10285000704700BF00100240C07F00080024F40051
:1028600000127A0080B400AF034B1B681846BD46C7
:102870005DF8047B704700BF0800002080B500AF02
:10288000FFF7F0FF0246064B9B681B0A03F00703A5
:102890000449CB5C03F01F0322FA03F3184680BD02
:1028A00000100240B87F000880B500AFFFF7DAFFE4
:1028B0000246064B9B68DB0A03F007030449CB5C26
:1028C00003F01F0322FA03F3184680BD00100240F4
:1028D000B87F000880B483B000AF786039607B684F
:1028E0000F221A60124B9B6803F003027B685A6048
:1028F0000F4B9B6803F0F0027B689A600C4B9B685F
:1029000003F4E0627B68DA60094B9B68DB0803F440
:10291000E0627B681A61074B1B6803F007023B68A3
:102920001A6000BF0C37BD465DF8047B704700BFDE
:10293000001002400020024080B586B000AF7860F1
:1029400000233B612A4B9B6D03F08053002B03D087
:1029500000F0FAFD786114E0254B9B6D244A43F0AA
:1029600080539365224B9B6D03F08053FB60FB68A3
:1029700000F0EAFD78611E4B9B6D1D4A23F08053E9
:1029800093657B69B3F5007F0BD17B68802B19D9E8
:102990007B68A02B02D902233B6113E001233B613A
:1029A00010E07B68802B02D903233B610AE07B683F
:1029B000802B02D102233B6104E07B68702B01D1A4
:1029C00001233B610B4B1B6823F0070209493B695C
:1029D00013430B60074B1B6803F007033A699A42E5
:1029E00001D0012300E0002318461837BD4680BD02
:1029F000001002400020024080B586B000AF786031
:102A00000023FB740023BB747B681B6803F4006322
:102A1000002B31D07B68DB6BB3F5400F1AD0B3F5D8
:102A2000400F14D8002B09D0B3F5000F0FD15D4B28
:102A3000DB685C4A43F48033D3600CE07B6804338A
:102A40000021184600F0CEF90346FB7403E0012391
:102A5000FB7400E000BFFB7C002B0BD1514BD3F883
:102A6000883023F440027B68DB6B4E491343C1F886
:102A7000883001E0FB7CBB747B681B6803F4003387
:102A8000002B00F09E8000237B74464B9B6D03F06F
:102A90008053002B01D1012300E00023002B0DD037
:102AA000404B9B6D3F4A43F0805393653D4B9B6D7C
:102AB00003F08053BB60BB6801237B743A4B1B68F7
:102AC000394A43F480731360FFF7ECF8F86009E0CB
:102AD000FFF7E8F80246FB68D31A022B02D903235A
:102AE000FB7405E0304B1B6803F48073002BEFD0C0
:102AF000FB7C002B5AD12B4BD3F8903003F440735E
:102B00007B617B69002B1ED07B681B6D7A699A42C2
:102B100019D0244BD3F8903023F440737B61214BC0
:102B2000D3F890301F4A43F48033C2F890301D4BE5
:102B3000D3F890301B4A23F48033C2F89030194AFE
:102B40007B69C2F890307B6903F00103002B16D03B
:102B5000FFF7A8F8F8600BE0FFF7A4F80246FB685F
:102B6000D31A41F28832934202D90323FB7406E060
:102B70000C4BD3F8903003F00203002BECD0FB7C1D
:102B8000002B0BD1074BD3F8903023F440727B68B5
:102B90001B6D04491343C1F8903009E0FB7CBB7402
:102BA00006E000BF0010024000700040FB7CBB74D8
:102BB0007B7C012B05D18A4B9B6D894A23F0805386
:102BC00093657B681B6803F00103002B0AD0844BDC
:102BD000D3F8883023F003027B681B6A80491343D3
:102BE000C1F888307B681B6803F00203002B0AD011
:102BF0007B4BD3F8883023F00C027B685B6A784902
:102C00001343C1F888307B681B6803F02003002B56
:102C10000AD0734BD3F8883023F440627B689B6AF8
:102C20006F491343C1F888307B681B6803F4007355
:102C3000002B0AD06A4BD3F8883023F440227B68FB
:102C40005B6B67491343C1F888307B681B6803F4EA
:102C50008063002B0AD0624BD3F8883023F44012F3
:102C60007B689B6B5E491343C1F888307B681B68A7
:102C700003F04003002B0AD0594BD3F8883023F4DB
:102C800040527B68DB6A56491343C1F888307B6841
:102C90001B6803F48073002B0AD0514BD3F88830A3
:102CA00023F440327B681B6B4D491343C1F88830D5
:102CB0007B681B6803F40053002B28D0484BD3F8E3
:102CC000883023F040627B681B6C45491343C1F890
:102CD00088307B681B6CB3F1006F06D1404BDB681A
:102CE0003F4A43F48013D36011E07B681B6CB3F15F
:102CF000806F0CD17B6804330121184600F072F814
:102D00000346FB74FB7C002B01D0FB7CBB747B680F
:102D10001B6803F48023002B28D0314BD3F8883074
:102D200023F040627B685B6C2D491343C1F8883007
:102D30007B685B6CB3F1006F06D1294BDB68284AD6
:102D400043F48013D36011E07B685B6CB3F1806F58
:102D50000CD17B6804330121184600F043F8034688
:102D6000FB74FB7C002B01D0FB7CBB747B681B6875
:102D700003F48043002B1CD0194BD3F8883023F088
:102D800040527B689B6C16491343C1F888307B68BE
:102D90009B6CB3F1805F0CD17B6804330221184631
:102DA00000F020F80346FB74FB7C002B01D0FB7C79
:102DB000BB747B681B6803F40043002B0AD0084BEC
:102DC000D3F8883023F080427B68DB6C04491343DE
:102DD000C1F88830BB7C18461837BD4680BD00BF9F
:102DE0000010024080B584B000AF786039600023E5
:102DF000FB73744BDB6803F00303002B18D0714B9B
:102E0000DB6803F003027B681B689A420DD17B6884
:102E10001B68002B09D06B4BDB681B0903F0070311
:102E20005A1C7B685B689A4247D00123FB7344E0DD
:102E30007B681B68032B18D0032B25D8012B02D0ED
:102E4000022B09D020E05F4B1B6803F00203002B2C
:102E50001DD10123FB731AE05A4B1B6803F48063F6
:102E6000002B16D10123FB7313E0564B1B6803F4B0
:102E70000033002B0FD1534B1B6803F48023002B2E
:102E800009D10123FB7306E00123FB7304E000BFBB
:102E900002E000BF00E000BFFB7B002B0DD1494BDF
:102EA000DB6823F073027B6819687B685B68013B11
:102EB0001B010B4343491343CB60FB7B002B7CD1AD
:102EC000404B1B683F4A23F080631360FEF7EAFE25
:102ED000B86009E0FEF7E6FE0246BB68D31A022B93
:102EE00002D90323FB7305E0364B1B6803F0006334
:102EF000002BEFD1FB7B002B5FD13B68002B10D167
:102F0000304B1B6923F0784323F4FE437A689268C0
:102F100011027A68D268D2060A432A4913430B6128
:102F200027E03B68012B12D1264B1B6923F4C00319
:102F300023F4FE437A68926811027A681269520893
:102F4000013A52050A431F4913430B6111E01D4B1F
:102F50001B6923F0C06323F4FE437A689268110270
:102F60007A6852695208013A52060A4315491343D6
:102F70000B61144B1B68134A43F080631360FEF728
:102F800091FEB86009E0FEF78DFE0246BB68D31AD9
:102F9000022B02D90323FB7305E00A4B1B6803F0E5
:102FA0000063002BEFD0FB7B002B06D1054B1A6989
:102FB0007B689B69034913430B61FB7B1846103701
:102FC000BD4680BD0010024080B487B000AF78607D
:102FD000396000237B6148E13B681A6801217B6905
:102FE00001FA03F31340FB60FB68002B00F03A8109
:102FF0003B685B6803F00303012B05D03B685B680B
:1030000003F00303022B30D17B689B683B617B6933
:103010005B00032202FA03F3DB433A6913403B618E
:103020003B68DA687B695B0002FA03F33A69134391
:103030003B617B683A699A607B685B683B6101220F
:103040007B6902FA03F3DB433A6913403B613B6857
:103050005B681B0903F001027B6902FA03F33A691A
:1030600013433B617B683A695A603B685B6803F0D5
:103070000303032B17D07B68DB683B617B695B0034
:10308000032202FA03F3DB433A6913403B613B68D6
:103090009A687B695B0002FA03F33A6913433B6168
:1030A0007B683A69DA603B685B6803F00303022BD4
:1030B00023D17B69DA087B68083253F822303B6100
:1030C0007B6903F007039B000F2202FA03F3DB4343
:1030D0003A6913403B613B681A697B6903F0070357
:1030E0009B0002FA03F33A6913433B617B69DA08F8
:1030F0007B680832396943F822107B681B683B61A2
:103100007B695B00032202FA03F3DB433A69134055
:103110003B613B685B6803F003027B695B0002FA7A
:1031200003F33A6913433B617B683A691A603B6871
:103130005B6803F44033002B00F09480524B1B6E0D
:10314000514A43F0010313664F4B1B6E03F001031A
:10315000BB60BB684D4A7B699B08023352F8233041
:103160003B617B6903F003039B000F2202FA03F328
:10317000DB433A6913403B617B68B3F1904F0DD05C
:103180007B68434A934207D07B68424A934201D10D
:10319000022304E0072302E0012300E000237A6910
:1031A00002F00302920093403A6913433B613749AE
:1031B0007B699B0802333A6941F82320364B9B68B0
:1031C0003B61FB68DB433A6913403B613B685B68EA
:1031D00003F48013002B03D03A69FB6813433B616F
:1031E0002D4A3B6993602C4BDB683B61FB68DB43FA
:1031F0003A6913403B613B685B6803F40013002BA2
:1032000003D03A69FB6813433B61234A3B69D360AF
:10321000214B5B683B61FB68DB433A6913403B61D0
:103220003B685B6803F40033002B03D03A69FB680A
:1032300013433B61184A3B695360174B1B683B6162
:10324000FB68DB433A6913403B613B685B6803F40E
:103250008033002B03D03A69FB6813433B610E4A6D
:103260003B6913607B6901337B613B681A687B694A
:1032700022FA03F3002B7FF4AFAE00BF00BF1C3770
:10328000BD465DF8047B704700100240000001401D
:1032900000040048000800480004014080B483B0E6
:1032A00000AF78600B467B8013467B707B78002BE9
:1032B00003D07A887B689A6102E07A887B689A6298
:1032C00000BF0C37BD465DF8047B704780B582B007
:1032D00000AF0346FB80084B5A69FB881340002B64
:1032E00006D0054AFB885361FB881846FDF74CF968
:1032F00000BF0837BD4680BD0004014080B582B0E4
:1033000000AF78607B68002B01D1012381E07B68EE
:1033100093F84130DBB2002B06D17B68002283F8A2
:1033200040207868FDF7A2FD7B68242283F84120C5
:103330007B681B681A687B681B6822F001021A60B0
:103340007B685A687B681B6822F070621A617B6830
:103350001B689A687B681B6822F400429A607B684D
:10336000DB68012B07D17B689A687B681B6842F495
:1033700000429A6006E07B689A687B681B6842F4AA
:1033800004429A607B68DB68022B04D17B681B686F
:103390004FF400625A607B681B685B687A68126849
:1033A00043F0007343F4004353607B681B68DA68A2
:1033B0007B681B6822F40042DA607B681A697B68CC
:1033C0005B6942EA03017B689B691A027B681B68A0
:1033D0000A43DA607B68D9697B681A6A7B681B6874
:1033E0000A431A607B681B681A687B681B6842F096
:1033F00001021A607B6800225A647B68202283F8ED
:1034000041207B6800221A637B68002283F84220F7
:10341000002318460837BD4680BD80B483B000AF96
:10342000786039607B6893F84130DBB2202B38D16B
:103430007B6893F84030012B01D1022332E07B6896
:10344000012283F840207B68242283F841207B6896
:103450001B681A687B681B6822F001021A607B688F
:103460001B681A687B681B6822F480521A607B68AC
:103470001B6819687B681B683A680A431A607B6896
:103480001B681A687B681B6842F001021A607B683F
:10349000202283F841207B68002283F8402000230B
:1034A00000E0022318460C37BD465DF8047B7047E8
:1034B00080B485B000AF786039607B6893F84130A4
:1034C000DBB2202B39D17B6893F84030012B01D13E
:1034D000022333E07B68012283F840207B682422AA
:1034E00083F841207B681B681A687B681B6822F0A0
:1034F00001021A607B681B681B68FB60FB6823F491
:103500007063FB603B681B02FA681343FB607B68D7
:103510001B68FA681A607B681B681A687B681B68FE
:1035200042F001021A607B68202283F841207B6808
:10353000002283F84020002300E0022318461437BD
:10354000BD465DF8047B704780B400AF044B1B6838
:1035500003F4C0631846BD465DF8047B704700BFA6
:103560000070004080B485B000AF78607B68B3F530
:10357000007F30D1234B1B6803F4C063B3F5007F99
:1035800038D0204B1B6823F4C0631E4A43F40073F9
:1035900013601D4B1B68322202FB03F31B4AA2FB84
:1035A00003239B0C0133FB6002E0FB68013BFB60E3
:1035B000144B5B6903F48063B3F5806F02D1FB6841
:1035C000002BF2D10F4B5B6903F48063B3F5806F7E
:1035D00010D103230FE00B4B1B6803F4C063B3F55A
:1035E000806F07D0074B1B6823F4C063054A43F480
:1035F00080631360002318461437BD465DF8047BD2
:10360000704700BF007000400800002083DE1B43AD
:1036100080B485B000AF78607B6803F00703FB607F
:103620000C4BDB68BB60BA684FF6FF031340BB600E
:10363000FB681A02BB68134343F0BF6343F40033D3
:10364000BB60044ABB68D36000BF1437BD465DF859
:10365000047B704700ED00E080B400AF044BDB68F2
:103660001B0A03F007031846BD465DF8047B70474C
:1036700000ED00E080B483B000AF0346FB7197F922
:103680000730002B0BDBFB7903F01F02074997F98A
:1036900007305B09012000FA02F241F8232000BF45
:1036A0000C37BD465DF8047B704700BF00E100E0C9
:1036B00080B483B000AF03463960FB7197F90730DF
:1036C000002B0ADB3B68DAB20C4997F9073012018C
:1036D000D2B20B4483F800230AE03B68DAB208490F
:1036E000FB7903F00F03043B1201D2B20B441A76AC
:1036F00000BF0C37BD465DF8047B704700E100E079
:1037000000ED00E080B489B000AFF860B9607A6085
:10371000FB6803F00703FB61FB69C3F10703042B9C
:1037200028BF0423BB61FB690433062B02D9FB6964
:10373000033B00E000237B614FF0FF32BB6902FADC
:1037400003F3DA43BB681A407B699A404FF0FF31BC
:103750007B6901FA03F3D9437B680B401343184696
:103760002437BD465DF8047B704780B582B000AF5A
:1037700078607868FFF74CFF00BF0837BD4680BD12
:1037800080B586B000AF0346B9607A60FB73002352
:103790007B61FFF761FF78617A68B9687869FFF744
:1037A000B1FF024697F90F3011461846FFF780FF28
:1037B00000BF1837BD4680BD80B582B000AF03465C
:1037C000FB7197F907301846FFF754FF00BF083721
:1037D000BD4680BD80B582B000AF78607B68002BAD
:1037E00001D1012349E07B6893F83D30DBB2002B27
:1037F00006D17B68002283F83C20786800F041F80D
:103800007B68022283F83D207B681A687B6804335A
:103810001946104600F0DCF97B68012283F8482045
:103820007B68012283F83E207B68012283F83F20D9
:103830007B68012283F840207B68012283F84120C5
:103840007B68012283F842207B68012283F84320B1
:103850007B68012283F844207B68012283F845209D
:103860007B68012283F846207B68012283F8472089
:103870007B68012283F83D20002318460837BD46A7
:1038800080BD80B483B000AF786000BF0C37BD4608
:103890005DF8047B7047000080B485B000AF7860AD
:1038A0007B6893F83D30DBB2012B01D001233BE074
:1038B0007B68022283F83D207B681B68DA687B689E
:1038C0001B6842F00102DA607B681B68194A934268
:1038D00009D07B681B68B3F1804F04D07B681B68FC
:1038E000154A934215D17B681B689A68134B1340A5
:1038F000FB60FB68062B15D0FB68B3F5803F11D049
:103900007B681B681A687B681B6842F001021A60BA
:1039100008E07B681B681A687B681B6842F001023C
:103920001A6000E000BF002318461437BD465DF85A
:10393000047B7047002C014000400140070001005B
:1039400080B582B000AF78607B681B681B6903F0AC
:103950000203022B22D17B681B68DB6803F00203A1
:10396000022B1BD17B681B686FF002021A617B6817
:1039700001221A777B681B689B6903F00303002B05
:1039800003D0786800F005F905E0786800F0F7F8F2
:10399000786800F008F97B6800221A777B681B685A
:1039A0001B6903F00403042B22D17B681B68DB68CE
:1039B00003F00403042B1BD17B681B686FF0040227
:1039C0001A617B6802221A777B681B689B6903F483
:1039D0004073002B03D0786800F0DBF805E07868CE
:1039E00000F0CDF8786800F0DEF87B6800221A77E6
:1039F0007B681B681B6903F00803082B22D17B68D6
:103A00001B68DB6803F00803082B1BD17B681B686D
:103A10006FF008021A617B6804221A777B681B68C2
:103A2000DB6903F00303002B03D0786800F0B1F8E2
:103A300005E0786800F0A3F8786800F0B4F87B68D7
:103A400000221A777B681B681B6903F01003102B98
:103A500022D17B681B68DB6803F01003102B1BD19D
:103A60007B681B686FF010021A617B6808221A7766
:103A70007B681B68DB6903F44073002B03D0786814
:103A800000F087F805E0786800F079F8786800F0D1
:103A90008AF87B6800221A777B681B681B6903F031
:103AA0000103012B0ED17B681B68DB6803F0010367
:103AB000012B07D17B681B686FF001021A617868DF
:103AC000FDF7E8F87B681B681B6903F08003802B17
:103AD0000ED17B681B68DB6803F08003802B07D165
:103AE0007B681B686FF080021A61786800F0DEF86E
:103AF0007B681B681B6903F48073B3F5807F0ED16C
:103B00007B681B68DB6803F08003802B07D17B6830
:103B10001B686FF480721A61786800F0D1F87B68D6
:103B20001B681B6903F04003402B0ED17B681B68A8
:103B3000DB6803F04003402B07D17B681B686FF004
:103B400040021A61786800F038F87B681B681B69CE
:103B500003F02003202B0ED17B681B68DB6803F089
:103B60002003202B07D17B681B686FF020021A61AD
:103B7000786800F091F800BF0837BD4680BD80B47A
:103B800083B000AF786000BF0C37BD465DF8047BA2
:103B9000704780B483B000AF786000BF0C37BD467B
:103BA0005DF8047B704780B483B000AF786000BFDD
:103BB0000C37BD465DF8047B704780B483B000AF1E
:103BC000786000BF0C37BD465DF8047B704700008D
:103BD00080B485B000AF786039607B681B68FB609B
:103BE0007B682A4A934203D07B68B3F1804F08D1A7
:103BF000FB6823F07003FB603B685B68FA68134363
:103C0000FB607B68214A93420BD07B68B3F1804F05
:103C100007D07B681E4A934203D07B681D4A9342BB
:103C200008D1FB6823F44073FB603B68DB68FA68EB
:103C30001343FB60FB6823F080023B685B6913431E
:103C4000FB607B68FA681A603B689A687B68DA6296
:103C50003B681A687B689A627B680C4A934207D07B
:103C60007B680B4A934203D07B680A4A934203D194
:103C70003B681A697B681A637B6801225A6100BF3E
:103C80001437BD465DF8047B704700BF002C01402F
:103C9000004001400044014080B483B000AF786030
:103CA00000BF0C37BD465DF8047B704780B483B01D
:103CB00000AF786000BF0C37BD465DF8047B7047ED
:103CC00080B483B000AF786000BF0C37BD465DF8AC
:103CD000047B704780B582B000AF78607B68002BB2
:103CE00001D1012340E07B689B6F002B06D17B68EC
:103CF000002283F874207868FDF710F97B6824228D
:103D00009A677B681B681A687B681B6822F001024F
:103D10001A60786800F02CF80346012B01D10123CA
:103D200022E07B685B6A002B02D0786800F04CFAD6
:103D30007B681B685A687B681B6822F490425A6053
:103D40007B681B689A687B681B6822F02A029A606D
:103D50007B681B681A687B681B6842F001021A6066
:103D6000786800F0D3FA034618460837BD4680BD90
:103D70002DE9B04F8AB000AFF860002387F82230F9
:103D8000FB689A68FB681B691A43FB685B691A4306
:103D9000FB68DB6913437B62FB681B681A68B44BE2
:103DA0001340FA681268796A0B431360FB681B685A
:103DB0005B6823F44051FB68DA68FB681B680A43C0
:103DC0005A60FB689B697B62FB681B68A94A934247
:103DD00004D0FB681B6A7A6A13437B62FB681B682A
:103DE0009B6823F43061FB681B687A6A0A439A6017
:103DF000FB681B68A04A934226D1A04BD3F88830B9
:103E000003F00303032B1BD801A252F823F000BFD9
:103E1000213E0008313E0008293E0008393E0008D6
:103E2000012387F8233080E0022387F823307CE0E9
:103E3000042387F8233078E0082387F8233074E0E0
:103E4000102387F8233070E0FB681B688C4A93428C
:103E500038D18A4BD3F8883003F00C030C2B2DD8C3
:103E600001A252F823F000BF9D3E0008BD3E0008AD
:103E7000BD3E0008BD3E0008AD3E0008BD3E000846
:103E8000BD3E0008BD3E0008A53E0008BD3E00083E
:103E9000BD3E0008BD3E0008B53E0008002387F87F
:103EA000233042E0022387F823303EE0042387F8E2
:103EB00023303AE0082387F8233036E0102387F8D0
:103EC000233032E0FB681B686A4A93422AD16B4B6D
:103ED000D3F8883003F44063B3F5406F1AD0B3F5DC
:103EE000406F1BD8B3F5006F0CD0B3F5006F15D839
:103EF000002B03D0B3F5806F08D00FE0002387F8C4
:103F0000233012E0022387F823300EE0042387F8E1
:103F100023300AE0082387F8233006E0102387F8CF
:103F2000233002E0102387F82330FB681B68514AD6
:103F300093427AD197F82330082B24D801A252F863
:103F400023F000BF693F0008873F0008713F000869
:103F5000873F0008773F0008873F0008873F000839
:103F6000873F00087F3F0008FEF788FCF86110E0FB
:103F7000444BFB610DE0FEF7E9FBF86109E04FF40B
:103F80000043FB6105E00023FB61012387F8223039
:103F900000BFFB69002B00F00781FB685A681346DD
:103FA0005B001344FA699A4205D3FB685B681B0304
:103FB000FA699A4203D9012387F82230F4E0FB69B9
:103FC00000221C4615464FF000024FF000032B0262
:103FD00043EA14632202F9684968490800208846C8
:103FE000814612EB080A43EB090BFB685B68002271
:103FF0003B607A60D7E9002350465946FCF7E8F861
:1040000002460B461346BB61BB69B3F5407F08D33C
:10401000BB69B3F5801F04D2FB681B68BA69DA601C
:10402000C2E0012387F82230BEE0FB68DB69B3F50C
:10403000004F6AD197F82330082B34D801A252F8E8
:1040400023F000BF69400008894000089140000843
:10405000A740000897400008A7400008A7400008B4
:10406000A74000089F400008FEF708FCF86120E028
:10407000F369FFEF0080004000380140001002406B
:10408000004400400024F400FEF70EFCF86110E04C
:104090004C4BFB610DE0FEF759FBF86109E04FF472
:1040A0000043FB6105E00023FB61012387F8223018
:1040B00000BFFB69002B77D0FB695A00FB685B6887
:1040C0005B081A44FB685B68B2FBF3F3BB61BB6936
:1040D0000F2B16D9BB69B3F5803F12D2BB699BB2D7
:1040E00023F00F03FB82BB695B089BB203F007035D
:1040F0009AB2FB8A1343FB82FB681B68FA8ADA6078
:1041000052E0012387F822304EE097F82330082B45
:1041100027D801A252F823F03D410008454100088C
:104120004D41000863410008534100086341000805
:1041300063410008634100085B410008FEF79EFBF5
:10414000F86114E0FEF7B0FBF86110E01D4BFB6175
:104150000DE0FEF7FBFAF86109E04FF40043FB6164
:1041600005E00023FB61012387F8223000BFFB69D3
:10417000002B19D0FB685B685A08FB691A44FB687E
:104180005B68B2FBF3F3BB61BB690F2B09D9BB6959
:10419000B3F5803F05D2BB699AB2FB681B68DA6051
:1041A00002E0012387F82230FB6800225A66FB6890
:1041B00000229A6697F8223018462837BD46BDE897
:1041C000B08F00BF0024F40080B483B000AF7860EB
:1041D0007B685B6A03F00103002B0AD07B681B68D5
:1041E0005B6823F400317B689A6A7B681B680A432A
:1041F0005A607B685B6A03F00203002B0AD07B687D
:104200001B685B6823F480317B68DA6A7B681B6813
:104210000A435A607B685B6A03F00403002B0AD0F0
:104220007B681B685B6823F480217B681A6B7B6862
:104230001B680A435A607B685B6A03F00803002B23
:104240000AD07B681B685B6823F400417B685A6B6B
:104250007B681B680A435A607B685B6A03F0100343
:10426000002B0AD07B681B689B6823F480517B6815
:104270009A6B7B681B680A439A607B685B6A03F0F1
:104280002003002B0AD07B681B689B6823F4005135
:104290007B68DA6B7B681B680A439A607B685B6AA1
:1042A00003F04003002B1AD07B681B685B6823F483
:1042B00080117B681A6C7B681B680A435A607B68B4
:1042C0001B6CB3F5801F0AD17B681B685B6823F405
:1042D000C0017B685A6C7B681B680A435A607B6824
:1042E0005B6A03F08003002B0AD07B681B685B6865
:1042F00023F400217B689A6C7B681B680A435A6030
:1043000000BF0C37BD465DF8047B704780B586B0B2
:1043100002AF78607B680022C3F88020FDF7C2FC02
:10432000F8607B681B681B6803F00803082B0ED13C
:104330006FF07E430093FB6800224FF40011786811
:1043400000F02DF80346002B01D0032323E07B6807
:104350001B681B6803F00403042B0ED16FF07E432F
:104360000093FB6800224FF48001786800F017F892
:104370000346002B01D003230DE07B6820229A67BF
:104380007B682022DA677B6800221A667B6800223D
:1043900083F87420002318461037BD4680BD80B5D1
:1043A0009CB000AFF860B9603B601346FB71A5E0BC
:1043B000BB6FB3F1FF3F00F0A180FDF773FC024635
:1043C0003B68D31ABA6F9A4202D3BB6F002B3ED11F
:1043D000FB681B683B653B6D53E8003FFB64FB6C6F
:1043E00023F4D0737B66FB681B681A467B6EFB6503
:1043F000BA65B96DFA6D41E800237B657B6D002BD2
:10440000E6D1FB681B680833FB63FB6B53E8003F96
:10441000BB63BB6B23F001033B66FB681B6808337F
:104420003A6EBA647B64796CBA6C41E800233B64F1
:104430003B6C002BE5D1FB6820229A67FB682022A9
:10444000DA67FB68002283F87420032367E0FB68C7
:104450001B681B6803F00403002B4FD0FB681B682C
:10446000DB6903F40063B3F5006F47D1FB681B6899
:104470004FF400621A62FB681B68BB62BB6A53E8B8
:10448000003F7B627B6A23F4D073FB66FB681B688A
:104490001A46FB6E7B633A63396B7A6B41E8002303
:1044A000FB62FB6A002BE6D1FB681B6808337B616B
:1044B0007B6953E8003F3B613B6923F00103BB6626
:1044C000FB681B680833BA6E3A62FB61F9693A6AA5
:1044D00041E80023BB61BB69002BE5D1FB682022CA
:1044E0009A67FB682022DA67FB682022C3F88020E5
:1044F000FB68002283F87420032310E0FB681B682C
:10450000DA69BB681340BA689A420CBF01230023E2
:10451000DBB21A46FB799A423FF44AAF00231846B1
:104520007037BD4680BD000080B400AF064BD3F8A5
:104530008830054A43F47003C2F8883000BFBD4696
:104540005DF8047B704700BF00ED00E080B58CB0E3
:1045500000AF7860002387F82F302E4B1B6E2D4A5A
:1045600043F4006313662B4B1B6E03F40063BB60C4
:10457000BB6807F10C0207F1100311461846FEF75D
:10458000A9F9FEF791F9B862BB6A234AA2FB03239B
:104590009B0C013B7B62214B214A1A601F4B40F26E
:1045A000E732DA601D4A7B6A53601C4B00221A61B5
:1045B0001A4B00229A60194B00229A611748FFF7A4
:1045C00009F9034687F82F3097F82F30002B1BD1BD
:1045D0001248FFF761F9034687F82F3097F82F301C
:1045E000002B11D11920FFF7E7F87B680F2B08D8B3
:1045F000002279681920FFF7C3F80A4A7B68136024
:1046000002E0012387F82F3097F82F301846303713
:10461000BD4680BD0010024083DE1B43981500207C
:10462000002C01400000002080B483B000AF78600F
:104630007B6803F108027B685A607B684FF0FF32A9
:104640009A607B6803F108027B68DA607B6803F19B
:1046500008027B681A617B6800221A6000BF0C3771
:10466000BD465DF8047B704780B483B000AF7860CE
:104670007B6800221A6100BF0C37BD465DF8047BE1
:10468000704780B485B000AF786039607B685B6844
:10469000FB603B68FA685A60FB689A683B689A60FE
:1046A000FB689B683A685A60FB683A689A603B68A6
:1046B0007A681A617B681B685A1C7B681A6000BFA5
:1046C0001437BD465DF8047B704780B485B000AFF9
:1046D000786039603B681B68BB60BB68B3F1FF3F23
:1046E00003D17B681B69FB600CE07B680833FB60CF
:1046F00002E0FB685B68FB60FB685B681B68BA688C
:104700009A42F6D2FB685A683B685A603B685B681D
:104710003A689A603B68FA689A60FB683A685A603F
:104720003B687A681A617B681B685A1C7B681A6050
:1047300000BF1437BD465DF8047B704780B485B078
:1047400000AF78607B681B69FB607B685B687A6898
:1047500092689A607B689B687A6852685A60FB68C6
:104760005B687A689A4203D17B689A68FB685A60F2
:104770007B6800221A61FB681B685A1EFB681A607E
:10478000FB681B6818461437BD465DF8047B70470C
:1047900080B584B000AF786039607B68FB60FB68EF
:1047A000002B0AD14FF0500383F31188BFF36F8FB2
:1047B000BFF34F8FBB6000BFFEE703F03BF9FB6820
:1047C0001A68FB68DB6BF968096C01FB03F31A4498
:1047D000FB689A60FB6800229A63FB681A68FB68B2
:1047E0005A60FB681A68FB68DB6B013BF968096C6F
:1047F00001FB03F31A44FB68DA60FB68FF2283F8CD
:104800004420FB68FF2283F845203B68002B14D12D
:10481000FB681B69002B1AD0FB681033184601F0A7
:1048200077FC0346002B12D00C4B4FF080521A60DD
:10483000BFF34F8FBFF36F8F09E0FB68103318464B
:10484000FFF7F2FEFB6824331846FFF7EDFE03F096
:1048500021F9012318461037BD4680BD04ED00E064
:1048600080B58EB002AFF860B9607A603B60FB68DB
:10487000002B0AD14FF0500383F31188BFF36F8FE1
:10488000BFF34F8FBB6200BFFEE73B68002B0AD12E
:104890004FF0500383F31188BFF36F8FBFF34F8F37
:1048A0007B6200BFFEE77B68002B02D0BB68002B59
:1048B00001D0012300E00023002B0AD14FF0500368
:1048C00083F31188BFF36F8FBFF34F8F3B6200BF3D
:1048D000FEE77B68002B02D1BB68002B01D10123CE
:1048E00000E00023002B0AD14FF0500383F311881E
:1048F000BFF36F8FBFF34F8FFB6100BFFEE7502305
:104900007B617B69502B0AD04FF0500383F31188F1
:10491000BFF36F8FBFF34F8FBB6100BFFEE77B69B3
:104920003B68FB62FB6A002B0DD0FB6A012283F817
:10493000462097F83820FB6A009313467A68B968D6
:10494000F86800F03FF8FB6A18463037BD4680BD76
:1049500080B58AB002AFF860B9601346FB71FB689E
:10496000002B0AD14FF0500383F31188BFF36F8FF0
:10497000BFF34F8F3B6100BFFEE7FB68BA6802FBE5
:1049800003F3FB61FB695033184602F03FFDB86149
:10499000BB69002B11D0BB697B617B6950337B61A4
:1049A000BB69002283F84620FA79BB69009313465D
:1049B0007A69B968F86800F005F8BB6918462037CD
:1049C000BD4680BD80B584B000AFF860B9607A6044
:1049D000FB70BB68002B03D1BB69BA691A6002E0A7
:1049E000BB697A681A60BB69FA68DA63BB69BA683E
:1049F0001A640121B869FFF7CBFEBB69FA7883F826
:104A00004C2000BF1037BD4680BD80B58AB002AFD4
:104A1000F860B9607A60FB68002B0AD14FF0500350
:104A200083F31188BFF36F8FBFF34F8FBB6100BF5C
:104A3000FEE7BA68FB689A420AD94FF0500383F345
:104A40001188BFF36F8FBFF34F8F7B6100BFFEE70D
:104A5000022300937B6800220021F868FFF700FF23
:104A6000F861FB69002B02D0FB69BA689A63FB69A5
:104A700018462037BD4680BD80B586B000AF78604F
:104A800039607B68002B0AD14FF0500383F3118803
:104A9000BFF36F8FBFF34F8F3B6100BFFEE73A68F4
:104AA0007B689A420AD94FF0500383F31188BFF311
:104AB0006F8FBFF34F8FFB6000BFFEE70222002124
:104AC0007868FFF745FF78617B69002B02D07B692E
:104AD0003A689A637B6918461837BD4680BD000066
:104AE00080B58EB000AFF860B9607A603B6000239B
:104AF0007B63FB683B633B6B002B0AD14FF0500399
:104B000083F31188BFF36F8FBFF34F8FBB6200BF7A
:104B1000FEE7BB68002B03D13B6B1B6C002B01D164
:104B2000012300E00023002B0AD14FF0500383F350
:104B30001188BFF36F8FBFF34F8F7B6200BFFEE71B
:104B40003B68022B03D13B6BDB6B012B01D10123B3
:104B500000E00023002B0AD14FF0500383F31188AB
:104B6000BFF36F8FBFF34F8F3B6200BFFEE701F0D3
:104B700091FC0346002B02D17B68002B01D101235D
:104B800000E00023002B0AD14FF0500383F311887B
:104B9000BFF36F8FBFF34F8FFB6100BFFEE702F0E3
:104BA00049FF3B6B9A6B3B6BDB6B9A4202D33B68D2
:104BB000022B29D13A68B968386B00F05EFCF862C4
:104BC0003B6B5B6A002B10D03B6B2433184601F023
:104BD0009FFA0346002B13D03F4B4FF080521A60D0
:104BE000BFF34F8FBFF36F8F0AE0FB6A002B07D034
:104BF000394B4FF080521A60BFF34F8FBFF36F8F66
:104C000002F048FF012363E07B68002B03D102F030
:104C100041FF00235CE07B6B002B06D107F11403FE
:104C2000184601F0D9FA01237B6302F033FF01F04B
:104C300045F802F0FFFE3B6B93F844305BB2B3F1F2
:104C4000FF3F03D13B6B002283F844203B6B93F87A
:104C500045305BB2B3F1FF3F03D13B6B002283F8D9
:104C6000452002F017FF3A1D07F1140311461846BC
:104C700001F0C8FA0346002B24D1386B00F0F5FC94
:104C80000346002B18D03B6B10337A681146184648
:104C900001F0EEF9386B00F080FC01F01DF80346DE
:104CA000002B7FF47CAF0C4B4FF080521A60BFF3A7
:104CB0004F8FBFF36F8F72E7386B00F06EFC01F01F
:104CC0000BF86CE7386B00F068FC01F005F8002386
:104CD00018463837BD4680BD04ED00E080B590B081
:104CE00000AFF860B9607A603B60FB68BB63BB6B88
:104CF000002B0AD14FF0500383F31188BFF36F8F5D
:104D0000BFF34F8FBB6200BFFEE7BB68002B03D130
:104D1000BB6B1B6C002B01D1012300E00023002B97
:104D20000AD14FF0500383F31188BFF36F8FBFF3A5
:104D30004F8F7B6200BFFEE73B68022B03D1BB6B4A
:104D4000DB6B012B01D1012300E00023002B0AD1F2
:104D50004FF0500383F31188BFF36F8FBFF34F8F72
:104D60003B6200BFFEE702F047FFEFF311824FF016
:104D7000500383F31188BFF36F8FBFF34F8FFA6136
:104D8000BB61FB697B63BB6B9A6BBB6BDB6B9A4252
:104D900002D33B68022B2FD1BB6B93F8453087F8C9
:104DA0003330BB6B9B6BFB623A68B968B86B00F041
:104DB00064FB97F93330B3F1FF3F12D1BB6B5B6AF1
:104DC000002B16D0BB6B2433184601F0A1F9034623
:104DD000002B0ED07B68002B0BD07B6801221A6061
:104DE00007E097F833300133DBB25AB2BB6B83F87C
:104DF00045200123FB6301E00023FB637B6B7B61A8
:104E00007B6983F3118800BFFB6B18464037BD46B2
:104E100080BD80B58EB000AF786039607B683B6341
:104E20003B6B002B0AD14FF0500383F31188BFF383
:104E30006F8FBFF34F8F3B6200BFFEE73B6B1B6C76
:104E4000002B0AD04FF0500383F31188BFF36F8F0C
:104E5000BFF34F8FFB6100BFFEE73B6B1B68002B6E
:104E600003D13B6B9B68002B01D1012300E00023A1
:104E7000002B0AD14FF0500383F31188BFF36F8FDB
:104E8000BFF34F8FBB6100BFFEE702F0B5FEEFF34B
:104E900011824FF0500383F31188BFF36F8FBFF37C
:104EA0004F8F7A613B617B69FB623B6B9B6BBB62A3
:104EB0003B6BDB6BBA6A9A422BD23B6B93F8453063
:104EC00087F82730BB6A5A1C3B6B9A6397F92730E7
:104ED000B3F1FF3F12D13B6B5B6A002B16D03B6BEB
:104EE0002433184601F014F90346002B0ED03B681A
:104EF000002B0BD03B6801221A6007E097F827309F
:104F00000133DBB25AB23B6B83F8452001237B634C
:104F100001E000237B63FB6AFB60FB6883F311887D
:104F200000BF7B6B18463837BD4680BD80B58CB05E
:104F300000AFF860B9607A600023FB62FB68BB6277
:104F4000BB6A002B0AD14FF0500383F31188BFF3E3
:104F50006F8FBFF34F8F3B6200BFFEE7BB68002B34
:104F600003D1BB6A1B6C002B01D1012300E000239D
:104F7000002B0AD14FF0500383F31188BFF36F8FDA
:104F8000BFF34F8FFB6100BFFEE701F083FA0346DA
:104F9000002B02D17B68002B01D1012300E000230C
:104FA000002B0AD14FF0500383F31188BFF36F8FAA
:104FB000BFF34F8FBB6100BFFEE702F03BFDBB6A52
:104FC0009B6B7B627B6A002B1FD0B968B86A00F0CC
:104FD000BEFA7B6A5A1EBB6A9A63BB6A1B69002BC6
:104FE0000FD0BB6A1033184601F092F80346002B2D
:104FF00007D03D4B4FF080521A60BFF34F8FBFF385
:105000006F8F02F047FD012369E07B68002B03D11D
:1050100002F040FD002362E0FB6A002B06D107F19D
:105020001003184601F0D8F80123FB6202F032FDAC
:1050300000F044FE02F0FEFCBB6A93F844305BB221
:10504000B3F1FF3F03D1BB6A002283F84420BB6A5F
:1050500093F845305BB2B3F1FF3F03D1BB6A002246
:1050600083F8452002F016FD3A1D07F110031146A2
:10507000184601F0C7F80346002B23D1B86A00F0A8
:10508000DEFA0346002B17D0BB6A24337A68114638
:10509000184600F0EDFFB86A00F07FFA00F01CFE41
:1050A0000346002B89D1104B4FF080521A60BFF39A
:1050B0004F8FBFF36F8F80E7B86A00F06EFA00F091
:1050C0000BFE7AE7B86A00F068FA00F005FEB86AED
:1050D00000F0B5FA0346002B3FF46FAF00231846EB
:1050E0003037BD4680BD00BF04ED00E080B58EB016
:1050F00000AF7860396000237B637B68FB6200232C
:105100003B63FB6A002B0AD14FF0500383F31188F5
:10511000BFF36F8FBFF34F8F3B6200BFFEE7FB6AA9
:105120001B6C002B0AD04FF0500383F31188BFF3A0
:105130006F8FBFF34F8FFB6100BFFEE701F0AAF94D
:105140000346002B02D13B68002B01D1012300E074
:105150000023002B0AD14FF0500383F31188BFF3D3
:105160006F8FBFF34F8FBB6100BFFEE702F062FCA1
:10517000FB6A9B6BBB62BB6A002B24D0BB6A5A1EC6
:10518000FB6A9A63FB6A1B68002B04D101F0F8FAF2
:105190000246FB6A9A60FB6A1B69002B0FD0FB6A10
:1051A0001033184600F0B4FF0346002B07D0544BD1
:1051B0004FF080521A60BFF34F8FBFF36F8F02F032
:1051C00069FC012397E03B68002B11D13B6B002B5E
:1051D0000AD04FF0500383F31188BFF36F8FBFF3F2
:1051E0004F8F7B6100BFFEE702F054FC002382E09A
:1051F0007B6B002B06D107F10C03184600F0ECFF87
:1052000001237B6302F046FC00F058FD02F012FC23
:10521000FB6A93F844305BB2B3F1FF3F03D1FB6A02
:10522000002283F84420FB6A93F845305BB2B3F167
:10523000FF3F03D1FB6A002283F8452002F02AFCDD
:105240003A4607F10C031146184600F0DBFF03460F
:10525000002B32D1F86A00F0F2F90346002B26D079
:10526000FB6A1B68002B09D102F0E4FBFB6A9B6818
:10527000184601F02DF9386302F00CFCFB6A243368
:105280003A681146184600F0F3FEF86A00F085F916
:1052900000F022FD0346002B7FF468AF184B4FF05F
:1052A00080521A60BFF34F8FBFF36F8F5EE7F86ACB
:1052B00000F073F900F010FD58E7F86A00F06DF99E
:1052C00000F00AFDF86A00F0BAF90346002B3FF43B
:1052D0004DAF3B6B002B0DD002F0ACFBF86A00F039
:1052E000B4F87862FB6A9B68796A184601F0C6F9DF
:1052F00002F0D0FB002318463837BD4680BD00BF02
:1053000004ED00E080B58EB000AFF860B9607A605F
:10531000FB683B633B6B002B0AD14FF0500383F3D8
:105320001188BFF36F8FBFF34F8F3B6200BFFEE763
:10533000BB68002B03D13B6B1B6C002B01D10123FD
:1053400000E00023002B0AD14FF0500383F31188B3
:10535000BFF36F8FBFF34F8FFB6100BFFEE702F01B
:105360004BFCEFF311824FF0500383F31188BFF32E
:105370006F8FBFF34F8FBA617B61BB69FB623B6B81
:105380009B6BBB62BB6A002B2FD03B6B93F8443006
:1053900087F82730B968386B00F0D9F8BB6A5A1E15
:1053A0003B6B9A6397F92730B3F1FF3F12D13B6B08
:1053B0001B69002B16D03B6B1033184600F0A8FE7B
:1053C0000346002B0ED07B68002B0BD07B6801229C
:1053D0001A6007E097F827300133DBB25AB23B6B13
:1053E00083F8442001237B6301E000237B63FB6A95
:1053F0003B613B6983F3118800BF7B6B18463837EC
:10540000BD4680BD80B584B000AF78607B68FB602E
:10541000FB68002B0AD14FF0500383F31188BFF3D0
:105420006F8FBFF34F8FBB6000BFFEE7F86800F0DF
:105430005FF9FB6893F84630002B02D1F86802F060
:10544000B1F800BF1037BD4680BD80B485B000AF55
:1054500078607B685B6A002B06D07B681B6B1B68DF
:10546000C3F13803FB6001E00023FB60FB681846D2
:105470001437BD465DF8047B704780B586B000AF39
:10548000F860B9607A6000237B61FB689B6B3B61CD
:10549000FB681B6C002B0DD1FB681B68002B4DD1EA
:1054A000FB689B68184601F07BF87861FB68002276
:1054B0009A6043E07B68002B19D1FB685868FB6851
:1054C0001B6C1A46B96802F025FCFB685A68FB6839
:1054D0001B6C1A44FB685A60FB685A68FB689B683F
:1054E0009A422BD3FB681A68FB685A6026E0FB6877
:1054F000D868FB681B6C1A46B96802F00BFCFB68A5
:10550000DA68FB681B6C5B421A44FB68DA60FB6874
:10551000DA68FB681B689A4207D2FB689A68FB68E6
:105520001B6C5B421A44FB68DA607B68022B05D176
:105530003B69002B02D03B69013B3B613B695A1C34
:10554000FB689A637B6918461837BD4680BD80B5F5
:1055500082B000AF786039607B681B6C002B18D07C
:105560007B68DA687B681B6C1A447B68DA607B684E
:10557000DA687B689B689A4203D37B681A687B6809
:10558000DA607B68D9687B681B6C1A46386802F061
:10559000C1FB00BF0837BD4680BD80B584B000AFF9
:1055A000786002F047FA7B6893F84530FB7311E0AE
:1055B0007B685B6A002B12D07B682433184600F0AE
:1055C000A7FD0346002B01D000F07EFEFB7B013BD4
:1055D000DBB2FB7397F90F30002BE9DC00E000BF72
:1055E0007B68FF2283F8452002F054FA02F022FA89
:1055F0007B6893F84430BB7311E07B681B69002B18
:1056000012D07B681033184600F082FD0346002B51
:1056100001D000F059FEBB7B013BDBB2BB7397F9B5
:105620000E30002BE9DC00E000BF7B68FF2283F82E
:10563000442002F02FFA00BF1037BD4680BD80B570
:1056400084B000AF786002F0F5F97B689B6B002BAB
:1056500002D10123FB6001E00023FB6002F01AFA93
:10566000FB6818461037BD4680BD80B584B000AFDA
:10567000786002F0DFF97B689A6B7B68DB6B9A429B
:1056800002D10123FB6001E00023FB6002F002FA7B
:10569000FB6818461037BD4680BD000080B485B059
:1056A00000AF786039600023FB6014E00F4AFB68AC
:1056B00052F83330002B0BD10C49FB683A6841F8A3
:1056C00033200A4AFB68DB0013447A685A6006E01C
:1056D000FB680133FB60FB68072BE7D900BF00BF05
:1056E0001437BD465DF8047B704700BFE415002009
:1056F00080B485B000AF78600023FB6016E0104AEC
:10570000FB68DB0013445B687A689A420BD10C4A51
:10571000FB68002142F83310094AFB68DB001344A0
:1057200000225A6006E0FB680133FB60FB68072B30
:10573000E5D900BF00BF1437BD465DF8047B704754
:10574000E415002080B586B000AFF860B9607A60DB
:10575000FB687B6102F06EF97B6993F844305BB2C1
:10576000B3F1FF3F03D17B69002283F844207B69BA
:1057700093F845305BB2B3F1FF3F03D17B69002260
:1057800083F8452002F086F97B699B6B002B06D1DC
:105790007B6924337A68B968184600F08DFC786913
:1057A000FFF7FBFE00BF1837BD4680BD80B58EB049
:1057B00004AFF860B9607A603B607B6B002B0AD164
:1057C0004FF0500383F31188BFF36F8FBFF34F8FF8
:1057D0003B6200BFFEE7BB6B002B0AD14FF05003CA
:1057E00083F31188BFF36F8FBFF34F8FFB6100BF4F
:1057F000FEE74FF491633B613B69B3F5916F0AD0CB
:105800004FF0500383F31188BFF36F8FBFF34F8FB7
:10581000BB6100BFFEE73B69BB6B002B1ED07B6BFF
:10582000002B1BD0BB6B7B627B6A7A6B1A637B6A33
:10583000022283F88524002303937B6A029307F1F5
:10584000140301933B6B00933B687A68B968F8686E
:1058500000F051F8786A00F01DF901E000237B6147
:105860007B6918462837BD4680BD80B58CB004AF33
:10587000F860B9603B601346FB80FB889B001846CC
:1058800001F0C4FD78617B69002B0FD04FF491606B
:1058900001F0BCFDF861FB69002B03D0FB697A695C
:1058A0001A6305E0786901F07DFE01E00023FB61E9
:1058B000FB69002B17D0FB69002283F88524FA8846
:1058C00000230393FB690293FB6A0193BB6A009375
:1058D0003B68B968F86800F00EF8F86900F0DAF88B
:1058E0000123BB6102E04FF0FF33BB61BB69184687
:1058F0002037BD4680BD80B588B000AFF860B96084
:105900007A603B603B6B186B7B689B001A46A52155
:1059100002F00EFA3B6B1A6B7B6803F18043013B8C
:105920009B001344BB61BB6923F00703BB61BB69E8
:1059300003F00703002B0AD04FF0500383F31188C4
:10594000BFF36F8FBFF34F8F7B6100BFFEE7BB6874
:10595000002B1FD00023FB6112E0BA68FB691344DF
:1059600019783A6BFB69134434330A461A70BA68E3
:10597000FB6913441B78002B06D0FB690133FB61E4
:10598000FB690F2BE9D900E000BF3B6B002283F8D5
:10599000432003E03B6B002283F83420BB6A372BA3
:1059A00001D93723BB623B6BBA6ADA623B6BBA6AD6
:1059B000DA643B6B00221A653B6B04331846FEF732
:1059C00053FE3B6B18331846FEF74EFE3B6B3A6BAB
:1059D0001A61BB6AC3F138023B6B9A613B6B3A6B4D
:1059E0005A623B6B0022C3F880243B6B002283F891
:1059F00084243B6B58334FF485620021184602F033
:105A000097F93B6B03F551723B6BDA653B6B03F522
:105A10006B723B6B1A663B6B03F214423B6B5A662C
:105A2000396B4FF001024FF00003C1E940233B6B9B
:105A300043F20E32A3F808213B6B4AF6CD32A3F8AD
:105A40000A213B6B41F23422A3F80C213B6B4EF24E
:105A50006D62A3F80E213B6B4DF6EC62A3F81021AA
:105A60003B6B0522A3F812213B6B0B22A3F81421F8
:105A70003A68F968B86901F0B3FE02463B6B1A60F8
:105A8000FB6A002B02D0FB6A3A6B1A6000BF20371A
:105A9000BD4680BD80B582B000AF786001F0CAFF1E
:105AA0002D4B1B6801332C4A13602C4B1B68002BB9
:105AB00009D12A4A7B681360274B1B68012B10D140
:105AC00000F026FC0DE0264B1B68002B09D1234B70
:105AD0001B68DA6A7B68DB6A9A4202D81F4A7B68D5
