:020000040800F2
:10000000000001202DA40008794A00087B4A00085E
:100010007D4A00087F4A0008814A0008000000006D
:1000200000000000000000000000000061A10008C6
:10003000834A00080000000001A20008DB990008C4
:100040007DA400087DA400087DA400087DA400080C
:100050007DA400087DA400087DA400087DA40008FC
:100060007DA40008854A00088F4A00087DA4000886
:100070007DA400087DA40008994A0008A94A000848
:100080007DA400087DA400087DA40008B94A0008EA
:10009000C94A0008D94A00087DA40008E94A0008B6
:1000A0007DA40008F94A00087DA400087DA400088A
:1000B0007DA4000800000000000000007DA40008EE
:1000C0007DA4000800000000000000007DA40008DE
:1000D00000000000094B00087DA40008000000009B
:1000E000194B00087DA4000800000000000000007B
:1000F0000000000000000000000000000000000000
:100100000000000000000000000000007DA40008C6
:1001100000000000000000007DA400087DA400088D
:100120007DA400087DA400087DA400087DA400082B
:100130007DA4000800000000000000000000000096
:100140007DA400087DA400087DA400087DA400080B
:100150007DA400087DA400087DA400087DA40008FB
:100160007DA400087DA400087DA400080000000014
:100170007DA400087DA4000800000000000000002D
:100180007DA400087DA400087DA4000800000000F4
:1001900010B5054C237833B9044B13B10448AFF3C1
:1001A00000800123237010BDF0010020000000003A
:1001B000FCA5000808B5034B1BB103490348AFF386
:1001C000008008BD00000000F4010020FCA500082C
:1001D000034613F8012B002AFBD1181A0138704787
:1001E00001F0FF01102A2BDB10F0070F08D010F8E8
:1001F000013B013A8B422DD010F0070F42B3F6D1EC
:10020000F0B441EA012141EA014122F007047FF004
:1002100000070023F0E80256083C85EA010586EA5B
:10022000010685FA47F5A3FA87F586FA47F6A5FA97
:1002300087F68EB9EED1F0BC01F0FF0102F00702A3
:1002400032B110F8013B013A83EA010313B1F8D14E
:100250000020704701387047002D06BF354603382F
:10026000073815F0010F07D1013015F4807F02BF68
:10027000013015F4C03F0130F0BC0138704700BFB9
:1002800081F0004102E000BF83F0004330B54FEA47
:1002900041044FEA430594EA050F08BF90EA020FB4
:1002A0001FBF54EA000C55EA020C7FEA645C7FEA47
:1002B000655C00F0E2804FEA5454D4EB5555B8BF6A
:1002C0006D420CDD2C4480EA020281EA030382EADB
:1002D000000083EA010180EA020281EA0303362D6D
:1002E00088BF30BD11F0004F4FEA01314FF4801C40
:1002F0004CEA113102D0404261EB410113F0004F52
:100300004FEA03334CEA133302D0524263EB430308
:1003100094EA050F00F0A780A4F10104D5F1200EA6
:100320000DDB02FA0EFC22FA05F2801841F1000101
:1003300003FA0EF2801843FA05F359410EE0A5F1D5
:1003400020050EF1200E012A03FA0EFC28BF4CF006
:10035000020C43FA05F3C01851EBE37101F00045BC
:1003600007D54FF0000EDCF1000C7EEB00006EEBC9
:100370000101B1F5801F1BD3B1F5001F0CD3490853
:100380005FEA30004FEA3C0C04F101044FEA4452AA
:1003900012F5800F80F09A80BCF1004F08BF5FEA31
:1003A000500C50F1000041EB045141EA050130BD11
:1003B0005FEA4C0C404141EB0101013C28BFB1F523
:1003C000801FE9D291F0000F04BF01460020B1FA6E
:1003D00081F308BF2033A3F10B03B3F120020CDA41
:1003E0000C3208DD02F1140CC2F10C0201FA0CF01F
:1003F00021FA02F10CE002F11402D8BFC2F1200C84
:1004000001FA02F120FA0CFCDCBF41EA0C01904039
:10041000E41AA2BF01EB0451294330BD6FEA040482
:100420001F3C1CDA0C340EDC04F11404C4F120026D
:1004300020FA04F001FA02F340EA030021FA04F37F
:1004400045EA030130BDC4F10C04C4F1200220FAD6
:1004500002F001FA04F340EA0300294630BD21FA14
:1004600004F0294630BD94F0000F83F4801306BFDA
:1004700081F480110134013D4EE77FEA645C18BFCE
:100480007FEA655C29D094EA050F08BF90EA020F65
:1004900005D054EA000C04BF1946104630BD91EA5D
:1004A000030F1EBF0021002030BD5FEA545C05D160
:1004B0004000494128BF41F0004130BD14F580049F
:1004C0003CBF01F5801130BD01F0004545F0FE4113
:1004D00041F470014FF0000030BD7FEA645C1ABF48
:1004E000194610467FEA655C1CBF0B46024650EA7F
:1004F000013406BF52EA033591EA030F41F40021AB
:1005000030BD00BF90F0000F04BF0021704730B530
:100510004FF4806404F132044FF000054FF0000105
:1005200050E700BF90F0000F04BF0021704730B5C6
:100530004FF4806404F1320410F0004548BF40429B
:100540004FF000013EE700BF42004FEAE2014FEAF0
:1005500031014FEA02701FBF12F07F4393F07F4FCB
:1005600081F06051704732F07F4208BF704793F0CE
:100570007F4F04BF41F40021704730B54FF46074E1
:1005800001F0004521F000411CE700BF50EA0102E4
:1005900008BF704730B54FF000050AE050EA01028D
:1005A00008BF704730B511F0004502D5404261EBFD
:1005B00041014FF4806404F132045FEA915C3FF43E
:1005C000D8AE4FF003025FEADC0C18BF03325FEADB
:1005D000DC0C18BF033202EBDC02C2F1200300FA8C
:1005E00003FC20FA02F001FA03FE40EA0E0021FAB1
:1005F00002F11444BDE600BF70B54FF0FF0C4CF49F
:10060000E06C1CEA11541DBF1CEA135594EA0C0F50
:1006100095EA0C0F00F0DEF82C4481EA030621EA8B
:100620004C5123EA4C5350EA013518BF52EA0335C6
:1006300041F4801143F4801338D0A0FB02CE4FF078
:100640000005E1FB02E506F00042E0FB03E54FF0A8
:100650000006E1FB03569CF0000F18BF4EF0010EA0
:10066000A4F1FF04B6F5007F64F5407404D25FEA9C
:100670004E0E6D4146EB060642EAC62141EA55514F
:100680004FEAC52040EA5E504FEACE2EB4F1FD0C91
:1006900088BFBCF5E06F1ED8BEF1004F08BF5FEA0F
:1006A000500E50F1000041EB045170BD06F00046C1
:1006B00046EA010140EA020081EA0301B4EB5C046E
:1006C000C2BFD4EB0C0541EA045170BD41F4801166
:1006D0004FF0000E013C00F3AB8014F1360FDEBF8B
:1006E000002001F0004170BDC4F10004203C35DA67
:1006F0000C341BDC04F11404C4F1200500FA05F3EA
:1007000020FA04F001FA05F240EA020001F000428A
:1007100021F0004110EBD37021FA04F642EB060100
:100720005EEA430E08BF20EAD37070BDC4F10C042A
:10073000C4F1200500FA04F320FA05F001FA04F2EE
:1007400040EA020001F0004110EBD37041F10001DA
:100750005EEA430E08BF20EAD37070BDC4F12005E5
:1007600000FA05F24EEA020E20FA04F301FA05F24D
:1007700043EA020321FA04F001F0004121FA04F2F5
:1007800020EA020000EBD3705EEA430E08BF20EAC5
:10079000D37070BD94F0000F0FD101F000464000FF
:1007A00041EB010111F4801F08BF013CF7D041EA81
:1007B000060195F0000F18BF704703F00046520085
:1007C00043EB030313F4801F08BF013DF7D043EA56
:1007D0000603704794EA0C0F0CEA135518BF95EA0C
:1007E0000C0F0CD050EA410618BF52EA4306D1D193
:1007F00081EA030101F000414FF0000070BD50EAB2
:10080000410606BF1046194652EA430619D094EA3B
:100810000C0F02D150EA013613D195EA0C0F05D125
:1008200052EA03361CBF104619460AD181EA030179
:1008300001F0004141F0FE4141F470014FF0000031
:1008400070BD41F0FE4141F4780170BD70B54FF0CC
:10085000FF0C4CF4E06C1CEA11541DBF1CEA13554C
:1008600094EA0C0F95EA0C0F00F0A7F8A4EB05042E
:1008700081EA030E52EA03354FEA013100F0888025
:100880004FEA03334FF0805545EA131343EA1263EE
:100890004FEA022245EA111545EA10654FEA0026A3
:1008A0000EF000419D4208BF964244F1FD0404F55C
:1008B000407402D25B084FEA3202B61A65EB0305B8
:1008C0005B084FEA32024FF480104FF4002CB6EB75
:1008D000020E75EB030E22BFB61A754640EA0C00F5
:1008E0005B084FEA3202B6EB020E75EB030E22BF35
:1008F000B61A754640EA5C005B084FEA3202B6EB76
:10090000020E75EB030E22BFB61A754640EA9C0034
:100910005B084FEA3202B6EB020E75EB030E22BF04
:10092000B61A754640EADC0055EA060E18D04FEAC2
:10093000051545EA16754FEA06164FEAC30343EA62
:1009400052734FEAC2025FEA1C1CC0D111F4801F2F
:100950000BD141EA00014FF000004FF0004CB6E728
:1009600011F4801F04BF01430020B4F1FD0C88BFC7
:10097000BCF5E06F3FF6AFAEB5EB030C04BFB6EBD2
:10098000020C5FEA500C50F1000041EB045170BDC5
:100990000EF0004E4EEA113114EB5C04C2BFD4EBF2
:1009A0000C0541EA045170BD41F480114FF0000E76
:1009B000013C90E645EA060E8DE60CEA135594EAF2
:1009C0000C0F08BF95EA0C0F3FF43BAF94EA0C0FF5
:1009D0000AD150EA01347FF434AF95EA0C0F7FF46A
:1009E00025AF104619462CE795EA0C0F06D152EABE
:1009F00003353FF4FDAE1046194622E750EA4106A2
:100A000018BF52EA43067FF4C5AE50EA41047FF4B2
:100A10000DAF52EA43057FF4EBAE12E74FF0FF3C17
:100A200006E000BF4FF0010C02E000BF4FF0010CE8
:100A30004DF804CD4FEA410C7FEA6C5C4FEA430C61
:100A400018BF7FEA6C5C1BD001B050EA410C0CBFB0
:100A500052EA430C91EA030F02BF90EA020F002012
:100A6000704710F1000F91EA030F58BF994208BF79
:100A700090422CBFD8176FEAE37040F00100704736
:100A80004FEA410C7FEA6C5C02D150EA013C07D18D
:100A90004FEA430C7FEA6C5CD6D152EA033CD3D0D8
:100AA0005DF8040B704700BF8446104662468C46D2
:100AB0001946634600E000BF01B5FFF7B7FF002805
:100AC00048BF10F1000F01BD4DF808EDFFF7F4FF2E
:100AD0000CBF012000205DF808FB00BF4DF808EDB9
:100AE000FFF7EAFF34BF012000205DF808FB00BFDC
:100AF0004DF808EDFFF7E0FF94BF012000205DF8FE
:100B000008FB00BF4DF808EDFFF7CEFF94BF0120B2
:100B100000205DF808FB00BF4DF808EDFFF7C4FFAB
:100B200034BF012000205DF808FB00BF4FEA410CF4
:100B30007FEA6C5C02D150EA013C0AD14FEA430CD7
:100B40007FEA6C5C02D152EA033C02D14FF0000014
:100B500070474FF0010070474FEA410212F5001252
:100B600015D211D56FF47873B3EB625212D94FEAF4
:100B7000C12343F0004343EA505311F0004F23FADE
:100B800002F018BF404270474FF00000704750EA33
:100B9000013005D111F0004008BF6FF000407047F0
:100BA0004FF00000704700BF53B94AB9002908BF91
:100BB00000281CBF4FF0FF314FF0FF3000F074B938
:100BC000ADF1080C6DE904CE00F006F8DDF804E0A4
:100BD000DDE9022304B070472DE9F047089D044683
:100BE0008E46002B4DD18A42944669D9B2FA82F2E0
:100BF00052B101FA02F3C2F1200120FA01F10CFA1C
:100C000002FC41EA030E94404FEA1C48210CBEFB53
:100C1000F8F61FFA8CF708FB16E341EA034306FBDC
:100C200007F199420AD91CEB030306F1FF3080F06B
:100C30001F81994240F21C81023E63445B1AA4B2B8
:100C4000B3FBF8F008FB103344EA034400FB07F75A
:100C5000A7420AD91CEB040400F1FF3380F00A819B
:100C6000A74240F207816444023840EA0640E41B90
:100C700000261DB1D4400023C5E900433146BDE83C
:100C8000F0878B4209D9002D00F0EF800026C5E9DE
:100C9000000130463146BDE8F087B3FA83F6002EF6
:100CA0004AD18B4202D3824200F2F980841A61EB6E
:100CB000030301209E46002DE0D0C5E9004EDDE78C
:100CC00002B9FFDEB2FA82F2002A40F09280A1EB74
:100CD0000C014FEA1C471FFA8CFE0126200CB1FBC9
:100CE000F7F307FB131140EA01410EFB03F08842C2
:100CF00008D91CEB010103F1FF3802D2884200F24F
:100D0000CB804346091AA4B2B1FBF7F007FB1011E0
:100D100044EA01440EFB00FEA64508D91CEB04047E
:100D200000F1FF3102D2A64500F2BB800846A4EBD9
:100D30000E0440EA03409CE7C6F12007B34022FAC4
:100D400007FC4CEA030C20FA07F401FA06F31C43F3
:100D5000F9404FEA1C4900FA06F3B1FBF9F8200C00
:100D60001FFA8CFE09FB181140EA014108FB0EF046
:100D7000884202FA06F20BD91CEB010108F1FF3A96
:100D800080F08880884240F28580A8F102086144A2
:100D9000091AA4B2B1FBF9F009FB101144EA0141B0
:100DA00000FB0EFE8E4508D91CEB010100F1FF345B
:100DB0006CD28E456AD90238614440EA0840A0FBF3
:100DC0000294A1EB0E01A142C846A64656D353D0C9
:100DD0005DB1B3EB080261EB0E0101FA07F722FAED
:100DE00006F3F1401F43C5E9007100263146BDE816
:100DF000F087C2F12003D8400CFA02FC21FA03F379
:100E0000914001434FEA1C471FFA8CFEB3FBF7F0F9
:100E100007FB10360B0C43EA064300FB0EF69E421E
:100E200004FA02F408D91CEB030300F1FF382FD2B7
:100E30009E422DD9023863449B1B89B2B3FBF7F65F
:100E400007FB163341EA034106FB0EF38B4208D938
:100E50001CEB010106F1FF3816D28B4214D9023E79
:100E60006144C91A46EA004638E72E46284605E797
:100E70000646E3E61846F8E64B45A9D2B9EB020868
:100E800064EB0C0E0138A3E74646EAE7204694E7F8
:100E90004046D1E7D0467BE7023B614432E730462B
:100EA00009E76444023842E7704700BF70B50D4D52
:100EB0000D4C641BA4100026A64209D10B4D0C4C0E
:100EC00009F09CFB641BA4100026A64205D170BD4E
:100ED00055F8043B98470136EEE755F8043B984730
:100EE0000136F2E700AD000800AD000800AD0008D3
:100EF00004AD000802440346934200D1704703F852
:100F0000011BF9E72DE9FF4755EC104B002D0E466C
:100F100019462B46BBBF05F100431D4600232D2378
:100F20000B700D9BDDF830A0914623F02008BCBF6C
:100F300022461446B8F1460F05D0B8F1450F00D14E
:100F40000136022100E0032103AB019302AB0093C1
:100F500045EC104B5346324600F0CAFCB8F1470F3F
:100F6000074602D119F0010F22D0B8F1460F07EB66
:100F7000060910D13B78302B0AD1002200232046ED
:100F80002946FFF7A1FD18B9C6F10106CAF80060AD
:100F9000DAF8003099440022002320462946FFF762
:100FA00093FD08B1CDF80C903022039B4B4507D33D
:100FB000039B0E9ADB1B3846136004B0BDE8F08734
:100FC000591C03911A70F0E7F7B503460029B8BF22
:100FD000494203F8022BB4BF2D222B22092942706B
:100FE0002ADD0DF10704A4460A27A6460A4691FB0E
:100FF000F7F607FB16153035632A04F1FF340EF8B7
:10100000015C3146F1DC3031AEF1020504F8011C1F
:10101000441C294661450AD30DF10902A2EB0E02D8
:10102000654588BF00221344181A03B0F0BD11F8BB
:10103000012B04F8012FEDE7302330318370C170AC
:10104000031DF1E72DE9F04F2DED028B8DB00C461D
:10105000DDF8608016461F46054601F037FAD0F8E5
:1010600000A05046FFF7B4F800230A9323680593C5
:10107000D8F8003094F818B0073323F0070303F1D1
:101080000802C8F80020D3E90023C4E91223D4E9F8
:10109000128929F000430793CDF8188008EE100A52
:1010A0009F4BDDE906014FF0FF32FFF73FFD88BBA4
:1010B000DDE906019A4B4FF0FF32FFF719FD48BBFF
:1010C0000022002340464946FFF708FD10B12D23BA
:1010D00084F84330934B9448BBF1470F94BF984634
:1010E000804603232361059B23F0040222604FF016
:1010F0000009009733460BAA2146284600F0D8F98C
:10110000013040F090804FF0FF300DB0BDEC028B0D
:10111000BDE8F08F42464B4640464946FFF706FD84
:1011200040B14B46002BBCBF2D2384F843307F4891
:101130007F4BD1E763680BF0DF0206925A1C3FD168
:1011400006236360059B616843F480620023039378
:101150000AABCDE901B309AB49EC108B00932260D7
:101160000DF123032846FFF7CDFE069B0999472B77
:10117000804608D1C81C02DB6368994241DDABF1AF
:10118000020B5FFA8BFBBBF1650F20D801395A4681
:1011900004F150000991FFF717FF0A9A1318012A6A
:1011A0008146236102DC2268D20701D50133236125
:1011B0009DF82330002B9CD02D2384F8433098E7F2
:1011C000069A472ABED1002BBCD10123B9E7BBF157
:1011D000660F18D1002963680BDD216113B92268FD
:1011E000D00702D501330B442361A1654FF00009FC
:1011F000DEE713B92268D20701D50233F4E70123F1
:10120000F2E74FF0670B0A9B994205DB23682161E7
:10121000D807EAD54B1CE7E70029D4BFC1F1020289
:1012200001221344E0E723685A0507D423694246A4
:1012300031462846B84701302CD164E7BBF1650F31
:1012400040F2E080D4E9120100220023FFF73CFCC9
:10125000002834D0374A012331462846B8470130A8
:101260003FF451AFDDE909239A4202DB2368D80736
:1012700010D518EE103A524631462846B84701308C
:101280003FF441AF4FF0000804F11A090A9B013BFB
:10129000434509DC23689B0700F10581E0680B9B4F
:1012A0009842B8BF184630E701234A4631462846DF
:1012B000B84701303FF427AF08F10108E6E7099B82
:1012C000002B39DC1B4A012331462846B847013040
:1012D0003FF419AFDDE90923134302D12368D9078D
:1012E000D8D518EE103A524631462846B847013054
:1012F0003FF409AF4FF0000904F11A0A099B5B4261
:101300004B4501DC0A9B92E70123524631462846B1
:10131000B84701303FF4F7AE09F10109EEE700BF2D
:10132000FFFFEF7F20A6000824A600082CA60008D7
:1013300028A6000830A600080A9AA36D9A42A8BF02
:101340001A46002A914637DC4FF0000B29EAE9796A
:1013500004F11A02A36D0593A3EB09035B4533DC8B
:10136000DDE909239A423BDB2368DA0738D40A9B7C
:10137000059A09999A1AA3EB01099145A8BF9146CC
:10138000B9F1000F35DC4FF0000829EAE97904F1E2
:101390001A0ADDE909239B1AA3EB090343457FF7EA
:1013A00079AF0123524631462846B84701303FF411
:1013B000AAAE08F10108ECE713463146424628463A
:1013C000B8470130C0D19EE6012331462846059238
:1013D000B84701303FF497AE059A0BF1010BB9E71E
:1013E00018EE103A524631462846B8470130BED171
:1013F00089E6059A4B46424431462846B8470130B3
:10140000C1D180E60A9A012A01DCDB0738D5012325
:10141000424631462846B84701303FF474AE18EED4
:10142000103A524631462846B84701303FF46BAE79
:10143000D4E9120100220023FFF746FBD8B90A9B2A
:1014400008F10102013B31462846B84701300ED170
:1014500059E60123524631462846B84701303FF449
:1014600052AE08F101080A9B013B4345F1DC4B46B3
:1014700004F15002DCE64FF0000804F11A0AF2E72A
:1014800001234246DFE701234A4631462846B84752
:1014900001303FF438AE08F10108E3680B995B1A9C
:1014A0004345F0DCFAE64FF0000804F11909F4E7CF
:1014B0002DE9F047164699468A680B69DDF82080C9
:1014C0009342B8BF1346336091F8432007460C4659
:1014D0000AB1013333602368990642BF336802338F
:1014E0003360256815F0060506D104F1190AE36892
:1014F00032689B1AAB4226DC94F84320131E226804
:1015000018BF012392062BD404F143024946384602
:10151000C04701301ED02368E568326803F0060337
:10152000042B08BFAD1AA36822690CBF25EAE57534
:1015300000259342C4BF9B1AED1800261A34B54209
:101540001AD1002008E00123524649463846C047D8
:10155000013003D14FF0FF30BDE8F0870135C6E719
:10156000E1185A1C302081F84300224494F84510B9
:1015700082F843100233C7E7012322464946384622
:10158000C0470130E6D00136D9E700002DE9FF471A
:101590000F7E0C9D782F914680460C469A4601F1AD
:1015A000430207D8622F0AD8002F00F0D880582FA6
:1015B00000F0A38004F1420584F842703AE0A7F1FC
:1015C0006303152BF6D801A151F823F02516000866
:1015D00039160008B5150008B5150008B51500083E
:1015E000B515000839160008B5150008B51500082E
:1015F000B5150008B515000845170008691600085C
:1016000027170008B5150008B5150008671700086A
:10161000B515000869160008B5150008B5150008CD
:101620002F1700082B681A1D1B682A6004F1420559
:1016300084F842300123A3E020682968060601F1FE
:1016400004030AD50E682B60002E03DA2D237642A0
:1016500084F843305E480A2319E00E682B6010F0CE
:10166000400F18BF36B2EFE72B682068191D2960BC
:10167000010601D51E6802E04606FBD51E885448C7
:101680006F2F0CBF08230A23002184F843106568DC
:10169000A560002DA2BF216821F0040121600EB9D0
:1016A000002D4DD01546B6FBF3F103FB1167C75D66
:1016B00005F8017D3746BB420E46F4D9082B0BD105
:1016C0002368DE0708D5236961689942DEBF3023AD
:1016D00005F8013C05F1FF35521B2261CDF800A051
:1016E0004B4603AA21464046FFF7E2FE01304CD1AB
:1016F0004FF0FF3004B0BDE8F087354881F8457001
:101700002968236851F8046B29601D0614D5DF078A
:1017100044BF43F0200323601EB9236823F0200355
:1017200023601023B0E7236843F02003236078236D
:10173000284884F84530E3E7590648BFB6B2E6E7E3
:101740001546BBE72B6826686169181D28603506B9
:101750001B6801D5196002E07006FBD519800023D3
:1017600023611546BAE72B681A1D2A601D68626856
:1017700000212846FEF734FD08B1401B6060636815
:101780002361002384F84330A8E723692A464946A9
:101790004046D0470130ABD023689B0713D4E068A4
:1017A000039B9842B8BF1846A4E701233246494636
:1017B0004046D04701309BD00135E36803995B1A5E
:1017C000AB42F2DCEBE7002504F11906F5E700BFB8
:1017D00032A6000843A600082DE9F74F03690C69FB
:1017E000A3420746C0F28180013C01F1140800F1D8
:1017F000140505EB8403019358F8243055F8242090
:1018000001339A424FEA840B08EB8409B2FBF3F6EA
:1018100031D34FF0000E4046AC46F24650F8042B50
:1018200093B206FB03E34FEA134E9BB2AAEB03030A
:10183000DCF800A0120C13FA8AF306FB02E2009314
:10184000009B4FEA124E92B2C2EB1A4202EB2342C5
:10185000BDF80030814543EA02434CF8043B4FEAAF
:10186000224ADBD255F80B302BB9019B043B9D4239
:101870001A462ED33C61384601F0C4F8002824DB18
:10188000013628464FF0000C58F8042BD0F800E041
:1018900093B2ACEB0303120C13FA8EF3C2EB1E42AD
:1018A00002EB23429BB243EA0243C14540F8043BAA
:1018B0004FEA224CE8D255F8242005EB840322B9E4
:1018C000043B9D421A460AD33C61304603B0BDE852
:1018D000F08F1268043B002ACCD1013CC7E71268A4
:1018E000043B002AF0D1013CEBE70020EEE70000CA
:1018F0002DE9F04F2DED048B57EC106B93B0456A3A
:10190000DDF88080069110EE10AA044609920C932F
:10191000BB4675B9102000F0DDFD0246606220B9BB
:10192000A74BEA21A74801F075FAC0E90155056007
:10193000C560636A196851B15A684A6001239340CF
:101940008B60204600F01CFE636A00221A603B1E7A
:10195000AABF002323F0004BC8F800309A4BBCBF4D
:101960000122C8F8002033EA0B031BD10C9A42F283
:101970000F731360CBF31303334300F09285219B65
:1019800063B9924B22E0924B01930833219A136082
:10199000019813B0BDEC048BBDE8F08F8B4B019325
:1019A0000333F3E70022002350465946FFF78CF833
:1019B0004BEC19AB804658B10C9A01231360219B64
:1019C000002B00F06B8583481860431E0193DFE70E
:1019D0004BEC10AB10AA11A9204601F0B9F8CBF3DB
:1019E0000A5508EE100A002D00F0848019EE903A96
:1019F000C3F3130343F07F57564647F44017A5F24D
:101A0000FF35CDF83880744B002230463946FEF75A
:101A10003BFC65A3D3E90023FEF7EEFD64A3D3E905
:101A20000023FEF733FC064628460F46FEF77AFDF4
:101A300061A3D3E90023FEF7DFFD02460B463046E3
:101A40003946FEF723FC06460F46FFF785F80022CD
:101A50000090002330463946FFF740F850B1009817
:101A6000FEF760FD32463B46FFF72EF810B9009BAB
:101A7000013B0093009B162B5AD8009A574B03EB5F
:101A8000C203D3E9002351EC190BFFF727F8002814
:101A900050D0009B013B009300230B93109B5D1BD8
:101AA0006B1E059345BFC5F101030493002300237A
:101AB0004CBF05930493009B002B3DDB059B009AD4
:101AC0000A921344059300230793069B092B00F207
:101AD0008980052BC4BF043B0693069BA3F1020338
:101AE000CCBF00250125032B00F28780DFE803F03F
:101AF0002D3A3859DDE910531D4405F23243202BAD
:101B0000C1BFC3F1400305F212400BFA03F326FAFA
:101B100000F0DABFC3F1200306FA03F01843FEF722
:101B2000F1FC01230646A1F1F877013D0E936AE727
:101B30000123B2E70B90B1E7049B009A9B1A049330
:101B40005342079300230A93BFE700230893099B9E
:101B5000002B55DC0123CDE902331A4609920CE033
:101B60000123F3E70023099A0893009B134402938F
:101B70000133012B0393B8BF0123606A0022426046
:101B8000042202F114069E4241683DD9204600F02D
:101B9000B7FC019000283BD1114B02464FF4D571A0
:101BA000C0E60123DFE700BF61436F63A787D23F31
:101BB000B3C8608B288AC63FFB799F501344D33F3C
:101BC00061A6000878A600080000F07F5DA6000866
:101BD00054A6000831A600080000F83FB0A700088E
:101BE000F6A6000801250023069308954FF0FF3361
:101BF000CDE9023300221223B0E701230893F5E771
:101C0000099BCDE90233B8E7013141605200B8E7E2
:101C1000636A019A1A60039B0E2B00F29D80002DCF
:101C200000F09A80009B002B32DDB74A03F00F03CF
:101C300002EBC303D3E90089009BD8054FEA2317C1
:101C400016D5B24B51EC190BD3E90823FEF7FEFD74
:101C500007F00F0782468B460325AC4E57B9424624
:101C60004B4650465946FEF7F1FD82468B4628E02A
:101C70000225F2E7F90708D540464946D6E9002390
:101C8000FEF7BAFC0135804689467F100836E5E745
:101C900000F09B80009B9D4F5E429B4B06F00F0225
:101CA00003EBC203D3E9002351EC190BFEF7A4FCAC
:101CB000361182468B4600230225002E7AD1002B56
:101CC000D3D10B9B002B00F08280914B0022504619
:101CD0005946FEF703FF002879D0039B002B76D0EE
:101CE000029B002B36DD009B504659465F1E0022AA
:101CF000884BFEF781FC029E82468B4601352846C2
:101D0000FEF710FC52465B46FEF776FC824B002243
:101D1000FEF7BCFAD046D9468246A1F1507B002E90
:101D200058D17E4B002240464946FEF7ADFA524656
:101D30005B4680468946FEF7EFFE002840F095821C
:101D400052460BF1004340464946FEF7C7FE0028C5
:101D500040F089825BEC19AB119B002BC0F24881EB
:101D6000009A0E2A00F34481674B03EBC203D3E9C8
:101D70000089099B002B80F2D580039B002B00F388
:101D8000D18040F06F82654B002240464946FEF705
:101D900033FC52465B46FEF7B5FE039E37460028ED
:101DA00040F04582019D312305F8013B009B013342
:101DB000009340E2F20705D5D7E90023FEF71CFCAB
:101DC000013501237610083777E7022579E7009F70
:101DD000039E94E701994C4B31440D91089903EB14
:101DE000C60353E90223002943D04D490020FEF7E2
:101DF0002DFD52465B46FEF747FA019D82468B4613
:101E000049464046FEF7A8FE0646FEF78BFB024613
:101E10000B4640464946FEF737FA303605F8016B67
:101E200052465B4680468946FEF758FE002863D13D
:101E300042464B4636490020FEF726FA52465B469C
:101E4000FEF74CFE002840F0B5800D9B9D4281D0EE
:101E5000304B002250465946FEF7CEFB2D4B8246B2
:101E60008B46404649460022FEF7C6FB804689461F
:101E7000C6E750465946FEF7BFFB0D9B019D0F93E9
:101E800082468B4649464046FEF766FE0646FEF70A
:101E900049FB303602460B4640464946FEF7F4F908
:101EA00005F8016B0D9B9D42804689464FF000026C
:101EB00024D11B4B50465946FEF7E8F902460B4623
:101EC00040464946FEF728FE002873D152465B463D
:101ED00013490020FEF7D8F902460B464046494612
:101EE000FEF7FCFD00283FF435AF0F9D6B1E0F93EE
:101EF00015F8013C302BF8D0009749E0054BFEF770
:101F00007BFB80468946BDE7B0A7000888A700088C
:101F10000000F03F0000244000001C40000014407E
:101F20000000E03F019D56465F4642464B46304624
:101F30003946FEF78BFCFEF70FFE8246FEF7F2FAFB
:101F400042464B46FEF758FB02460B4630463946A2
:101F50000AF13006FEF798F905F8016B019E039F20
:101F6000AE1BB74202460B4635D1FEF78FF942460B
:101F70004B4606460F46FEF7CFFDD0B942464B46CC
:101F800030463946FEF7A0FD10B11AF0010F10D10E
:101F9000204618EE101A00F0F3FA002300982B7078
:101FA0000C9B01301860219B002B3FF4F1AC1D60AD
:101FB000EEE4009F2B461D4613F8012D392A06D169
:101FC000019A9A42F7D10199302201370A701A78A2
:101FD00001321A7090E7A64B0022FEF70DFB00229B
:101FE000002306460F46FEF76FFD00289DD0CFE781
:101FF000089A002A00F0D780069A012A00F3BA80D6
:102000000E9A002A00F0B28003F23343079E049D2B
:10201000049A1A440492059A01211A442046059212
:1020200000F066FB0746002D0CDD059B002B09DD4B
:10203000AB42049AA8BF2B46D21A0492059AED1A15
:10204000D31A0593079B1BB3089B002B00F0AF80AE
:10205000002E13DD39463246204600F009FC18EE0A
:10206000102A01460746204600F058FB18EE101AC9
:102070008046204600F084FA08EE108A079B9A1BDF
:1020800006D018EE101A204600F0F2FB08EE100AF7
:102090000121204600F02CFB0A9B002B064640F352
:1020A00088801A460146204600F0E2FB069B012B81
:1020B000064640F381804FF00008336906EB830346
:1020C000186900F0C5FAC0F12000059B184410F013
:1020D0001F0000F09280C0F12003042B40F38A809F
:1020E000C0F11C00049B03440493059B0344054476
:1020F0000593049B002B07DD18EE101A1A462046A4
:1021000000F010FC08EE100A059B002B05DD31469F
:102110001A46204600F006FC06460B9B002B6ED0AC
:1021200018EE100A314600F06DFC002867DA009BBB
:10213000013B18EE101A00930A220023204600F0FB
:1021400041FA089B08EE100A002B00F0B181002331
:1021500039460A22204600F035FA029B002B07463A
:1021600000F38E80069B022B51DC89E0109BC3F1AB
:1021700036034BE7039B5E1E079BB342BFBF079B23
:102180000796F21A0A9BB6BF9B189E1B0A93039BE5
:10219000B8BF0026002BB7BFDDE90323DDE9033517
:1021A0009D1A002334E7079E049D089F3BE7079A8A
:1021B00067E7069B012B18DCBAF1000F15D1CBF3B2
:1021C000130393B92BF000431B0D1B0583B1049B34
:1021D00001330493059B013305934FF001080A9BDB
:1021E000002B7FF46AAF01206FE74FF00008F6E79D
:1021F0009846F4E73FF47DAF18461C3072E7039B26
:10220000002B37DC069B022B34DD039B0293029BE1
:102210006BB931460522204600F0D4F90146064646
:1022200018EE100A00F0EEFB00283FF7BBAD099B4B
:10223000019DDB4300934FF000083146204600F03B
:102240009FF9002F3FF4A4AEB8F1000F05D0B845B8
:1022500003D04146204600F093F93946204600F06D
:102260008FF995E600263746E1E70097374699E56E
:1022700000002440089B002B00F0CA80039B0293BF
:10228000002D05DD39462A46204600F04BFB074667
:10229000B8F1000F5BD07968204600F031F90546AF
:1022A00028B9874B024640F2EA21FFF73BBB3A6967
:1022B0000232920007F10C010C3000F013F90122F8
:1022C0002946204600F02EFB019B03F10109DDE9C0
:1022D0000123134405930AF00103B846049307460B
:1022E000314618EE100AFFF777FA4146029000F1E6
:1022F000300A18EE100A00F085FB3A46039031468A
:10230000204600F09BFBC26809F1FF3B054602BB7B
:10231000014618EE100A00F075FB024629462046D9
:10232000079200F02DF9DDE9063243EA0201049B31
:102330000B434D460FD1BAF1390F2AD0039B002B26
:1023400002DD029B03F1310A8BF800A075E73846E5
:10235000BAE70122E2E7039B002B04DB06990B435B
:1023600004990B4322D1002AEEDD18EE101A012247
:10237000204600F0D7FA314608EE100A00F042FB82
:10238000002803DCE0D11AF0010FDDD0BAF1390FDB
:10239000D7D139238BF800302B461D46013B15F869
:1023A000012C392A71D001321A7046E7002A07DD64
:1023B000BAF1390FEDD00AF101038BF800303CE798
:1023C000059B09F801AC994547D018EE101A002377
:1023D0000A22204600F0F6F8B84508EE100A4FF041
:1023E00000034FF00A024146204606D100F0EAF809
:1023F0008046074609F1010972E700F0E3F8394623
:10240000804600230A22204600F0DCF80746F1E768
:10241000039B0293019D18EE100A3146FFF7DCF989
:1024200000F1300A019B05F801ABEA1A029B9342C6
:1024300009DD18EE101A00230A22204600F0C2F827
:1024400008EE100AE7E7029B002BC8BF1D46019B60
:10245000D8BF01251D444FF0000818EE101A0122C4
:10246000204600F05FFA314608EE100A00F0CAFA82
:10247000002891DC02D11AF0010F8DD12B461D46A8
:1024800013F8012D302AFAD0D7E6019A9A4284D166
:10249000009B0133009331231370CEE6094BFFF705
:1024A00095BA219B002B7FF46EAA074BFFF78EBADB
:1024B000029B002BAEDC069B022B3FF7A8AEA9E7E0
:1024C000F6A6000830A6000854A600080048704789
:1024D00054010020024B0146186800F017BC00BFF1
:1024E000000000200A44914200F1FF3300D1704700
:1024F00010B511F8014B03F8014F9142F9D110BD0D
:1025000070B5466A04460D4676B91020FFF7E2FF23
:102510000246606220B9184B1848662100F07AFC28
:10252000C0E901660660C660666AF36883B1636AE3
:10253000DB6853F82500B8B9012101FA05F6721DD0
:102540009200204600F060FB60B1C0E901560EE049
:1025500021220421204600F057FB636AF060DB680B
:10256000002BE4D1002070BD026843F82520002331
:10257000C0E90333F7E700BF61A6000807A700081A
:1025800070B5466A05460C4676B91020FFF7A2FFE3
:102590000246686220B9094B09488A2100F03AFCDA
:1025A000C0E901660660C6603CB16B6A6268DB68C0
:1025B00053F82210216043F8224070BD61A6000844
:1025C00007A700082DE9F0410D6907460C461E4695
:1025D00001F1140C0020DCF8003099B202FB01611B
:1025E0001E0C0B0C02FB063389B2013001EB0341D8
:1025F00085424CF8041B4FEA1346ECDC0EB3A3688B
:10260000AB4219DC616838460131FFF779FF80463B
:1026100028B902460C4B0D48B52100F0FBFB22699E
:10262000023204F10C0192000C30FFF75BFF2146EF
:102630003846FFF7A5FF444604EB850301355E618C
:1026400025612046BDE8F081F6A6000807A700082E
:10265000030C1B04D3B90004102310F07F4F04BFF8
:102660000002083310F0704F04BF0001043310F073
:10267000404F04BF80000233002805DB10F0804F7C
:1026800003F1010308BF2023184670470023E4E745
:10269000036813F0070201460BD0DA0723D498072A
:1026A00049BF5B089B0801200B605CBF0B600220E8
:1026B000704798B2A8B91B0C1020DAB20AB90830DA
:1026C0001B0A1A0704BF1B0904309A0704BF9B08A2
:1026D0000230DA0703D45B0800F1010005D00B607B
:1026E00070471046E9E7002070472020704700003F
:1026F00010B50C460121FFF703FF024628B9054B30
:1027000005484FF4A07100F085FB0123446103618B
:1027100010BD00BFF6A6000807A700082DE9F04F7E
:1027200091460A69D9F810309A42B8BF0B460C4658
:10273000BCBF4C4699462769D9F810A0A3686168C8
:1027400007EB0A06B34285B0B8BF0131FFF7D8FEE8
:1027500030B90246444B454840F25D1100F05AFB47
:1027600000F1140505EB86082B460022434521D3D2
:1027700004F1140303EB870709F1140303EB8A0246
:1027800002923A1B153A22F00302043204F11501B9
:102790008F4238BF04220192029A03939A420CD8C6
:1027A000002E03DD58F8043D002B5AD0066105B019
:1027B000BDE8F08F43F8042BD8E7B3F800A0BAF1D6
:1027C000000F24D004F1140EA9464FF0000C5EF85F
:1027D000042BD9F800101FFA82FB89B20AFB0B11F7
:1027E0004FEA124BD9F8002061444FEA124C0AFB21
:1027F0000BC202EB114289B241EA0241774549F826
:10280000041B4FEA124CE2D8019A45F802C0039A21
:10281000B2F802900433B9F1000F20D0296804F116
:10282000140CAE464FF0000ABCF800B0BEF802200F
:1028300009FB0B22924489B241EA0A414EF8041B7B
:102840005CF8042BBEF80010120C09FB021101EB1E
:102850001A4167454FEA114AE6D8019AA950043552
:102860009AE7013E9CE700BFF6A6000807A700080C
:102870002DE9F843154612F0030206460F4607D02D
:10288000254C013A002354F82220FFF79BFE07460F
:10289000AD103DD0746A7CB91020FFF71BFE0246D4
:1028A000706228B91D4B1E484FF4D77100F0B2FA80
:1028B000C0E901440460C460D6F82480D8F8084018
:1028C0004CB940F271213046FFF712FF0023C8F8DF
:1028D0000800044603604FF00009EB070AD53946AB
:1028E00022463046FFF71AFF394680463046FFF74A
:1028F00047FE47466D100BD0206838B92246214666
:102900003046FFF70BFF2060C0F800900446E4E774
:102910003846BDE8F88300BF78A8000861A6000823
:1029200007A700082DE9F0470C464968236903EB27
:102930006218A368074691464FEA621A08F1010639
:10294000B3420BDB3846FFF7DBFD054648B90246CC
:102950002A4B2B4840F2D91100F05CFA01315B00A0
:10296000EEE7002300F1140100F110021846534570
:1029700037DB20692AEAEA7A04F1140319F01F0907
:1029800001EB8A0103EB80002FD0C9F1200E8A46AB
:102990004FF0000C1A6802FA09F242EA0C024AF8F7
:1029A000042B53F8042B984222FA0EFCF2D8031B96
:1029B000153B23F00303043304F11502904238BFA2
:1029C000042341F803C0BCF1000F01D008F1020656
:1029D000013E38462E612146FFF7D2FD2846BDE86C
:1029E000F08742F8040F0133C1E7043953F8042B90
:1029F00041F8042F9842F9D8EAE700BFF6A600088C
:102A000007A7000830B502690C69121B0ED100F14E
:102A10001403143103EB840001EB840150F8045DCE
:102A200051F8044DA54203D005D30122104630BD14
:102A30008342F3D3FAE74FF0FF32F7E72DE9F84F7F
:102A40000C460646114620469046FFF7DBFF051E62
:102A500010D129463046FFF753FD30B93A4B0246B4
:102A600040F23221394800F0D5F90123C0E904359C
:102A7000BDE8F88FA4BF4346A0463046D8F80410FE
:102A8000A6BF1C4600250125FFF73AFD20B92E4BB5
:102A900002464FF41071E5E7D8F810702669C5605A
:102AA00004F1140908F1140500F1140E05EB870C6C
:102AB00009EB860608F11002F246002159F8043BA2
:102AC00052F804BF1FFA83F811FA8BF11B0CA1EB2B
:102AD0000808C3EB1B4303EB28431FFA88F81914BB
:102AE0004E4548EA03434AF8043BE7D8331B153BFD
:102AF00023F0030304331534A64238BF04231D44D6
:102B000073449E462E4666450ED30CF10302521BBB
:102B100022F00302033DAC4538BF00221A4452F8AC
:102B2000043D7BB10761A3E756F8048B11FA88F2E4
:102B3000141404EB184492B242EA04424EF8042BF7
:102B40002114E0E7013FEAE7F6A6000807A700081E
:102B50002DE9F7438946012157EC106B9046FFF7AA
:102B6000CFFC044630B90246254B264840F20A31D4
:102B700000F050F9C7F30A55C7F3130335BB002E15
:102B8000019328D068460096FFF782FD009900B3B4
:102B9000019AC0F1200302FA03F30B43C2406361C0
:102BA0000192019BA361002B14BF0222012222612A
:102BB000D5B1A5F233450544C9F80050C0F1350040
:102BC000C8F80000204603B0BDE8F08343F480134A
:102BD000D5E76161E5E701A8FFF75AFD019B636155
:102BE000012222612030E3E704EB8203A0F23240AD
:102BF000C9F800001869FFF72BFDC0EB4210DFE7B2
:102C0000F6A6000807A7000837B5A1FB02244CB9B7
:102C10001146019200F07AF8019A054630B928462B
:102C200003B030BD0C2202600025F8E72146FEF714
:102C300061F9F4E737B5002944D051F8043C01901C
:102C4000002BA1F10404B8BFE41800F025F91E4AD6
:102C50000198136833B96360146003B0BDE8304075
:102C600000F020B9A34208D9256861198B4201BF41
:102C700019685B6849192160EDE71A465B680BB17A
:102C8000A342FAD911685518A5420BD124682144F2
:102C90005418A3421160E0D11C685B685360214462
:102CA0001160DAE702D90C230360D6E725686119C1
:102CB0008B4204BF19685B68636004BF49192160D7
:102CC0005460CAE703B030BD0C02002070B50E4E50
:102CD0000C463168054611B900F08CF83060214689
:102CE000284600F087F8431C0AD0C41C24F00304D3
:102CF000A04207D0211A284600F07CF8013001D10B
:102D00004FF0FF34204670BD100200202DE9F04145
:102D1000CD1C25F0030508350C2D38BF0C25002DE2
:102D2000074601DBA94205D90C233B60002630464B
:102D3000BDE8F0812E4E00F0AFF833681C4634BB7E
:102D400029463846FFF7C2FF431C04464DD134687C
:102D50002646002E40D123683146384604EB03084E
:102D600000F048F880453AD1216803356D1A25F006
:102D7000030508350C2D38BF0C2529463846FFF7CA
:102D8000A5FF01302BD023682B4423600EE022687E
:102D9000521B1ED40B2A16D96119A342256018BFF5
:102DA0005960636808BF316062514B60384604F176
:102DB0000B0600F077F826F00706231DF21AB6D0AE
:102DC0009B1BA350B3E76268A3420CBF32605A60FA
:102DD000ECE723466468B2E734467668B9E70C232B
:102DE0003B60384600F05EF8A1E72560DEE700BFF3
:102DF0000C02002038B5064D0023044608462B601F
:102E000007F0ECFB431C02D12B6803B1236038BDF3
:102E1000140200201FB514461A46094B1B680546CC
:102E2000D8684CB1074B0091CDE9013406492B46D7
:102E300000F00EF800F0CEFA044B1C46F3E700BF9A
:102E40000000002084A8000891A80008BFA800087E
:102E50000EB403B5014603AB054853F8042B0068D4
:102E6000019300F04FF802B05DF804EB03B0704737
:102E70000000002082B001B901A942B14BB1137822
:102E80000B601278101E18BF012002B07047104668
:102E9000FBE76FF00100F8E7014800F05BBC00BF02
:102EA00018020020014800F056BC00BF18020020A4
:102EB0009368013B002B10B4936008DA9469A34235
:102EC00001DB0A2903D15DF8044B00F0B5B91368A2
:102ED000581C1060197008465DF8044B7047F8B52F
:102EE00006460F461446D518AC4201D1002007E033
:102EF00014F8011B3A463046FFF7DAFF431CF3D1C2
:102F0000F8BD00002DE9F04F0D469DB014469846DF
:102F1000064618B183690BB900F07EFB894B9D42D0
:102F20001BD175686B6ED90705D4AB899A0502D49D
:102F3000A86D00F00FFCAB891B0701D52B69EBB91D
:102F40002946304600F0D8F9C0B16B6EDC070ED5CB
:102F50004FF0FF301DB0BDE8F08F7B4B9D4201D19B
:102F6000B568DFE7794B9D4208BFF568DAE7AB89C2
:102F70009805EDD4A86D00F0EEFBE9E70023099376
:102F800020238DF82930CDF80C803023DFF8C08164
:102F90008DF82A304FF0010923469A4613F8012B89
:102FA0000AB1252AF9D1BAEB040B0BD05B462246B5
:102FB00029463046FFF793FF013000F0AA80099AB6
:102FC0005A4409929AF80030002B00F0A2800023A6
:102FD0004FF0FF32CDE905230AF1010A049307936C
:102FE0008DF853301A935446052214F8011B5848A3
:102FF000FDF7F6F8049AD8B9D10644BF20238DF81E
:103000005330130744BF2B238DF853309AF8003008
:103010002A2B15D0079A544600204FF00A0C21465F
:1030200011F8013B303B092B4ED9B0B1079214E0A7
:10303000A0EB080309FA03F313430493A246D2E773
:10304000039B191D1B680391002BBBBF5B4242F021
:10305000020207930793B8BF049223782E2B0CD15A
:1030600063782A2B35D1039B1A1D1B680392002B12
:10307000B8BF4FF0FF3302340593DFF8E4A02178A6
:1030800003225046FDF7ACF840B14023A0EB0A0004
:1030900003FA00F0049B03430134049314F8011B6A
:1030A0002C488DF828100622FDF79AF800283FD00A
:1030B000294B1BBB039B073323F007030833039300
:1030C000099B3B44099367E70CFB02320C46012045
:1030D000A5E700230134059319464FF00A0C20465A
:1030E00010F8012B303A092A03D9002BC5D00591DD
:1030F000C3E70CFB012104460123F0E703AB009377
:103100002A46164B04A93046FDF79CFF0746781C5B
:10311000D6D16B6ED90705D4AB899A0502D4A86DB8
:1031200000F019FBAB895B063FF512AF099811E778
:1031300003AB00932A46094B04A93046FEF726FA52
:10314000E4E700BFFCA900081CAA0008DCA90008ED
:10315000CAA80008D4A8000845100008DF2E0008FF
:10316000D0A8000838B50C460968054609B1FFF734
:10317000F9FF21462846BDE83840FFF75BBD000057
:103180002C4B1B68834270B5044651D0436A43B14F
:10319000DB68002B4AD1636A196811B12046FFF73A
:1031A00049FD616911B12046FFF744FD616A11B123
:1031B0002046FFF73FFDA16B11B12046FFF73AFD16
:1031C000E16B11B12046FFF735FD216C11B12046AE
:1031D000FFF730FDE16D11B12046FFF72BFDA16D2A
:1031E00011B12046FFF726FD616B11B12046FFF7B4
:1031F00021FDA369E3B1A36A20469847A16CB9B148
:103200002046BDE87040FFF7ADBF495941B90435CC
:10321000636A802DD968F8D12046FFF70BFDBAE725
:103220000E682046FFF706FD3146EFE70025EFE781
:1032300070BD00BF00000020F8B50E4614460546DC
:1032400018B183690BB900F0E7F9214B9C422BD1EF
:103250006C68A369A360A3891A072FD523696BB390
:1032600023692068C01A6369F6B28342374604DCDA
:103270002146284600F03CF930BBA368013BA3601F
:1032800023685A1C22601E7063690130834204D097
:10329000A389DB0706D50A2E04D12146284600F073
:1032A00027F988B93846F8BD0A4B9C4201D1AC6871
:1032B000CFE7094B9C4208BFEC68CAE72146284685
:1032C00000F01AF80028CBD04FF0FF37EAE700BF34
:1032D000FCA900081CAA0008DCA9000849B1FF2AC3
:1032E00085BF8A2303600A704FF0FF3098BF01202A
:1032F0007047084670470000324B70B51D6806469F
:103300000C4625B1AB6913B9284600F085F92E4B60
:103310009C420FD16C68A389B4F90C2019072CD4F6
:10332000DD0611D40923336042F04003A3814FF03E
:10333000FF303EE0254B9C4201D1AC68EBE7244BCB
:103340009C4208BFEC68E6E7580712D5616B41B1B3
:1033500004F14403994202D03046FFF76BFC00238E
:103360006363A38923F02403A3810023636023699B
:103370002360A38943F00803A38123694BB9A38980
:1033800003F42073B3F5007F03D02146304600F0EC
:1033900009FAA089B4F90C2010F001030AD0002327
:1033A000A36063695B42A361236943B910F08000A5
:1033B000BAD170BD810758BF6369A360F4E70020EC
:1033C000F7E700BF00000020FCA900081CAA0008C5
:1033D000DCA9000808B5062000F04CFA012007F02F
:1033E0000BF900008A892DE9F041054610070C46CB
:1033F00058D44B68002B05DC0B6C002B02DC002042
:10340000BDE8F081E66A002EF9D0002312F4805264
:103410002F682B6032D0606DA3895A0705D5636889
:10342000C01A636B0BB1236CC01A00230246E66A14
:10343000216A2846B047431CA38906D129681D2963
:103440002CD82A4ACA40D60728D500226260D9045F
:103450002269226004D5421C01D12B6803B9606542
:10346000616B2F600029CAD004F14403994202D055
:103470002846FFF7DFFB00206063C1E7216A0123D4
:103480002846B047411CC7D12B68002BC4D01D2B48
:1034900001D0162B01D12F60B1E7A38943F040037F
:1034A000A381ADE70F69002FA9D093070E6808BF6D
:1034B0004B690F6018BF0023A6EB07088B60B8F1BB
:1034C000000F9CDD216AA66A43463A462846B0476B
:1034D000002806DCA38943F04003A3814FF0FF30AE
:1034E0008EE70744A8EB0008E9E700BF0100402091
:1034F00038B50B6905460C4613B90025284638BD7A
:1035000018B183690BB900F087F8144B9C421BD1AA
:103510006C68B4F90C30002BEFD0626ED00704D485
:10352000990502D4A06D00F015F928462146FFF751
:1035300059FF636EDA070546E0D4A3899B05DDD405
:10354000A06D00F008F9D9E7054B9C4201D1AC68A9
:10355000DFE7044B9C4208BFEC68DAE7FCA90008EF
:103560001CAA0008DCA90008002310B50446C0E925
:103570000033C0E90433836081814366C281836183
:10358000194608225C30FDF7B5FC054B6362054B1C
:10359000A362054BE362054B2462236310BD00BFA9
:1035A000AD380008CF380008073900082B3900086B
:1035B000014900F0AFB800BFF134000870B56822CF
:1035C0004D1E55430E4605F17401FFF79FFB04465F
:1035D00040B10021C0E900160C30A06005F168027E
:1035E000FDF788FC204670BD014800F0B3B800BF6D
:1035F00019020020014800F0AEB800BF19020020F7
:10360000014800F0A7B800BF1A020020014800F0EE
:10361000A2B800BF1A02002010B50446FFF7F0FF61
:10362000A3691BB1BDE81040FFF7F0BFC4E9123336
:103630002365134B134A1B68A262A34204BF0123F4
:10364000A361204600F020F86060204600F01CF8DE
:10365000A060204600F018F80022E06004216068B5
:10366000FFF782FFA06801220921FFF77DFFE068D4
:1036700002221221FFF778FF0123A361D2E700BFE6
:103680001CA60008B1350008F8B50746FFF7ACFFE7
:103690001E4B1E68B36913B93046FFF7BDFF4836AD
:1036A000D6E90134013B03D533680BB33668F7E73D
:1036B000B4F90C50D5B9164BE36004F158006566B7
:1036C00000F047F8FFF796FFC4E90155C4E9045537
:1036D0002560A5610822294604F15C00FDF70AFC7B
:1036E000C4E90D55C4E912552046F8BD6834D9E740
:1036F00004213846FFF762FF044630600028D5D128
:10370000FFF778FF0C233B60EEE700BF1CA6000824
:103710000100FFFF2DE9F8430646884600F1480402
:103720000027D4E90195B9F1010905D52468002CD9
:10373000F7D13846BDE8F883AB89012B07D9B5F935
:103740000E30013303D029463046C0470743683561
:10375000E9E770477047704770B50E46B1F90E1033
:10376000002996B014461D4608DAB6F90C3000223E
:103770002A601A0610D44FF480630EE06A4600F007
:10378000FBF80028F1DB019A02F47042A2F5005325
:103790005A425A412A60EEE740230020236016B0C7
:1037A00070BD00008B8973B59D0706460C4607D592
:1037B00004F14703236023610123636102B070BDFC
:1037C00001AB6A46FFF7C8FF009905463046FFF790
:1037D0009DFA48B9B4F90C309A05EFD423F00303ED
:1037E00043F00203A381E3E70D4BB362A38920609A
:1037F00043F08003A381009B6361019B20615BB167
:10380000B4F90E10304600F0C9F828B1A38923F0AE
:10381000030343F00103A381A0890543A581CDE7FC
:10382000B13500081F2938B504460D4604D91623C2
:1038300003604FF0FF3038BD426C12B152F82130B6
:103840004BB9204600F030F82A4601462046BDE834
:10385000384000F017B8012B0AD0591C03D11623A9
:1038600003600120E7E7002442F8254028469847F6
:103870000020E0E7024B01461868FFF7D3BF00BF06
:103880000000002038B5074D0023044608461146C5
:103890002B6006F08BFE431C02D12B6803B1236022
:1038A00038BD00BF1402002006F070BE10B50C46F3
:1038B000B1F90E1000F094F80028ABBF636DA38936
:1038C0001B1823F48053ACBF6365A38110BD2DE9A1
:1038D000F0411F468B89DB0505460C46164605D58B
:1038E000B1F90E100223002200F068F8A389B4F9A0
:1038F0000E1023F48053A38132463B462846BDE890
:10390000F04100F017B810B50C46B1F90E1000F0F8
:1039100055F8431CA38915BF606523F4805343F415
:103920008053A38118BFA38110BDB1F90E1000F020
:1039300013B8000038B5074D04460846114600226A
:103940002A601A4600F0A6FA431C02D12B6803B184
:10395000236038BD1402002038B5064D002304460C
:1039600008462B6006F002FE431C02D12B6803B10F
:10397000236038BD1402002038B5074D00230446EB
:10398000084611462B6006F0F9FD431C02D12B6856
:1039900003B1236038BD00BF1402002038B5064DC6
:1039A0000023044608462B6006F0F8FD431C02D1B4
:1039B0002B6803B1236038BD1402002038B5074DD1
:1039C00004460846114600222A601A4606F0F6FD13
:1039D000431C02D12B6803B1236038BD14020020C0
:1039E00038B5074D04460846114600222A601A469B
:1039F00006F0ECFD431C02D12B6803B1236038BDF7
:103A00001402002082B002AB03E906000123037018
:103A10009DF800209DF801305B0043EA02135BB281
:103A20009DF9022013434278134343709DF803200D
:103A30009DF804301B0143EA42135BB29DF8052058
:103A400043EAC2035BB29DF8062043EA82035BB2FD
:103A50009DF90720134382781343837002B07047A7
:103A600070B582B006460D466C4684E80C00102006
:103A7000FEF730FD024606608580234603CBC2F880
:103A80000600C2F80A10104602B070BD10B586B02C
:103A9000044602AB83E8060003CBC4F80600C4F872
:103AA0000A100D4B1B88ADF8143000238DF816302A
:103AB000D4F80610D4F80A2005A8FFF7A3FFA188C0
:103AC000490089B264230093032305AA206802F009
:103AD0004BFE06B010BD00BF18A6000830B585B07B
:103AE00004460023ADF80C308188490089B23225A4
:103AF0000095012303AA006802F036FEA188490060
:103B000089B20095022303AA206802F0FFFE48B99B
:103B10009DF80C00000200B29DF80D30184303D44C
:103B200005B030BD0020FBE70020F9E7F0B585B017
:103B300004460E46164B1B88ADF80C3000238DF85A
:103B40000E3003258DF80C50C2F307238DF80D308D
:103B50008DF80E2083885B0099B2642700972B466E
:103B600003AA006802F000FE02238DF80C30C6F3B1
:103B700007238DF80D308DF80E60A188490089B2B9
:103B800000972B4603AA206802F0EEFD05B0F0BDB9
:103B900018A6000808B547F6FF720021FFF7C6FF18
:103BA00008BD00002DE9F0418AB000240594069478
:103BB000079408940994584BDA6C42F00402DA64D2
:103BC000DA6C02F004020192019ADA6C42F001020E
:103BD000DA64DA6C02F001020292029ADA6C42F0C4
:103BE0000202DA64DA6C02F002020392039ADA6CDF
:103BF00042F08002DA64DB6C03F080030493049BE0
:103C0000224648F206014FF0904002F089FBDFF8AF
:103C1000148122460221404602F082FB4FF44043C9
:103C200005934FF4041706970125079505A93B480E
:103C300002F09EFA48F206030593069502260796BF
:103C4000089405A94FF0904002F092FA482305939A
:103C50000697079505A94FF0904002F089FA3023A6
:103C600005934FF488130693079605A94FF09040EB
:103C700002F07EFA8023059303270697079405A98F
:103C80004FF0904002F074FA2123059306970794B1
:103C900005A9404602F06CFA05960695079508942A
:103CA00005A9404602F064FA4FF480730593069626
:103CB00007940894099405A94FF0904002F058FA2F
:103CC000082305930697079405A9154802F050FAB2
:103CD00022460521092003F01BF9092003F050F9C1
:103CE000224605210A2003F013F90A2003F048F9BF
:103CF00022460521172003F00BF9172003F040F9A5
:103D000022460521282003F003F9282003F038F982
:103D10000AB0BDE8F08100BF001002400008004872
:103D2000001C00480004004800B583B00E4B9A6C9C
:103D300042F001029A649B6C03F001030193019B22
:103D4000002205210E2003F0E3F80E2003F018F9FD
:103D5000002205210F2003F0DBF80F2003F010F9FB
:103D600003B05DF804FB00BF0010024000B583B053
:103D70000CE00A23002201A91548006806F01EF88D
:103D8000019B012B1FD00A2005F0C0FE4FF0FF332E
:103D9000002201A90E48006806F010F80028F2D1B0
:103DA000019BB3F5807FE4D040F201129342EAD147
:103DB0000A23002201A90648006805F0FFFF054B11
:103DC000019A5A60DFE7044B186805F03BFFDAE719
:103DD000880D00207C0D0020440F002070B52DEDD3
:103DE000028B1A4B00225A609A60194C04232370EC
:103DF000184D94E806002868FFF748FE142005F0E7
:103E000085FE2868FFF76AFE07EE900AF8EEE77A6B
:103E10009FED118A67EE887A0C4EC6ED017A052374
:103E2000237094E806002868FFF730FE142005F0A0
:103E30006DFE2868FFF752FE07EE900AF8EEE77A6B
:103E400067EE887AC6ED027ACFE700BF940D0020B6
:103E50008C0D00203C0F00200C02033908B54FF0F8
:103E6000FF310B4B186805F0B9FE0028F7D101228D
:103E700004214FF0904002F053FA4FF4FA7005F02D
:103E800045FE002204214FF0904002F049FAE6E797
:103E9000400F002010B514464FF0FF3392B2024895
:103EA00003F08AFE204610BDB00E002038B5144C39
:103EB000144B2246002101F00FF800231A46214638
:103EC0001148006805F038FF236943B1042B07D877
:103ED00000231A460B490C48006805F02DFF38BD39
:103EE000084D094C00231A462946206805F024FF96
:103EF00000231A46E91C206805F01EFFEFE700BF0B
:103F0000240D00201C0D0020880D002038B5144C15
:103F1000144B2246012100F0DFFF00231A46214600
:103F20001148006805F008FF236943B1042B07D846
:103F300000231A460B490C48006805F0FDFE38BD09
:103F4000084D094C00231A462946206805F0F4FE66
:103F500000231A46E91C206805F0EEFEEFE700BFDB
:103F6000240D00201C0D0020880D002008B5064BF4
:103F70001B68012B00D008BD034B00221A60034BC5
:103F8000186805F05FFEF6E7640D0020840D002040
:103F900008B5064B1B68022B00D008BD034B00225E
:103FA0001A60034B186805F04DFEF6E7640D00201B
:103FB000840D002008B5064B1B68042B00D008BDFB
:103FC000034B00221A60034B186805F03BFEF6E72E
:103FD000640D0020840D002038B50446104B1A787B
:103FE000042A0ED00F4B1B780F49CA541F2B10D038
:103FF00001330C4A137001220949204603F028FFBF
:1040000038BD084D2A78084903F062F900232B7067
:10401000F1E7064806F0A2FA024B00221A70EAE71E
:10402000600D0020680D0020400D00203CAA000813
:1040300008B5B0F5804F31D019D8082853D04028A2
:1040400034D101F059F9384BDB68C01AB0F57A7FEA
:104050002CD901F051F9344BD860344806F07EFA7F
:10406000334B00221A70334B01221A601EE0B0F568
:10407000004F1BD101F040F92B4B5B68C01AB0F523
:104080007A7F13D92C4806F069FA01F035F9264BEE
:1040900058602A4B186805F0D5FD07E001F02CF9AF
:1040A000214B1B68C01AB0F57A7F00D808BD2448A0
:1040B00006F054FA1E4B1B7813F0070F07D001F0DF
:1040C0001BF9194B18601A4B00221A70EEE701F029
:1040D00013F9154B1860174B1B68002BE6D1144BD6
:1040E00001221A70E2E701F007F90F4B9B68C01A32
:1040F000B0F57A7FDAD90E4B1B7813F0070F07D093
:1041000001F0FAF8084B9860094B00221A70CDE7CD
:1041100001F0F2F8044B9860064B1B68002BC5D1E8
:10412000034B01221A70C1E76C0D002084AA00081D
:10413000A00D0020380F00206CAA0008400F0020BE
:1041400054AA0008F0B587B005461C460023029328
:1041500001938DF814300C9B03930091049201F0AD
:10416000CBF8064623462A466946074800F03FFE3C
:10417000074628B101F0C0F8801BB0F5FA7FF1D3F3
:10418000384607B0F0BD00BFA40D002030B585B0A3
:104190000023039301F0B0F8054618E000248DF8E1
:1041A0000F408DF80E408DF80D40224604214FF04F
:1041B000904002F0B5F8224602214FF0904002F004
:1041C000AFF89DF80C309BB10A2005F09FFC774BAF
:1041D0001B78042BF8D801A252F823F09D41000867
:1041E0002F420008B5420008C941000839430008C1
:1041F00000946F4B04224FF480716E48FFF7A2FFCA
:104200000028E1D141F288316B4B186805F0E6FCDB
:1042100030B96A4806F0A2F901238DF80C30D3E7D3
:10422000674806F09BF900238DF80C30CCE700239B
:104230008DF80F308DF80E308DF80C309DF80D3064
:10424000002BC1D100935A4B04224FF480715D487A
:10425000FFF778FF0028B7D141F28831564B186834
:1042600005F0BCFCF8B9584806F078F901220221A3
:104270004FF0904002F054F8012204214FF090409A
:1042800002F04EF84FF4FA7005F040FC00220421D1
:104290004FF0904002F044F8444B02221A70012380
:1042A0008DF80D3090E7464806F058F900238DF858
:1042B0000D3089E700238DF80F308DF80D308DF823
:1042C0000C309DF80E306BB1404B93ED017AF3EE5C
:1042D000027AB4EEE77AF1EE10FA23DB334B0422D4
:1042E0001A7071E70093324B04224FF48071384802
:1042F000FFF728FF00287FF467AF41F288312E4B8B
:10430000186805F06BFC30B92F4806F027F9012337
:104310008DF80E3058E72A4806F020F900238DF872
:104320000E3051E702230093214B002240F201118D
:104330001046FFF707FF47E700238DF80E308DF892
:104340000D308DF80C309DF80F30FBB90093184BF1
:1043500004224FF480711F48FFF7F4FE00287FF419
:1043600033AF41F28831144B186805F037FC30B98F
:10437000154806F0F3F801238DF80F3024E71048B4
:1043800006F0ECF800238DF80F301DE700F0B4FFC5
:10439000431B114A93427FF617AF00F0ADFF05466D
:1043A0000E4B186805F04EFC0EE700BFA00D002074
:1043B000640D0020D0010020440F0020C0AA000896
:1043C000E8AA0008D401002014AB00087C0D0020EE
:1043D000D8010020DC0100201FBF0200400F002098
:1043E00008B50268034B9A4200D008BD00F078FF80
:1043F000FBE700BF002C014008B572B6014806F08B
:10440000ADF8FBE73CAB000800B58BB01848194B82
:1044100003600523436000238360C3604FF42022C0
:1044200002614FF440124261037643768376C3768D
:104430000377437700F084FBB0B94FF40053009347
:104440004FF4604302930023019303930493059375
:1044500006930123079308936946054800F016FC6C
:1044600020B90BB05DF804FBFFF7C6FFFFF7C4FFF0
:10447000A40D00200064004008B51148114B0360F2
:10448000114B4360002383600122C26003614361DA
:104490008361C361036202F003F950B90021084847
:1044A00002F0F2FA38B90021054802F01BFB20B9EE
:1044B00008BDFFF7A1FFFFF79FFFFFF79DFF00BFBC
:1044C0005C0E002000540040EC9C901008B50C4895
:1044D0000C4B03604FF4E133436000238360C360FF
:1044E00003610C2242614FF440728261C361036236
:1044F000436203F028FC00B908BDFFF77DFF00BF51
:10450000B00E00200038014000B597B044220021D1
:1045100005A8FCF7EFFC002300930193029303939B
:1045200004934FF4007002F099FC50BB01220592F5
:104530004FF4A023069302230F93032110911192AD
:1045400014221292072213921493159305A800F0D7
:10455000A3FFC0B90F230093032301930023029309
:10456000039304930421684601F0CCFA68B94FF034
:1045700040524FF08061002000F00CFF17B05DF852
:1045800004FBFFF739FFFFF737FFFFF735FF0000A8
:1045900080B500F095FEFFF7B7FFFFF703FBFFF7CD
:1045A000C3FBFFF731FFFFF767FFFFF78FFF434CB8
:1045B000204600F0EEFB0221204600F042FD1021D3
:1045C000204600F03EFD0121204600F03AFD00F0BB
:1045D00093FE3B4BD860986058601860012202211E
:1045E000384801F09DFE01223749384803F030FC7D
:1045F000374D04272F7001266E700024AC70EF70C9
:104600002C716C71AC71EC7195E80C00482131484B
:10461000FFF726FADFF81081C8F8000095E80600D9
:10462000FFF734FAD8F80000FFF7B4FA05F0E2F922
:10463000294A2146304605F077FA284B1860284A67
:104640002146304605F070FA264B1860264A21466E
:10465000304605F069FA254B1860254A3946102086
:1046600005F01FFB234B1860234A2146234805F021
:10467000EFF9234D2860234A2146234805F0E8F945
:10468000224B1860224A2146224805F0E1F9224BCC
:104690001860224A2146224805F0DAF9214B1860B9
:1046A0002B684BB1194B1B6833B11B4B1B681BB1FB
:1046B00010B105F0B1F9FEE7FFF79EFEA40D002052
:1046C0006C0D002000040048600D0020B00E00209A
:1046D0008C0D00205C0E002050AC0008840D0020E2
:1046E00088AC0008440F002078AC0008400F002080
:1046F00060AC0008880D0020C0AB00086D3D0008CC
:10470000D804002008AC0008DD3D0008580A00204D
:10471000E4AB00088D410008980700202CAC00088D
:104720005D3E0008180D00203C0F002000B583B04E
:104730000D4B1A6E42F001021A661A6E02F0010267
:104740000092009A9A6D42F080529A659B6D03F038
:1047500080530193019B00220F216FF0010002F0B2
:10476000D7FB03B05DF804FB0010024070B588B0C1
:104770000023039304930593069307930268274B42
:104780009A4201D008B070BD03F5D6339A6D42F05D
:1047900000729A659A6D02F000720192019ADA6CC9
:1047A00042F00102DA64DB6C03F001030293029B26
:1047B0004FF400630393022404940123059303261A
:1047C00006960925079503A94FF0904001F0D0FC0B
:1047D0004FF48053039304940024059406960795A0
:1047E00003A94FF0904001F0C3FC2246052113209D
:1047F00002F08EFB132002F0C3FB22460521142099
:1048000002F086FB142002F0BBFB22460521152096
:1048100002F07EFB152002F0B3FBB3E7006400401A
:1048200010B59CB0044600211791189119911A9166
:104830001B91542202A8FCF75DFB2268174B9A4299
:1048400001D01CB010BD4023029302A801F01CFB54
:1048500008BB134CE36C43F00203E364E36C03F026
:1048600002030093009BC023179312231893002385
:10487000199303231A9304231B9317A9094801F0E2
:1048800077FCA36D43F40013A365A36D03F4001339
:104890000193019BD5E7FFF7AFFDDAE70054004035
:1048A00000100240000400482DE9F0419EB004468B
:1048B000002119911A911B911C911D91542204A859
:1048C000FCF718FB2268404B9A4202D01EB0BDE8AC
:1048D000F0810123049304A801F0D6FA002869D1DD
:1048E0003A4B1A6E42F480421A661A6E02F4804203
:1048F0000192019ADA6C42F00102DA64DA6C02F099
:1049000001020292029ADA6C42F00202DA64DB6C73
:1049100003F002030393039B4FF4C0631993022631
:104920001A9600251B954FF00308CDF870800727D5
:104930001D9719A94FF0904001F01AFC1823199304
:104940001A961B95CDF870801D9719A9204801F083
:104950000FFC2048204B036046608560C5608023C3
:104960000361456185612023C361056202F000F99E
:1049700018BB184B63679C621848194B03600223ED
:104980004360102383600023C3608022026143617F
:104990008361C361036202F0EBF888B90F4B2367B0
:1049A0009C6200220521252002F0B2FA252002F0A7
:1049B000E7FA8BE7FFF720FD92E7FFF71DFDD8E749
:1049C000FFF71AFDEAE700BF00380140001002407F
:1049D00000040048CC0D002058000240140E0020B6
:1049E0004400024030B589B004461E4B1A6E42F4B2
:1049F00000621A661B6E03F400630193019B02A917
:104A000003A801F06DF901F059F903461648A0FB1F
:104A100003239B0C013B1548154A026040F2E73224
:104A2000C2604360002303618360836102F0E8FB9E
:104A3000054610B1284609B030BD0C4802F0B0FA66
:104A400005460028F6D1192002F09AFA0F2C01D958
:104A50000125EFE700222146192002F059FA054B03
:104A60001C60E7E70010024083DE1B43480F002074
:104A7000002C0140E8010020FEE7FEE7FEE7FEE72C
:104A8000FEE7704708B5082001F050FC08BD08B5E6
:104A9000102001F04BFC08BD08B5024802F074F983
:104AA00008BD00BF140E002008B5024802F06CF9E2
:104AB00008BD00BFCC0D002008B5024800F0DBFAAD
:104AC00008BD00BFA40D002008B5024800F0D3FACD
:104AD00008BD00BFA40D002008B5024800F0CBFAC5
:104AE00008BD00BFA40D002008B5202001F01EFC69
:104AF000402001F01BFC08BD08B5024802F08AFA0C
:104B000008BD00BF480F002008B5024802F0A0FC15
:104B100008BD00BFB00E002008B54FF4804001F082
:104B200005FC4FF4004001F001FC08BD034AD2F837
:104B3000883043F47003C2F88830704700ED00E01D
:104B4000002800F0A18038B5044690F82030D3B199
:104B50002268136843F00103136000F0CDFB0546A3
:104B600023685A6812F0010F10D100F0C5FB401BFA
:104B70000A28F5D9636A43F400336362052384F895
:104B80002030012038BDFFF7F1FDE1E71A6822F07F
:104B900002021A6000F0B0FB054623685A6812F062
:104BA000020F0DD000F0A8FB401B0A28F5D9636A5C
:104BB00043F400336362052384F820300120E1E7E9
:104BC000227E012A3DD01A6822F080021A60637E9C
:104BD000012B3BD02268136823F040031360A37EAF
:104BE000012B39D02268136823F020031360E37E81
:104BF000012B37D02268136843F010031360237F22
:104C0000012B35D02268136823F008031360637FFB
:104C1000012B33D02268136823F004031360A368C8
:104C2000E268134322691343626913436268013ADD
:104C300021681343CB6100206062012384F8203097
:104C4000A0E71A6842F080021A60C0E72268136881
:104C500043F040031360C2E72268136843F0200367
:104C60001360C4E72268136823F010031360C6E7DB
:104C70002268136843F008031360C8E722681368CA
:104C800043F004031360CAE701207047026890F8FC
:104C90002030013BDBB2012B05D9436A43F480236A
:104CA00043620120704730B4D2F8003243F0010370
:104CB000C2F800324B6903F01F03012000FA03F32E
:104CC000D2F81C026FEA030C20EA0300C2F81C02AF
:104CD000C869B0B9D2F80C020CEA0000C2F80C02A4
:104CE0008C884869CD6844EA0544483042F8304031
:104CF0000C8848698D6844EA0544483002EBC000DE
:104D00004460C86901281BD0886980BBD2F80402BE
:104D10000CEA0000C2F80402086970BBD2F8140261
:104D20000CEA0000C2F81402096A01292BD0D2F85B
:104D3000003223F00103C2F80032002030BC70477B
:104D4000D2F80C021843C2F80C028C8848690D682E
:104D500044EA0544483042F830408C8948698D68FF
:104D600044EA0544483002EBC0004460CCE7D2F886
:104D700004021843C2F80402CEE7D2F81402184322
:104D8000C2F81402D0E7D2F81C120B43C2F81C324E
:104D9000CDE770B5044690F82050EDB2012D06D055
:104DA000436A43F4002343620125284670BD022371
:104DB00080F820300268136823F00103136000F0CC
:104DC0009BFA064623685B6813F0010F0CD000F0D5
:104DD00093FA831B0A2BF5D9636A43F400336362A9
:104DE000052384F82030E0E700256562DDE730B573
:104DF00090F820C00468A4680CF1FF3C5FFA8CFCBA
:104E0000BCF1010F62D814F0E05F59D0C4F3016C1B
:104E1000012404FA0CF41C608B68002B3DD10D6852
:104E2000CB68046843EA45550CF118031B01E550B3
:104E300003680C690CF1180E03EB0E135C600B7D1C
:104E4000012B35D0D17993791B0443EA0163517961
:104E500043EA012314790168234301EB0C11C1F8E3
:104E60008C31D17893781B0443EA0163517843EA8B
:104E70000123117802680B4302EB0C12C2F888314F
:104E800002680CF1180C4FEA0C1C52F80C3043F07D
:104E9000010342F80C3000201DE04C6843EAC403D3
:104EA000CC6823430CF11804240105682B51BFE79B
:104EB000036803EB0E13596841F480715960C1E730
:104EC000436A43F400134362012004E0436A43F45D
:104ED00080234362012030BD90F820C00CF1FF3CDC
:104EE0005FFA8CFCBCF1010F00F2A58030B451B91F
:104EF0000468E46814F0030F10D1436A43F400130C
:104F0000436201207EE00468246914F0030F05D198
:104F1000436A43F400134362012073E0056801F122
:104F20001B0424012C5904F004049460002C6BD160
:104F3000056801F11B0424012C59640D14600468F8
:104F400001F11B0C4FEA0C1C54F80C4004F0020455
:104F5000D4600468A444DCF8045015F0080F5BD05A
:104F600008241461056801F11B0C05EB0C156D6834
:104F7000C5F307259561046804EB0C146468240CE0
:104F80005461026802EB0112D2F8B8211A7002686B
:104F900002EB0112D2F8B821C2F307225A7002685C
:104FA00002EB0112D2F8B821C2F307429A700268EC
:104FB00002EB0112D2F8B821120EDA70026802EB8D
:104FC0000112D2F8BC211A71026802EB0112D2F868
:104FD000BC21C2F307225A71026802EB0112D2F817
:104FE000BC21C2F307429A71026802EB0112D2F8A7
:104FF000BC21120EDA71C1B90268D36843F02003F4
:10500000D360002030BC7047056801F11B04240107
:105010002C59E408546092E701F11B0504EB0514D8
:10502000646804F00F0414619CE70268136943F09C
:1050300020031361E5E7436A43F4802343620120C0
:10504000704790F82030013BDBB2012B05D9436A51
:1050500043F4802343620120704702685369194377
:105060005161002070477047704770477047704724
:105070007047704770472DE9F84F054603685C6933
:10508000D3F804809F68D3F80CB0D3F810A0D3F8FD
:10509000189014F001063BD017F0010616D001223B
:1050A0009A6017F0020F08D117F0040F0CD117F017
:1050B000080606D04FF4805608E0FEF757FF00269A
:1050C00004E0FFF7D0FF01E04FF4006617F4807FA3
:1050D0000DD02B684FF480729A6017F4007F40F077
:1050E000868017F4806F00F0868046F4005617F42F
:1050F000803F0DD02B684FF480329A6017F4003F48
:1051000040F0838017F4802F00F0838046F400463F
:1051100014F0080F07D01BF0100F04D046F40076EF
:105120002B681022DA6014F0040F02D01BF0080F75
:1051300079D114F0020F04D02B68DB6813F0030F51
:1051400078D114F0400F07D01AF0100F04D046F4B5
:1051500080662B6810221A6114F0200F02D01AF01A
:10516000080F6BD114F0100F04D02B681B6913F0DB
:10517000030F6AD114F4003F02D018F0100F68D169
:1051800014F4803F02D018F0080F69D114F4004FD6
:105190007AD018F0040F74D014F4807F04D019F082
:1051A000010F01D046F0010614F4007F04D019F07D
:1051B000020F01D046F0020614F4806F04D019F0FB
:1051C000040F01D046F0040614F4006F59D019F012
:1051D000700956D0B9F1400F65D058D8B9F1200FF9
:1051E0005ED0B9F1300F42D146F0200644E02846A7
:1051F000FEF7CEFE7BE717F4006F02D046F4804640
:1052000075E72846FFF730FF71E72846FEF7D2FE24
:105210007EE717F4002F02D046F4803678E7284660
:10522000FFF723FF74E72B680822DA602846FFF7B0
:105230001DFF7EE72846FEF739FE82E72B6808222D
:105240001A612846FFF713FF8CE72846FEF75EFE3B
:1052500090E72B6810225A602846FFF709FF8FE776
:105260002B6808225A602846FFF703FF8EE7B9F142
:10527000100F01D146F008062A68936923F07003E5
:1052800093612B6804225A609EB9BDE8F88FB9F18A
:10529000500F0BD0B9F1600FEED146F48076EBE7FA
:1052A00046F01006E8E746F04006E5E746F08006DF
:1052B000E2E76B6A1E436E622846FFF7DBFEE4E717
:1052C00010B5032001F012FE0520FFF78BFB10B193
:1052D0000124204610BD0446FFF728FAF9E7000034
:1052E000034B1B78034A11680B441360704700BFDF
:1052F000E4010020940F0020014B1868704700BFA4
:10530000940F002030B583B00446204B9B6D13F002
:10531000805F0BD001F09AFDB0F5007F17D0802C94
:105320001FD82DD0702C2DD000211BE0174DAB6D58
:1053300043F08053AB65AB6D03F080530193019B49
:1053400001F084FDAB6D23F08053AB65E4E7802C66
:1053500003D9A02C03D9022104E0002102E001219D
:1053600000E003210A4A136823F007030B4313608C
:10537000136803F007038B4206D1002003B030BD51
:105380000221EFE70121EDE70120F7E700100240DD
:105390000020024070B586B00D461646104CE36CF6
:1053A00043F00103E364E36C03F001030093009B0B
:1053B0004FF4807301930223029304930023039319
:1053C000059301A94FF0904000F0D2FEA36823F0AE
:1053D000FE4345EA06021A43A26006B070BD00BF54
:1053E00000100240284A9368D26802F0030213F0CA
:1053F0000C030AD00C2B06D0042B1FD0082B20D076
:105400000020024610E0012AF6D11F4A126812F06D
:10541000080F0CD11C4AD2F89420C2F303221B4976
:1054200051F8222043B100200C2B0DD07047164AB2
:105430001268C2F30312F2E71046F5E7144800229F
:10544000F2E714480022EFE70F4BDB6803F0030399
:10545000022B16D0032B00D10E4A0B49C868C0F3AB
:105460000210431CC868C0F3062002FB00F0B0FB2A
:10547000F3F0CB68C3F3416301335B00B0FBF3F09F
:10548000D4E7034AE9E700BF00100240B0AC0008CF
:105490000024F40000127A00002800F01C83F0B50C
:1054A00083B00446964B9D6805F00C05DE6806F057
:1054B0000306036813F0100F5AD0E5B10C2D18D075
:1054C000A369002B00F0BB808D4A136843F00103F1
:1054D0001360FFF711FF0746894B1B6813F0020F9B
:1054E00040F09A80FFF708FFC01B0228F4D9032080
:1054F000FCE2012EE4D1824B1B6813F0020F03D0B3
:10550000A369002B00F0E982206A7D4B1B6813F031
:10551000080F5BD07A4B1B6803F0F00398425CD80D
:10552000774B1A6842F008021A601A6822F0F002FB
:10553000216A0A431A605A6822F47F42E16942EA0A
:1055400001225A60002D60D0FFF74CFF6C4B9B6826
:10555000C3F303136B4AD35C03F01F03D8406A4BB9
:1055600018606A4B1868FFF73DFA002840F0BE82C9
:10557000236813F0010F00F08180082D75D00C2DE9
:1055800071D06368B3F5803F00F09780B3F5A02F2A
:1055900000F099805A4B1A6822F480321A601A6817
:1055A00022F480221A606368002B00F09980FFF7D4
:1055B000A3FE0746524B1B6813F4003F5ED1FFF772
:1055C0009BFEC01B6428F5D903208FE24C4BD3F817
:1055D00094301B0903F0F003A0E7FFF793FE0028C7
:1055E00040F07D82464B1A6842F008021A601A6841
:1055F00022F0F002216A0A431A605A6822F47F42BC
:10560000E16942EA01225A609EE7206AFFF77AFECA
:10561000002899D0012069E2394B1A6842F008024B
:105620001A601A6822F0F002216A0A431A605A6866
:1056300022F47F42E16942EA01225A6098E7304A47
:10564000136823F001031360FFF756FE07462C4B47
:105650001B6813F0020F8BD0FFF74EFEC01B022811
:10566000F5D9032042E2032E8BD1254B1B6813F49E
:10567000003F03D06368002B00F03382236813F0EF
:10568000020F58D0042D45D00C2D41D0E368002BDB
:1056900077D01B4A136843F480731360FFF72CFE26
:1056A0000646174B1B6813F4806F61D1FFF724FE89
:1056B000801B0228F5D9032018E2114A136843F42D
:1056C000803313606FE703F18043A3F53C331A681E
:1056D00042F480221A601A6842F480321A6062E74B
:1056E000FFF70AFE0746064B1B6813F4003FC5D0C0
:1056F000FFF702FEC01B6428F5D90320F6E100BFC6
:105700000010024098AC0008E0010020E8010020F1
:10571000022EBBD1A44B1B6813F4806F03D0E36847
:10572000002B00F0E081A04A536823F0F853216970
:1057300043EA01635360236813F0080F4CD0636998
:105740009BB3994AD2F8943043F00103C2F89430E5
:10575000FFF7D2FD0646944BD3F8943013F0020FB6
:105760003AD1FFF7C9FD801B0228F4D90320BDE11F
:105770008D4A536823F0F853216943EA016353606B
:10578000D9E7894A136823F480731360FFF7B4FDE7
:105790000646854B1B6813F4806FCCD0FFF7ACFD39
:1057A000801B0228F5D90320A0E17F4AD2F894306B
:1057B00023F00103C2F89430FFF79EFD06467A4BB2
:1057C000D3F8943013F0020F06D0FFF795FD801B3D
:1057D0000228F4D9032089E1236813F0040F7AD05A
:1057E000714B9B6D13F0805F36D16F4B9A6D42F019
:1057F00080529A659B6D03F080530193019B0126B3
:105800006A4B1B6813F4807F28D0A368012B39D022
:10581000052B3FD0644BD3F8902022F00102C3F84F
:105820009020D3F8902022F00402C3F89020A368BF
:10583000002B3DD0FFF760FD07465B4BD3F890305F
:1058400013F0020F46D1FFF757FDC01B41F288331A
:105850009842F2D9032049E10026D1E7534A136860
:1058600043F480731360FFF747FD07464F4B1B68F7
:1058700013F4807FC9D1FFF73FFDC01B0228F5D983
:10588000032033E1484AD2F8903043F00103C2F8D4
:105890009030CCE7444BD3F8902042F00402C3F898
:1058A0009020D3F8902042F00102C3F89020BEE788
:1058B000FFF722FD07463C4BD3F8903013F0020F60
:1058C00008D0FFF719FDC01B41F288339842F2D986
:1058D00003200BE1E6B9236813F0200F35D0636A8B
:1058E000E3B1314AD2F8983043F00103C2F898305E
:1058F000FFF702FD06462C4BD3F8983013F0020F49
:1059000023D1FFF7F9FC801B0228F4D90320EDE036
:10591000254A936D23F080539365DCE7224AD2F841
:10592000983023F00103C2F89830FFF7E5FC0646F3
:105930001D4BD3F8983013F0020F06D0FFF7DCFCB4
:10594000801B0228F4D90320D0E0A36A002B00F0CA
:10595000CC80022B17D00C2D00F0CC80124A13689B
:1059600023F080731360FFF7C7FC04460E4B1B68DF
:1059700013F0007F00F0A880FFF7BEFC001B022898
:10598000F4D90320B2E0084BDB6803F00301E26ABC
:1059900091420DD00C2D00F0AB80034B1B6813F02F
:1059A000806F2FD00120A1E0001002400070004065
:1059B00003F07002216B0139B2EB011FEAD103F44D
:1059C000FE42616BB2EB012FE4D103F07842A16B90
:1059D000B2EBC16FDED103F4C001E26B5208013AB1
:1059E000B1EB425FD6D103F0C063226C5208013A9A
:1059F000B3EB426FCED1404B1B6813F0007F49D010
:105A0000002073E03C4A136823F080731360FFF7B3
:105A100073FC0546384B1B6813F0007F06D0FFF778
:105A20006BFC401B0228F5D903205FE0324AD368A3
:105A300032491940E36A206B013843EA0013606B76
:105A400043EA0023E06B4008013843EA4053206CEE
:105A50004008013843EA4063A06B43EAC0630B434C
:105A6000D360136843F080731360D36843F080738E
:105A7000D360FFF741FC04461F4B1B6813F0007F07
:105A800006D1FFF739FC001B0228F5D903202DE0D1
:105A900000202BE0184B1A6842F080721A60DA6816
:105AA00042F08072DA60FFF727FC0446124B1B6855
:105AB00013F0007F06D1FFF71FFC031B022BF5D963
:105AC000032013E0002011E00B4AD1680C4B0B407F
:105AD000D36000200AE001207047012006E0012089
