:020000040800F2
:10000000000001208D6200086D1000086F100008CC
:10001000711000087310000875100008000000003F
:10002000000000000000000000000000C15F0008A8
:10003000771000080000000061600008D359000834
:10004000DD620008DD620008DD620008DD62000894
:10005000DD620008DD620008DD620008DD62000884
:10006000DD6200087910000883100008DD620008D6
:10007000DD620008DD6200088D1000089D10000898
:10008000DD620008DD620008DD620008AD100008D6
:10009000BD100008DD620008DD620008CD10000818
:1000A000DD620008DD100008DD620008DD62000886
:1000B000DD6200080000000000000000DD620008B2
:1000C000DD6200080000000000000000DD620008A2
:1000D00000000000ED100008DD62000800000000D4
:1000E000FD100008DD6200080000000000000000B4
:1000F0000000000000000000000000000000000000
:10010000000000000000000000000000DD620008A8
:100110000000000000000000DD620008DD62000851
:10012000DD620008DD620008DD620008DD620008B3
:10013000DD62000800000000000000000000000078
:10014000DD620008DD620008DD620008DD62000893
:10015000DD620008DD620008DD620008DD62000883
:10016000DD620008DD620008DD62000800000000BA
:10017000DD620008DD6200080000000000000000F1
:10018000DD620008DD620008DD620008000000009A
:1001900010B5054C237833B9044B13B10448AFF3C1
:1001A00000800123237010BD7800002000000000B3
:1001B0001073000808B5034B1BB103490348AFF3A4
:1001C000008008BD000000007C00002010730008C3
:1001D00053B94AB9002908BF00281CBF4FF0FF31AE
:1001E0004FF0FF3000F074B9ADF1080C6DE904CEAA
:1001F00000F006F8DDF804E0DDE9022304B0704702
:100200002DE9F047089D04468E46002B4DD18A42C9
:10021000944669D9B2FA82F252B101FA02F3C2F1FC
:10022000200120FA01F10CFA02FC41EA030E94408D
:100230004FEA1C48210CBEFBF8F61FFA8CF708FBAE
:1002400016E341EA034306FB07F199420AD91CEB86
:10025000030306F1FF3080F01F81994240F21C81B8
:10026000023E63445B1AA4B2B3FBF8F008FB103300
:1002700044EA034400FB07F7A7420AD91CEB040435
:1002800000F1FF3380F00A81A74240F20781644405
:10029000023840EA0640E41B00261DB1D44000238A
:1002A000C5E900433146BDE8F0878B4209D9002DEE
:1002B00000F0EF800026C5E9000130463146BDE878
:1002C000F087B3FA83F6002E4AD18B4202D38242E2
:1002D00000F2F980841A61EB030301209E46002D91
:1002E000E0D0C5E9004EDDE702B9FFDEB2FA82F2E6
:1002F000002A40F09280A1EB0C014FEA1C471FFA44
:100300008CFE0126200CB1FBF7F307FB131140EA2A
:1003100001410EFB03F0884208D91CEB010103F1F7
:10032000FF3802D2884200F2CB804346091AA4B2B9
:10033000B1FBF7F007FB101144EA01440EFB00FE8D
:10034000A64508D91CEB040400F1FF3102D2A645F2
:1003500000F2BB800846A4EB0E0440EA03409CE791
:10036000C6F12007B34022FA07FC4CEA030C20FA3E
:1003700007F401FA06F31C43F9404FEA1C4900FA5E
:1003800006F3B1FBF9F8200C1FFA8CFE09FB1811DB
:1003900040EA014108FB0EF0884202FA06F20BD94E
:1003A0001CEB010108F1FF3A80F08880884240F29E
:1003B0008580A8F102086144091AA4B2B1FBF9F0E2
:1003C00009FB101144EA014100FB0EFE8E4508D9DD
:1003D0001CEB010100F1FF346CD28E456AD9023862
:1003E000614440EA0840A0FB0294A1EB0E01A14247
:1003F000C846A64656D353D05DB1B3EB080261EBB5
:100400000E0101FA07F722FA06F3F1401F43C5E98E
:10041000007100263146BDE8F087C2F12003D840C4
:100420000CFA02FC21FA03F3914001434FEA1C4706
:100430001FFA8CFEB3FBF7F007FB10360B0C43EAF8
:10044000064300FB0EF69E4204FA02F408D91CEBA8
:10045000030300F1FF382FD29E422DD902386344A6
:100460009B1B89B2B3FBF7F607FB163341EA034146
:1004700006FB0EF38B4208D91CEB010106F1FF3895
:1004800016D28B4214D9023E6144C91A46EA00468C
:1004900038E72E46284605E70646E3E61846F8E61E
:1004A0004B45A9D2B9EB020864EB0C0E0138A3E767
:1004B0004646EAE7204694E74046D1E7D0467BE748
:1004C000023B614432E7304609E76444023842E7C0
:1004D000704700BF000000000000000000000000A6
:1004E00001F0FF01102A2BDB10F0070F08D010F8E5
:1004F000013B013A8B422DD010F0070F42B3F6D1E9
:10050000F0B441EA012141EA014122F007047FF001
:1005100000070023F0E80256083C85EA010586EA58
:10052000010685FA47F5A3FA87F586FA47F6A5FA94
:1005300087F68EB9EED1F0BC01F0FF0102F00702A0
:1005400032B110F8013B013A83EA010313B1F8D14B
:100550000020704701387047002D06BF354603382C
:10056000073815F0010F07D1013015F4807F02BF65
:10057000013015F4C03F0130F0BC0138704700BFB6
:1005800070B50D4D0D4C641BA4100026A64209D178
:100590000B4D0C4C06F0BCFE641BA4100026A642BA
:1005A00005D170BD55F8043B98470136EEE755F884
:1005B000043B98470136F2E7A8750008A8750008C3
:1005C000A8750008AC75000802440346934200D1A8
:1005D000704703F8011BF9E72DE9F0418AB00024C8
:1005E00005940694079408940994584BDA6C42F0E9
:1005F0000402DA64DA6C02F004020192019ADA6C05
:1006000042F00102DA64DA6C02F001020292029A0C
:10061000DA6C42F00202DA64DA6C02F0020203924F
:10062000039ADA6C42F08002DA64DB6C03F0800338
:100630000493049B224648F206014FF0904002F0DA
:10064000B9F9DFF8148122460221404602F0B2F9DE
:100650004FF4404305934FF404170697012507957F
:1006600005A93B4802F0CEF848F20603059306952B
:1006700002260796089405A94FF0904002F0C2F8B0
:10068000482305930697079505A94FF0904002F07F
:10069000B9F8302305934FF488130693079605A9FC
:1006A0004FF0904002F0AEF88023059303270697A1
:1006B000079405A94FF0904002F0A4F82123059378
:1006C0000697079405A9404602F09CF80596069502
:1006D0000795089405A9404602F094F84FF48073FA
:1006E0000593069607940894099405A94FF0904045
:1006F00002F088F8082305930697079405A9154882
:1007000002F080F822460521092002F009FC0920A8
:1007100002F03EFC224605210A2002F001FC0A20DC
:1007200002F036FC22460521172002F0F9FB1720C3
:1007300002F02EFC22460521282002F0F1FB2820A1
:1007400002F026FC0AB0BDE8F08100BF00100240B4
:1007500000080048001C00480004004800B583B0B1
:100760000E4B9A6C42F001029A649B6C03F00103F9
:100770000193019B002205210E2002F0D1FB0E20E7
:1007800002F006FC002205210F2002F0C9FB0F2019
:1007900002F0FEFB03B05DF804FB00BF0010024056
:1007A00008B5074B1A78074B1978074805F0ACFDD8
:1007B0000A2005F0A7F94FF0FF3005F0A3F9F0E7A4
:1007C000B4070020BC0700202C73000808B50120E6
:1007D00005F098F9FBE7000010B514460A2392B221
:1007E000024803F022FA204610BD00BF1C09002079
:1007F00008B5034B034A002100F0C8FE08BD00BF46
:10080000B4070020BC07002008B5064B1B68012B6D
:1008100000D008BD034B00221A60034B186805F096
:100820000DFAF6E7FC0700200808002008B5064B83
:100830001B68022B00D008BD034B00221A60034B3B
:10084000186805F0FBF9F6E7FC070020080800200F
:1008500008B5064B1B68042B00D008BD034B0022D3
:100860001A60034B186805F0E9F9F6E7FC07002069
:100870000808002038B50446104B1A78042A0ED018
:100880000F4B1B780F49CA541F2B10D001330C4A51
:10089000137001220949204603F0F4FA38BD084DCF
:1008A0002A78084902F02CFD00232B70F1E7064856
:1008B00005F0B0FD024B00221A70EAE7F8070020AD
:1008C00000080020D80700204073000808B5402821
:1008D0002FD0B0F5804F02D008281DD008BD01F000
:1008E00055F8164B1B68C01AB0F57A7FF6D9144B31
:1008F0001B7813F0070F07D001F048F80F4B186072
:100900000F4B00221A70E9E701F040F80B4B18601A
:100910000B4B01221A70E1E7094B1B7813F0070F0C
:1009200003D0074B00221A70D8E7054B01221A703A
:10093000D4E7034B00221A70D0E700BF0408002060
:100940000C080020F0B587B005461C460023029332
:1009500001938DF814300C9B03930091049201F0E5
:1009600015F8064623462A466946074800F073FDF7
:10097000074630B101F00AF8801B41F28731884206
:10098000F0D9384607B0F0BD1008002030B583B06C
:1009900058E0434B1968434800F0D2FD424805F047
:1009A00039FD4CE03F4B596A404805F0ADFC46E04C
:1009B0003F480623037000230093394B01224FF474
:1009C0008071FFF7BFFF002839D141F28831394BE0
:1009D000186805F0FFF8E0B9012202214FF09040BD
:1009E00001F0E8FF012204214FF0904001F0E2FF06
:1009F0004FF4FA7005F086F8002204214FF0904081
:100A000001F0D8FF2C4B02221A702C4805F002FD91
:100A100015E0234B1968234800F092FD224805F0A9
:100A2000F9FC254B00221A7009E0214802230370CB
:100A300000931B4B002240F20111FFF783FF0A20B5
:100A400005F060F81C4B1B78012BB1D0022BECD0C9
:100A5000002BF4D1164D00242C70224604214FF0B7
:100A6000904001F0A7FF224602214FF0904001F094
:100A7000A1FF00940A4B01224FF480712846FFF732
:100A800061FF00288ED141F288310A4B186805F0C9
:100A9000A1F800287FF47DAF094805F0BBFCCEE744
:100AA000FC070020100800208C730008B4730008B5
:100AB000A0090020080800200C080020D0730008BE
:100AC0005873000808B50268034B9A4200D008BD6D
:100AD00000F050FFFBE700BF002C014072B6FEE7BC
:100AE00000B58BB01848194B0360102343604FF0DA
:100AF000804383600023C3604FF40032026143618E
:100B0000037643768376C3760377437700F04CFB16
:100B1000B0B94FF4005300934FF4604302930023A5
:100B2000019303930493059306930123079308937A
:100B30006946054800F0DEFB20B90BB05DF804FB08
:100B4000FFF7CCFFFFF7CAFF100800200064004049
:100B500008B51148114B0360114B436000238360BB
:100B60000122C260036143618361C361036201F0DA
:100B700035FF50B90021084801F08EFF38B9002137
:100B8000054801F0B7FF20B908BDFFF7A7FFFFF741
:100B9000A5FFFFF7A3FF00BFC808002000540040D6
:100BA000EC9C901008B50C480C4B03604FF4E133FB
:100BB000436000238360C36003610C2242614FF4F1
:100BC00040728261C3610362436203F0D2F800B9EC
:100BD00008BDFFF783FF00BF1C090020003801405B
:100BE00000B597B04422002105A8FFF7EDFC0023D3
:100BF000009301930293039304934FF4007002F067
:100C000035F950BB012205924FF4A023069302232D
:100C10000F93032110911192142212920722139222
:100C20001493159305A800F081FFC0B90F2300931A
:100C30000323019300230293039304930421684642
:100C400001F0AAFA68B94FF040524FF080610020DD
:100C500000F0EAFE17B05DF804FBFFF73FFFFFF777
:100C60003DFFFFF73BFF000008B500F074FEFFF703
:100C7000B7FFFFF7B1FCFFF771FDFFF731FFFFF79B
:100C800067FFFFF78FFF214C204600F0B6FB0221E3
:100C9000204600F020FD0121204600F01CFD00F060
:100CA00075FE1B4B1860012202211A4801F082FEDA
:100CB00001221949194803F0E5F804F097FE184A93
:100CC0000021012004F02CFF164B1860164A002169
:100CD000164804F0B9FE164C2060164A002116484A
:100CE00004F0B2FE154B1860154A0021154804F0B7
:100CF000ABFE154B1860236833B1104B1B681BB15A
:100D000010B104F085FEFEE7FEE700BF10080020EA
:100D10000408002000040048F80700201C090020F7
:100D20009C7400080808002030740008A10700081F
:100D3000F002002078740008CD070008B0070020FA
:100D4000547400088D0900085005002000B583B0D8
:100D50000D4B1A6E42F001021A661A6E02F0010281
:100D60000092009A9A6D42F080529A659B6D03F052
:100D700080530193019B00220F216FF0010002F0CC
:100D8000CFF803B05DF804FB0010024000B589B055
:100D900000230393049305930693079302681C4B67
:100DA0009A4202D009B05DF804FB03F5D6339A6D80
:100DB00042F000729A659A6D02F000720192019AF7
:100DC000DA6C42F00102DA64DB6C03F00103029397
:100DD000029B4FF4C053039302230493032306930F
:100DE0000923079303A94FF0904001F00BFD002267
:100DF0000521132002F094F8132002F0C9F8002214
:100E00000521142002F08CF8142002F0C1F8C9E783
:100E10000064004010B59CB0044600211791189161
:100E200019911A911B91542202A8FFF7CDFB226859
:100E3000174B9A4201D01CB010BD4023029302A868
:100E400001F06CFB08BB134CE36C43F00203E3645A
:100E5000E36C03F002030093009BC023179312235B
:100E600018930023199303231A9304231B9317A9A0
:100E7000094801F0C7FCA36D43F40013A365A36DFB
:100E800003F400130193019BD5E7FFF727FEDAE790
:100E90000054004000100240000400482DE9F041D9
:100EA0009EB00446002119911A911B911C911D912D
:100EB000542204A8FFF788FB2268404B9A4202D0D4
:100EC0001EB0BDE8F0810123049304A801F026FBC5
:100ED000002869D13A4B1A6E42F480421A661A6EA3
:100EE00002F480420192019ADA6C42F00102DA6463
:100EF000DA6C02F001020292029ADA6C42F002020B
:100F0000DA64DB6C03F002030393039B4FF4C063CA
:100F1000199302261A9600251B954FF00308CDF869
:100F2000708007271D9719A94FF0904001F06AFCC7
:100F3000182319931A961B95CDF870801D9719A93F
:100F4000204801F05FFC2048204B0360466085602C
:100F5000C56080230361456185612023C36105620B
:100F600001F00EFE18BB184B23679C621848194B02
:100F7000036002234360102383600023C360802248
:100F8000026143618361C361036201F0F9FD88B9C5
:100F90000F4BE3669C6200220521252001F0C0FF73
:100FA000252001F0F5FF8BE7FFF798FD92E7FFF7AB
:100FB00095FDD8E7FFF792FDEAE700BF0038014052
:100FC0000010024000040048380800205800024089
:100FD000800800204400024030B589B004461E4B12
:100FE0001A6E42F400621A661B6E03F400630193EA
:100FF000019B02A903A801F0BDF901F0A9F903467C
:101000001648A0FB03239B0C013B1548154A0260C0
:1010100040F2E732C2604360002303618360836172
:1010200002F006F9054610B1284609B030BD0C485B
:1010300001F0BEFF05460028F6D1192001F0A8FFF7
:101040000F2C01D90125EFE700222146192001F0DC
:1010500067FF054B1C60E7E70010024083DE1B437F
:10106000A4090020002C01406C000020FEE7FEE7F0
:10107000FEE7FEE7FEE7704708B5082001F0A0FC98
:1010800008BD08B5102001F09BFC08BD08B502485A
:1010900001F082FE08BD00BF8008002008B50248AC
:1010A00001F07AFE08BD00BF3808002008B50248EC
:1010B00000F02CFB08BD00BF1008002008B5024856
:1010C00000F024FB08BD00BF1008002008B5202058
:1010D00001F076FC402001F073FC08BD08B5024821
:1010E00001F0A0FF08BD00BFA409002008B5024818
:1010F00002F0D6F908BD00BF1C09002008B54FF466
:10110000804001F05DFC4FF4004001F059FC08BD47
:1011100070B50C461646002506E0AFF30080214668
:1011200001F8010B01350C46B542F6DB304670BDC7
:1011300008B503460D4A12685AB10C4A10680344B8
:101140000B4A11780B4A521A934206D8074A136089
:1011500008BD064A08491160EFE700BE05F0C0F877
:101160000C2303604FF0FF30F2E700BFF0090020CE
:101170000004000000000120102300204FF0FF3089
:1011800070474FF400534B600020704701207047B8
:1011900000207047034AD2F8883043F47003C2F845
:1011A0008830704700ED00E0002800F0A18038B5DD
:1011B000044690F82030D3B12268136843F001034D
:1011C000136000F0E3FB054623685A6812F0010F34
:1011D00010D100F0DBFB401B0A28F5D9636A43F409
:1011E00000336362052384F82030012038BDFFF707
:1011F000CDFDE1E71A6822F002021A6000F0C6FB9A
:10120000054623685A6812F0020F0DD000F0BEFBAD
:10121000401B0A28F5D9636A43F40033636205234F
:1012200084F820300120E1E7227E012A3DD01A68AF
:1012300022F080021A60637E012B3BD02268136883
:1012400023F040031360A37E012B39D0226813687A
:1012500023F020031360E37E012B37D0226813684C
:1012600043F010031360237F012B35D022681368ED
:1012700023F008031360637F012B33D022681368C7
:1012800023F004031360A368E26813432269134345
:10129000626913436268013A21681343CB610020FD
:1012A0006062012384F82030A0E71A6842F08002CF
:1012B0001A60C0E72268136843F040031360C2E776
:1012C0002268136843F020031360C4E722681368A0
:1012D00023F010031360C6E72268136843F0080385
:1012E0001360C8E72268136843F004031360CAE779
:1012F00001207047026890F82030013BDBB2012BDF
:1013000005D9436A43F4802343620120704730B417
:10131000D2F8003243F00103C2F800324B6903F007
:101320001F03012000FA03F3D2F81C026FEA030C3A
:1013300020EA0300C2F81C02C869B0B9D2F80C0256
:101340000CEA0000C2F80C028C884869CD6844EAB7
:101350000544483042F830400C8848698D6844EABA
:101360000544483002EBC0004460C86901281BD026
:10137000886980BBD2F804020CEA0000C2F80402BB
:10138000086970BBD2F814020CEA0000C2F814021B
:10139000096A01292BD0D2F8003223F00103C2F8E8
:1013A0000032002030BC7047D2F80C021843C2F85B
:1013B0000C028C8848690D6844EA0544483042F8BC
:1013C00030408C8948698D6844EA0544483002EB16
:1013D000C0004460CCE7D2F804021843C2F804020B
:1013E000CEE7D2F814021843C2F81402D0E7D2F8BC
:1013F0001C120B43C2F81C32CDE770B5044690F8BE
:101400002050EDB2012D06D0436A43F4002343621D
:101410000125284670BD022380F820300268136839
:1014200023F00103136000F0B1FA064623685B68FD
:1014300013F0010F0CD000F0A9FA831B0A2BF5D989
:10144000636A43F400336362052384F82030E0E7E5
:1014500000256562DDE730B590F820C00468A46817
:101460000CF1FF3C5FFA8CFCBCF1010F62D814F068
:10147000E05F59D0C4F3016C012404FA0CF41C6041
:101480008B68002B3DD10D68CB68046843EA455555
:101490000CF118031B01E55003680C690CF1180EE0
:1014A00003EB0E135C600B7D012B35D0D179937962
:1014B0001B0443EA0163517943EA0123147901686B
:1014C000234301EB0C11C1F88C31D17893781B04C4
:1014D00043EA0163517843EA0123117802680B4320
:1014E00002EB0C12C2F8883102680CF1180C4FEABA
:1014F0000C1C52F80C3043F0010342F80C30002071
:101500001DE04C6843EAC403CC6823430CF1180483
:10151000240105682B51BFE7036803EB0E135968DC
:1015200041F480715960C1E7436A43F40013436298
:10153000012004E0436A43F480234362012030BD6C
:1015400090F82030013BDBB2012B05D9436A43F40C
:10155000802343620120704711F0010F04D002681C
:10156000936843F08003936011F0020F04D0026887
:10157000936843F40043936011F0040F04D00268B1
:10158000936843F4000393600020704790F820C0F4
:101590000CF1FF3C5FFA8CFCBCF1010F00F295806E
:1015A00030B451B90468E46814F0030F10D1436AF1
:1015B00043F400134362012077E00468246914F0C7
:1015C000030F05D1436A43F40013436201206CE02A
:1015D00001F11B04240105682C5904F004049460F3
:1015E000002C64D101F11B04240105682C59640D01
:1015F0001460046801F11B0C4FEA0C1C54F80C40F9
:1016000004F00204D46004686444646804F00F04C5
:101610001461046864446468C4F307249461046832
:1016200064446468240C5461026802EB0112D2F82D
:10163000B8211A70026802EB0112D2F8B821C2F385
:1016400007225A70026802EB0112D2F8B821C2F3E5
:1016500007429A70026802EB0112D2F8B821120E0A
:10166000DA70026802EB0112D2F8BC211A7102682A
:1016700002EB0112D2F8BC21C2F307225A710268B0
:1016800002EB0112D2F8BC21C2F307429A71026840
:1016900002EB0112D2F8BC21120EDA7179B902689C
:1016A000D36843F02003D360002030BC704701F1C1
:1016B0001B04240105682C59E408546099E702686A
:1016C000136943F020031361EEE7436A43F4802378
:1016D00043620120704790F82030013BDBB2012BC0
:1016E00005D9436A43F480234362012070470268AE
:1016F0005369194351610020704770477047704724
:101700007047704770477047704770472DE9F84F32
:10171000054603685C69D3F804809F68D3F80CB071
:10172000D3F810A0D3F8189014F001063BD017F0AE
:10173000010616D001229A6017F0020F08D117F0A7
:10174000040F0CD117F0080606D04FF4805608E0BD
:10175000FFF75AF8002604E0FFF7CFFF01E04FF44F
:10176000006617F4807F0DD02B684FF480729A606A
:1017700017F4007F40F0868017F4806F00F08680B9
:1017800046F4005617F4803F0DD02B684FF480329A
:101790009A6017F4003F40F0838017F4802F00F028
:1017A000838046F4004614F0080F07D01BF0100F9A
:1017B00004D046F400762B681022DA6014F0040F8F
:1017C00002D01BF0080F79D114F0020F04D02B685F
:1017D000DB6813F0030F78D114F0400F07D01AF034
:1017E000100F04D046F480662B6810221A6114F0A2
:1017F000200F02D01AF0080F6BD114F0100F04D094
:101800002B681B6913F0030F6AD114F4003F02D058
:1018100018F0100F68D114F4803F02D018F0080FB0
:1018200069D114F4004F7AD018F0040F74D014F476
:10183000807F04D019F0010F01D046F0010614F4A6
:10184000007F04D019F0020F01D046F0020614F414
:10185000806F04D019F0040F01D046F0040614F490
:10186000006F59D019F0700956D0B9F1400F65D00A
:1018700058D8B9F1200F5ED0B9F1300F42D146F0FF
:10188000200644E02846FEF7D1FF7BE717F4006FFF
:1018900002D046F4804675E72846FFF72FFF71E730
:1018A0002846FEF7D5FF7EE717F4002F02D046F456
:1018B000803678E72846FFF722FF74E72B68082276
:1018C000DA602846FFF71CFF7EE72846FEF790FF08
:1018D00082E72B6808221A612846FFF713FF8CE77E
:1018E0002846FFF70EFF90E72B6810225A60284623
:1018F000FFF709FF8FE72B6808225A602846FFF799
:1019000003FF8EE7B9F1100F01D146F008062A68EF
:10191000936923F0700393612B6804225A609EB987
:10192000BDE8F88FB9F1500F0BD0B9F1600FEED1CF
:1019300046F48076EBE746F01006E8E746F040060E
:10194000E5E746F08006E2E76B6A1E436E622846D2
:10195000FFF7DBFEE4E710B5032001F0CFFA0F201C
:10196000FFF73AFB10B10124204610BD0446FFF7F3
:10197000EDF9F9E7034B1B78034A11680B44136038
:10198000704700BF68000020F4090020014B186870
:10199000704700BFF409002030B583B00446204BE7
:1019A0009B6D13F0805F0BD001F058FAB0F5007F0B
:1019B00017D0802C1FD82DD0702C2DD000211BE0EB
:1019C000174DAB6D43F08053AB65AB6D03F08053A7
:1019D0000193019B01F042FAAB6D23F08053AB659C
:1019E000E4E7802C03D9A02C03D9022104E00021D4
:1019F00002E0012100E003210A4A136823F00703F3
:101A00000B431360136803F007038B4206D10020D9
:101A100003B030BD0221EFE70121EDE70120F7E738
:101A2000001002400020024070B586B00D461646F8
:101A3000104CE36C43F00103E364E36C03F0010337
:101A40000093009B4FF4807301930223029304934D
:101A500000230393059301A94FF0904000F0D2FEBC
:101A6000A36823F0FE4345EA06021A43A26006B0CB
:101A700070BD00BF00100240284A9368D26802F08F
:101A8000030213F00C030AD00C2B06D0042B1FD03A
:101A9000082B20D00020024610E0012AF6D11F4A70
:101AA000126812F0080F0CD11C4AD2F89420C2F32D
:101AB00003221B4951F8222043B100200C2B0DD0EA
:101AC0007047164A1268C2F30312F2E71046F5E7B0
:101AD00014480022F2E714480022EFE70F4BDB68BE
:101AE00003F00303022B16D0032B00D10E4A0B493F
:101AF000C868C0F30210431CC868C0F3062002FB8C
:101B000000F0B0FBF3F0CB68C3F3416301335B003B
:101B1000B0FBF3F0D4E7034AE9E700BF001002404E
:101B2000C47400080024F40000127A00002800F0B9
:101B30001C83F0B583B00446964B9D6805F00C05F8
:101B4000DE6806F00306036813F0100F5AD0E5B103
:101B50000C2D18D0A369002B00F0BB808D4A1368B0
:101B600043F001031360FFF711FF0746894B1B6821
:101B700013F0020F40F09A80FFF708FFC01B022805
:101B8000F4D90320FCE2012EE4D1824B1B6813F050
:101B9000020F03D0A369002B00F0E982206A7D4B7D
:101BA0001B6813F0080F5BD07A4B1B6803F0F0033F
:101BB00098425CD8774B1A6842F008021A601A689B
:101BC00022F0F002216A0A431A605A6822F47F4226
:101BD000E16942EA01225A60002D60D0FFF74CFF14
:101BE0006C4B9B68C3F303136B4AD35C03F01F0376
:101BF000D8406A4B18606A4B1868FFF7EDF9002867
:101C000040F0BE82236813F0010F00F08180082DA0
:101C100075D00C2D71D06368B3F5803F00F09780CC
:101C2000B3F5A02F00F099805A4B1A6822F4803245
:101C30001A601A6822F480221A606368002B00F090
:101C40009980FFF7A3FE0746524B1B6813F4003F31
:101C50005ED1FFF79BFEC01B6428F5D903208FE2FD
:101C60004C4BD3F894301B0903F0F003A0E7FFF7C7
:101C700093FE002840F07D82464B1A6842F008022D
:101C80001A601A6822F0F002216A0A431A605A6840
:101C900022F47F42E16942EA01225A609EE7206A0B
:101CA000FFF77AFE002899D0012069E2394B1A68C3
:101CB00042F008021A601A6822F0F002216A0A4310
:101CC0001A605A6822F47F42E16942EA01225A60AE
:101CD00098E7304A136823F001031360FFF756FEBC
:101CE00007462C4B1B6813F0020F8BD0FFF74EFEFC
:101CF000C01B0228F5D9032042E2032E8BD1254BCD
:101D00001B6813F4003F03D06368002B00F033829C
:101D1000236813F0020F58D0042D45D00C2D41D06C
:101D2000E368002B77D01B4A136843F48073136079
:101D3000FFF72CFE0646174B1B6813F4806F61D12A
:101D4000FFF724FE801B0228F5D9032018E2114A70
:101D5000136843F4803313606FE703F18043A3F506
:101D60003C331A6842F480221A601A6842F48032C6
:101D70001A6062E7FFF70AFE0746064B1B6813F47A
:101D8000003FC5D0FFF702FEC01B6428F5D9032031
:101D9000F6E100BF00100240AC74000864000020AF
:101DA0006C000020022EBBD1A44B1B6813F4806F83
:101DB00003D0E368002B00F0E081A04A536823F0D1
:101DC000F853216943EA01635360236813F0080F55
:101DD0004CD063699BB3994AD2F8943043F0010325
:101DE000C2F89430FFF7D2FD0646944BD3F89430F6
:101DF00013F0020F3AD1FFF7C9FD801B0228F4D976
:101E00000320BDE18D4A536823F0F853216943EA6A
:101E100001635360D9E7894A136823F48073136020
:101E2000FFF7B4FD0646854B1B6813F4806FCCD0DA
:101E3000FFF7ACFD801B0228F5D90320A0E17F4A03
:101E4000D2F8943023F00103C2F89430FFF79EFDDE
:101E500006467A4BD3F8943013F0020F06D0FFF702
:101E600095FD801B0228F4D9032089E1236813F033
:101E7000040F7AD0714B9B6D13F0805F36D16F4B9E
:101E80009A6D42F080529A659B6D03F080530193E6
:101E9000019B01266A4B1B6813F4807F28D0A3683E
:101EA000012B39D0052B3FD0644BD3F8902022F082
:101EB0000102C3F89020D3F8902022F00402C3F866
:101EC0009020A368002B3DD0FFF760FD07465B4BD9
:101ED000D3F8903013F0020F46D1FFF757FDC01B27
:101EE00041F288339842F2D9032049E10026D1E734
:101EF000534A136843F480731360FFF747FD0746A6
:101F00004F4B1B6813F4807FC9D1FFF73FFDC01B07
:101F10000228F5D9032033E1484AD2F8903043F043
:101F20000103C2F89030CCE7444BD3F8902042F044
:101F30000402C3F89020D3F8902042F00102C3F8C5
:101F40009020BEE7FFF722FD07463C4BD3F89030C8
:101F500013F0020F08D0FFF719FDC01B41F28833C0
:101F60009842F2D903200BE1E6B9236813F0200F61
:101F700035D0636AE3B1314AD2F8983043F00103B7
:101F8000C2F89830FFF702FD06462C4BD3F8983084
:101F900013F0020F23D1FFF7F9FC801B0228F4D9BC
:101FA0000320EDE0254A936D23F080539365DCE731
:101FB000224AD2F8983023F00103C2F89830FFF794
:101FC000E5FC06461D4BD3F8983013F0020F06D0FF
:101FD000FFF7DCFC801B0228F4D90320D0E0A36AC1
:101FE000002B00F0CC80022B17D00C2D00F0CC8001
:101FF000124A136823F080731360FFF7C7FC04468E
:102000000E4B1B6813F0007F00F0A880FFF7BEFCAA
:10201000001B0228F4D90320B2E0084BDB6803F070
:102020000301E26A91420DD00C2D00F0AB80034B0E
:102030001B6813F0806F2FD00120A1E00010024038
:102040000070004003F07002216B0139B2EB011FF8
:10205000EAD103F4FE42616BB2EB012FE4D103F04D
:102060007842A16BB2EBC16FDED103F4C001E26B29
:102070005208013AB1EB425FD6D103F0C063226C43
:102080005208013AB3EB426FCED1404B1B6813F0BC
:10209000007F49D0002073E03C4A136823F080732E
:1020A0001360FFF773FC0546384B1B6813F0007F85
:1020B00006D0FFF76BFC401B0228F5D903205FE038
:1020C000324AD36832491940E36A206B013843EA47
:1020D0000013606B43EA0023E06B4008013843EAD9
:1020E0004053206C4008013843EA4063A06B43EA48
:1020F000C0630B43D360136843F080731360D368ED
:1021000043F08073D360FFF741FC04461F4B1B680C
:1021100013F0007F06D1FFF739FC001B0228F5D928
:1021200003202DE000202BE0184B1A6842F080724B
:102130001A60DA6842F08072DA60FFF727FC044622
:10214000124B1B6813F0007F06D1FFF71FFC031B27
:10215000022BF5D9032013E0002011E00B4AD168CF
:102160000C4B0B40D36000200AE001207047012097
:1021700006E0012004E0012002E0012000E0002050
:1021800003B0F0BD0120FBE70120F9E70010024099
:102190008C809D01FCFFEEFE002800F0AF8070B542
:1021A0000D460446594B1B6803F007038B420BD2C4
:1021B000564A136823F007030B431360136803F0B8
:1021C00007038B4240F09C80236813F0020F0CD071
:1021D000A2684F4B9B6803F0F0039A4205D94C4923
:1021E0008B6823F0F0031A438A60236813F0010F11
:1021F00039D06368032B09D0022B26D063BB444A35
:10220000126812F0020F06D1012076E0404A1268EF
:1022100012F0007F76D03E498A6822F00302134311
:102220008B60FFF7B3FB0646394B9B6803F00C034A
:102230006268B3EB820F16D0FFF7A8FB801B41F258
:1022400088339842F0D9032057E0314A126812F4DB
:10225000003FE0D1012050E02D4A126812F4806F57
:10226000D9D1012049E0236813F0020F0CD0A268F5
:10227000274B9B6803F0F0039A4205D224498B68F0
:1022800023F0F0031A438A60204B1B6803F0070316
:10229000AB420AD91D4A136823F007032B4313608E
:1022A000136803F00703AB422ED1236813F0040F29
:1022B00006D0174A936823F4E063E1680B43936008
:1022C000236813F0080F07D0114A936823F4605372
:1022D000216943EAC1039360FFF7CEFB0C4B9B6877
:1022E000C3F303130B4AD35C03F01F03D8400A4B1C
:1022F00018600A4B1868FEF76FFE70BD012070472A
:102300000120FAE70120F8E70120F6E7002002406B
:1023100000100240AC740008640000206C00002033
:10232000014B1868704700BF6400002008B5FFF734
:10233000F7FF054B9B68C3F30223044AD35C03F009
:102340001F03D84008BD00BF00100240BC74000845
:1023500008B5FFF7E5FF054B9B68C3F3C223044AAA
:10236000D35C03F01F03D84008BD00BF001002403B
:10237000BC7400080F2303600B4B9A6802F0030241
:1023800042609A6802F0F00282609A6802F4E062A9
:10239000C2609B68DB0803F4E0630361034B1B68C6
:1023A00003F007030B60704700100240002002405A
:1023B000F8B504460F46584BDB6813F0030F18D0EE
:1023C000554BDB6803F003030268934202D00125FA
:1023D0002846F8BD002A00F09D804F4BDB68C3F310
:1023E000021301334268934201D00125F0E7002532
:1023F00009E00368022B56D0032B5BD0012B41D0A0
:102400000125002DE4D1444A136823F08063136052
:10241000FFF7BCFA0646404B1B6813F0006F05D06F
:10242000FFF7B4FA831B022BF5D90325002DCFD17A
:10243000002F4DD138490B6923F0784323F4FE4334
:10244000A068E268D20642EA002213430B61324AD6
:10245000136843F080631360FFF798FA06462E4B2B
:102460001B6813F0006F05D1FFF790FA831B022B56
:10247000F5D90325002DABD1274A1369A1690B4378
:102480001361A5E7244A126812F0020F1ED02248F9
:10249000C26822F073026168013943EA01131343F1
:1024A000C3600025ADE71C4A126812F4806FEED1BC
:1024B0000125A6E7184A126812F4003FE7D1164A30
:1024C000126812F4802FE2D101259AE7012598E7DE
:1024D000012F0FD01048026922F0C06222F4FE42A0
:1024E000A16863695B08013B5B0643EA0123134370
:1024F0000361ACE70848026922F4C00222F4FE42FC
:10250000A16823695B08013B5B0543EA0123134390
:1025100003619CE701255BE7001002402DE9F041D3
:1025200082B00446036813F4006F25D0C36BB3F583
:10253000000F06D0B3F5400F12D04BB1012637463D
:102540001CE0AE4AD36843F48033D360002708E030
:1025500000210430FFF72CFF074610B106460DE0BE
:102560000027A64AD2F8883023F44003E16B0B43DE
:10257000C2F88830002601E000263746236813F4AD
:10258000003F6BD09D4B9B6D13F0805F4CD19B4BFC
:102590009A6D42F080529A659B6D03F080530193CF
:1025A000019B4FF00108964A136843F4807313604F
:1025B000FFF7ECF90546924B1B6813F4807F05D1B9
:1025C000FFF7E4F9401B0228F5D90327002F40D17B
:1025D0008A4BD3F8903013F4407315D0226D9A4291
:1025E00012D0864AD2F8903023F44073D2F890107B
:1025F00041F48031C2F89010D2F8901021F480316B
:10260000C2F89010C2F8903013F0010F0FD1002FD4
:1026100040F0C980794AD2F8903023F44073216D9C
:102620000B43C2F8903015E04FF00008BBE7FFF70E
:10263000ADF90546714BD3F8903013F0020FE6D197
:10264000FFF7A4F9401B41F288339842F2D90327DF
:10265000DDE73E46B8F1000F40F0A780236813F095
:10266000010F08D0654AD2F8883023F00303216AAD
:102670000B43C2F88830236813F0020F08D05F4A7A
:10268000D2F8883023F00C03616A0B43C2F888301B
:10269000236813F0200F08D0584AD2F8883023F46A
:1026A0004063A16A0B43C2F88830236813F4007FAB
:1026B00008D0524AD2F8883023F44023616B0B4390
:1026C000C2F88830236813F4806F08D04B4AD2F8E0
:1026D000883023F44013A16B0B43C2F88830236881
:1026E00013F0400F08D0454AD2F8883023F4405305
:1026F000E16A0B43C2F88830236813F4807F08D066
:102700003E4AD2F8883023F44033216B0B43C2F8A1
:102710008830236813F4005F0FD0384AD2F888302D
:1027200023F04063216C0B43C2F88830236CB3F173
:10273000006F40D0B3F1806F42D0236813F4802F34
:102740000FD02E4AD2F8883023F04063616C0B43DF
:10275000C2F88830636CB3F1006F39D0B3F1806F89
:102760003BD0236813F4804F0CD0244AD2F8883031
:1027700023F04053A16C0B43C2F88830A36CB3F133
:10278000805F32D0236813F4004F08D01B4AD2F880
:10279000883023F08043E16C0B43C2F88830304628
:1027A00002B0BDE8F0813E4654E7144A936D23F031
:1027B0008053936552E7D36843F48013D360BCE73A
:1027C0000121201DFFF7F4FD0028B6D00646B4E72E
:1027D000D36843F48013D360C3E70121201DFFF7C2
:1027E000E7FD0028BDD00646BBE70221201DFFF70C
:1027F000DFFD0028C6D00646C4E700BF0010024037
:1028000000700040F0B583B0002362E085685E0090
:102810000324B44025EA0405CC68B4402C4384600A
:10282000446824EA0C0C4C68C4F300149C4044EA4D
:102830000C0444605EE0DD08083550F8256003F0C4
:1028400007044FEA840C0F2404FA0CF426EA040E61
:102850000C6904FA0CF444EA0E0440F8254060E0E8
:10286000022400E0002404FA0EF42C430CF1020CC4
:102870004C4D45F82C404C4CA568D44325EA020643
:102880004F6817F4801F01D042EA0506464DAE603E
:10289000ED6804EA05064F6817F4001F01D042EA0C
:1028A0000506414DEE606D6804EA05064F6817F4B1
:1028B000003F01D042EA05063B4D6E602D682C407A
:1028C0004E6816F4803F01D042EA0504364A14608F
:1028D00001330A6832FA03F462D04FF0010C0CFAAB
:1028E00003FC1CEA0202F3D04C6804F00304013C30
:1028F000012C8BD94C6804F00304032C0CD0C46861
:102900005D004FF0030C0CFA05FC24EA0C0C8C68FB
:10291000AC4044EA0C04C4604C6804F00304022C8C
:1029200089D004684FEA430E4FF0030C0CFA0EFCFA
:1029300024EA0C0C4C6804F0030404FA0EF444EA94
:102940000C0404604C6814F4403FC1D0174C256E51
:1029500045F001052566246E04F001040194019CF4
:102960004FEA930C0CF102050E4C54F8255003F07D
:1029700003044FEA840E0F2404FA0EF425EA04053A
:10298000B0F1904F3FF46EAF094CA04206D004F571
:102990008064A0423FF464AF072464E7012462E747
:1029A00003B0F0BD000001400004014000100240EF
:1029B000000400480AB181617047816270470000DD
:1029C00008B5054B5B69034200D108BD024B586155
:1029D000FDF77CFFF9E700BF00040140002859D053
:1029E00010B5044690F84130002B43D0242384F8DE
:1029F00041302268136823F0010313606368226882
:102A000023F0706313612268936823F4004393609A
:102A1000E368012B33D0A368226843F40443936036
:102A2000E368022B31D02268536843F0007343F40B
:102A3000004353602268D36823F40043D3602369C2
:102A400062691343A169226843EA0123D360E36901
:102A5000216A22680B4313602268136843F0010364
:102A6000136000206064202384F84130206384F8E0
:102A7000420010BD80F84030FEF7CCF9B6E7A368FD
:102A8000226843F400439360CAE723684FF400626E
:102A90005A60C8E70120704790F84130DBB2202B24
:102AA00024D190F84030012B22D0012380F840300F
:102AB000242380F841300268136823F00103136077
:102AC0000268136823F48053136002681368194383
:102AD00011600268136843F001031360202380F83B
:102AE0004130002380F8403018467047022070477C
:102AF0000220704790F84130DBB2202B22D190F8B1
:102B00004030012B20D0012380F84030242380F86E
:102B100041300268136823F00103136002681368F0
:102B200023F4706343EA012111600268136843F0E3
:102B300001031360202380F84130002380F84030E7
:102B400018467047022070470220704730B4446C2A
:102B500004F01C0C012404FA0CF4056C6C6004688D
:102B600063608368102B05D0036899600368DA609E
:102B700030BC704703689A600368D960F8E70000CA
:102B8000002873D010B403460068394A90424AD8EE
:102B9000384A02443849A1FB0212120992005A64D1
:102BA000364A1A64022283F82520016821F4FF4185
:102BB00021F070019A68DC6822431C6922435C6939
:102BC00022439C692243DC6922431C6A22430A4354
:102BD00002609A68B2F5804F1BD0196C274A914267
:102BE0002CD0264AD2F8A814586C00F01C0C0F20E8
:102BF00000FA0CF021EA0001C2F8A814D2F8A814D7
:102C000058685C6C04F01C0C00FA0CF00143C2F82C
:102C1000A8140020D863012283F8252083F824001B
:102C20005DF8044B7047164A02441349A1FB021297
:102C3000120992005A64134A1A64B3E7D2F8A81032
:102C4000586C00F01C0C0F2000FA0CF021EA000177
:102C5000C2F8A810D2F8A81058685C6C04F01C0CDC
:102C600000FA0CF00143C2F8A810D2E70120704727
:102C700007040240F8FFFDBFCDCCCCCC00000240E1
:102C8000F8FBFDBF0004024038B5044690F824006C
:102C9000012832D0012084F8240094F82500C0B225
:102CA000012804D0002384F82430022038BD0220FB
:102CB00084F825000020E0632568286820F00100E2
:102CC00028602046FFF742FF236B5BB12268136840
:102CD00043F00E0313602268136843F0010313608E
:102CE0000020E3E72268136823F0040313602268DE
:102CF000136843F00A031360EDE70220D6E790F86B
:102D00002530DBB2022B06D00423C363002380F8F6
:102D10002430012070470268136823F00E0313600B
:102D20000268136823F001031360436C03F01C0373
:102D3000016C012202FA03F34B6080F82520002386
:102D400080F824301846704708B590F82530DBB27B
:102D5000022B03D00423C363012008BD026813685B
:102D600023F00E0313600268136823F0010313605D
:102D7000436C03F01C03016C012202FA03F34B6065
:102D800080F82520002380F82430836B13B1984706
:102D90000020E2E70020E0E738B5036C196804681A
:102DA0002568436C03F01C0304229A400A4215D0A4
:102DB00015F0040F12D0236813F0200F03D12368FD
:102DC00023F004032360436C03F01C02016C042312
:102DD00093404B60036B03B1984738BD02229A4081
:102DE0000A421CD015F0020F19D0236813F0200FEF
:102DF00006D1236823F00A032360012380F82530DD
:102E0000436C03F01C02016C022393404B600023CF
:102E100080F82430C36A002BDFD09847DDE7082212
:102E200002FA03F30B42D8D015F0080FD5D023686F
:102E300023F00E032360436C03F01C03016C01229A
:102E400002FA03F34B60C26380F82520002380F868
:102E50002430436B002BC0D09847BEE7024B186864
:102E600000F4C060704700BF00700040B0F5007F04
:102E70000FD01F4B1B6803F4C063B3F5806F34D0D1
:102E80001B4A136823F4C06343F48063136000207B
:102E90007047174B1B6803F4C063B3F5007F20D065
:102EA000134A136823F4C06343F400731360114B97
:102EB0001B68322202FB03F30F4AA2FB03239B0C85
:102EC000013300E0013B0A4A526912F4806F01D0DD
:102ED000002BF7D1064B5B6913F4806F03D1002000
:102EE000704700207047032070470020704700BFE4
:102EF000007000406400002083DE1B43074AD36853
:102F000023F4E0631B041B0C000200F4E0600343A5
:102F100043F0BF6343F40033D360704700ED00E03B
:102F200000B5194BDB68C3F30223C3F1070CBCF1F6
:102F3000040F28BF4FF0040C03F1040EBEF1060F7E
:102F400018D9033B4FF0FF3E0EFA0CFC21EA0C01AE
:102F500099400EFA03F322EA0303194300280BDB1E
:102F60000901C9B200F1604000F5614080F800132A
:102F70005DF804FB0023E5E700F00F000901C9B28A
:102F8000024B1954F4E700BF00ED00E014ED00E03F
:102F9000002807DB00F01F02400901239340024A8A
:102FA00042F82030704700BF00E100E070470000A9
:102FB00090F83D30DBB2012B26D1022380F83D3062
:102FC0000268D36843F00103D3600368114A934257
:102FD0000CD0B3F1804F09D002F5A052934205D036
:102FE0001A6842F001021A600020704799680A4A84
:102FF0000A40062A0AD0B2F5803F09D01A6842F08A
:1030000001021A60002070470120704700207047BD
:1030100000207047002C01400700010070477047F6
:103020007047704710B5044603681A6912F0020F22
:1030300011D0DA6812F0020F0DD06FF002021A619F
:103040000123037703689B6913F0030F79D0FFF71F
:10305000E6FF0023237723681A6912F0040F12D0C9
:10306000DA6812F0040F0ED06FF004021A61022326
:10307000237723689B6913F4407F68D02046FFF7CD
:10308000CEFF0023237723681A6912F0080F12D0AD
:10309000DA6812F0080F0ED06FF008021A610423EC
:1030A00023772368DB6913F0030F57D02046FFF71F
:1030B000B6FF0023237723681A6912F0100F12D08D
:1030C000DA6812F0100F0ED06FF010021A610823A8
:1030D00023772368DB6913F4407F46D02046FFF74F
:1030E0009EFF0023237723681A6912F0010F03D093
:1030F000DA6812F0010F3FD123681A6912F0800FCD
:1031000003D0DA6812F0800F3DD123681A6912F4F7
:10311000807F03D0DA6812F0800F3BD123681A69F0
:1031200012F0400F03D0DA6812F0400F39D1236853
:103130001A6912F0200F03D0DA6812F0200F37D18D
:1031400010BDFFF76BFF2046FFF76AFF81E72046BF
:10315000FFF764FF2046FFF763FF92E72046FFF783
:103160005DFF2046FFF75CFFA3E72046FFF756FF11
:103170002046FFF755FFB4E76FF001021A612046C1
:10318000FDF7A0FCB8E76FF080021A61204600F05E
:1031900080F8BAE76FF480721A61204600F07AF87E
:1031A000BCE76FF040021A612046FFF73AFFBEE726
:1031B0006FF020021A61204600F06AF8C0E70000B4
:1031C00003681A4A904202D0B0F1804F03D123F035
:1031D00070034A681343154A90420AD0B0F1804FF9
:1031E00007D002F5A052904203D002F580629042CF
:1031F00003D123F44073CA68134323F080034A6960
:10320000134303608B68C3620B688362074B984269
:1032100007D003F5A053984203D003F5806398428A
:1032200001D10B690363012343617047002C014006
:1032300060B310B5044690F83D3013B3022384F810
:103240003D30214651F8040BFFF7BAFF012384F803
:10325000483084F83E3084F83F3084F8403084F8B9
:10326000413084F8423084F8433084F8443084F8A4
:10327000453084F8463084F8473084F83D300020EB
:1032800010BD80F83C30FFF791FED7E70120704772
:10329000704770477047026852E8003F23F0C00350
:1032A00042E800310029F6D1202383677047026885
:1032B00052E8003F23F4907342E800310029F6D130
:1032C000026802F1080353E8003F23F001030832CB
:1032D00042E800310029F3D1036E012B05D02023F1
:1032E000C3670023036643667047026852E8003FE5
:1032F00023F0100342E800310029F6D1EFE7000087
:10330000836F202B4AD110B50446002948D0002AEB
:1033100048D090F87430012B46D0012380F87430E7
:10332000C164A0F85020A0F852200023C0F88030DB
:1033300021238367C36EEBB11C49D962C36E1C495C
:103340001963C36E1B495963C36E002199630168F9
:10335000134601F12802C16CC06EFFF795FC48B11D
:103360001023C4F88030002384F874302023A3672E
:10337000012012E0236840221A62002384F874308E
:10338000226802F1080353E8003F43F0800308324B
:1033900042E800310029F3D1002010BD022070471F
:1033A0000120FAE70120F8E70220F6E7BB33000826
:1033B0002734000835340008704708B50346806A92
:1033C0001B681B6813F0200F18D10023A0F852309F
:1033D000026802F1080353E8003F23F0800308323B
:1033E00042E800310029F3D1026852E8003F43F07F
:1033F000400342E800310029F6D108BDFFF7DCFFA9
:10340000FBE708B5026852E8003F23F0400342E8BA
:1034100000310029F6D12023836700238366FFF75C
:10342000CBFF08BD704708B5806AFFF7FBFF08BDFA
:103430007047704738B5846AA26FE56F23689B6850
:1034400013F0800F01D0212A10D023689B6813F05D
:10345000400F01D0222D10D0D4F8803043F010035B
:10346000C4F880302046FFF7E4FF38BD0023A4F8FD
:1034700052302046FFF70FFFE7E70023A4F85A3049
:103480002046FFF714FFE7E708B5806A0023A0F89D
:103490005A30A0F85230FFF7CCFF08BD704700004B
:1034A00070B504460168CB6908688D6840F60F0264
:1034B0001A4005D113F0200F02D010F0200F20D1B8
:1034C0002AB115F0010222D1AC4E30421FD1226E3A
:1034D000012A00F0AB8013F4801F03D015F4800F95
:1034E00040F0398113F0800F03D010F0800F40F0CE
:1034F000398113F0400F03D010F0400F40F03981B4
:1035000070BD636E002BFBD020469847F8E713F0A0
:10351000010F09D010F4807F06D001250D62D4F888
:1035200080102943C4F8801013F0020F09D042B173
:10353000216802250D62D4F8801041F00401C4F81E
:10354000801013F0040F09D042B1216804250D62E8
:10355000D4F8801041F00201C4F8801013F0080F75
:103560000BD010F0200F00D13AB12268082111626F
:10357000D4F880200A43C4F8802013F4006F0CD0E4
:1035800010F0806F09D022684FF400611162D4F806
:10359000802042F02002C4F88020D4F88020002A45
:1035A000AED013F0200F06D010F0200F03D0636EC2
:1035B0000BB120469847D4F8802023689B6813F00D
:1035C000400F02D112F0280F29D02046FFF76FFEDE
:1035D00023689B6813F0400F1DD0226802F1080396
:1035E00053E8003F23F04003083242E8003100294D
:1035F000F3D1236F5BB1624A9A63206FFFF7A4FB9C
:1036000000283FF47DAF206F836B984778E7204612
:10361000FFF70FFF74E72046FFF70BFF70E7204628
:10362000FFF707FF0023C4F8803069E713F0100F9D
:103630003FF451AF10F0100F3FF44DAF10230B6269
:1036400023689B6813F0400F4ED0226F13685B68AD
:103650009BB2002B3FF454AFB4F8581099427FF658
:103660004FAFA4F85A3013681B6813F0200F30D105
:10367000226852E8003F23F4807342E800310029B9
:10368000F6D1226802F1080353E8003F23F001035A
:10369000083242E800310029F3D1226802F1080320
:1036A00053E8003F23F04003083242E8003100298C
:1036B000F3D12023E36700232366226852E8003F0A
:1036C00023F0100342E800310029F6D1206FFFF704
:1036D00016FBB4F85810B4F85A309BB2C91A89B224
:1036E0002046FFF7DBFE0BE7B4F85810B4F85A3069
:1036F0009BB2C91A89B2B4F85A309BB2002B3FF47E
:10370000FFAE00293FF4FCAE226852E8003F23F4EC
:10371000907342E800300028F6D1226802F10803D5
:1037200053E8003F23F00103083242E8003000284C
:10373000F3D12023E367002323666366226852E8FF
:10374000003F23F0100342E800300028F6D1204665
:10375000FFF7A4FED4E64FF480130B62204600F07E
:10376000BFFBCDE6A36E002B3FF4CAAE20469847C0
:10377000C6E62046FFF745FEC2E600BF2001000472
:103780008934000808B5806A036E012B02D0FFF768
:103790004FFE08BDB0F858104908FFF77FFEF8E764
:1037A00008B50346806A1B681B6813F0200F28D1F8
:1037B0000023A0F85A30026852E8003F23F48073D7
:1037C00042E800310029F6D1026802F1080353E80B
:1037D000003F23F00103083242E800310029F3D111
:1037E000026802F1080353E8003F23F04003083267
:1037F00042E800310029F3D12023C367036E012B77
:1038000005D0036E012B0CD0FDF734F808BD02681B
:1038100052E8003F23F0100342E800310029F6D1BE
:10382000EFE7B0F85810FFF739FEEFE710B50446A0
:10383000016883680269134342691343C2691343F1
:1038400008688C4A024013430B602268536823F4D3
:103850004053E1680B435360A1692268864B9A424A
:1038600001D0236A1943936823F430630B439360B8
:103870002368824A93421CD0814A93422DD07E4ACB
:10388000934243D010227C498B4260D0E069B0F56E
:10389000004F00F08C80082A00F2E580DFE812F08B
:1038A000B400CA00B200E300CD00E300E300E3008F
:1038B000D00002F55842D2F8882002F00302032A11
:1038C00009D8DFE802F0020438060122DBE704220F
:1038D000D9E70822D7E71022D5E702F5E632D2F879
:1038E000882002F00C020C2A0ED8DFE802F0070D47
:1038F0000D0D090D0D0D260D0D0D0B000022C2E75B
:103900000422C0E70822BEE71022BCE702F5C83255
:10391000D2F8882002F44062B2F5006F0FD005D8CB
:103920007AB1B2F5806F0ED10422ACE7B2F5406FE8
:103930000BD10822A7E70222A5E70222A3E7022271
:10394000A1E700229FE710229DE710229BE7082AAB
:1039500079D8DFE802F008782A78277878780500A7
:103960004FF4004003E0FEF7E1FC00286DD06268F0
:1039700002EB420383426AD8B0EB023F69D8010EE2
:1039800000025308C0184FF0000341F10001FCF79A
:103990001FFCA0F540723B4B9A425CD82368D8606C
:1039A000002043E0FEF768F8DFE73748DFE7082A42
:1039B00053D8DFE802F007210552245252520B007F
:1039C000314803E0FEF7B2FC002848D06268530893
:1039D00003EB4000B0FBF2F0A0F110024FF6EF73E2
:1039E0009A423ED883B223F00F03C0F3420018433B
:1039F0002368D860002019E0FEF7AAFCE4E7FEF790
:103A00003BF8E1E7204802E0FEF790FC68B363680A
:103A100000EB5300B0FBF3F0A0F110024FF6EF7390
:103A20009A4224D8236880B2D860002000236366BD
:103A3000A36610BDFEF78CFCE8E7FEF71DF8E5E78E
:103A40004FF40040E3E70120F0E70020EEE701201B
:103A5000ECE70120EAE70120E8E70120E6E70020A3
:103A6000E4E70120E2E70120E0E70020DEE70120B3
:103A7000DCE700BFF369FFEF008000400038014041
:103A800000440040FFFC0F000024F400436A13F0E0
:103A9000010F06D00268536823F40033816A0B4398
:103AA0005360436A13F0020F06D00268536823F490
:103AB0008033C16A0B435360436A13F0040F06D08E
:103AC0000268536823F48023016B0B435360436AFD
:103AD00013F0080F06D00268536823F40043416BCB
:103AE0000B435360436A13F0100F06D002689368CB
:103AF00023F48053816B0B439360436A13F0200FD0
:103B000006D00268936823F40053C16B0B439360A3
:103B1000436A13F0400F0AD00268536823F48013FD
:103B2000016C0B435360036CB3F5801F0BD0436AE9
:103B300013F0800F06D00268536823F40023816CD1
:103B40000B43536070470268536823F4C003416C11
:103B50000B435360EBE72DE9F84305460F46164645
:103B60009946DDF820802C68E46937EA04030CBF2D
:103B70004FF0010C4FF0000CB44553D1B8F1FF3FAA
:103B8000F1D0FDF703FFA0EB090040452DD8B8F1B7
:103B9000000F2AD02B681A6812F0040FE3D0DA69FC
:103BA00012F4006FDFD04FF400621A622A6852E804
:103BB000003F23F4D07342E800310029F6D12A688F
:103BC00002F1080353E8003F23F00103083242E802
:103BD00000310029F3D12023AB67EB67C5F88030B3
:103BE000002385F8743003201DE02A6852E8003F66
:103BF00023F4D07342E800310029F6D12A6802F19B
:103C0000080353E8003F23F00103083242E8003183
:103C10000029F3D12023AB67EB67002385F87430CC
:103C2000032000E00020BDE8F8832DE9F04182B0D8
:103C30001E46836F202B56D104460D469046002920
:103C400055D0002A55D090F87430012B53D0012361
:103C500080F874300023C0F8803021238367FDF79B
:103C600095FE0746A4F85080A4F85280A368B3F5E7
:103C7000805F05D04FF00008002384F8743014E012
:103C8000236913B14FF00008F6E7A8460025F3E7D3
:103C900038F8023B2268C3F308031385B4F85220B6
:103CA00092B2013A92B2A4F85220B4F852309BB2C8
:103CB00073B100963B46002280212046FFF74BFF60
:103CC000D8B9002DE4D0236815F8012B1A85E5E753
:103CD00000963B46002240212046FFF73CFF70B98A
:103CE0002023A36700E0022002B0BDE8F08101209C
:103CF000FAE70120F8E70220F6E70320F4E70320C3
:103D0000F2E730B583B004460023C0F88030FDF7F9
:103D10003DFE05462268126812F0080F0DD1236897
:103D20001B6813F0040F16D12023A367E36700205C
:103D3000206684F8740003B030BD6FF07E430093BA
:103D4000034600224FF400112046FFF704FF00282D
:103D5000E5D00320EFE76FF07E4300932B4600226F
:103D60004FF480012046FFF7F6FE0028DCD0032048
:103D7000E1E768B310B50446836F03B32423A36758
:103D80002268136823F0010313602046FFF74EFDFD
:103D9000012813D0636ABBB92268536823F49043A7
:103DA00053602268936823F02A03936022681368A3
:103DB00043F0010313602046FFF7A3FF10BD80F816
:103DC0007430FDF76BF8D9E72046FFF75FFEE3E7B5
:103DD0000120704710B5044613464165A0F85820ED
:103DE0000022C0F880202222C267026F8AB12249D5
:103DF000D162026F21491163026F21495163026F41
:103E0000002191630168426D2431006FFEF73CFF91
:103E100038BB002384F87430236943B1226852E828
:103E2000003F43F4807342E800310029F6D1226854
:103E300002F1080353E8003F43F00103083242E86F
:103E400000310029F3D1226802F1080353E8003F52
:103E500043F04003083242E800310029F3D100204A
:103E600010BD1023C4F88030002384F87430202360
:103E7000E3670120F4E700BFA13700088537000899
:103E80003534000838B5C36F202B1ED1F9B102B309
:103E900090F87430012B1ED0012380F87430002379
:103EA000036603680D4CA3420CD05B6813F4000F4B
:103EB00008D0046854E8003F43F0806344E80035CC
:103EC000002DF6D1FFF786FF00E0022038BD01206B
:103ED000FCE70120FAE70220F8E700BF008000407D
:103EE000704700F1080343604FF0FF328260C36007
:103EF0000361002303607047002303617047436838
:103F00004B609A688A605160996008610368013368
:103F10000360704730B40D68B5F1FF3F11D000F178
:103F200008031C465B681A68AA42FAD963684B60AA
:103F300099608C606160086103680133036030BC84
:103F400070470469F2E70369416882688A604168E2
:103F500051605A68824206D0002202611A68013A12
:103F60001A601868704782685A60F5E70346406A2D
:103F700018B11B6B1868C0F13800704710B50446C3
:103F800002F030F8A26BE36B9A4204D0002402F0F6
:103F90004BF8204610BD0124F9E710B5044602F0A5
:103FA00021F8A36B23B9012402F03EF8204610BD8E
:103FB0000024F9E770B504461546866B026C5AB9C1
:103FC00003681BB100200136A66370BD806801F054
:103FD00031FA0023A360F6E76DB9406802F086F974
:103FE000226C636813446360A268934219D3236808
:103FF00063602846E7E7C06802F078F9226C514216
:10400000E3689B1AE3602268934202D2A3680B44E0
:10401000E360022D01D00020D5E726B1013E00204B
:10402000D1E72846CFE70020CDE70346026C6AB10E
:1040300010B50846D9681144D9609C68A14201D3E3
:104040001968D960D96802F051F910BD704738B5C8
:10405000054601F0C7FF95F8454064B201E0013C18
:1040600064B2002C0ADD6B6A43B105F1240001F053
:10407000EBF80028F3D001F07BF9F0E7FF2385F897
:10408000453001F0D1FF01F0ADFF95F8444064B236
:1040900001E0013C64B2002C0ADD2B6943B105F15B
:1040A000100001F0D1F80028F3D001F061F9F0E739
:1040B000FF2385F8443001F0B7FF38BD38B5E0B1D3
:1040C0000D46044601F08EFF2368E26B216C01FB74
:1040D0000230A0600020A0636360013A02FB01335C
:1040E000E360FF2384F8443084F84530FDB9236948
:1040F00063B901F099FF012038BD4FF0500383F3FD
:104100001188BFF36F8FBFF34F8FFEE704F11000EC
:1041100001F09AF80028ECD04FF0E0234FF08052E5
:10412000C3F8042DBFF34F8FBFF36F8FE1E704F1A6
:104130001000FFF7D6FE04F12400FFF7D2FED8E707
:1041400038B51D46049C0B4649B92460E0632364DE
:1041500001212046FFF7B2FF84F84C5038BD2260A1
:10416000F4E740B94FF0500383F31188BFF36F8F2A
:10417000BFF34F8FFEE710B584B01C46844653B1A1
:1041800092B189B94FF0500383F31188BFF36F8F59
:10419000BFF34F8FFEE74FF0500383F31188BFF357
:1041A0006F8FBFF34F8FFEE76AB150230393039BDA
:1041B000502B13D04FF0500383F31188BFF36F8F50
:1041C000BFF34F8FFEE70029EFD04FF0500383F38A
:1041D0001188BFF36F8FBFF34F8FFEE7039B01235F
:1041E00084F8463000949DF818306046FFF7A8FF29
:1041F000204604B010BD40B94FF0500383F311883E
:10420000BFF36F8FBFF34F8FFEE7F0B583B00D465E
:104210001446064601FB00F0503001F0BDFD074694
:1042200050B1002380F846300090234600F1500240
:1042300029463046FFF784FF384603B0F0BD40B949
:104240004FF0500383F31188BFF36F8FBFF34F8F8D
:10425000FEE710B582B00C46884208D24FF05003FA
:1042600083F31188BFF36F8FBFF34F8FFEE70223F5
:104270000093134600221146FFF773FF00B18463D9
:1042800002B010BD40B94FF0500383F31188BFF363
:104290006F8FBFF34F8FFEE710B50C46884208D2F0
:1042A0004FF0500383F31188BFF36F8FBFF34F8F2D
:1042B000FEE702220021FFF79EFF00B1846310BDDC
:1042C000F0B585B0019288B10F461D460446B1B1E4
:1042D000022D20D1E36B012B1DD04FF0500383F34F
:1042E0001188BFF36F8FBFF34F8FFEE74FF050037E
:1042F00083F31188BFF36F8FBFF34F8FFEE7036C1B
:10430000002BE5D04FF0500383F31188BFF36F8F7C
:10431000BFF34F8FFEE701F031F8064658B9019B15
:10432000002B48D04FF0500383F31188BFF36F8FF9
:10433000BFF34F8FFEE700263DE02A463946204670
:10434000FFF738FE636A7BB948B14FF0E0234FF0C6
:104350008052C3F8042DBFF34F8FBFF36F8F01F06E
:1043600063FE012005B0F0BD04F1240000F06CFFF5
:104370000028F4D04FF0E0234FF08052C3F8042D12
:10438000BFF34F8FBFF36F8FE9E701F04DFE0020C1
:10439000E8E702A800F09EFF012619E0002384F858
:1043A000443021E0002384F8453023E02046FFF725
:1043B0004EFE00F029FE01F015FEA26BE36B9A425F
:1043C000BBD3022DB9D0019B002BDED0002EE0D054
:1043D00001F02AFE00F07EFD01F004FE94F8442076
:1043E00052B2B2F1FF3FD9D094F8452052B2B2F1A7
:1043F000FF3FD7D001F018FE01A902A800F076FF18
:10440000D8B92046FFF7BAFD0028CFD0019904F1B2
:10441000100000F0E5FE2046FFF719FE00F0F4FD65
:104420000028C8D14FF0E0234FF08052C3F8042D8C
:10443000BFF34F8FBFF36F8FBDE72046FFF707FE37
:1044400000F0E2FD00208DE72DE9F84390B10F4622
:1044500016461C460546B1B1022C20D1EB6B012B50
:104460001DD04FF0500383F31188BFF36F8FBFF35C
:104470004F8FFEE74FF0500383F31188BFF36F8F28
:10448000BFF34F8FFEE7036C002BE5D04FF05003D6
:1044900083F31188BFF36F8FBFF34F8FFEE701F0F7
:1044A000C7FEEFF311894FF0500383F31188BFF378
:1044B0006F8FBFF34F8FAA6BEB6B9A4206D3022C20
:1044C00004D0002089F31188BDE8F88395F8458071
:1044D0004FFA88F8AB6B224639462846FFF76AFD4B
:1044E000B8F1FF3F06D008F101035BB285F8453013
:1044F0000120E7E76B6A0BB90120E3E705F124002F
:1045000000F0A2FE18B126B101203060DAE70120E8
:10451000D8E70120D6E768B170B50C460546036CB4
:104520008BB14FF0500383F31188BFF36F8FBFF34C
:104530004F8FFEE74FF0500383F31188BFF36F8F67
:10454000BFF34F8FFEE70368EBB101F071FEEFF3AD
:1045500011864FF0500383F31188BFF36F8FBFF3C1
:104560004F8FAA6BEB6B934226D995F845305BB21F
:104570000132AA63B3F1FF3F11D001335BB285F87A
:104580004530012019E08368002BDED04FF0500346
:1045900083F31188BFF36F8FBFF34F8FFEE76B6A12
:1045A0000BB9012009E005F1240000F04DFE38B1FF
:1045B00044B10120206000E0002086F3118870BD26
:1045C0000120FAE70120F8E7F0B585B0019290B13B
:1045D0000F460446C1B100F0D1FE064600BB019B68
:1045E000002B5ED04FF0500383F31188BFF36F8F21
:1045F000BFF34F8FFEE74FF0500383F31188BFF3F3
:104600006F8FBFF34F8FFEE7036C002BE3D04FF0AB
:10461000500383F31188BFF36F8FBFF34F8FFEE713
:1046200000263EE039462046FFF7FFFC013DA5632A
:10463000236923B901F0F8FC012005B0F0BD04F1B5
:10464000100000F001FE0028F4D04FF0E0234FF0FE
:104650008052C3F8042DBFF34F8FBFF36F8FE9E78C
:1046600001F0E2FC0020E8E702A800F033FE01269A
:1046700021E0002384F8443029E0002384F8453009
:104680002BE02046FFF7E3FC00F0BEFC09E02046EB
:10469000FFF7DDFC00F0B8FC2046FFF77EFC0028A9
:1046A0003FD101F09FFCA56B002DBBD1019B002BDE
:1046B000D6D0002ED8D001F0B7FC00F00BFC01F0F2
:1046C00091FC94F844305BB2B3F1FF3FD1D094F841
:1046D00045305BB2B3F1FF3FCFD001F0A5FC01A99B
:1046E00002A800F003FE0028D1D12046FFF755FCB8
:1046F0000028C6D0019904F1240000F071FD204685
:10470000FFF7A5FC00F080FC0028CAD14FF0E023A1
:104710004FF08052C3F8042DBFF34F8FBFF36F8F5C
:10472000BFE7002089E770B584B0019158B1044615
:10473000036C8BB14FF0500383F31188BFF36F8F7D
:10474000BFF34F8FFEE74FF0500383F31188BFF3A1
:104750006F8FBFF34F8FFEE700F010FE054650B994
:10476000019B5BB14FF0500383F31188BFF36F8F50
:10477000BFF34F8FFEE70026354655E0064653E06F
:10478000013BA36323683BB123694BB901F04CFCA7
:104790000126304604B070BD00F0E4FEA060F3E7EF
:1047A00004F1100000F050FD0028EFD04FF0E0239E
:1047B0004FF08052C3F8042DBFF34F8FBFF36F8FBC
:1047C000E4E746B14FF0500383F31188BFF36F8FD6
:1047D000BFF34F8FFEE701F027FCDAE702A800F0F5
:1047E00079FD01252AE0002384F8443032E00023DB
:1047F00084F8453034E001F0F5FBA06800F0CEFD10
:10480000064601F011FC3BE02046FFF720FC00F0DB
:10481000FBFB09E02046FFF71AFC00F0F5FB204601
:10482000FFF7BBFB002842D101F0DCFBA36B002BA0
:10483000A6D1019B002BC4D0002DCFD001F0F4FBFA
:1048400000F048FB01F0CEFB94F844305BB2B3F1CA
:10485000FF3FC8D094F845305BB2B3F1FF3FC6D0FC
:1048600001F0E2FB01A902A800F040FD0028D1D12F
:104870002046FFF792FB0028C6D02368002BBAD051
:10488000019904F1240000F0ABFC2046FFF7DFFBA8
:1048900000F0BAFB0028C7D14FF0E0234FF0805260
:1048A000C3F8042DBFF34F8FBFF36F8FBCE70EB972
:1048B00000266EE701F096FB2046FFF757FB014606
:1048C000A06800F0FFFD01F0AFFBF1E72DE9F84330
:1048D000B0B10D4616460446D9B101F0A9FCEFF37C
:1048E00011884FF0500383F31188BFF36F8FBFF32C
:1048F0004F8FA76BCFB9002088F31188BDE8F883EC
:104900004FF0500383F31188BFF36F8FBFF34F8FC6
:10491000FEE7036C002BE0D04FF0500383F31188C7
:10492000BFF36F8FBFF34F8FFEE794F844904FFAB9
:1049300089F929462046FFF778FB013FA763B9F1C3
:10494000FF3F06D009F101035BB284F84430012037
:10495000D2E723690BB90120CEE704F1100000F083
:1049600073FC18B126B101203060C5E70120C3E710
:104970000120C1E70023072B0CD8074A52F8332047
:104980000AB10133F7E7044A42F8331002EBC303DC
:1049900058607047704700BFF80900200023072BBC
:1049A0000FD8084A02EBC3025268824201D0013399
:1049B000F5E7044A002142F8331002EBC3035960C3
:1049C00070477047F809002038B110B50446FFF76A
:1049D000E5FF94F846304BB110BD4FF0500383F320
:1049E0001188BFF36F8FBFF34F8FFEE7204601F0B2
:1049F00051FAF1E770B504460D46164601F0F2FA99
:104A000094F844305BB2B3F1FF3F0DD094F84530D9
:104A10005BB2B3F1FF3F0BD001F006FBA36B5BB1C0
:104A20002046FFF714FB70BD002384F84430EDE707
:104A3000002384F84530EFE73246294604F124008C
:104A400000F0E6FBECE70000084B1B681B6823B98D
:104A5000074B4FF0FF321A607047044B1B68DB684E
:104A6000DB685A68024B1A60704700BF3C0A00209E
:104A7000E40E00202DE9F04780460D461746994682
:104A8000089EDDF824A00A9C9200A521206BFBF76C
:104A90009BFD236B07F18042013A03EB820727F06D
:104AA0000707B5B34FF0000CBCF10F0F0BD815F88A
:104AB0000C2004EB0C0383F8342015F80C3013B1F0
:104AC0000CF1010CF0E7002384F84330372E00D9B5
:104AD0003726E662E66400252565201DFFF70CFAFF
:104AE00004F11800FFF708FA2461C6F13806A66140
:104AF0006462656584F858504A464146384601F07C
:104B000045FA2060BAF1000F01D0CAF80040BDE8B4
:104B1000F087002384F83430D8E7000038B500244B
:104B200007E004EB840293000E481844FFF7D9F91C
:104B30000134372CF5D90C4D2846FFF7D2F90B4C30
:104B40002046FFF7CEF90A48FFF7CBF90948FFF7EF
:104B5000C8F90948FFF7C5F9084B1D60084B1C60F0
:104B600038BD00BF440A0020B80E0020CC0E002043
:104B7000F00E00201C0F0020080F00203C0A00202F
:104B8000400A002010B5044601F02CFA224A1368AE
:104B900001331360214B1B685BB1214B1B686BB960
:104BA0001E4B1B68DA6AE36A9A4207D81B4B1C60EB
:104BB00004E01A4B1C601368012B29D0194A1368B2
:104BC000013313606364E06A174B1B68984201D994
:104BD000154B186000EB8000211D144B03EB800087
:104BE000FFF78DF901F020FA0D4B1B687BB10B4BE1
:104BF0001B68DA6AE36A9A4209D24FF0E0234FF069
:104C00008052C3F8042DBFF34F8FBFF36F8F10BDD9
:104C1000FFF784FFD2E700BFA40E0020380A00206F
:104C2000040F0020B00E0020B40E0020440A002023
:104C300010B5044690F8593063B1012B11D0022B06
:104C40000ED04FF0500383F31188BFF36F8FBFF383
:104C50004F8FFEE7006B01F01DF9204601F01AF9B5
:104C600010BD01F017F9FBE70F4B1B68D3B110B56E
:104C700001F0B8F90D4BDB68DC68201DFFF763F924
:104C80000B4A1368013B1360074A1368013B13602A
:104C900001F0CAF92046FFF7CBFF034B1B68002B3E
:104CA000E6D110BD704700BFA80E00201C0F0020E9
:104CB000A40E002008B5FFF7D7FF074B1B68012B98
:104CC000F9D94FF0E0234FF08052C3F8042DBFF321
:104CD0004F8FBFF36F8FEEE7440A002070B5044694
:104CE0000D46174B1E68174B18680430FFF72BF959
:104CF000B4F1FF3F0DD03444124B1B685C60A642F8
:104D000010D9114B18680F4B19680431FFF702F9DD
:104D100070BD002DEFD00B4B196804310B48FFF725
:104D2000EEF8F5E70A4B1868064B19680431FFF7EF
:104D3000F1F8084B1B68A342EAD9064B1C60E7E771
:104D4000300F0020380A0020400A0020080F002001
:104D50003C0A0020E40E002030B587B00B9C7CB1EB
:104D60000C9DB5B15C250495049D5C2D1AD04FF0C7
:104D7000500383F31188BFF36F8FBFF34F8FFEE7AC
:104D80004FF0500383F31188BFF36F8FBFF34F8F42
:104D9000FEE74FF0500383F31188BFF36F8FBFF32B
:104DA0004F8FFEE7049D0C9D2C63022485F859402B
:104DB00000240394029505AC01940A9C0094FFF72B
:104DC00059FE0C98FFF7DEFE059807B030BD2DE9BF
:104DD000F04385B00746884614461E46900000F012
:104DE000DBFF00B381465C2000F0D6FF0546B0B182
:104DF000C0F83090E5B1002385F85930039302954F
:104E00000D9B01930C9B0093334622464146384646
:104E1000FFF730FE2846FFF7B5FE012005E04846C3
:104E200001F038F8E6E74FF0FF3005B0BDE8F08359
:104E30004FF0FF30F9E7000010B588B0002405946A
:104E4000069407AA06A905A800F028FF059B02936F
:104E5000069B019300942346079A18491848FFF7C8
:104E60007BFF184B186040B100F0F6FB012806D01C
:104E7000B0F1FF3F18D008B010BD0020F6E74FF0AA
:104E8000500383F31188BFF36F8FBFF34F8F0E4B27
:104E90004FF0FF321A600D4B01221A600C4B0022BA
:104EA0001A6001F039F9E6E74FF0500383F31188F7
:104EB000BFF36F8FBFF34F8FFEE700BFF47400089E
:104EC000B54C0008E00E0020E40E0020040F002086
:104ED000300F0020024A136801331360704700BF8F
:104EE000AC0E0020014B1868704700BF300F002047
:104EF000F8B53A4B1B68002B69D1394B1D68013559
:104F00001D60C5B9374B1B681B6843B14FF0500398
:104F100083F31188BFF36F8FBFF34F8FFEE7314AE2
:104F20001168314B186810601960304A13680133FA
:104F30001360FFF789FD2E4B1B68AB423DD900275C
:104F40002C4B1B68DB6A03EB83039A002A4B9B58AC
:104F5000012B00D90127294B1B68002B3CD00127CE
:104F60003AE001271F4B1B681B6843B31D4B1B68AE
:104F7000DB68DC6863689D4226D3261D3046FEF759
:104F8000E2FFA36A1BB104F11800FEF7DCFFE36A3D
:104F90001B4A1268934201D9194A136003EB830339
:104FA0009A00314614481044FEF7A9FFE26A114BFB
:104FB0001B68DB6A9A42D4D2D4E70027D2E70C4BB5
:104FC0004FF0FF321A60BBE7094A1360B8E70D4A99
:104FD00013680133136000273846F8BDAC0E00207B
:104FE000300F00203C0A0020400A0020E80E00207C
:104FF000E40E0020380A0020440A0020340F00206C
:10500000B40E0020EC0E002038B5354B1B6843B9B8
:105010004FF0500383F31188BFF36F8FBFF34F8FAF
:10502000FEE700F0DFFF2E4B1A68013A1A601B689A
:10503000002B4FD12B4B1B680BB900244BE00024F5
:10504000294B1B681BB3284BDB68DC6804F1180094
:10505000FEF779FF251D2846FEF775FFE06A234B12
:105060001B68984201D9214B186000EB800029464B
:105070001F4B03EB8000FEF742FFE26A1D4B1B68EB
:10508000DB6A9A42DCD31C4B01221A60D8E70CB1D0
:10509000FFF7DAFC194B1C6884B9174B1C68D4B1B4
:1050A0004FF0E0234FF08052C3F8042DBFF34F8F31
:1050B000BFF36F8F01240EE0013C07D0FFF718FF0C
:1050C0000028F9D00C4B01221A60F5E70B4B0022A7
:1050D0001A60E2E7002400F0A7FF204638BD00BFB9
:1050E000AC0E0020A40E0020F00E0020B40E002014
:1050F000440A0020380A0020340F0020EC0E002063
:1051000010B5A8B10446104B1B6843B14FF05003D3
:1051100083F31188BFF36F8FBFF34F8FFEE7FFF765
:10512000D9FE00212046FFF7D9FDFFF76DFF48B9F2
:105130004FF0E0234FF08052C3F8042DBFF34F8FA0
:10514000BFF36F8F10BD00BFAC0E00201F4B1B685C
:105150001BB11F4B01221A6070471D4B00221A60C1
:105160001C4B1B6803EB83018A001B498A585AB900
:105170000BB1013BF6E74FF0500383F31188BFF307
:105180006F8FBFF34F8FFEE703EB830082000A446B
:1051900050684068506003EB830C4FEA8C02083281
:1051A000114488420BD003EB830291000A4A0A445F
:1051B0005268D168094A1160064A13607047406816
:1051C00062469100044A0A445060ECE7AC0E0020AD
:1051D000340F0020B40E0020440A0020380A0020BA
:1051E00058B110B50C46094A11681831FEF792FE05
:1051F00001212046FFF772FD10BD4FF0500383F3ED
:105200001188BFF36F8FBFF34F8FFEE7380A00207E
:1052100038B570B10D4614460A4A11681831FEF7C8
:105220006EFE0CB14FF0FF3521462846FFF756FDC4
:1052300038BD4FF0500383F31188BFF36F8FBFF376
:105240004F8FFEE7380A002038B5C368DC6824B306
:1052500004F118052846FEF776FE184B1B682BBB99
:10526000251D2846FEF76FFEE06A154B1B68984225
:1052700001D9134B186000EB80002946114B03EB5A
:105280008000FEF73CFEE26A0F4B1B68DB6A9A4225
:1052900011D901200D4B186038BD4FF0500383F336
:1052A0001188BFF36F8FBFF34F8FFEE72946084881
:1052B000FEF725FEE7E70020EEE700BFAC0E00207A
:1052C000B40E0020440A0020380A0020340F0020C9
:1052D000F00E0020034B1B680360034B1B68436008
:1052E000704700BFE80E0020300F0020F8B5C8B1AD
:1052F0000C460546F9B100F075FE1B4B19686B684A
:10530000C81A2268B2F1FF3F26D0184E36682F68BF
:10531000B74201D08B4224D9824215D800232360A2
:1053200001241AE04FF0500383F31188BFF36F8F0D
:10533000BFF34F8FFEE74FF0500383F31188BFF3A5
:105340006F8FBFF34F8FFEE75B1A1344236028462D
:10535000FFF7C0FF002400E0002400F065FE2046B7
:10536000F8BD0124F9E700BF300F0020E80E00204F
:10537000014B01221A607047340F0020054B1B6857
:1053800033B1054B1B680BB10020704702207047FA
:1053900001207047040F0020AC0E002000283ED0F2
:1053A00038B50446C36A204A1268D26A93422ED2A4
:1053B0008269002A05DB1C4A1268D26AC2F13802EF
:1053C0008261616903EB8303184A02EB830399420C
:1053D00005D0154B1B68DB6AE362012038BD251D33
:1053E0002846FEF7B0FD104B1B68D86AE062104BF0
:1053F0001B68984201D90E4B186000EB80002946CB
:105400000A4B03EB8000FEF77AFD0120E6E7C26C51
:10541000054B1B68DB6A9A4203D30020DEE70020BD
:1054200070470120DAE700BF380A0020440A002054
:10543000B40E002000283BD038B504461E4B1B6834
:10544000834208D04FF0500383F31188BFF36F8F6E
:10545000BFF34F8FFEE7036D43B94FF0500383F363
:105460001188BFF36F8FBFF34F8FFEE7013B0365DA
:10547000C16AC26C91421DD00BB1002038BD051D20
:105480002846FEF760FDE06CE062C0F13803A361DE
:105490000A4B1B68984201D9084B186000EB80004A
:1054A0002946074B03EB8000FEF729FD0120E5E7C5
:1054B000002070470020E1E7380A0020B40E0020E9
:1054C000440A0020002846D038B50446036D43B98D
:1054D0004FF0500383F31188BFF36F8FBFF34F8FEB
:1054E000FEE7C26C8A4200D20A46E16A914201D0CC
:1054F000012B00D038BD184B1B68A34222D0E262BA
:10550000A369002B02DBC2F13802A261626901EBE0
:105510008101124B03EB81018A42EBD1251D284604
:10552000FEF711FDE06A0E4B1B68984201D90C4B47
:10553000186000EB80002946084B03EB8000FEF763
:10554000DEFCD7E74FF0500383F31188BFF36F8F72
:10555000BFF34F8FFEE77047380A0020440A00204F
:10556000B40E0020054B1B6823B1044B1A68136D61
:1055700001331365014B1868704700BF380A0020DB
:10558000064B1A6813682BB90123036023B9D3684B
:10559000186870470023F8E700207047380F002094
:1055A00008B54160006191420CD8D21A83699A42D1
:1055B00001D3012008BD011D094B1868FEF7AAFCA4
:1055C0000020F7E79A4201D2994206D2011D054B0D
:1055D0001868FEF79FFC0020ECE70120EAE700BF17
:1055E0003C0F0020380F002030B583B000F0FAFCEB
:1055F000114B1B681BB100F017FD03B030BD0F4D00
:105600002846FEF76EFC0E4C2046FEF76AFC0D4B5A
:105610001D600D4B1C60002300930C4B0C4A1021A5
:105620000A20FEF79EFD044B18600028E3D00949CC
:10563000FFF7A0F9DFE700BF5C100020E00F0020BB
:10564000F40F0020380F00203C0F00200C10002029
:10565000400F0020FC74000810B588B0FFF7C4FFAD
:10566000124B1B68CBB100240594069407AA06A927
:1056700005A800F01FFB059B0293069B01930223E4
:1056800000932346079A0A490A48FFF765FB0A4B2D
:10569000186010B1012008B010BD4FF0500383F323
:1056A0001188BFF36F8FBFF34F8FFEE75C100020B0
:1056B00004750008BD59000860100020B8B19C4670
:1056C00003461848006858B300B585B000910192B0
:1056D000029305291CDCFFF751FE022810D000239D
:1056E0001A4669460F480068FEF7EAFD15E04FF0DC
:1056F000500383F31188BFF36F8FBFF34F8FFEE723
:105700000023069A694607480068FEF7D9FD04E0C1
:10571000002362466946FEF797FE05B05DF804FB7C
:10572000002070475C10002070B582B01B4B1B68D6
:105730001A6862B3DB681E68DC68251D2846FEF720
:1057400002FC236A2046984794F8283013F0040F8F
:10575000ECD0A36933449E4207D26360246129469A
:105760000E4B1868FEF7D6FBE0E7002100910B46D0
:1057700032462046FFF7A2FF0028D7D14FF0500352
:1057800083F31188BFF36F8FBFF34F8FFEE7044A97
:10579000106802490860136002B070BD380F002025
:1057A0003C0F002038B50546FFF79CFB0446074B2D
:1057B0001B68834205D800232B60044B1C602046E5
:1057C00038BDFFF7B1FF01232B60F6E7081000207A
:1057D00070B582B006460D4617490968C968CC689D
:1057E000201DFEF7B0FB94F828C01CF0040F08D170
:1057F0002CF0010C84F828C0236A2046984702B098
:1058000070BDA16933462A4631442046FFF7C8FEE1
:105810000028F1D0002100910B4632462046FFF7C8
:105820004DFF0028E8D14FF0500383F31188BFF3F8
:105830006F8FBFF34F8FFEE7380F002070B582B037
:1058400006460C46FFF746FB01A8FFF7ABFF019B9E
:1058500033BB05460CB9B04219D224B1124A1268C2
:105860001268DAB901242246711B104B1868FFF741
:10587000C1F8FFF7C9FBA8B94FF0E0234FF0805201
:10588000C3F8042DBFF34F8FBFF36F8F0AE0FFF70C
:10589000BBFB29463046FFF79BFF03E01C46E2E7CF
:1058A000FFF7B2FB02B070BD3C0F00205C1000207F
:1058B00010B588B002E0049B002B0FDA002204A987
:1058C0003D4B1868FEF780FE002873D0049B002B28
:1058D000F1DA07990698059B9847ECE7069C6369FF
:1058E00013B1201DFEF72FFB03A8FFF75BFF049BFE
:1058F000092BE3D8DFE803F005050530375005052F
:10590000303794F8283043F0010384F82830059BA1
:10591000A169024619442046FFF742FE0028CDD077
:10592000236A2046984794F8283013F0040FC5D016
:10593000A269002100910B46059802442046FFF71A
:10594000BDFE0028BAD14FF0500383F31188BFF396
:105950006F8FBFF34F8FFEE794F8283023F00103D9
:1059600084F82830AAE794F8283043F0010384F83B
:1059700028300599A16131B1034602460144204611
:10598000FFF70EFE9AE74FF0500383F31188BFF341
:105990006F8FBFF34F8FFEE794F8283013F0020F9C
:1059A00004D023F0010384F8283087E7204600F074
:1059B00071FA83E708B010BD5C10002000B583B019
:1059C00001A8FFF7DDFD0199FFF738FFFFF770FF32
:1059D000F6E708B54FF0E0231B69FFF7CFFC01287D
:1059E00000D108BD00F06EFBFBE70000EFF305837C
:1059F0002BB9064B186828B901221A6070476FF05E
:105A0000050070474FF0FF30704700BFC012002004
:105A1000EFF3058373B90A4B1B68012B0DD110B549
:105A20000024084BDC77064B02221A60FFF704FAC9
:105A3000204610BD6FF0050070474FF0FF307047F3
:105A4000C012002000ED00E0F0B587B000240594FE
:105A5000EFF3058474BB68B322B31568936903B987
:105A600018235C1E372C49D8546814F0010F47D115
:105A700056696EB14FEA960C94682CB1D7685B2FCB
:105A800002D9176907B1C6B92CB14FF0FF340EE047
:105A90004FF0800CF0E7D4688CB9146994B14FF0E2
:105AA000FF3404E01546002418234FF0800C012C2D
:105AB0000AD0ACB1059807B0F0BD0124F7E74FF06C
:105AC000FF34F4E70024F2E714699268029201942B
:105AD00000930B4662462946FFF73EF90590E9E739
