:020000040800F2
:100000000000022049CB00085B0C0008610C0008CE
:10001000670C00086D0C0008730C0008000000005D
:1000200000000000000000000000000061C60008A1
:10003000790C000800000000B1C80008A9BD000844
:1000400099CB000899CB000899CB000899CB000800
:1000500099CB000899CB000899CB000899CB0008F0
:1000600099CB000899CB000899CB000899CB0008E0
:1000700099CB000899CB000899CB000899CB0008D0
:1000800099CB000899CB0008890C0008A50C000842
:10009000B90C0008CD0C000899CB000899CB0008DA
:1000A00099CB0008E10C000899CB000899CB000817
:1000B00099CB000899CB000899CB000899CB000890
:1000C00099CB000899CB000899CB000899CB000880
:1000D00099CB000899CB000899CB000899CB000870
:1000E00099CB000899CB000899CB000899CB000860
:1000F00099CB000899CB000899CB000899CB000850
:1001000099CB000899CB000899CB000899CB00083F
:1001100099CB000899CB000899CB000899CB00082F
:1001200099CB000899CB000899CB000899CB00081F
:1001300099CB0008000000000000000099CB0008E7
:1001400099CB000899CB000899CB0008F50C000862
:1001500099CB000899CB000899CB000899CB0008EF
:1001600099CB000899CB000899CB000899CB0008DF
:1001700099CB000899CB000899CB0008000000003B
:100180000000000099CB0008000000000000000003
:1001900099CB0008000000000000000099CB000887
:1001A00000000000000000000000000099CB0008E3
:1001B00099CB000899CB000899CB000899CB00088F
:0401C00099CB0008CF
:1001D00010B5054C237833B9044B13B10448AFF381
:1001E00000800123237010BD740100200000000076
:1001F00018D6000808B5034B1BB103490348AFF3F9
:10020000008008BD000000007801002018D600081A
:1002100053B94AB9002908BF00281CBF4FF0FF316D
:100220004FF0FF3000F074B9ADF1080C6DE904CE69
:1002300000F006F8DDF804E0DDE9022304B07047C1
:100240002DE9F047089D04468E46002B4DD18A4289
:10025000944669D9B2FA82F252B101FA02F3C2F1BC
:10026000200120FA01F10CFA02FC41EA030E94404D
:100270004FEA1C48210CBEFBF8F61FFA8CF708FB6E
:1002800016E341EA034306FB07F199420AD91CEB46
:10029000030306F1FF3080F01F81994240F21C8178
:1002A000023E63445B1AA4B2B3FBF8F008FB1033C0
:1002B00044EA034400FB07F7A7420AD91CEB0404F5
:1002C00000F1FF3380F00A81A74240F207816444C5
:1002D000023840EA0640E41B00261DB1D44000234A
:1002E000C5E900433146BDE8F0878B4209D9002DAE
:1002F00000F0EF800026C5E9000130463146BDE838
:10030000F087B3FA83F6002E4AD18B4202D38242A1
:1003100000F2F980841A61EB030301209E46002D50
:10032000E0D0C5E9004EDDE702B9FFDEB2FA82F2A5
:10033000002A40F09280A1EB0C014FEA1C471FFA03
:100340008CFE0126200CB1FBF7F307FB131140EAEA
:1003500001410EFB03F0884208D91CEB010103F1B7
:10036000FF3802D2884200F2CB804346091AA4B279
:10037000B1FBF7F007FB101144EA01440EFB00FE4D
:10038000A64508D91CEB040400F1FF3102D2A645B2
:1003900000F2BB800846A4EB0E0440EA03409CE751
:1003A000C6F12007B34022FA07FC4CEA030C20FAFE
:1003B00007F401FA06F31C43F9404FEA1C4900FA1E
:1003C00006F3B1FBF9F8200C1FFA8CFE09FB18119B
:1003D00040EA014108FB0EF0884202FA06F20BD90E
:1003E0001CEB010108F1FF3A80F08880884240F25E
:1003F0008580A8F102086144091AA4B2B1FBF9F0A2
:1004000009FB101144EA014100FB0EFE8E4508D99C
:100410001CEB010100F1FF346CD28E456AD9023821
:10042000614440EA0840A0FB0294A1EB0E01A14206
:10043000C846A64656D353D05DB1B3EB080261EB74
:100440000E0101FA07F722FA06F3F1401F43C5E94E
:10045000007100263146BDE8F087C2F12003D84084
:100460000CFA02FC21FA03F3914001434FEA1C47C6
:100470001FFA8CFEB3FBF7F007FB10360B0C43EAB8
:10048000064300FB0EF69E4204FA02F408D91CEB68
:10049000030300F1FF382FD29E422DD90238634466
:1004A0009B1B89B2B3FBF7F607FB163341EA034106
:1004B00006FB0EF38B4208D91CEB010106F1FF3855
:1004C00016D28B4214D9023E6144C91A46EA00464C
:1004D00038E72E46284605E70646E3E61846F8E6DE
:1004E0004B45A9D2B9EB020864EB0C0E0138A3E727
:1004F0004646EAE7204694E74046D1E7D0467BE708
:10050000023B614432E7304609E76444023842E77F
:10051000704700BF80B584B000AFF860B9607A6002
:100520007B689BB21946B86806F088FE7B6818465F
:100530001037BD4680BD000080B582B000AF786046
:10054000074B084A0021786802F088FF064B1B68B9
:1005500018460BF0C3FD00BF0837BD4680BD00BF85
:100560008C090020700900206809002080B582B045
:1005700000AF7860074B084A0121786802F06EFFEF
:10058000064B1B6818460BF0A9FD00BF0837BD4697
:1005900080BD00BF8C090020700900206809002080
:1005A00080B483B000AF786000BF0C37BD465DF803
:1005B000047B704780B483B000AF786000BF0C3715
:1005C000BD465DF8047B704780B483B000AF7860AF
:1005D00000BF0C37BD465DF8047B704780B500AFA7
:1005E00002F0FAFC00F044F800F0C6F900F062F9FD
:1005F00000F0BCF800F00CF90BF0F0FB114A002100
:1006000001200BF0E2FC03460F4A13600F4A002161
:100610000F480BF02DFC03460E4A13600E4A0021D2
:100620000E480BF025FC03460D4A13600D4A0021CD
:100630000D480BF01DFC03460C4A13600BF0F2FB57
:10064000FEE700BF88D70008680900201CD7000813
:10065000090B00084802002040D700080D0C0008D4
:10066000A804002064D700081D0C0008080700201B
:1006700080B594B000AF07F11C0334220021184666
:100680000CF0C4FA07F1080300221A605A609A605D
:10069000DA601A6100237B60324B1B6C314A43F0F5
:1006A000805313642F4B1B6C03F080537B607B687B
:1006B00000233B602C4B1B682B4A43F440431360E0
:1006C000294B1B6803F440433B603B680123FB61FB
:1006D0004FF4A0233B6202237B634FF48003BB6390
:1006E0000423FB63B4233B6402237B640523BB64C4
:1006F0000223FB6407F11C03184601F0EFFE0346DA
:10070000002B01D000F0A4FA02F034FB0346002BCA
:1007100001D000F09DFA0F23BB600223FB60002391
:100720003B614FF4A0537B614FF48053BB6107F1F1
:1007300008030521184600F0D7FF0346002B01D01F
:1007400000F086FA00224FF48001002001F0B2F898
:100750004FF0E0620021012001F0ACF800BF5037FB
:10076000BD4680BD003802400070004080B584B0B6
:1007700000AF3B4600221A605A609A60DA60214B53
:10078000214A1A601F4B4FF480325A601D4B0022E1
:100790009A601C4B00221A611A4B00221A76194BE0
:1007A000002283F82020174B0022DA62154B174AEB
:1007B0009A62144B0022DA60124B0122DA61114B6B
:1007C000002283F830200F4B01225A610D4800F0BF
:1007D000E1FB0346002B01D000F03AFA04233B6012
:1007E00001237B600023BB603B461946054800F0AF
:1007F00043FD0346002B01D000F02AFA00BF10375A
:10080000BD4680BD90010020002001400100000F86
:1008100080B584B000AF3B4600221A605A609A60EF
:10082000DA60214B214A1A601F4B4FF480325A6024
:100830001D4B00229A601C4B00221A611A4B0022A9
:100840001A76194B002283F82020174B0022DA6217
:10085000154B174A9A62144B0022DA60124B0122A0
:10086000DA61114B002283F830200F4B01225A61CC
:100870000D4800F08FFB0346002B01D000F0E8F993
:1008800005233B6001237B600023BB603B46194688
:10089000054800F0F1FC0346002B01D000F0D8F928
:1008A00000BF1037BD4680BDD801002000210140A7
:1008B0000100000F80B58AB000AF2D4B2D4A1A60A1
:1008C0002B4B0F225A602A4B4FF080429A60284BE4
:1008D0000022DA60264B00221A61254B00225A6161
:1008E000234B00221A76224B00225A76204B0022FC
:1008F0009A761F4B0022DA761D4B00221A771C4B8A
:1009000000225A771A4802F0CDFB0346002B01D093
:1009100000F09EF90121164802F0B2FE02211448AF
:1009200002F0AEFE1021124802F0AAFE4FF400536E
:100930003B604FF46043BB6000237B600023FB609F
:1009400000233B6100237B610023BB610123FB612A
:1009500001233B623B461946054802F09FFC0346D3
:10096000002B01D000F074F900BF2837BD4680BDD0
:10097000200200200064004080B58AB000AF07F17B
:10098000140300221A605A609A60DA601A61002328
:100990003B61584B1B6B574A43F004031363554BA1
:1009A0001B6B03F004033B613B690023FB60514B6D
:1009B0001B6B504A43F0800313634E4B1B6B03F0D9
:1009C0008003FB60FB680023BB604A4B1B6B494AFA
:1009D00043F001031363474B1B6B03F00103BB6040
:1009E000BB6800237B60434B1B6B424A43F002030E
:1009F0001363404B1B6B03F002037B607B68002397
:100A00003B603C4B1B6B3B4A43F008031363394B81
:100A10001B6B03F008033B603B6800224FF28741E9
:100A2000354802F08DF94FF6CF537B610323BB614C
:100A30000023FB6107F114031946304801F0ECFF75
:100A400048F20F637B610323BB610023FB6107F165
:100A5000140319462A4801F0DFFF4FF287437B61F8
:100A60000123BB610023FB6100233B6207F11403F8
:100A70001946214801F0D0FF4FF400737B61022337
:100A8000BB610023FB6100233B6200237B6207F113
:100A900014031946194801F0BFFF4FF480737B61BE
:100AA0000223BB610023FB6100233B6200237B62C6
:100AB00007F114031946124801F0AEFF04237B61CD
:100AC0000323BB610023FB6107F1140319460D48A2
:100AD00001F0A2FF78237B610323BB610023FB614C
:100AE00007F114031946044801F096FF00BF2837A8
:100AF000BD4680BD003802400004024000080240AC
:100B000000000240000C024080B582B000AF786067
:100B100006F0B4F9374B1B780D2B65D801A252F8BB
:100B200023F000BF5D0B0008E90B00089D0B0008D7
:100B3000E90B0008E90B0008E90B0008770B000837
:100B4000E90B0008E90B0008E90B0008E90B0008B5
:100B5000E90B0008E90B0008C30B000800224FF264
:100B60000741254802F0ECF824480CF0C5F8214B69
:100B700006221A7038E000224CF204411E4802F0AE
:100B8000DFF8012243F203011B4802F0D9F81C48A8
:100B90000CF0B2F8174B02221A7025E000224DF239
:100BA0000541154802F0CCF8012242F20201124838
:100BB00002F0C6F813480CF09FF80E4B0D221A7085
:100BC00012E0002242F202010B4802F0B9F80122C1
:100BD0004DF20541084802F0B3F80B480CF08CF8D0
:100BE000044B00221A7000BF4FF47A700BF0D2F958
:100BF00090E700BF6C0900200004024060D60008A6
:100C000078D6000890D60008A8D6000880B582B033
:100C100000AF786001200BF0BDF9FBE780B582B032
:100C200000AF786001200BF0B5F9FBE780B582B02A
:100C300000AF78607B681B68044A934201D102F0E0
:100C4000EDF900BF0837BD4680BD00BF0000014080
:100C500080B400AF72B600BFFEE780B400AFFEE71D
:100C600080B400AFFEE780B400AFFEE780B400AF11
:100C7000FEE780B400AFFEE780B400AF00BFBD4622
:100C80005DF8047B7047000080B500AF034800F0BA
:100C9000C4F9034800F0C1F900BF80BD90010020F5
:100CA000D801002080B500AF024802F00FFD00BF60
:100CB00080BD00BF2002002080B500AF024802F0D6
:100CC00005FD00BF80BD00BF2002002080B500AF41
:100CD000024802F0FBFC00BF80BD00BF20020020E4
:100CE00080B500AF024802F0C1FF00BF80BD00BF69
:100CF000A425002080B500AF024803F0F2FA00BF3F
:100D000080BD00BF741E002080B582B000AF0023FC
:100D10007B60124B5B6C114A43F4804353640F4B6E
:100D20005B6C03F480437B607B6800233B600B4B70
:100D30001B6C0A4A43F080531364084B1B6C03F08E
:100D400080533B603B6800220F216FF0010002F0EE
:100D500019F900BF0837BD4680BD00BF003802400A
:100D600080B58EB000AF786007F1240300221A60CE
:100D70005A609A60DA601A617B681B68504A934235
:100D80004AD100233B624F4B5B6C4E4A43F4807365
:100D900053644C4B5B6C03F480733B623B6A0023EF
:100DA000FB61484B1B6B474A43F001031363454B00
:100DB0001B6B03F00103FB61FB690023BB61414B2B
:100DC0001B6B404A43F0040313633E4B1B6B03F061
:100DD0000403BB61BB6950237B620323BB62002316
:100DE000FB6207F124031946374801F015FE202362
:100DF0007B620323BB620023FB6207F124031946D5
:100E0000324801F009FE00220521122002F0BAF852
:100E1000122002F0D3F84EE07B681B682C4A934204
:100E200049D100237B61274B5B6C264A43F4007356
:100E30005364244B5B6C03F400737B617B69002378
:100E40003B61204B1B6B1F4A43F0010313631D4B97
:100E50001B6B03F001033B613B690023FB60194BF3
:100E60001B6B184A43F004031363164B1B6B03F010
:100E70000403FB60FB68A0237B620323BB620023A7
:100E8000FB6207F1240319460F4801F0C5FD10234A
:100E90007B620323BB620023FB6207F12403194634
:100EA0000A4801F0B9FD00220521122002F06AF87B
:100EB000122002F083F800BF3837BD4680BD00BF66
:100EC00000200140003802400000024000080240BB
:100ED0000021014080B58AB000AF786007F11403AB
:100EE00000221A605A609A60DA601A617B681B6897
:100EF000254A934244D100233B61244B1B6C234A77
:100F000043F000731364214B1B6C03F000733B61CF
:100F10003B690023FB601D4B1B6B1C4A43F0020323
:100F200013631A4B1B6B03F00203FB60FB684FF467
:100F300040737B610223BB610023FB6103233B629F
:100F400009237B6207F114031946114801F064FD7F
:100F500000220521132002F015F8132002F02EF8CC
:100F600000220521142002F00DF8142002F026F8CA
:100F700000220521152002F005F8152002F01EF8C8
:100F800000BF2837BD4680BD0064004000380240E5
:100F90000004024080B584B000AF78600023FB738A
:100FA0007B68002B01D1012333E07B681B6C002B95
:100FB00009D17868FFF7D4FE7B6800225A647B6809
:100FC000002283F83C207B681B6C03F01003002B8D
:100FD00018D17B681B6C23F4885323F0020343F081
:100FE00002027B681A64786800F078FA7B68002255
:100FF0005A647B681B6C23F0030343F001027B6897
:101000001A6401E00123FB737B68002283F83C2013
:10101000FB7B18461037BD4680BD80B586B000AF5B
:10102000786000237B6100233B617B681B681B6841
:10103000FB607B681B685B68BB60FB6803F00203B6
:101040007B61BB6803F020033B617B69002B49D0C7
:101050003B69002B46D07B681B6C03F01003002B10
:1010600005D17B681B6C43F400727B681A647B6853
:101070001B689B6803F04053002B2BD17B681B7EC1
:10108000002B27D17B681B68DB6A03F47003002BFD
:1010900006D07B681B689B6803F48063002B19D122
:1010A0007B681B685A687B681B6822F020025A60C4
:1010B0007B681B6C23F480727B681A647B681B6CF2
:1010C00003F48053002B05D17B681B6C43F00102B5
:1010D0007B681A64786800F0B0F87B681B686FF072
:1010E00012021A60FB6803F004037B61BB6803F023
:1010F00080033B617B69002B57D03B69002B54D0A8
:101100007B681B6C03F01003002B05D17B681B6C04
:1011100043F400527B681A647B681B689B6803F485
:101120004013002B39D17B681B689B6B03F4401381
:10113000002B06D07B681B689B6803F48063002B40
:101140002BD17B681B685B6803F48063002B24D180
:101150007B681B689B6803F04053002B1DD17B68A4
:101160001B7E002B19D17B681B685A687B681B6843
:1011700022F080025A607B681B6C23F480527B68EB
:101180001A647B681B6C03F48073002B05D17B68A9
:101190001B6C43F001027B681A64786800F09AFACD
:1011A0007B681B686FF00C021A60FB6803F0010398
:1011B0007B61BB6803F040033B617B69002B17D068
:1011C0003B69002B14D07B681B681B6803F001038C
:1011D000012B0DD17B681B6C43F480327B681A6451
:1011E000786800F034F87B681B686FF001021A60C1
:1011F000FB6803F020037B61BB6803F080633B6105
:101200007B69002B15D03B69002B12D07B685B6C8F
:1012100043F002027B685A647B681B686FF020020F
:101220001A60786800F01DF87B681B686FF0200278
:101230001A6000BF1837BD4680BD80B483B000AFD0
:10124000786000BF0C37BD465DF8047B704780B402
:1012500083B000AF786000BF0C37BD465DF8047BFB
:10126000704780B483B000AF786000BF0C37BD46D4
:101270005DF8047B7047000080B485B000AF7860F3
:1012800039600023BB607B6893F83C30012B01D1AF
:10129000022313E17B68012283F83C203B681B6832
:1012A000092B25D97B681B68D9683B681B689BB2F2
:1012B0001A4613465B0013441E3B072202FA03F34F
:1012C000DA437B681B680A40DA607B681B68D96870
:1012D0003B689A683B681B689BB2184603465B00F4
:1012E00003441E3B9A407B681B680A43DA6022E095
:1012F0007B681B6819693B681B689BB21A461346DA
:101300005B001344072202FA03F3DA437B681B688D
:101310000A401A617B681B6819693B689A683B68D8
:101320001B689BB2184603465B0003449A407B68E7
:101330001B680A431A613B685B68062B24D87B68EC
:101340001B68596B3B685A6813469B001344053B66
:101350001F2202FA03F3DA437B681B680A405A63D0
:101360007B681B68596B3B681B689BB218463B68DF
:101370005A6813469B001344053B00FA03F27B684E
:101380001B680A435A634CE03B685B680C2B24D80B
:101390007B681B68196B3B685A6813469B001344B3
:1013A000233B1F2202FA03F3DA437B681B680A40DF
:1013B0001A637B681B68196B3B681B689BB21846F5
:1013C0003B685A6813469B001344233B00FA03F220
:1013D0007B681B680A431A6323E07B681B68D96A31
:1013E0003B685A6813469B001344413B1F2202FA94
:1013F00003F3DA437B681B680A40DA627B681B6888
:10140000D96A3B681B689BB218463B685A6813460A
:101410009B001344413B00FA03F27B681B680A43BC
:10142000DA62294BFB607B681B68284A93420FD124
:101430003B681B68122B0BD1FB685B6823F400022E
:10144000FB685A60FB685B6843F48002FB685A6083
:101450007B681B681D4A93422BD13B681B681C4A62
:10146000934203D03B681B68112B22D1FB685B6859
:1014700023F48002FB685A60FB685B6843F4000257
:10148000FB685A603B681B68114A934211D1114BAB
:101490001B68114AA2FB03239A0C13469B001344BA
:1014A0005B00BB6002E0BB68013BBB60BB68002B1C
:1014B000F9D17B68002283F83C20002318461437BA
:1014C000BD465DF8047B70470023014000200140C9
:1014D000120000100800002083DE1B4380B485B09A
:1014E00000AF7860794BFB60FB685B6823F44032A7
:1014F000FB685A60FB685A687B685B681A43FB6844
:101500005A607B681B685A687B681B6822F480728B
:101510005A607B681B6859687B681B691A027B6884
:101520001B680A435A607B681B685A687B681B68A3
:1015300022F040725A607B681B6859687B689A6821
:101540007B681B680A435A607B681B689A687B68E3
:101550001B6822F400629A607B681B6899687B684C
:10156000DA687B681B680A439A607B689B6A584A02
:10157000934222D07B681B689A687B681B6822F0C4
:1015800070629A607B681B6899687B689A6A7B685E
:101590001B680A439A607B681B689A687B681B68B3
:1015A00022F040529A607B681B6899687B68DA6A0F
:1015B0007B681B680A439A600FE07B681B689A6827
:1015C0007B681B6822F070629A607B681B689A686F
:1015D0007B681B6822F040529A607B681B689A689F
:1015E0007B681B6822F002029A607B681B6899681E
:1015F0007B681B7E5A007B681B680A439A607B6885
:1016000093F82030002B1BD07B681B685A687B68DE
:101610001B6842F400625A607B681B685A687B68EA
:101620001B6822F460425A607B681B6859687B68BB
:101630005B6A013B5A037B681B680A435A6007E0F8
:101640007B681B685A687B681B6822F400625A60DA
:101650007B681B68DA6A7B681B6822F47002DA62B6
:101660007B681B68D96A7B68DB69013B1A057B686C
:101670001B680A43DA627B681B689A687B681B6890
:1016800022F400729A607B681B6899687B6893F803
:1016900030305A027B681B680A439A607B681B687B
:1016A0009A687B681B6822F480629A607B681B687A
:1016B00099687B685B699A027B681B680A439A6039
:1016C00000BF1437BD465DF8047B7047002301401E
:1016D0000100000F80B483B000AF786000BF0C370A
:1016E000BD465DF8047B704780B584B000AF78607C
:1016F00039607B68002B01D10123CCE0684B1B686B
:1017000003F00F033A689A420CD9654B3A68D2B29B
:101710001A70634B1B6803F00F033A689A4201D0BA
:101720000123B8E07B681B6803F00203002B20D084
:101730007B681B6803F00403002B05D0594B9B68A2
:10174000584A43F4E05393607B681B6803F0080336
:10175000002B05D0534B9B68524A43F4604393607F
:10176000504B9B6823F0F0027B689B684D49134304
:101770008B607B681B6803F00103002B44D07B68FF
:101780005B68012B07D1474B1B6803F40033002B28
:1017900019D101237FE07B685B68022B03D07B6853
:1017A0005B68032B07D13F4B1B6803F00073002BD2
:1017B00009D101236FE03B4B1B6803F00203002BB0
:1017C00001D1012367E0374B9B6823F003027B685C
:1017D0005B68344913438B6001F034FCF8600AE025
:1017E00001F030FC0246FB68D31A41F28832934282
:1017F00001D903234FE02B4B9B6803F00C027B685D
:101800005B689B009A42EBD1254B1B6803F00F03EA
:101810003A689A420CD2224B3A68D2B21A70204BE4
:101820001B6803F00F033A689A4201D0012332E0AB
:101830007B681B6803F00403002B08D0194B9B68DE
:1018400023F4E0527B68DB68164913438B607B68A6
:101850001B6803F00803002B09D0124B9B6823F48C
:1018600060427B681B69DB000E4913438B6000F00C
:1018700005FC02460B4B9B681B0903F00F030A494A
:10188000CB5C22FA03F3094A1360094B1B68184624
:1018900008F082F8002318461037BD4680BD00BF0F
:1018A000003C02400038024098D7000808000020A1
:1018B0000000002080B58CB000AFF860B9607A609D
:1018C000FB68002B29D10023BB612B4B1B6B2A4AE1
:1018D00043F001031363284B1B6B03F00103BB614F
:1018E000BB694FF48073FB6102233B620323BB623D
:1018F00000237B620023FB6207F11C0319461F488B
:1019000001F08AF81C4B9B6823F0EC62B9687B6895
:101910000B43194913438B6029E000237B61164B6D
:101920001B6B154A43F004031363134B1B6B03F04B
:1019300004037B617B694FF40073FB6102233B620C
:101940000323BB6200237B620023FB6207F11C03BD
:1019500019460B4801F060F8074B9B6823F078426A
:101960007B68D900BB680B43034913438B6000BFFE
:101970003037BD4680BD00BF003802400000024045
:101980000008024080B400AF034B1B681846BD46F8
:101990005DF8047B704700BF0800002080B500AFF1
:1019A000FFF7F0FF0246054B9B685B0B03F0070354
:1019B0000349CB5C22FA03F3184680BD003802408D
:1019C000A8D7000880B483B000AF786039607B6826
:1019D0000F221A60124B9B6803F003027B685A6067
:1019E0000F4B9B6803F0F0027B689A600C4B9B687E
:1019F00003F4E0527B68DA60094B9B68DB0803F470
:101A0000E0527B681A61074B1B6803F00F023B68CA
:101A10001A6000BF0C37BD465DF8047B704700BFFD
:101A200000380240003C024080B58CB000AF7860C6
:101A300000237B6200233B620023FB610023BB6128
:101A400000237B6100233B610023FB600023FB62DA
:101A50000023BB627B681B6803F00103002B10D0DE
:101A60006F4BD3F88C3023F0C0627B689B6B6C4962
:101A70001343C1F88C307B689B6B002B01D1012391
:101A8000FB627B681B6803F00203002B10D0644BE1
:101A9000D3F88C3023F0C0527B68DB6B6049134372
:101AA000C1F88C307B68DB6B002B01D10123FB621A
:101AB0007B681B6803F00403002B17D0584BD3F846
:101AC0008C3023F440127B681B6B55491343C1F8DB
:101AD0008C307B681B6BB3F5801F01D10123FB6247
:101AE0007B681B6B002B01D10123BB627B681B68E9
:101AF00003F00803002B17D0494BD3F88C3023F4A4
:101B000040027B685B6B46491343C1F88C307B68AD
:101B10005B6BB3F5800F01D10123FB627B685B6BCC
:101B2000002B01D10123BB627B681B6803F02003FB
:101B3000002B00F08A800023BB60394B1B6C384AB5
:101B400043F080531364364B1B6C03F08053BB602F
:101B5000BB68344B1B68334A43F48073136001F055
:101B600071FA786208E001F06DFA02467B6AD31AD6
:101B7000022B01D9032378E22A4B1B6803F48073FC
:101B8000002BF0D0264B1B6F03F440733B623B6A83
:101B9000002B2FD07B681B6C03F440733A6A9A4287
:101BA00028D01F4B1B6F23F440733B621E4B012256
:101BB0001A601D4B00221A60194A3B6A1367184BC2
:101BC0001B6F03F00103012B14D101F03BFA786283
:101BD0000AE001F037FA02467B6AD31A41F28832F2
:101BE000934201D9032340E20D4B1B6F03F0020324
:101BF000002BEED07B681B6C03F44073B3F5407F81
:101C000014D1074B9B6823F4F8127B681B6C23F0FC
:101C1000704323F44073024913438B600CE000BF10
:101C20000038024000700040400E47424A4B9B681B
:101C3000494A23F4F8139360474B1A6F7B681B6C77
:101C4000C3F30B03444913430B677B681B6803F022
:101C50001003002B04D07B6893F858203F4B1A6088
:101C60007B681B6803F08003002B0AD03A4BD3F843
:101C7000943023F440027B68DB6C37491343C1F88E
:101C800094307B681B6803F04003002B0AD0324B72
:101C9000D3F8943023F080627B689B6C2E49134309
:101CA000C1F894307B681B6803F48073002B11D05B
:101CB000294BD3F8943023F000627B685B6D264992
:101CC0001343C1F894307B685B6DB3F1006F01D1B1
:101CD0000123BB627B681B6803F40073002B0AD0EE
:101CE0001D4BD3F8943023F080527B685B6C1A490B
:101CF0001343C1F894307B681B6803F48063002BA6
:101D000011D0154BD3F8943023F000527B681B6D33
:101D100011491343C1F894307B681B6DB3F1005F28
:101D200001D10123FB62FB6A012B05D07B681B6894
:101D3000B3F5006F40F0FF80094B00221A6001F0FC
:101D400081F978620EE001F07DF902467B6AD31AD0
:101D5000022B07D9032388E100380240E0114742F3
:101D6000680047427E4B1B6803F00063002BEAD1FA
:101D70007B681B6803F00103002B03D07B689B6B1F
:101D8000002B09D07B681B6803F00203002B28D0CE
:101D90007B68DB6B002B24D1714BD3F884301B0C98
:101DA00003F0030301335B00FB616D4BD3F8843018
:101DB0001B0E03F00F03BB617B685A687B689B684E
:101DC0009B011A43FB695B08013B1B041A43BB6977
:101DD0001B061A437B685B691B0761491343C1F803
:101DE00084307B681B6803F00403002B04D07B68FD
:101DF0001B6BB3F5801F0AD07B681B6803F00803D8
:101E0000002B35D07B685B6BB3F5800F30D1544B22
:101E1000D3F884301B0C03F0030301335B00FB6138
:101E20004F4BD3F884301B0F03F007037B617B68B3
:101E30005A687B689B689B011A43FB695B08013BFE
:101E40001B041A437B681B691B061A437B691B072B
:101E500043491343C1F88430414BD3F88C3023F00D
:101E60001F027B689B6A013B3D491343C1F88C30DC
:101E70007B681B6803F48063002B29D07B681B6D93
:101E8000B3F1005F24D1364BD3F884301B0C03F040
:101E9000030301335B00BB61314BD3F884301B0F6C
:101EA00003F007037B617B685A687B689B689B0132
:101EB0001A437B68DB685B08013B1B041A43BB6960
:101EC0001B061A437B691B0725491343C1F884305D
:101ED0007B681B6803F40063002B16D07B685A688C
:101EE0007B689B689B011A437B68DB685B08013B4E
:101EF0001B041A437B681B691B061A437B685B69DA
:101F00001B0717491343C1F88430164B01221A608E
:101F100001F098F8786208E001F094F802467B6AD4
:101F2000D31A022B01D903239FE00D4B1B6803F04A
:101F30000063002BF0D0BB6A012B40F095800A4B68
:101F400000221A6001F07EF878620FE001F07AF862
:101F500002467B6AD31A022B08D9032385E000BF0F
:101F6000003802406800474270004742414B1B68FE
:101F700003F00053B3F1005FE8D07B681B6803F007
:101F80000403002B03D07B681B6B002B09D07B68FC
:101F90001B6803F00803002B2BD07B685B6B002BC6
:101FA00027D1344BD3F888301B0C03F003030133E3
:101FB0005B003B617B689A697B68DB699B011A4324
:101FC0003B695B08013B1B041A437B685B6A1B0689
:101FD00028491343C1F88830264BD3F88C3023F4BA
:101FE000F8527B68DB6A013B1B0222491343C1F8AC
:101FF0008C307B681B6803F48073002B1DD07B68DA
:102000005B6DB3F1006F18D11A4BD3F888301B0EFB
:1020100003F00F03FB607B689A697B68DB699B01B7
:102020001A437B681B6A5B08013B1B041A43FB686D
:102030001B0610491343C1F888300F4B01221A6068
:1020400001F000F8786208E000F0FCFF02467B6ACD
:10205000D31A022B01D9032307E0064B1B6803F0B8
:102060000053B3F1005FEFD1002318463037BD466F
:1020700080BD00BF00380240700047422DE9B04FDC
:10208000AEB000AF0023C7F8AC300023C7F8B430BF
:102090000023C7F8A8300023C7F8A4300023C7F8EE
:1020A000B030CB4B9B6803F00C030C2B00F2068284
:1020B00001A252F823F000BFED200008BD24000863
:1020C000BD240008BD240008F5200008BD24000838
:1020D000BD240008BD240008FD200008BD24000820
:1020E000BD240008BD240008ED220008B94BC7F844
:1020F000B030E7E1B84BC7F8B030E3E1B44B5B6810
:1021000003F03F03C7F8AC30B14B5B6803F48003C6
:10211000002B71D0AE4B5B689B090022C7F898304A
:10212000C7F89C20D7F89830C3F30803C7F890305D
:102130000023C7F89430D7E9244522462B464FF0B8
:1021400000004FF00001590141EAD26150010246FE
:102150000B462146511A3964294663EB01037B641F
:102160004FF000024FF00003D7E9108949468B0178
:10217000414643EA916341468A014146511AB96397
:10218000494663EB0103FB634FF000024FF000038D
:10219000D7E90E894946CB00414643EA517341468F
:1021A000CA0010461946034622469B183B632B463D
:1021B0000A4642EB03037B634FF000024FF000033B
:1021C000D7E90C4529464B02214643EAD153214623
:1021D0004A0210461946D7F8AC300022C7F88830BA
:1021E000C7F88C20D7E92223FEF712F802460B46E7
:1021F0001346C7F8B43067E0754B5B689B09002253
:10220000C7F88030C7F88420D7F88030C3F30803BC
:10221000BB670023FB67D7E91E4522462B464FF0DC
:1022200000004FF00001590141EAD261500102461D
:102230000B462146511AB962294663EB0103FB6242
:102240004FF000024FF00003D7E90A8949468B019D
:10225000414643EA916341468A014146B2EB010A95
:10226000494663EB010B4FF000024FF000034FEAC9
:10227000CB0343EA5A734FEACA0292469B4623466F
:102280001AEB03033B622B464BEB03037B624FF0DD
:1022900000024FF00003D7E9084529468B0221468A
:1022A00043EA915321468A0210461946D7F8AC30CA
:1022B00000223B677A67D7E91C23FDF7A9FF024696
:1022C0000B461346C7F8B430414B5B681B0C03F058
:1022D000030301335B00C7F8A830D7F8B420D7F860
:1022E000A830B2FBF3F3C7F8B030EBE0384B5B68D3
:1022F00003F03F03C7F8AC30354B5B6803F4800351
:10230000002B6BD0324B5B689B090022BB66FA66E0
:10231000BB6EC3F308033B6600237B66D7E9184511
:1023200022462B464FF000004FF00001590141EAD0
:10233000D261500102460B462146511AB961294625
:1023400063EB0103FB614FF000024FF00003D7E99C
:1023500006AB59468B01514643EA916351468A01C7
:102360005146B2EB0108594663EB01094FF00002F8
:102370004FF000034FEAC90343EA58734FEAC8021B
:1023800090469946234618EB03033B612B4649EBE5
:1023900003037B614FF000024FF00003D7E90445CF
:1023A00029464B02214643EAD15321464A021046B0
:1023B0001946D7F8AC300022BB65FA65D7E9162379
:1023C000FDF726FF02460B461346C7F8B43065E01A
:1023D000003802400024F40000127A003D4B5B6894
:1023E0009B09002218461146C0F308033B650023F1
:1023F0007B65D7E9148942464B464FF000004FF009
:102400000001590141EAD261500102460B464146A2
:10241000511AB960494663EB0103FB604FF00002BB
:102420004FF00003D7E902AB59468B01514643EA0E
:10243000916351468A015146541A594663EB01058E
:102440004FF000024FF00003EB0043EA5473E20048
:1024500014461D464346E3183B604B4645EB0303D9
:102460007B604FF000024FF00003D7E9004529469A
:102470008B02214643EA915321468A0210461946AF
:10248000D7F8AC300022BB64FA64D7E91223FDF719
:10249000BFFE02460B461346C7F8B4300D4B5B68CF
:1024A0001B0F03F00703C7F8A430D7F8B420D7F800
:1024B000A430B2FBF3F3C7F8B03003E0064BC7F823
:1024C000B03000BFD7F8B0301846B837BD46BDE8C9
:1024D000B08F00BF003802400024F40080B586B001
:1024E00000AF78607B68002B01D101238DE27B680F
:1024F0001B6803F00103002B00F08380944B9B6862
:1025000003F00C03042B19D0914B9B6803F00C03D0
:10251000082B06D18E4B5B6803F48003B3F5800F64
:102520000CD08B4B9B6803F00C030C2B12D1884B07
:102530005B6803F48003B3F5800F0BD1844B1B68F9
:1025400003F40033002B5BD07B685B68002B57D112
:1025500001235AE27B685B68B3F5803F06D17C4B70
:102560001B687B4A43F4803313601DE07B685B6823
:10257000B3F5A02F0CD1764B1B68754A43F480232A
:102580001360734B1B68724A43F4803313600BE093
:102590006F4B1B686E4A23F4803313606C4B1B68CF
:1025A0006B4A23F4802313607B685B68002B13D095
:1025B00000F048FD386108E000F044FD02463B6948
:1025C000D31A642B01D903231FE2614B1B6803F468
:1025D0000033002BF0D014E000F034FD386108E047
:1025E00000F030FD02463B69D31A642B01D9032366
:1025F0000BE2574B1B6803F40033002BF0D100E0D3
:1026000000BF7B681B6803F00203002B6FD0504BA8
:102610009B6803F00C03002B17D04D4B9B6803F015
:102620000C03082B05D14A4B5B6803F48003002B95
:102630000BD0474B9B6803F00C030C2B1CD1444B75
:102640005B6803F48003002B16D1414B1B6803F039
:102650000203002B05D07B68DB68012B01D001232E
:10266000D3E13B4B1B6823F0F8027B681B69DB005E
:10267000374913430B603AE07B68DB68002B20D0BE
:10268000344B01221A6000F0DDFC386108E000F0F4
:10269000D9FC02463B69D31A022B01D90323B4E1CA
:1026A0002B4B1B6803F00203002BF0D0284B1B6858
:1026B00023F0F8027B681B69DB00254913430B609C
:1026C00015E0244B00221A6000F0BCFC386108E0E1
:1026D00000F0B8FC02463B69D31A022B01D9032350
:1026E00093E11B4B1B6803F00203002BF0D17B68C6
:1026F0001B6803F00803002B36D07B685B69002B56
:1027000016D0154B01221A6000F09CFC386108E0DD
:1027100000F098FC02463B69D31A022B01D903232F
:1027200073E10B4B5B6F03F00203002BF0D01BE057
:10273000094B00221A6000F085FC38610EE000F0C1
:1027400081FC02463B69D31A022B07D903235CE1C3
:102750000038024000004742800E47428A4B5B6FC0
:1027600003F00203002BEAD17B681B6803F004032B
:10277000002B00F097800023FB75834B1B6C03F04C
:102780008053002B0FD10023BB607F4B1B6C7E4A14
:1027900043F0805313647C4B1B6C03F08053BB608D
:1027A000BB680123FB75794B1B6803F48073002B16
:1027B00018D1764B1B68754A43F48073136000F0A0
:1027C00041FC386108E000F03DFC02463B69D31A49
:1027D000022B01D9032318E16C4B1B6803F48073AF
:1027E000002BF0D07B689B68012B06D1664B1B6FDA
:1027F000654A43F0010313671CE07B689B68052B67
:102800000CD1614B1B6F604A43F0040313675E4BAE
:102810001B6F5D4A43F0010313670BE05A4B1B6FBC
:10282000594A23F001031367574B1B6F564A23F095
:10283000040313677B689B68002B15D000F002FC33
:1028400038610AE000F0FEFB02463B69D31A41F210
:102850008832934201D90323D7E04B4B1B6F03F01F
:102860000203002BEED014E000F0ECFB38610AE02C
:1028700000F0E8FB02463B69D31A41F288329342EA
:1028800001D90323C1E0404B1B6F03F00203002B6F
:10289000EED1FB7D012B05D13B4B1B6C3A4A23F05B
:1028A000805313647B689B69002B00F0AD80364B2E
:1028B0009B6803F00C03082B60D07B689B69022B9C
:1028C00045D1334B00221A6000F0BCFB386108E0B0
:1028D00000F0B8FB02463B69D31A022B01D903234F
:1028E00093E0294B1B6803F00073002BF0D17B6849
:1028F000DA697B681B6A1A437B685B6A9B011A432F
:102900007B689B6A5B08013B1B041A437B68DB6A9C
:102910001B061A437B681B6B1B071B4913434B6049
:102920001B4B01221A6000F08DFB386108E000F0BB
:1029300089FB02463B69D31A022B01D9032364E0C9
:10294000114B1B6803F00073002BF0D05CE0104BC0
:1029500000221A6000F076FB386108E000F072FB9C
:1029600002463B69D31A022B01D903234DE0064BE3
:102970001B6803F00073002BF0D145E07B689B6976
:10298000012B07D1012340E00038024000700040D5
:10299000600047421F4B5B68FB607B689B69012BB3
:1029A00030D0FB6803F480027B68DB699A4229D14E
:1029B000FB6803F03F027B681B6A9A4222D1FA68E7
:1029C00047F6C07313407A68526A9201934219D154
:1029D000FB6803F440327B689B6A5B08013B1B0485
:1029E0009A420FD1FB6803F070627B68DB6A1B06BA
:1029F0009A4207D1FB6803F0E0427B681B6B1B0720
:102A00009A4201D0012300E0002318461837BD4642
:102A100080BD00BF0038024080B489B000AF78604C
:102A2000396000237B6100233B610023BB610023ED
:102A3000FB6165E10122FB6902FA03F37B613B68FC
:102A40001B687A6913403B613A697B699A4240F09E
:102A500054813B685B6803F00303012B05D03B689E
:102A60005B6803F00303022B30D17B689B68BB617A
:102A7000FB695B00032202FA03F3DB43BA691340EC
:102A8000BB613B68DA68FB695B0002FA03F3BA6971
:102A90001343BB617B68BA699A607B685B68BB6102
:102AA0000122FB6902FA03F3DB43BA691340BB61FD
:102AB0003B685B681B0903F00102FB6902FA03F340
:102AC000BA691343BB617B68BA695A603B685B684B
:102AD00003F00303032B17D07B68DB68BB61FB6942
:102AE0005B00032202FA03F3DB43BA691340BB61C4
:102AF0003B689A68FB695B0002FA03F3BA69134307
:102B0000BB617B68BA69DA603B685B6803F003030A
:102B1000022B23D1FB69DA087B68083253F8223094
:102B2000BB61FB6903F007039B000F2202FA03F36A
:102B3000DB43BA691340BB613B681A69FB6903F068
:102B400007039B0002FA03F3BA691343BB61FB69F5
:102B5000DA087B680832B96943F822107B681B6881
:102B6000BB61FB695B00032202FA03F3DB43BA6932
:102B70001340BB613B685B6803F00302FB695B00C9
:102B800002FA03F3BA691343BB617B68BA691A603E
:102B90003B685B6803F44033002B00F0AE800023F9
:102BA000FB605D4B5B6C5C4A43F4804353645A4B5F
:102BB0005B6C03F48043FB60FB68584AFB699B082D
:102BC000023352F82330BB61FB6903F003039B001F
:102BD0000F2202FA03F3DB43BA691340BB617B683F
:102BE0004F4A934225D07B684E4A93421FD07B6860
:102BF0004D4A934219D07B684C4A934213D07B686C
:102C00004B4A93420DD07B684A4A934207D07B6877
:102C1000494A934201D106230CE007230AE0052329
:102C200008E0042306E0032304E0022302E001237A
:102C300000E00023FA6902F0030292009340BA69AF
:102C40001343BB613549FB699B080233BA6941F8FC
:102C500023203A4B9B68BB613B69DB43BA69134055
:102C6000BB613B685B6803F48013002B03D0BA6937
:102C70003B691343BB61314ABB6993602F4BDB68EF
:102C8000BB613B69DB43BA691340BB613B685B686E
:102C900003F40013002B03D0BA693B691343BB61F3
:102CA000264ABB69D360254B5B68BB613B69DB434C
:102CB000BA691340BB613B685B6803F40033002BC7
:102CC00003D0BA693B691343BB611C4ABB695360BB
:102CD0001A4B1B68BB613B69DB43BA691340BB619C
:102CE0003B685B6803F48033002B03D0BA693B690F
:102CF0001343BB61114ABB691360FB690133FB617C
:102D0000FB690F2B7FF696AE00BF00BF2437BD4690
:102D10005DF8047B704700BF003802400038014076
:102D2000000002400004024000080240000C024083
:102D3000001002400014024000180240003C014014
:102D400080B483B000AF78600B467B8013467B7005
:102D50007B78002B03D07A887B689A6103E07B88BC
:102D60001A047B689A6100BF0C37BD465DF8047B8E
:102D70007047000080B582B000AF00237B60002365
:102D80003B60204B1B6C1F4A43F0805313641D4B68
:102D90001B6C03F080533B603B681B4B01221A60A5
:102DA00000F050F9786009E000F04CF902467B68C9
:102DB000D31AB3F57A7F01D903231FE0134B5B6865
:102DC00003F48033B3F5803FEED1114B01221A603A
:102DD00000F038F9786009E000F034F902467B68C9
:102DE000D31AB3F57A7F01D9032307E0074B5B6859
:102DF00003F40033B3F5003FEED100231846083743
:102E0000BD4680BD0038024040000E4200700040C8
:102E100044000E4280B485B000AF78607B6803F058
:102E20000703FB600C4BDB68BB60BA684FF6FF031F
:102E30001340BB60FB681A02BB68134343F0BF63D7
:102E400043F40033BB60044ABB68D36000BF14374F
:102E5000BD465DF8047B704700ED00E080B400AF34
:102E6000044BDB681B0A03F007031846BD465DF8F8
:102E7000047B704700ED00E080B483B000AF0346F0
:102E8000FB7197F90730002B0BDBFB7903F01F0276
:102E9000074997F907305B09012000FA02F241F86F
:102EA000232000BF0C37BD465DF8047B704700BF90
:102EB00000E100E080B483B000AF03463960FB71ED
:102EC00097F90730002B0ADB3B68DAB20C4997F917
:102ED00007301201D2B20B4483F800230AE03B68AA
:102EE000DAB20849FB7903F00F03043B1201D2B2B6
:102EF0000B441A7600BF0C37BD465DF8047B704763
:102F000000E100E000ED00E080B489B000AFF860BF
:102F1000B9607A60FB6803F00703FB61FB69C3F1EA
:102F20000703042B28BF0423BB61FB690433062B72
:102F300002D9FB69033B00E000237B614FF0FF32C5
:102F4000BB6902FA03F3DA43BB681A407B699A4013
:102F50004FF0FF317B6901FA03F3D9437B680B40E3
:102F6000134318462437BD465DF8047B704780B58F
:102F700082B000AF78607868FFF74CFF00BF083779
:102F8000BD4680BD80B586B000AF0346B9607A60AB
:102F9000FB7300237B61FFF761FF78617A68B96892
:102FA0007869FFF7B1FF024697F90F3011461846CE
:102FB000FFF780FF00BF1837BD4680BD80B582B0E7
:102FC00000AF0346FB7197F907301846FFF754FF2F
:102FD00000BF0837BD4680BD80B500AF0E4B1B68F3
:102FE0000D4A43F4007313600B4B1B680A4A43F409
:102FF00080631360084B1B68074A43F480731360B7
:103000000320FFF7B4FF0F2006F0C6FCFDF77CFE9F
:103010000023184680BD00BF003C024080B400AFD2
:10302000064B1B781A46064B1B681344044A136070
:1030300000BFBD465DF8047B704700BF0400002060
:103040009409002080B400AF034B1B681846BD46AE
:103050005DF8047B704700BF9409002080B584B000
:1030600000AF7860FFF7EEFFB8607B68FB60FB683D
:10307000B3F1FF3F05D00A4B1B781A46FB68134497
:10308000FB6000BFFFF7DEFF0246BB68D31AFA6899
:103090009A42F7D800BF00BF1037BD4680BD00BFC1
:1030A0000400002080B584B000AF78607B68002BFE
:1030B00001D10123EDE07B6893F82030DBB2002BD7
:1030C00002D17868FDF706FF7B681B681A687B6889
:1030D0001B6842F001021A60FFF7B4FFF86012E0CB
:1030E000FFF7B0FF0246FB68D31A0A2B0BD97B68A7
:1030F0005B6A43F400327B685A627B68052283F87E
:1031000020200123C5E07B681B685B6803F0010396
:10311000002BE5D07B681B681A687B681B6822F06F
:1031200002021A60FFF78EFFF86012E0FFF78AFFD5
:103130000246FB68D31A0A2B0BD97B685B6A43F4FF
:1031400000327B685A627B68052283F820200123C5
:103150009FE07B681B685B6803F00203002BE5D1EE
:103160007B681B7E012B08D17B681B681A687B6813
:103170001B6842F080021A6007E07B681B681A68CF
:103180007B681B6822F080021A607B685B7E012BE3
:1031900008D17B681B681A687B681B6842F0400294
:1031A0001A6007E07B681B681A687B681B6822F05E
:1031B00040021A607B689B7E012B08D17B681B68EC
:1031C0001A687B681B6842F020021A6007E07B687F
:1031D0001B681A687B681B6822F020021A607B68F3
:1031E000DB7E012B08D17B681B681A687B681B6833
:1031F00022F010021A6007E07B681B681A687B687F
:103200001B6842F010021A607B681B7F012B08D1FB
:103210007B681B681A687B681B6842F008021A60AA
:1032200007E07B681B681A687B681B6822F008024D
:103230001A607B685B7F012B08D17B681B681A686A
:103240007B681B6842F004021A6007E07B681B6819
:103250001A687B681B6822F004021A607B689A680F
:103260007B68DB681A437B681B691A437B685B6970
:1032700042EA03017B685B685A1E7B681B680A434D
:10328000DA617B6800225A627B68012283F8202081
:10329000002318461037BD4680BD000080B487B0BB
:1032A00000AF786039607B681B687B617B6893F84E
:1032B0002030FB74FB7C012B03D0FB7C022B40F005
:1032C000BE80654B7B617B69D3F8003243F001021D
:1032D0007B69C3F800227B69D3F8003223F47C5267
:1032E0007B69C3F800227B69D3F800223B685B6AE4
:1032F0001B021A437B69C3F800223B685B6903F039
:103300001F03012202FA03F3FB607B69D3F81C223E
:10331000FB68DB431A407B69C3F81C223B68DB690E
:10332000002B23D17B69D3F80C22FB68DB431A40C6
:103330007B69C3F80C223B68DB6819043B685B6857
:103340009BB23A68526919437B69483243F832109C
:103350003B689B6819043B681B689AB23B685B69D1
:103360000A4379694833DB000B445A603B68DB69E8
:10337000012B22D17B69D3F80C22FB681A437B69AD
:10338000C3F80C223B681B6819043B685B689BB25E
:103390003A68526919437B69483243F832103B68F6
:1033A0009B6819043B68DB689AB23B685B690A4317
:1033B00079694833DB000B445A603B689B69002BFA
:1033C00009D17B69D3F80422FB68DB431A407B698F
:1033D000C3F8042207E07B69D3F80422FB681A4390
:1033E0007B69C3F804223B681B69002B09D17B6908
:1033F000D3F81422FB68DB431A407B69C3F814221C
:1034000007E07B69D3F81422FB681A437B69C3F891
:1034100014223B681B6A012B07D17B69D3F81C225D
:10342000FB681A437B69C3F81C227B69D3F800321E
:1034300023F001027B69C3F80022002306E07B68C9
:103440005B6A43F480227B685A62012318461C376A
:10345000BD465DF8047B70470064004080B487B0CF
:1034600000AFF860B9607A603B60FB6893F8203089
:10347000FB75FB7D012B03D0FB7D022B40F0F3801D
:10348000BB68002B0ED1FB681B68DB6803F00303ED
:10349000002B16D1FB685B6A43F40012FB685A628A
:1034A0000123E7E0FB681B681B6903F00303002BA3
:1034B00007D1FB685B6A43F40012FB685A62012380
:1034C000D8E0FB681A68BB681B331B0113441B68F8
:1034D00003F004027B689A607B689B68002B0CD128
:1034E000FB681A68BB681B331B0113441B685B0D28
:1034F000C3F30A027B681A600BE0FB681A68BB68BA
:103500001B331B0113441B68DB0823F060427B68FC
:103510005A60FB681A68BB681B331B0113441B68A5
:1035200003F002027B68DA60FB681A68BB681B3331
:103530001B01134404331B6803F00F027B681A61FC
:10354000FB681A68BB681B331B01134404331B68F8
:103550001B0ADAB27B689A61FB681A68BB681B3386
:103560001B01134404331B681B0C9AB27B685A611D
:10357000FB681A68BB681B01134403F5DC731B6806
:10358000DAB23B681A70FB681A68BB681B01134407
:1035900003F5DC731B681A0A3B680133D2B21A7058
:1035A000FB681A68BB681B01134403F5DC731B68D6
:1035B0001A0C3B680233D2B21A70FB681A68BB68F7
:1035C0001B01134403F5DC731B681A0E3B680333BD
:1035D000D2B21A70FB681A68BB681B01134403F56A
:1035E000DE731A683B680433D2B21A70FB681A683B
:1035F000BB681B01134403F5DE731B681A0A3B68A2
:103600000533D2B21A70FB681A68BB681B011344F9
:1036100003F5DE731B681A0C3B680633D2B21A70CE
:10362000FB681A68BB681B01134403F5DE731B6853
:103630001A0E3B680733D2B21A70BB68002B08D150
:10364000FB681B68DA68FB681B6842F02002DA60DE
:1036500007E0FB681B681A69FB681B6842F02002E0
:103660001A61002306E0FB685B6A43F48022FB6872
:103670005A62012318461C37BD465DF8047B70472B
:1036800080B485B000AF786039607B6893F82030F3
:10369000FB73FB7B012B02D0FB7B022B09D17B68E8
:1036A0001B6859697B681B683A680A435A610023A2
:1036B00006E07B685B6A43F480227B685A620123E0
:1036C00018461437BD465DF8047B704780B58AB054
:1036D00000AF786000237B627B681B685B693B629C
:1036E0007B681B685B68FB617B681B689B68BB61D0
:1036F0007B681B68DB687B617B681B681B693B61BF
:103700007B681B689B69FB603B6A03F00103002B2D
:103710007CD0BB6903F00103002B23D07B681B68BE
:1037200001229A60BB6903F00203002B03D0786882
:10373000FCF736FF16E0BB6903F00403002B04D04E
:103740007B6A43F400637B620CE0BB6903F008030F
:10375000002B04D07B6A43F480537B6202E07868DC
:1037600000F06BF9BB6903F48073002B24D07B68F5
:103770001B684FF480729A60BB6903F40073002BDE
:1037800003D07868FCF716FF16E0BB6903F480638A
:10379000002B04D07B6A43F400537B620CE0BB69CE
:1037A00003F40063002B04D07B6A43F480437B6204
:1037B00002E0786800F04BF9BB6903F48033002B1A
:1037C00024D07B681B684FF480329A60BB6903F495
:1037D0000033002B03D07868FCF7F6FE16E0BB69D7
:1037E00003F48023002B04D07B6A43F400437B6204
:1037F0000CE0BB6903F40023002B04D07B6A43F484
:1038000080337B6202E0786800F02BF93B6A03F0BA
:103810000803002B0CD07B6903F01003002B07D0AA
:103820007B6A43F400737B627B681B681022DA605A
:103830003B6A03F00403002B0BD07B6903F0080301
:10384000002B06D07B681B680822DA60786800F0DD
:1038500012F93B6A03F00203002B09D07B681B6856
:10386000DB6803F00303002B02D07868FCF764FEEA
:103870003B6A03F04003002B0CD03B6903F01003BC
:10388000002B07D07B6A43F480637B627B681B68F4
:1038900010221A613B6A03F02003002B0BD03B6916
:1038A00003F00803002B06D07B681B6808221A610E
:1038B000786800F0EAF83B6A03F01003002B09D0A7
:1038C0007B681B681B6903F00303002B02D0786838
:1038D000FCF74CFE3B6A03F40033002B0BD0FB6972
:1038E00003F01003002B06D07B681B6810225A607F
:1038F000786800F0D4F83B6A03F48033002B0BD0D7
:10390000FB6903F00803002B06D07B681B680822C4
:103910005A60786800F0CDF83B6A03F40043002B4E
:103920007BD0FB6903F00403002B72D03B6A03F4E5
:103930008073002B08D0FB6803F00103002B03D039
:103940007B6A43F001037B623B6A03F40073002B44
:1039500008D0FB6803F00203002B03D07B6A43F01E
:1039600002037B623B6A03F48063002B08D0FB6890
:1039700003F00403002B03D07B6A43F004037B6253
:103980003B6A03F40063002B43D0FB6803F0700331
:10399000002B3ED0FB6803F07003602B2BD0602B14
:1039A0002ED8502B22D0502B2AD8402B19D0402B68
:1039B00026D8302B10D0302B22D8102B02D0202B21
:1039C00005D01DE07B6A43F008037B6219E07B6A47
:1039D00043F010037B6214E07B6A43F020037B62B8
:1039E0000FE07B6A43F040037B620AE07B6A43F0AE
:1039F00080037B6205E07B6A43F480737B6200E0B6
:103A000000BF7B681B689A697B681B6822F07002A4
:103A10009A617B681B6804225A607B6A002B08D07D
:103A20007B685A6A7B6A1A437B685A62786800F03E
:103A30004AF800BF2837BD4680BD80B483B000AFD0
:103A4000786000BF0C37BD465DF8047B704780B4DA
:103A500083B000AF786000BF0C37BD465DF8047BD3
:103A6000704780B483B000AF786000BF0C37BD46AC
:103A70005DF8047B704780B483B000AF786000BF0E
:103A80000C37BD465DF8047B704780B483B000AF4F
:103A9000786000BF0C37BD465DF8047B704780B48A
:103AA00083B000AF786000BF0C37BD465DF8047B83
:103AB000704780B483B000AF786000BF0C37BD465C
:103AC0005DF8047B704780B483B000AF786000BFBE
:103AD0000C37BD465DF8047B704780B582B000AFFF
:103AE00078607B68002B01D1012341E07B6893F86B
:103AF0003D30DBB2002B06D17B68002283F83C20EE
:103B0000786800F039F87B68022283F83D207B68F2
:103B10001A687B6804331946104600F0D7F97B68B1
:103B2000012283F846207B68012283F83E207B68CF
:103B3000012283F83F207B68012283F840207B68C4
:103B4000012283F841207B68012283F842207B68B0
:103B5000012283F843207B68012283F844207B689C
:103B6000012283F845207B68012283F83D20002351
:103B700018460837BD4680BD80B483B000AF78607A
:103B800000BF0C37BD465DF8047B704780B485B03C
:103B900000AF78607B6893F83D30DBB2012B01D039
:103BA00001234EE07B68022283F83D207B681B687E
:103BB000DA687B681B6842F00102DA607B681B6888
:103BC000234A934222D07B681B68B3F1804F1DD0FB
:103BD0007B681B681F4A934218D07B681B681E4A8B
:103BE000934213D07B681B681C4A93420ED07B68BB
:103BF0001B681B4A934209D07B681B68194A934291
:103C000004D07B681B68184A934211D17B681B68FB
:103C10009B6803F00703FB60FB68062B10D07B68F2
:103C20001B681A687B681B6842F001021A6007E093
:103C30007B681B681A687B681B6842F001021A6087
:103C4000002318461437BD465DF8047B704700BF5B
:103C5000000001400004004000080040000C00404B
:103C600000040140004001400018004080B582B0CF
:103C700000AF78607B681B681B6903F00203022BAE
:103C800022D17B681B68DB6803F00203022B1BD187
:103C90007B681B686FF002021A617B6801221A7749
:103CA0007B681B689B6903F00303002B03D07868D3
:103CB00000F0EEF805E0786800F0E0F8786800F0D1
:103CC000F1F87B6800221A777B681B681B6903F098
:103CD0000403042B22D17B681B68DB6803F0040318
:103CE000042B1BD17B681B686FF004021A617B6890
:103CF00002221A777B681B689B6903F44073002BD0
:103D000003D0786800F0C4F805E0786800F0B6F8F1
:103D1000786800F0C7F87B6800221A777B681B6818
:103D20001B6903F00803082B22D17B681B68DB6842
:103D300003F00803082B1BD17B681B686FF0080297
:103D40001A617B6804221A777B681B68DB6903F0C1
:103D50000303002B03D0786800F09AF805E0786838
:103D600000F08CF8786800F09DF87B6800221A77E4
:103D70007B681B681B6903F01003102B22D17B6842
:103D80001B68DB6803F01003102B1BD17B681B68DA
:103D90006FF010021A617B6808221A777B681B6833
:103DA000DB6903F44073002B03D0786800F070F8EF
:103DB00005E0786800F062F8786800F073F87B68D6
:103DC00000221A777B681B681B6903F00103012B33
:103DD0000ED17B681B68DB6803F00103012B07D160
:103DE0007B681B686FF001021A617868FCF71EFFA0
:103DF0007B681B681B6903F08003802B0ED17B68F6
:103E00001B68DB6803F08003802B07D17B681B688D
:103E10006FF080021A61786800F002F97B681B6815
:103E20001B6903F04003402B0ED17B681B68DB68E5
:103E300003F04003402B07D17B681B686FF0400202
:103E40001A61786800F038F87B681B681B6903F01A
:103E50002003202B0ED17B681B68DB6803F0200356
:103E6000202B07D17B681B686FF020021A617868ED
:103E700000F0CCF800BF0837BD4680BD80B483B0E9
:103E800000AF786000BF0C37BD465DF8047B70471B
:103E900080B483B000AF786000BF0C37BD465DF8DA
:103EA000047B704780B483B000AF786000BF0C37EC
:103EB000BD465DF8047B704780B483B000AF786086
:103EC00000BF0C37BD465DF8047B704780B485B0F9
:103ED00000AF786039607B681B68FB607B68404A94
:103EE000934213D07B68B3F1804F0FD07B683D4A7B
:103EF00093420BD07B683C4A934207D07B683B4A95
:103F0000934203D07B683A4A934208D1FB6823F07E
:103F10007003FB603B685B68FA681343FB607B6877
:103F20002F4A93422BD07B68B3F1804F27D07B6818
:103F30002C4A934223D07B682B4A93421FD07B6844
:103F40002A4A93421BD07B68294A934217D07B6848
:103F5000284A934213D07B68274A93420FD07B684C
:103F6000264A93420BD07B68254A934207D07B6850
:103F7000244A934203D07B68234A934208D1FB68CA
:103F800023F44073FB603B68DB68FA681343FB6013
:103F9000FB6823F080023B685B691343FB607B682E
:103FA000FA681A603B689A687B68DA623B681A684C
:103FB0007B689A627B680A4A934203D07B680C4A0A
:103FC000934203D13B681A697B681A637B680122BC
:103FD0005A6100BF1437BD465DF8047B704700BFCF
:103FE000000001400004004000080040000C0040B8
:103FF00000040140004001400044014000480140ED
:1040000000180040001C00400020004080B483B035
:1040100000AF786000BF0C37BD465DF8047B704789
:1040200080B483B000AF786000BF0C37BD465DF848
:10403000047B7047F0B58FB00AAF78607B68002BC7
:1040400001D1012316E17B681B68BB607B6893F894
:10405000BD34DBB2002B06D17B68002283F8BC2480
:10406000786803F023F97B68032283F8BD24BB68DA
:10407000DB6B03F48073002B02D17B6800221A6192
:104080007B681B68184601F0B4FB7B681B683B60CB
:104090007E686D4606F110040FCC0FC50FCC0FC51E
:1040A00094E8030085E80300331D0ECB386801F067
:1040B0008BFA0346002B05D07B68022283F8BD24CF
:1040C0000123D7E07B681B680021184601F0A2FBA2
:1040D0000023FB734AE0FA7B79681346DB00134444
:1040E0009B000B443D3301221A70FA7B796813461A
:1040F000DB0013449B000B443C33FA7B1A70FA7BC1
:10410000FB7B98B279681346DB0013449B000B4499
:10411000443302461A80FA7B79681346DB00134465
:104120009B000B44403300221A70FA7B79681346D7
:10413000DB0013449B000B44483300221A60FA7BD7
:1041400079681346DB0013449B000B444C33002278
:104150001A60FA7B79681346DB0013449B000B441A
:10416000543300221A60FB7B0133FB73FA7B7B68BC
:104170005B689A42AFD30023FB7344E0FA7B796813
:104180001346DB0013449B000B4403F27D23002203
:104190001A70FA7B79681346DB0013449B000B44CA
:1041A00003F51F73FA7B1A70FA7B79681346DB00FC
:1041B00013449B000B4403F5207300221A70FA7B12
:1041C00079681346DB0013449B000B4403F522730C
:1041D00000221A60FA7B79681346DB0013449B00C7
:1041E0000B4403F5237300221A60FA7B79681346A7
:1041F000DB0013449B000B4403F5257300221A6077
:10420000FB7B0133FB73FA7B7B685B689A42B5D317
:104210007B681B683B607E686D4606F110040FCC1E
:104220000FC50FCC0FC594E8030085E80300331DCC
:104230000ECB386801F03AFB0346002B05D07B68B3
:10424000022283F8BD24012314E07B68002283F856
:1042500038207B68012283F8BD247B685B6A012BD0
:1042600002D1786801F08CF97B681B68184602F06F
:104270007CFC002318461437BD46F0BD80B584B0E1
:1042800000AF78607B681B68FB607B6893F8BC3488
:10429000012B01D1022320E07B68012283F8BC249A
:1042A0007B689B6A012B09D17B689B69012B05D038
:1042B000FB689B6B43F48032FB689A637B681B68E6
:1042C000184601F085FA7B681B68184602F02CFC42
:1042D0007B68002283F8BC24002318461037BD46B3
:1042E00080BD90B58DB000AF78607B681B683B6285
:1042F0003B6AFB617B681B68184602F0EAFC0346D8
:10430000002B40F0B7847B681B68184602F04EFC17
:104310000346002B00F0AD84FB6903F500639B6846
:104320001B0AC3F30D027B68C3F8FC247B681B687F
:10433000184602F03BFC034603F00203022B07D1B0
:104340007B681B685A697B681B6802F002025A612D
:104350007B681B68184602F029FC034603F0100333
:10436000102B61D17B681B689A697B681B6822F0FF
:1043700010029A613B6A1B6ABB61BB6903F00F02C2
:104380001346DB0013449B0003F51E737A68134445
:1043900004337B61BB695B0C03F00F03022B24D158
:1043A000BA6947F6F0731340002B35D07B69196961
:1043B000BB691B099BB2C3F30A039BB21A46386A56
:1043C00002F060FA7B691A69BB691B09C3F30A032F
:1043D0001A447B691A617B691A6ABB691B09C3F3BA
:1043E0000A031A447B691A6216E0BB695B0C03F08E
:1043F0000F03062B10D17B6803F2C4430822194631
:10440000386A02F03FFA7B691A6ABB691B09C3F379
:104410000A031A447B691A627B681B689A697B6885
:104420001B6842F010029A617B681B68184602F014
:10443000BDFB034603F40023B3F5002F40F0A78033
:1044400000237B627B681B68184602F0C2FBB862DF
:1044500099E0BB6A03F00103002B00F08E807B68BB
:104460001B687A6AD2B21146184602F0E6FB386140
:104470003B6903F00103002B0CD07B6A5A01FB69F6
:10448000134403F530631A4601239360796A786810
:1044900000F0F0FE3B6903F00803002B0CD07B6AB0
:1044A0005A01FB69134403F530631A4608239360ED
:1044B000796A786800F0C6FF3B6903F01003002BAF
:1044C00008D07B6A5A01FB69134403F530631A462E
:1044D000102393603B6903F00203002B30D03B6A4A
:1044E0005B6903F08003802B09D1FB6903F500634E
:1044F0005B68FA6902F5006243F4806353607A6A8C
:104500001346DB0013449B0003F51E737A681344C3
:1045100004337B617B69DB78012B08D17B69002246
:10452000DA707B6ADBB21946786802F0E7FF7B6AD3
:104530005A01FB69134403F530631A460223936062
:104540003B6903F02003002B08D07B6A5A01FB690A
:10455000134403F530631A46202393603B6903F448
:104560000053002B09D07B6A5A01FB69134403F501
:1045700030631A464FF4005393607B6A01337B62C9
:10458000BB6A5B08BB62BB6A002B7FF462AF7B68CF
:104590001B68184602F00AFB034603F48023B3F5B8
:1045A000802F40F0DB807B681B68184602F02BFBF5
:1045B000B86200237B62CDE0BB6A03F00103002BED
:1045C00000F0C2807B681B687A6AD2B21146184636
:1045D00002F051FB38613B6903F00103002B57D017
:1045E0007B6A03F00F03012202FA03F3FB60FB690D
:1045F00003F500635A6BFB68DB43F96901F5006161
:1046000013404B637B6A5A01FB69134403F5106343
:104610001A46012393607B681B69012B32D17968AC
:104620007A6A1346DB0013449B000B444C33196831
:1046300078687A6A1346DB0013449B0003444833CE
:104640001B68194478687A6A1346DB0013449B00A0
:1046500003444C3319607B6A002B13D179687A6A62
:104660001346DB0013449B000B4454331B68002BA0
:1046700008D17B6818687B6803F2C4431A4601219D
:1046800002F058FB7B6ADBB21946786802F0B1FE93
:104690003B6903F00803002B08D07B6A5A01FB69D1
:1046A000134403F510631A46082393603B6903F033
:1046B0001003002B08D07B6A5A01FB69134403F5F1
:1046C00010631A46102393603B6903F04003002BEC
:1046D00008D07B6A5A01FB69134403F510631A463C
:1046E000402393603B6903F00203002B23D0796AD7
:1046F000386A01F039FA7A6A1346DB0013449B00EA
:1047000038337A68134404337B617B69DB78012B8F
:1047100008D17B690022DA707B6ADBB219467868BF
:1047200002F0FEFE7B6A5A01FB69134403F5106335
:104730001A46022393603B6903F08003002B03D0E9
:10474000796A786800F008FD7B6A01337B62BB6A96
:104750005B08BB62BB6A002B7FF42EAF7B681B68D3
:10476000184602F023FA034603F00043B3F1004F6A
:1047700022D1FB6903F500635B68FA6902F5006208
:1047800023F0010353607B6893F8F434012B08D1C4
:104790007B68002283F8F4240021786803F078F81D
:1047A00002E0786802F09CFE7B681B685A697B68AF
:1047B0001B6802F000425A617B681B68184602F0D1
:1047C000F5F9034603F40063B3F5006F12D1FB69FA
:1047D00003F500639B6803F00103012B02D17868A5
:1047E00002F058FE7B681B685A697B681B6802F4FC
:1047F00000625A617B681B68184602F0D7F90346CD
:1048000003F00063B3F1006F21D17B681B685A6924
:104810007B681B6802F000625A617B6893F8F4348D
:10482000002B11D17B68012283F8F4247B681B687C
:104830005B6D9B0803F00F027B68C3F8F82401212D
:10484000786803F025F802E0786802F023FE7B68C0
:104850001B68184602F0AAF9034603F48053B3F527
:10486000805F40F0B780FB6903F500635B68FA691D
:1048700002F5006223F0010353607B681B6810217E
:10488000184601F071F90023FB6246E0FB6A5A0109
:10489000FB69134403F510631A464FF67F339360A8
:1048A000FB6A5A01FB69134403F510631B68FA6A3B
:1048B0005101FA690A4402F5106223F400131360EF
:1048C000FB6A5A01FB69134403F530631A464FF63D
:1048D0007F339360FB6A5A01FB69134403F530632D
:1048E0001B68FA6A5101FA690A4402F5306223F43E
:1048F00000131360FB6A5A01FB69134403F530632C
:104900001B68FA6A5101FA690A4402F5306243F001
:1049100000631360FB6A0133FB627B685B68FA6AC1
:104920009A42B3D3FB6903F50063DB69FA6902F5C8
:10493000006243F00113D3617B681B6B002B16D020
:10494000FB6903F50063D3F88430FA6902F500626D
:1049500043F00B03C2F88430FB6903F500635B6C22
:10496000FA6902F5006243F00B03536415E0FB693A
:1049700003F500635B69FA6902F5006243F40053D2
:1049800043F02B035361FB6903F500631B69FA696C
:1049900002F5006243F00B031361FB6903F500634A
:1049A0001B68FA6902F5006223F4FE6313607B68FA
:1049B00018687B681B69D9B27B6803F2C4431A4646
:1049C00002F0B8F97B681B685A697B681B6802F4BF
:1049D00080525A617B681B68184602F0E7F803466C
:1049E00003F40053B3F5005F24D17B681B681846BD
:1049F00002F07DF97B681B68184601F032F9034626
:104A00001A467B68DA607B681C68FCF7BBFF0146CE
:104A10007B68DB68DBB21A46204600F037FE786818
:104A200002F00FFD7B681B685A697B681B6802F403
:104A300000525A617B681B68184602F0B7F80346BB
:104A400003F00803082B0AD1786802F0ECFC7B68BD
:104A50001B685A697B681B6802F008025A617B6810
:104A60001B68184602F0A2F8034603F08003802B6F
:104A700022D13B6A9B6923F080023B6A9A61012341
:104A80007B6214E079687A6A1346DB0013449B006A
:104A90000B4403F27F231B78012B05D17B6ADBB229
:104AA0001946786800F027FB7B6A01337B627B68DC
:104AB0005B687A6A9A42E5D37B681B68184602F005
:104AC00075F8034603F48013B3F5801F3BD101232F
:104AD0007B622BE07B6A5A01FB69134403F5106388
:104AE0001B68BB6179687A6A1346DB0013449B003C
:104AF0000B4440331B78012B15D1BB69002B12DA14
:104B000079687A6A1346DB0013449B000B443F33F9
:104B100001221A707B6ADBB263F07F03DBB21946B5
:104B2000786800F0E8FA7B6A01337B627B685B6837
:104B30007A6A9A42CED37B681B685A697B681B6885
:104B400002F480125A617B681B68184602F02EF846
:104B5000034603F40013B3F5001F55D101237B6214
:104B600045E07B6A5A01FB69134403F530631B6817
:104B7000BB6179687A6A1346DB0013449B000B44DF
:104B800003F520731B78012B2ED1BB69002B2BDA88
:104B9000BB6903F480327B68D3F8FC3403F0010373
:104BA0009A4221D179687A6A1346DB0013449B004C
:104BB0000B4403F27F2301221A703B6A9B6943F086
:104BC00080023B6A9A613B6A5B6903F08003002BB9
:104BD0000AD1FB6903F500635B68FA6902F50062BC
:104BE00043F40073536007E07B6A01337B627B68A8
:104BF0005B687A6A9A42B4D37B681B685A697B689F
:104C00001B6802F400125A617B681B68184601F0A9
:104C1000CDFF034603F08043B3F1804F0AD178689B
:104C200002F090FC7B681B685A697B681B6802F085
:104C300080425A617B681B68184601F0B7FF034643
:104C400003F00403042B15D17B681B685B68BB6110
:104C5000BB6903F00403002B02D0786802F080FCEB
:104C60007B681B6859687B681B68BA690A435A608D
:104C700000E000BF3437BD4690BD80B582B000AFC4
:104C800078600B46FB707B6893F8BC34012B01D134
:104C9000022313E07B68012283F8BC247B68FA7846
:104CA00083F838207B681B68FA781146184601F0B3
:104CB00015FF7B68002283F8BC24002318460837C0
:104CC000BD4680BD80B584B000AF7860084611460F
:104CD0001A460346FB700B463B801346BB7000230D
:104CE000FB7297F90330002B0FDAFB7803F00F0209
:104CF0001346DB0013449B0038337A6813440433B3
:104D0000FB60FB6801225A700FE0FB7803F00F0292
:104D10001346DB0013449B0003F51E737A681344AB
:104D20000433FB60FB6800225A70FB7803F00F032A
:104D3000DAB2FB681A703A88FB68DA60FB68BA7806
:104D40001A71FB685B78002B04D0FB681B789AB261
:104D5000FB681A81BB78022B02D1FB6800225A71D2
:104D60007B6893F8BC34012B01D102230EE07B68F1
:104D7000012283F8BC247B681B68F968184600F0A0
:104D800095FF7B68002283F8BC24FB7A1846103715
:104D9000BD4680BD80B584B000AF78600B46FB7027
:104DA00097F90330002B0FDAFB7803F00F0213465C
:104DB000DB0013449B0038337A6813440433FB60F0
:104DC000FB6801225A700FE0FB7803F00F021346D4
:104DD000DB0013449B0003F51E737A68134404330D
:104DE000FB60FB6800225A70FB7803F00F03DAB215
:104DF000FB681A707B6893F8BC34012B01D1022345
:104E00000EE07B68012283F8BC247B681B68F9688C
:104E1000184600F0D3FF7B68002283F8BC240023EF
:104E200018461037BD4680BD80B586B000AFF8602B
:104E30007A603B600B46FB72FB7A03F00F0213466D
:104E4000DB0013449B0003F51E73FA68134404331C
:104E50007B617B697A681A617B693A689A617B69D0
:104E600000221A627B6900225A70FB7A03F00F035A
:104E7000DAB27B691A70FB681B69012B02D17A6870
:104E80007B695A61FB7A03F00F03002B09D1FB68A1
:104E90001868FB681B69DBB21A46796901F0B2FA3F
:104EA00008E0FB681868FB681B69DBB21A46796981
:104EB00001F060F8002318461837BD4680BD80B465
:104EC00083B000AF78600B46FB70FB7803F00F02F5
:104ED00079681346DB0013449B000B4403F52773EA
:104EE0001B6818460C37BD465DF8047B704780B5DB
:104EF00086B000AFF8607A603B600B46FB72FB7ACD
:104F000003F00F021346DB0013449B003833FA68AA
:104F1000134404337B617B697A681A617B693A6860
:104F20009A617B6900221A627B6901225A70FB7ABE
:104F300003F00F03DAB27B691A70FB681B69012B5F
:104F400002D17A687B695A61FB7A03F00F03002B68
:104F500009D1FB681868FB681B69DBB21A467969DE
:104F600001F050FA08E0FB681868FB681B69DBB2C7
:104F70001A46796900F0FEFF002318461837BD462F
:104F800080BD80B584B000AF78600B46FB70FB78C5
:104F900003F00F027B685B689A4201D9012350E05D
:104FA00097F90330002B0FDAFB7803F00F0213465A
:104FB000DB0013449B0038337A6813440433FB60EE
:104FC000FB6801225A700DE0FA781346DB001344A7
:104FD0009B0003F51E737A6813440433FB60FB687F
:104FE00000225A70FB6801229A70FB7803F00F03CD
:104FF000DAB2FB681A707B6893F8BC34012B01D1DC
:1050000002231EE07B68012283F8BC247B681B68B6
:10501000F968184601F08EFCFB7803F00F03002BB3
:105020000AD17B6818687B681B69D9B27B6803F278
:10503000C4431A4601F07EFE7B68002283F8BC243C
:10504000002318461037BD4680BD80B584B000AF40
:1050500078600B46FB70FB7803F00F027B685B689F
:105060009A4201D9012342E097F90330002B0FDA6D
:10507000FB7803F00F021346DB0013449B00383328
:105080007A6813440433FB60FB6801225A700FE016
:10509000FB7803F00F021346DB0013449B0003F57B
:1050A0001E737A6813440433FB60FB6800225A7055
:1050B000FB6800229A70FB7803F00F03DAB2FB68FA
:1050C0001A707B6893F8BC34012B01D102230EE0E7
:1050D0007B68012283F8BC247B681B68F96818464A
:1050E00001F096FC7B68002283F8BC24002318465C
:1050F0001037BD4680BD80B584B000AF78600B46E8
:10510000FB7097F90330002B0CDAFB7803F00F02E9
:105110001346DB0013449B0038337A68134404338E
:10512000FB600CE0FB7803F00F021346DB00134436
:105130009B0003F51E737A6813440433FB607B689D
:105140001B68F968184601F0B5FA0346FB72FB7A52
:1051500018461037BD4680BD80B58AB002AF786072
:1051600039607B681B687B617B693B613A681346E9
:10517000DB0013449B0038337A6813440433FB602C
:10518000FB681A6AFB689B699A4201D901236CE0AB
:10519000FB689A69FB681B6AD31AFB61FB68DB68D2
:1051A000FA699A4202D9FB68DB68FB61FB69033349
:1051B0009B08BB612BE0FB689A69FB681B6AD31AEA
:1051C000FB61FB68DB68FA699A4202D9FB68DB681D
:1051D000FB61FB6903339B08BB61FB6819693B6892
:1051E000DAB2FB6998B27B681B69DBB200930346B5
:1051F000786901F009FBFB681A69FB691A44FB68CE
:105200001A61FB681A6AFB691A44FB681A623B68F8
:105210005A013B69134403F510639B699BB2BA6959
:105220009A4209D8FB681A6AFB689B699A4203D2C2
:10523000FB689B69002BBED1FB689A69FB681B6AFF
:105240009A4211D83B6803F00F03012202FA03F3DC
:10525000BB603B6903F500635A6BBB68DB4339698C
:1052600001F5006113404B63002318462037BD460B
:1052700080BD000080B588B000AF786039607B6881
:105280001B68FB61FB69BB61FB693C3304331B6832
:105290007B613B685A01BB69134403F530639B682B
:1052A0003B617B681B69012B7BD13B6903F00803E1
:1052B000002B15D07B69614A934240F2B9803B696B
:1052C00003F40043002B00F0B3803B685A01BB6934
:1052D000134403F530631A464FF400439360A7E08C
:1052E0003B6903F02003002B09D03B685A01BB69DE
:1052F000134403F530631A462023936098E03B691A
:1053000003F02803002B40F093807B694B4A9342C3
:105310000FD93B6903F40043002B0AD03B685A01C4
:10532000BB69134403F530631A464FF4004393609E
:105330007EE03A681346DB0013449B0003F51E73BE
:105340007A6813440433FB60FB68DA693B685901EF
:10535000BB690B4403F530631B69C3F31203D21A14
:10536000FB681A623B68002B14D1FB689B69002B19
:1053700009D17B6818687B6803F2C4431A4601218F
:1053800001F0D8FC06E0FB681A69FB681B6A1A4446
:10539000FB681A613B68DBB21946786802F00EF8C8
:1053A00046E07B69264A934224D13B6903F40043DB
:1053B000002B0AD03B685A01BB69134403F53063E4
:1053C0001A464FF40043936032E03B6903F0200338
:1053D000002B08D03B685A01BB69134403F53063C6
:1053E0001A46202393603B68DBB21946786801F0C7
:1053F000E5FF1DE03B68002B14D179683A6813463D
:10540000DB0013449B000B4403F525731B68002B42
:1054100008D17B6818687B6803F2C4431A460021F0
:1054200001F088FC3B68DBB21946786801F0C6FFE2
:10543000002318462037BD4680BD00BF0A30544FB8
:105440000A31544F80B586B000AF786039607B6810
:105450001B687B617B693B617B693C3304331B6860
:10546000FB603B685A013B69134403F530639B685A
:10547000BB60FB68154A93420ED9BB6803F4004336
:10548000002B09D03B685A013B69134403F5306394
:105490001A464FF400439360786801F07DFFFB6883
:1054A0000A4A93420CD97B681B69012B08D17B689F
:1054B00018687B6803F2C4431A46012101F03AFCE4
:1054C000002318461837BD4680BD00BF0A30544F30
:1054D00080B485B000AF78600B46FB7013463B800C
:1054E0007B681B685B6ABB60FB78002B07D13B883D
:1054F00019047B681B68BA680A439A6228E07B68D3
:105500001B689B6A1B0CBA681344BB600023FB73C7
:105510000DE07B681A68FB7B40339B0013445B689B
:105520001B0CBA681344BB60FB7B0133FB73FA7B33
:10553000FB78013B9A42ECD33B8818047B681968DE
:10554000FB78013BBA68024340339B000B445A602E
:10555000002318461437BD465DF8047B704780B4BD
:1055600083B000AF78600B467B807B681B687A88CD
:105570005A62002318460C37BD465DF8047B70471D
:1055800080B485B000AF78607B681B68FB607B6887
:105590000122C3F800257B68002283F8F424FB680D
:1055A0009B6943F00062FB689A61FB685B6D43F0A6
:1055B000805343F00303FA685365002318461437F9
:1055C000BD465DF8047B704784B080B584B000AF01
:1055D000786007F11C0080E80E003B6B012B22D1A4
:1055E0007B689B6B23F480327B689A637B68DB6803
:1055F00023F4840323F040037A68D3607B68DB687C
:1056000023F440127B68DA60FB6C012B05D17B68C8
:10561000DB6843F480127B68DA60786801F0E8FBAD
:105620000346FB731AE07B68DB6843F040027B684B
:10563000DA60786801F0DCFB0346FB733B6C002BFF
:1056400006D17B689B6B43F480327B689A6305E0EC
:105650007B689B6B23F480327B689A63BB6A012B67
:105660000BD17B689B6843F006027B689A607B687D
:105670009B6843F020027B689A60FB7B18461037DA
:10568000BD46BDE8804004B07047000080B487B0DC
:1056900000AFF860B9601346FB71FB79022B65D14E
:1056A000BB68414A934206D9BB68404A934202D242
:1056B0000F237B6162E0BB683C4A934206D3BB6820
:1056C0003B4A934202D20E237B6157E0BB68384AC3
:1056D000934206D3BB68374A934202D20D237B61C3
:1056E0004CE0BB68334A934206D3BB68324A9342CC
:1056F00002D80C237B6141E0BB682F4A934206D954
:10570000BB682E4A934202D80B237B6136E0BB680C
:105710002A4A934206D9BB68294A934202D80A23EF
:105720007B612BE0BB68264A934206D9BB68254AB9
:10573000934202D209237B6120E0BB68214A934255
:1057400006D3BB68204A934202D808237B6115E048
:10575000BB681D4A934206D9BB681C4A934202D2D9
:1057600007237B610AE006237B6107E0FB79002BBE
:1057700002D109237B6101E009237B61FB68DB68BF
:1057800023F47052FB68DA60FB68DA687B699B027D
:1057900003F470531A43FB68DA60002318461C3781
:1057A000BD465DF8047B7047BFACD800C0E1E400A3
:1057B0000024F400807306019F491A01FF2C310177
:1057C0003FA44C0100366E011FABA6010048E80162
:1057D00080B483B000AF78607B689B6843F00102BF
:1057E0007B689A60002318460C37BD465DF8047B41
:1057F000704780B483B000AF78607B689B6823F00B
:1058000001027B689A60002318460C37BD465DF89C
:10581000047B704780B584B000AF78600B46FB70A6
:105820000023FB607B68DB6823F0C0427B68DA60A2
:10583000FB78012B15D17B68DB6843F000527B6855
:10584000DA600120FDF70AFCFB680133FB60786831
:1058500001F03FFA0346012B1ED0FB68312BF0D933
:105860001AE0FB78002B15D17B68DB6843F080429F
:105870007B68DA600120FDF7F1FBFB680133FB6018
:10588000786801F026FA0346002B05D0FB68312B1F
:10589000F0D901E0012305E0FB68322B01D101239F
:1058A00000E0002318461037BD4680BD84B080B5A7
:1058B00086B000AF786007F1240080E80E00002376
:1058C000FB757B68FB6000233B6109E07A683B69FC
:1058D00040339B00134400225A603B6901333B6113
:1058E0003B690E2BF2D9FB6C002B1CD1FB6803F536
:1058F00000635B68FA6802F5006243F002035360DC
:105900007B689B6B23F400127B689A637B681B683F
:1059100043F040027B681A607B681B6843F080029A
:105920007B681A6005E07B689B6B43F400127B6820
:105930009A63FB6803F560631A4600231360FB68F3
:1059400003F500631946FB6803F500631A460B680C
:105950001360BB6B012B0CD1FB6A002B04D100211F
:10596000786800F065F908E00121786800F060F9D6
:1059700003E00321786800F05BF91021786800F0FB
:10598000F3F80346002B01D00123FB75786800F083
:105990001FF90346002B01D00123FB75FB6803F5BB
:1059A00000631A4600231361FB6803F500631A467F
:1059B00000235361FB6803F500631A460023D3619B
:1059C00000233B6143E03B695A01FB68134403F544
:1059D00010631B6803F00043B3F1004F18D13B691B
:1059E000002B0AD13B695A01FB68134403F510638D
:1059F0001A464FF00063136013E03B695A01FB68DD
:105A0000134403F510631A464FF09043136008E007
:105A10003B695A01FB68134403F510631A460023DF
:105A200013603B695A01FB68134403F510631A467F
:105A3000002313613B695A01FB68134403F51063AB
:105A40001A464FF67F3393603B6901333B617B6AB3
:105A50003A699A42B7D300233B6143E03B695A015C
:105A6000FB68134403F530631B6803F00043B3F194
:105A7000004F18D13B69002B0AD13B695A01FB68E2
:105A8000134403F530631A464FF00063136013E0CC
:105A90003B695A01FB68134403F530631A464FF023
:105AA0009043136008E03B695A01FB68134403F517
:105AB00030631A46002313603B695A01FB681344A4
:105AC00003F530631A46002313613B695A01FB68F2
:105AD000134403F530631A464FF67F3393603B69F6
