:020000040800F2
:10000000000002207DE200089317000899170008FD
:100010009F170008A5170008AB1700080000000094
:1000200000000000000000000000000051DD00089A
:10003000B117000800000000A1DF000889D4000803
:10004000CDE20008CDE20008CDE20008CDE20008D4
:10005000CDE20008CDE20008CDE20008CDE20008C4
:10006000CDE20008CDE20008CDE20008CDE20008B4
:10007000CDE20008CDE20008CDE20008CDE20008A4
:10008000CDE20008CDE20008C1170008DD17000826
:10009000F117000805180008CDE20008CDE20008BD
:1000A000CDE2000819180008CDE20008CDE20008F2
:1000B000CDE20008CDE20008CDE20008CDE2000864
:1000C000CDE20008CDE20008CDE20008CDE2000854
:1000D000CDE20008CDE20008CDE20008CDE2000844
:1000E000CDE20008CDE20008CDE20008CDE2000834
:1000F000CDE20008CDE20008CDE20008CDE2000824
:10010000CDE20008CDE20008CDE20008CDE2000813
:10011000CDE20008CDE20008CDE20008CDE2000803
:100120002D180008CDE2000841180008CDE20008B3
:10013000CDE200080000000000000000CDE2000851
:10014000CDE20008CDE20008CDE200085518000815
:10015000CDE20008CDE20008CDE20008CDE20008C3
:10016000CDE20008CDE20008CDE20008CDE20008B3
:10017000CDE20008CDE20008CDE20008000000005A
:1001800000000000CDE200080000000000000000B8
:10019000CDE200080000000000000000CDE20008F1
:1001A000000000000000000000000000CDE2000898
:1001B000CDE20008CDE20008CDE20008CDE2000863
:0401C000CDE2000884
:1001D00010B5054C237833B9044B13B10448AFF381
:1001E00000800123237010BDE00200200000000009
:1001F000500F010808B5034B1BB103490348AFF387
:10020000008008BD00000000E4020020500F01083B
:10021000034613F8012B002AFBD1181A0138704746
:1002200001F0FF01102A2BDB10F0070F08D010F8A7
:10023000013B013A8B422DD010F0070F42B3F6D1AB
:10024000F0B441EA012141EA014122F007047FF0C4
:1002500000070023F0E80256083C85EA010586EA1B
:10026000010685FA47F5A3FA87F586FA47F6A5FA57
:1002700087F68EB9EED1F0BC01F0FF0102F0070263
:1002800032B110F8013B013A83EA010313B1F8D10E
:100290000020704701387047002D06BF35460338EF
:1002A000073815F0010F07D1013015F4807F02BF28
:1002B000013015F4C03F0130F0BC0138704700BF79
:1002C00081F0004102E000BF83F0004330B54FEA07
:1002D00041044FEA430594EA050F08BF90EA020F74
:1002E0001FBF54EA000C55EA020C7FEA645C7FEA07
:1002F000655C00F0E2804FEA5454D4EB5555B8BF2A
:100300006D420CDD2C4480EA020281EA030382EA9A
:10031000000083EA010180EA020281EA0303362D2C
:1003200088BF30BD11F0004F4FEA01314FF4801CFF
:100330004CEA113102D0404261EB410113F0004F11
:100340004FEA03334CEA133302D0524263EB4303C8
:1003500094EA050F00F0A780A4F10104D5F1200E66
:100360000DDB02FA0EFC22FA05F2801841F10001C1
:1003700003FA0EF2801843FA05F359410EE0A5F195
:1003800020050EF1200E012A03FA0EFC28BF4CF0C6
:10039000020C43FA05F3C01851EBE37101F000457C
:1003A00007D54FF0000EDCF1000C7EEB00006EEB89
:1003B0000101B1F5801F1BD3B1F5001F0CD3490813
:1003C0005FEA30004FEA3C0C04F101044FEA44526A
:1003D00012F5800F80F09A80BCF1004F08BF5FEAF1
:1003E000500C50F1000041EB045141EA050130BDD1
:1003F0005FEA4C0C404141EB0101013C28BFB1F5E3
:10040000801FE9D291F0000F04BF01460020B1FA2D
:1004100081F308BF2033A3F10B03B3F120020CDA00
:100420000C3208DD02F1140CC2F10C0201FA0CF0DE
:1004300021FA02F10CE002F11402D8BFC2F1200C43
:1004400001FA02F120FA0CFCDCBF41EA0C019040F9
:10045000E41AA2BF01EB0451294330BD6FEA040442
:100460001F3C1CDA0C340EDC04F11404C4F120022D
:1004700020FA04F001FA02F340EA030021FA04F33F
:1004800045EA030130BDC4F10C04C4F1200220FA96
:1004900002F001FA04F340EA0300294630BD21FAD4
:1004A00004F0294630BD94F0000F83F4801306BF9A
:1004B00081F480110134013D4EE77FEA645C18BF8E
:1004C0007FEA655C29D094EA050F08BF90EA020F25
:1004D00005D054EA000C04BF1946104630BD91EA1D
:1004E000030F1EBF0021002030BD5FEA545C05D120
:1004F0004000494128BF41F0004130BD14F580045F
:100500003CBF01F5801130BD01F0004545F0FE41D2
:1005100041F470014FF0000030BD7FEA645C1ABF07
:10052000194610467FEA655C1CBF0B46024650EA3E
:10053000013406BF52EA033591EA030F41F400216A
:1005400030BD00BF90F0000F04BF0021704730B5F0
:100550004FF4806404F132044FF000054FF00001C5
:1005600050E700BF90F0000F04BF0021704730B586
:100570004FF4806404F1320410F0004548BF40425B
:100580004FF000013EE700BF42004FEAE2014FEAB0
:1005900031014FEA02701FBF12F07F4393F07F4F8B
:1005A00081F06051704732F07F4208BF704793F08E
:1005B0007F4F04BF41F40021704730B54FF46074A1
:1005C00001F0004521F000411CE700BF50EA0102A4
:1005D00008BF704730B54FF000050AE050EA01024D
:1005E00008BF704730B511F0004502D5404261EBBD
:1005F00041014FF4806404F132045FEA915C3FF4FE
:10060000D8AE4FF003025FEADC0C18BF03325FEA9A
:10061000DC0C18BF033202EBDC02C2F1200300FA4B
:1006200003FC20FA02F001FA03FE40EA0E0021FA70
:1006300002F11444BDE600BF70B54FF0FF0C4CF45E
:10064000E06C1CEA11541DBF1CEA135594EA0C0F10
:1006500095EA0C0F00F0DEF82C4481EA030621EA4B
:100660004C5123EA4C5350EA013518BF52EA033586
:1006700041F4801143F4801338D0A0FB02CE4FF038
:100680000005E1FB02E506F00042E0FB03E54FF068
:100690000006E1FB03569CF0000F18BF4EF0010E60
:1006A000A4F1FF04B6F5007F64F5407404D25FEA5C
:1006B0004E0E6D4146EB060642EAC62141EA55510F
:1006C0004FEAC52040EA5E504FEACE2EB4F1FD0C51
:1006D00088BFBCF5E06F1ED8BEF1004F08BF5FEACF
:1006E000500E50F1000041EB045170BD06F0004681
:1006F00046EA010140EA020081EA0301B4EB5C042E
:10070000C2BFD4EB0C0541EA045170BD41F4801125
:100710004FF0000E013C00F3AB8014F1360FDEBF4A
:10072000002001F0004170BDC4F10004203C35DA26
:100730000C341BDC04F11404C4F1200500FA05F3A9
:1007400020FA04F001FA05F240EA020001F000424A
:1007500021F0004110EBD37021FA04F642EB0601C0
:100760005EEA430E08BF20EAD37070BDC4F10C04EA
:10077000C4F1200500FA04F320FA05F001FA04F2AE
:1007800040EA020001F0004110EBD37041F100019A
:100790005EEA430E08BF20EAD37070BDC4F12005A5
:1007A00000FA05F24EEA020E20FA04F301FA05F20D
:1007B00043EA020321FA04F001F0004121FA04F2B5
:1007C00020EA020000EBD3705EEA430E08BF20EA85
:1007D000D37070BD94F0000F0FD101F000464000BF
:1007E00041EB010111F4801F08BF013CF7D041EA41
:1007F000060195F0000F18BF704703F00046520045
:1008000043EB030313F4801F08BF013DF7D043EA15
:100810000603704794EA0C0F0CEA135518BF95EACB
:100820000C0F0CD050EA410618BF52EA4306D1D152
:1008300081EA030101F000414FF0000070BD50EA71
:10084000410606BF1046194652EA430619D094EAFB
:100850000C0F02D150EA013613D195EA0C0F05D1E5
:1008600052EA03361CBF104619460AD181EA030139
:1008700001F0004141F0FE4141F470014FF00000F1
:1008800070BD41F0FE4141F4780170BD70B54FF08C
:10089000FF0C4CF4E06C1CEA11541DBF1CEA13550C
:1008A00094EA0C0F95EA0C0F00F0A7F8A4EB0504EE
:1008B00081EA030E52EA03354FEA013100F08880E5
:1008C0004FEA03334FF0805545EA131343EA1263AE
:1008D0004FEA022245EA111545EA10654FEA002663
:1008E0000EF000419D4208BF964244F1FD0404F51C
:1008F000407402D25B084FEA3202B61A65EB030578
:100900005B084FEA32024FF480104FF4002CB6EB34
:10091000020E75EB030E22BFB61A754640EA0C00B4
:100920005B084FEA3202B6EB020E75EB030E22BFF4
:10093000B61A754640EA5C005B084FEA3202B6EB35
:10094000020E75EB030E22BFB61A754640EA9C00F4
:100950005B084FEA3202B6EB020E75EB030E22BFC4
:10096000B61A754640EADC0055EA060E18D04FEA82
:10097000051545EA16754FEA06164FEAC30343EA22
:1009800052734FEAC2025FEA1C1CC0D111F4801FEF
:100990000BD141EA00014FF000004FF0004CB6E7E8
:1009A00011F4801F04BF01430020B4F1FD0C88BF87
:1009B000BCF5E06F3FF6AFAEB5EB030C04BFB6EB92
:1009C000020C5FEA500C50F1000041EB045170BD85
:1009D0000EF0004E4EEA113114EB5C04C2BFD4EBB2
:1009E0000C0541EA045170BD41F480114FF0000E36
:1009F000013C90E645EA060E8DE60CEA135594EAB2
:100A00000C0F08BF95EA0C0F3FF43BAF94EA0C0FB4
:100A10000AD150EA01347FF434AF95EA0C0F7FF429
:100A200025AF104619462CE795EA0C0F06D152EA7D
:100A300003353FF4FDAE1046194622E750EA410661
:100A400018BF52EA43067FF4C5AE50EA41047FF472
:100A50000DAF52EA43057FF4EBAE12E74FF0FF3CD7
:100A600006E000BF4FF0010C02E000BF4FF0010CA8
:100A70004DF804CD4FEA410C7FEA6C5C4FEA430C21
:100A800018BF7FEA6C5C1BD001B050EA410C0CBF70
:100A900052EA430C91EA030F02BF90EA020F0020D2
:100AA000704710F1000F91EA030F58BF994208BF39
:100AB00090422CBFD8176FEAE37040F001007047F6
:100AC0004FEA410C7FEA6C5C02D150EA013C07D14D
:100AD0004FEA430C7FEA6C5CD6D152EA033CD3D098
:100AE0005DF8040B704700BF8446104662468C4692
:100AF0001946634600E000BF01B5FFF7B7FF0028C5
:100B000048BF10F1000F01BD4DF808EDFFF7F4FFED
:100B10000CBF012000205DF808FB00BF4DF808ED78
:100B2000FFF7EAFF34BF012000205DF808FB00BF9B
:100B30004DF808EDFFF7E0FF94BF012000205DF8BD
:100B400008FB00BF4DF808EDFFF7CEFF94BF012072
:100B500000205DF808FB00BF4DF808EDFFF7C4FF6B
:100B600034BF012000205DF808FB00BF4FEA410CB4
:100B70007FEA6C5C02D150EA013C0AD14FEA430C97
:100B80007FEA6C5C02D152EA033C02D14FF00000D4
:100B900070474FF0010070474FEA410212F5001212
:100BA00015D211D56FF47873B3EB625212D94FEAB4
:100BB000C12343F0004343EA505311F0004F23FA9E
:100BC00002F018BF404270474FF00000704750EAF3
:100BD000013005D111F0004008BF6FF000407047B0
:100BE0004FF00000704700BF53B94AB9002908BF51
:100BF00000281CBF4FF0FF314FF0FF3000F074B9F8
:100C0000ADF1080C6DE904CE00F006F8DDF804E063
:100C1000DDE9022304B070472DE9F047089D044642
:100C20008E46002B4DD18A42944669D9B2FA82F29F
:100C300052B101FA02F3C2F1200120FA01F10CFADB
:100C400002FC41EA030E94404FEA1C48210CBEFB13
:100C5000F8F61FFA8CF708FB16E341EA034306FB9C
:100C600007F199420AD91CEB030306F1FF3080F02B
:100C70001F81994240F21C81023E63445B1AA4B278
:100C8000B3FBF8F008FB103344EA034400FB07F71A
:100C9000A7420AD91CEB040400F1FF3380F00A815B
:100CA000A74240F207816444023840EA0640E41B50
:100CB00000261DB1D4400023C5E900433146BDE8FC
:100CC000F0878B4209D9002D00F0EF800026C5E99E
:100CD000000130463146BDE8F087B3FA83F6002EB6
:100CE0004AD18B4202D3824200F2F980841A61EB2E
:100CF000030301209E46002DE0D0C5E9004EDDE74C
:100D000002B9FFDEB2FA82F2002A40F09280A1EB33
:100D10000C014FEA1C471FFA8CFE0126200CB1FB88
:100D2000F7F307FB131140EA01410EFB03F0884281
:100D300008D91CEB010103F1FF3802D2884200F20E
:100D4000CB804346091AA4B2B1FBF7F007FB1011A0
:100D500044EA01440EFB00FEA64508D91CEB04043E
:100D600000F1FF3102D2A64500F2BB800846A4EB99
:100D70000E0440EA03409CE7C6F12007B34022FA84
:100D800007FC4CEA030C20FA07F401FA06F31C43B3
:100D9000F9404FEA1C4900FA06F3B1FBF9F8200CC0
:100DA0001FFA8CFE09FB181140EA014108FB0EF006
:100DB000884202FA06F20BD91CEB010108F1FF3A56
:100DC00080F08880884240F28580A8F10208614462
:100DD000091AA4B2B1FBF9F009FB101144EA014170
:100DE00000FB0EFE8E4508D91CEB010100F1FF341B
:100DF0006CD28E456AD90238614440EA0840A0FBB3
:100E00000294A1EB0E01A142C846A64656D353D088
:100E10005DB1B3EB080261EB0E0101FA07F722FAAC
:100E200006F3F1401F43C5E9007100263146BDE8D5
:100E3000F087C2F12003D8400CFA02FC21FA03F338
:100E4000914001434FEA1C471FFA8CFEB3FBF7F0B9
:100E500007FB10360B0C43EA064300FB0EF69E42DE
:100E600004FA02F408D91CEB030300F1FF382FD277
:100E70009E422DD9023863449B1B89B2B3FBF7F61F
:100E800007FB163341EA034106FB0EF38B4208D9F8
:100E90001CEB010106F1FF3816D28B4214D9023E39
:100EA0006144C91A46EA004638E72E46284605E757
:100EB0000646E3E61846F8E64B45A9D2B9EB020828
:100EC00064EB0C0E0138A3E74646EAE7204694E7B8
:100ED0004046D1E7D0467BE7023B614432E73046EB
:100EE00009E76444023842E7704700BF80B584B028
:100EF00000AFF860B9607A607B689BB21946B86849
:100F000007F0B6FC7B6818461037BD4680BD000070
:100F100080B582B000AF7860074B084A002178683E
:100F200003F0B6FD064B1B6818460CF049FC00BFE9
:100F30000837BD4680BD00BF641800204818002057
:100F40002018002080B582B000AF7860074B084AB7
:100F50000121786803F09CFD064B1B6818460CF0D5
:100F60002FFC00BF0837BD4680BD00BF64180020BD
:100F7000481800202018002080B483B000AF7860AB
:100F800000BF0C37BD465DF8047B704780B483B06A
:100F900000AF786000BF0C37BD465DF8047B70473A
:100FA00080B483B000AF786000BF0C37BD465DF8F9
:100FB000047B704780B582B000AF7860074B5B88D8
:100FC0009BB21A46064B1A6003220449054800F0FA
:100FD0004DFF00BF0837BD4680BD00BF4018002050
:100FE00028180020FC02002080B500AF03F00EFBA3
:100FF00000F046F800F028FA00F0FEF900F09AF947
:1010000000F0BCF800F028F90CF058FA114A002161
:1010100001200CF04BFB03460F4A13600F4A0021DE
:101020000F480CF095FA03460E4A13600E4A002151
:101030000E480CF08DFA03460D4A13600D4A00214C
:101040000D480CF085FA03460C4A13600CF05AFA6E
:10105000FEE700BFD010010820180020641001082E
:10106000D91500087404002088100108C91600086A
:10107000000B0020AC100108D916000890110020C8
:1010800080B594B000AF07F11C033422002118464C
:101090000DF056F907F1080300221A605A609A60B1
:1010A000DA601A6100237B60324B1B6C314A43F0DB
:1010B000805313642F4B1B6C03F080537B607B6861
:1010C00000233B602C4B1B682B4A43F440431360C6
:1010D000294B1B6803F440433B603B680123FB61E1
:1010E0004FF4A0233B6202237B634FF48003BB6376
:1010F0000423FB63B4233B6402237B640523BB64AA
:101100000223FB6407F11C03184602F091F9034621
:10111000002B01D000F038FB03F046F90346002B0A
:1011200001D000F031FB0F23BB600223FB600023E2
:101130003B614FF4A0537B614FF48053BB6107F1D7
:1011400008030521184601F079FA0346002B01D067
:1011500000F01AFB00224FF48001002001F054FB44
:101160004FF0E0620021012001F04EFB00BF50373C
:10117000BD4680BD003802400070004080B584B09C
:1011800000AF3B4600221A605A609A60DA602F4B2B
:101190002F4A1A602D4B4FF480325A602B4B00229D
:1011A0009A602A4B01221A61284B00221A76274B9B
:1011B000002283F82020254B0022DA62234B254AA7
:1011C0009A62224B0022DA60204B0322DA611F4B25
:1011D000002283F830201D4B00225A611B4800F08A
:1011E000F1FC0346002B01D000F0CEFA04233B6053
:1011F00001237B600723BB603B461946134800F080
:1012000063FF0346002B01D000F0BEFA06233B60CB
:1012100002237B603B4619460C4800F055FF03460D
:10122000002B01D000F0B0FA0F233B6003237B605A
:101230003B461946054800F047FF0346002B01D006
:1012400000F0A2FA00BF1037BD4680BDFC020020AE
:10125000002001400100000F80B584B000AF3B4684
:1012600000221A605A609A60DA602F4B2F4A1A6087
:101270002D4B4FF480325A602B4B00229A602A4B40
:1012800001221A61284B01221A76274B002283F88B
:101290002020254B0022DA62234B254A9A62224BFA
:1012A0000022DA60204B0322DA611F4B002283F810
:1012B00030201D4B01225A611B4800F083FC03467D
:1012C000002B01D000F060FA05233B6001237B6016
:1012D0000023BB603B461946134800F0F5FE034669
:1012E000002B01D000F050FA07233B6002237B6003
:1012F0003B4619460C4800F0E7FE0346002B01D0A0
:1013000000F042FA0E233B6003237B603B46194604
:10131000054800F0D9FE0346002B01D000F034FA56
:1013200000BF1037BD4680BD4403002000210140AE
:101330000100000F80B58AB000AF2D4B2D4A1A6016
:101340002B4B0F225A602A4B4FF080429A60284B59
:101350000022DA60264B00221A61254B00225A61D6
:10136000234B00221A76224B00225A76204B002271
:101370009A761F4B0022DA761D4B00221A771C4BFF
:1013800000225A771A4803F0A7F90346002B01D030
:1013900000F0FAF90121164803F08CFC02211448F0
:1013A00003F088FC1021124803F084FC4FF4005332
:1013B0003B604FF46043BB6000237B600023FB6015
:1013C00000233B6100237B610023BB610123FB61A0
:1013D00001233B623B461946054803F079FA034670
:1013E000002B01D000F0D0F900BF2837BD4680BDEA
:1013F0004C0400200064004080B582B000AF0023A0
:101400007B60104B1B6B0F4A43F4800313630D4B3F
:101410001B6B03F480037B607B680022052138206E
:1014200003F0CAF8382003F0E3F8002205213A203F
:1014300003F0C2F83A2003F0DBF800BF0837BD46DE
:1014400080BD00BF0038024080B58AB000AF07F110
:10145000140300221A605A609A60DA601A6100234D
:101460003B61584B1B6B574A43F004031363554BC6
:101470001B6B03F004033B613B690023FB60514B92
:101480001B6B504A43F0800313634E4B1B6B03F0FE
:101490008003FB60FB680023BB604A4B1B6B494A1F
:1014A00043F001031363474B1B6B03F00103BB6065
:1014B000BB6800237B60434B1B6B424A43F0020333
:1014C0001363404B1B6B03F002037B607B680023BC
:1014D0003B603C4B1B6B3B4A43F008031363394BA7
:1014E0001B6B03F008033B603B6800224FF287410F
:1014F000354802F0CFFB4FF6CF537B610323BB612E
:101500000023FB6107F114031946304802F02EFA5C
:1015100048F20F637B610323BB610023FB6107F18A
:10152000140319462A4802F021FA4FF287437B61DF
:101530000123BB610023FB6100233B6207F114031D
:101540001946214802F012FA4FF400737B6102231E
:10155000BB610023FB6100233B6200237B6207F138
:1015600014031946194802F001FA4FF480737B61A5
:101570000223BB610023FB6100233B6200237B62EB
:1015800007F114031946124802F0F0F904237B61B5
:101590000323BB610023FB6107F1140319460D48C7
:1015A00002F0E4F978237B610323BB610023FB6134
:1015B00007F114031946044802F0D8F900BF283790
:1015C000BD4680BD003802400004024000080240D1
:1015D00000000240000C024080B582B000AF78608D
:1015E00006F066FF324B00221A70314B1B780D2B30
:1015F00058D801A252F823F031160008A5160008A9
:1016000065160008A5160008A5160008A51600080E
:1016100045160008A5160008A5160008A51600081E
:10162000A5160008A5160008A516000885160008CE
:1016300000224FF207411F4802F02CFB1E480DF01C
:1016400077FB2FE000224CF204411A4802F022FB03
:10165000012243F20301174802F01CFB17480DF06A
:1016600067FB1FE000224DF20541124802F012FB19
:10167000012242F202010F4802F00CFB10480DF06B
:1016800057FB0FE0002242F202010A4802F002FB7F
:1016900001224DF20541074802F0FCFA09480DF01D
:1016A00047FB00BF42F210700BF0E5FF9DE700BF63
:1016B0002418002000040240980F0108B00F010810
:1016C000C80F0108E00F010880B582B000AF786054
:1016D00001200BF0D0FFFBE780B584B000AF78604D
:1016E000184B00221A80174B00225A80154B0022FB
:1016F0009A8003221349144800F0B8FB134B1B686F
:1017000007EE903AF8EE677A9FED117A67EE877AE6
:10171000DFED106A87EEA67ADFED0F6AC7EE267A54
:101720009FED0E7A67EE877AFCEEE77A17EE903A35
:10173000FB60F9680A480DF075FA0A200BF09BFF70
:10174000DCE700BF40180020FC0200202818002021
:101750003333534000008045D122DB3D00007A4402
:10176000F40F010880B582B000AF78607B681B6819
:10177000044A934201D102F06BFF00BF0837BD4617
:1017800080BD00BF0000014080B400AF72B600BF52
:10179000FEE780B400AFFEE780B400AFFEE780B4A0
:1017A00000AFFEE780B400AFFEE780B400AFFEE715
:1017B00080B400AF00BFBD465DF8047B70470000F9
:1017C00080B500AF034800F040FA034800F03DFA4E
:1017D00000BF80BDFC0200204403002080B500AFA4
:1017E000024803F08DFA00BF80BD00BF4C0400200A
:1017F00080B500AF024803F083FA00BF80BD00BF90
:101800004C04002080B500AF024803F079FA00BF15
:1018100080BD00BF4C04002080B500AF024803F03B
:101820003FFD00BF80BD00BF7C34002080B500AF0D
:10183000024802F04FFB00BF80BD00BF8C030020B8
:1018400080B500AF024802F045FB00BF80BD00BF7D
:10185000EC03002080B500AF024804F05CF800BF44
:1018600080BD00BF4C2D002080B582B000AF0023AA
:101870007B60124B5B6C114A43F4804353640F4B03
:101880005B6C03F480437B607B6800233B600B4B05
:101890001B6C0A4A43F080531364084B1B6C03F023
:1018A00080533B603B6800220F216FF0010002F083
:1018B00083FE00BF0837BD4680BD00BF0038024030
:1018C00080B58EB000AF786007F1240300221A6063
:1018D0005A609A60DA601A617B681B68804A93429A
:1018E0007AD100233B627F4B5B6C7E4A43F480736A
:1018F00053647C4B5B6C03F480733B623B6A002354
:10190000FB61784B1B6B774A43F001031363754B04
:101910001B6B03F00103FB61FB690023BB61714B8F
:101920001B6B704A43F0040313636E4B1B6B03F095
:101930000403BB61BB6950237B620323BB620023AA
:10194000FB6207F124031946674802F00FF82023D1
:101950007B620323BB620023FB6207F12403194669
:10196000624802F003F8624B624A1A60604B002240
:101970005A605F4B00229A605D4B0022DA605C4B3C
:101980004FF480621A615A4B4FF400625A61584B0F
:101990004FF400529A61564B4FF48072DA61544B07
:1019A00000221A62524B00225A62514802F08CF90E
:1019B0000346002B01D0FFF7E7FE7B684C4A9A6391
:1019C0004B4A7B68936300220521122002F0F4FD4C
:1019D000122002F00DFE7FE07B681B68464A9342AE
:1019E0007AD100237B613F4B5B6C3E4A43F400732A
:1019F00053643C4B5B6C03F400737B617B69002395
:101A00003B61384B1B6B374A43F001031363354B83
:101A10001B6B03F001033B613B690023FB60314B0F
:101A20001B6B304A43F0040313632E4B1B6B03F014
:101A30000403FB60FB68A0237B620323BB620023DB
:101A4000FB6207F124031946274801F08FFF10239A
:101A50007B620323BB620023FB6207F12403194668
:101A6000224801F083FF254B254A1A60234B4FF093
:101A700000725A60214B00229A60204B0022DA60EB
:101A80001E4B4FF480621A611C4B4FF400625A6186
:101A90001A4B4FF400529A61184B4FF48072DA617E
:101AA000164B00221A62154B00225A62134802F0AC
:101AB0000BF90346002B01D0FFF766FE7B680F4A47
:101AC0009A630E4A7B68936300220521122002F07C
:101AD00073FD122002F08CFD00BF3837BD4680BD7B
:101AE000002001400038024000000240000802408F
:101AF0008C0300201064024000210140EC03002010
:101B00004064024080B58AB000AF786007F11403EA
:101B100000221A605A609A60DA601A617B681B685A
:101B2000254A934244D100233B61244B1B6C234A3A
:101B300043F000731364214B1B6C03F000733B6193
:101B40003B690023FB601D4B1B6B1C4A43F00203E7
:101B500013631A4B1B6B03F00203FB60FB684FF42B
:101B600040737B610223BB610023FB6103233B6263
:101B700009237B6207F114031946114801F0F6FEB0
:101B800000220521132002F017FD132002F030FD82
:101B900000220521142002F00FFD142002F028FD80
:101BA00000220521152002F007FD152002F020FD7E
:101BB00000BF2837BD4680BD0064004000380240A9
:101BC0000004024080B584B000AF78600023FB734E
:101BD0007B68002B01D1012333E07B681B6C002B59
:101BE00009D17868FFF76CFE7B6800225A647B6835
:101BF000002283F83C207B681B6C03F01003002B51
:101C000018D17B681B6C23F4885323F0020343F044
:101C100002027B681A64786800F088FB7B68002207
:101C20005A647B681B6C23F0030343F001027B685A
:101C30001A6401E00123FB737B68002283F83C20D7
:101C4000FB7B18461037BD4680BD80B586B000AF1F
:101C5000786000237B6100233B617B681B681B6805
:101C6000FB607B681B685B68BB60FB6803F002037A
:101C70007B61BB6803F020033B617B69002B49D08B
:101C80003B69002B46D07B681B6C03F01003002BD4
:101C900005D17B681B6C43F400727B681A647B6817
:101CA0001B689B6803F04053002B2BD17B681B7E85
:101CB000002B27D17B681B68DB6A03F47003002BC1
:101CC00006D07B681B689B6803F48063002B19D1E6
:101CD0007B681B685A687B681B6822F020025A6088
:101CE0007B681B6C23F480727B681A647B681B6CB6
:101CF00003F48053002B05D17B681B6C43F0010279
:101D00007B681A647868FFF755F97B681B686FF089
:101D100012021A60FB6803F004037B61BB6803F0E6
:101D200080033B617B69002B57D03B69002B54D06B
:101D30007B681B6C03F01003002B05D17B681B6CC8
:101D400043F400527B681A647B681B689B6803F449
:101D50004013002B39D17B681B689B6B03F4401345
:101D6000002B06D07B681B689B6803F48063002B04
:101D70002BD17B681B685B6803F48063002B24D144
:101D80007B681B689B6803F04053002B1DD17B6868
:101D90001B7E002B19D17B681B685A687B681B6807
:101DA00022F080025A607B681B6C23F480527B68AF
:101DB0001A647B681B6C03F48073002B05D17B686D
:101DC0001B6C43F001027B681A64786800F02CFCFD
:101DD0007B681B686FF00C021A60FB6803F001035C
:101DE0007B61BB6803F040033B617B69002B17D02C
:101DF0003B69002B14D07B681B681B6803F0010350
:101E0000012B0DD17B681B6C43F480327B681A6414
:101E1000786800F045F97B681B686FF001021A6072
:101E2000FB6803F020037B61BB6803F080633B61C8
:101E30007B69002B15D03B69002B12D07B685B6C53
:101E400043F002027B685A647B681B686FF02002D3
:101E50001A60786800F02EF97B681B686FF020022A
:101E60001A6000BF1837BD4680BD000080B586B03F
:101E700000AFF860B9607A6000233B61FB6893F8BB
:101E80003C30012B01D10223E9E0FB68012283F8F9
:101E90003C20FB681B689B6803F00103012B18D0F2
:101EA000FB681B689A68FB681B6842F001029A6035
:101EB0006D4B1B686D4AA2FB03239A0C13465B0013
:101EC00013443B6102E03B69013B3B613B69002BF2
:101ED000F9D1FB681B689B6803F48073B3F5807FBE
:101EE00007D1FB681B689A68FB681B6822F4807244
:101EF0009A60FB681B689B6803F00103012B40F0AC
:101F0000A180FB681B6C23F4E06323F0010343F41E
:101F10008072FB681A64FB681B685B6803F480636B
:101F2000002B07D0FB681B6C23F4405343F4805212
:101F3000FB681A64FB681B6C03F48053B3F5805F85
:101F400006D1FB685B6C23F00602FB685A6402E072
:101F5000FB6800225A64FB68002283F83C20444B53
:101F60007B61FB689B6B434ADA63FB689B6B424A6D
:101F70001A64FB689B6B414ADA64FB681B686FF06C
:101F800022021A60FB681B685A68FB681B6842F0F3
:101F900080625A60FB681B689A68FB681B6842F4A1
:101FA00080729A60FB68986BFB681B684C3319461B
:101FB000BA687B6801F036FF7B695B6803F01F033A
:101FC000002B2AD1FB681B682D4A934215D0FB6871
:101FD0001B682C4A934205D1254B5B6803F01F0315
:101FE000002B0AD0FB681B68274A934236D1204B4E
:101FF0005B6803F01003002B30D1FB681B689B6803
:1020000003F04053002B29D1FB681B689A68FB68DA
:102010001B6842F080429A6020E0FB681B68184A07
:1020200093421BD1FB681B689B6803F04053002B55
:1020300014D1FB681B689A68FB681B6842F08042F9
:102040009A600BE0FB681B6C43F01002FB681A649B
:10205000FB685B6C43F00102FB685A64002318467E
:102060001837BD4680BD00BF0800002083DE1B433B
:102070000023014025250008DF250008FB25000876
:1020800000200140002101400022014080B483B0C3
:1020900000AF786000BF0C37BD465DF8047B704729
:1020A00080B483B000AF786000BF0C37BD465DF8E8
:1020B000047B704780B483B000AF786000BF0C37FA
:1020C000BD465DF8047B704780B485B000AF786092
:1020D00039600023BB607B6893F83C30012B01D151
:1020E000022313E17B68012283F83C203B681B68D4
:1020F000092B25D97B681B68D9683B681B689BB294
:102100001A4613465B0013441E3B072202FA03F3F0
:10211000DA437B681B680A40DA607B681B68D96811
:102120003B689A683B681B689BB2184603465B0095
:1021300003441E3B9A407B681B680A43DA6022E036
:102140007B681B6819693B681B689BB21A4613467B
:102150005B001344072202FA03F3DA437B681B682F
:102160000A401A617B681B6819693B689A683B687A
:102170001B689BB2184603465B0003449A407B6889
:102180001B680A431A613B685B68062B24D87B688E
:102190001B68596B3B685A6813469B001344053B08
:1021A0001F2202FA03F3DA437B681B680A405A6372
:1021B0007B681B68596B3B681B689BB218463B6881
:1021C0005A6813469B001344053B00FA03F27B68F0
:1021D0001B680A435A634CE03B685B680C2B24D8AD
:1021E0007B681B68196B3B685A6813469B00134455
:1021F000233B1F2202FA03F3DA437B681B680A4081
:102200001A637B681B68196B3B681B689BB2184696
:102210003B685A6813469B001344233B00FA03F2C1
:102220007B681B680A431A6323E07B681B68D96AD2
:102230003B685A6813469B001344413B1F2202FA35
:1022400003F3DA437B681B680A40DA627B681B6829
:10225000D96A3B681B689BB218463B685A681346AC
:102260009B001344413B00FA03F27B681B680A435E
:10227000DA62294BFB607B681B68284A93420FD1C6
:102280003B681B68122B0BD1FB685B6823F40002D0
:10229000FB685A60FB685B6843F48002FB685A6025
:1022A0007B681B681D4A93422BD13B681B681C4A04
:1022B000934203D03B681B68112B22D1FB685B68FB
:1022C00023F48002FB685A60FB685B6843F40002F9
:1022D000FB685A603B681B68114A934211D1114B4D
:1022E0001B68114AA2FB03239A0C13469B0013445C
:1022F0005B00BB6002E0BB68013BBB60BB68002BBE
:10230000F9D17B68002283F83C200023184614375B
:10231000BD465DF8047B704700230140002001406A
:10232000120000100800002083DE1B4380B485B03B
:1023300000AF7860794BFB60FB685B6823F4403248
:10234000FB685A60FB685A687B685B681A43FB68E5
:102350005A607B681B685A687B681B6822F480722D
:102360005A607B681B6859687B681B691A027B6826
:102370001B680A435A607B681B685A687B681B6845
:1023800022F040725A607B681B6859687B689A68C3
:102390007B681B680A435A607B681B689A687B6885
:1023A0001B6822F400629A607B681B6899687B68EE
:1023B000DA687B681B680A439A607B689B6A584AA4
:1023C000934222D07B681B689A687B681B6822F066
:1023D00070629A607B681B6899687B689A6A7B6800
:1023E0001B680A439A607B681B689A687B681B6855
:1023F00022F040529A607B681B6899687B68DA6AB1
:102400007B681B680A439A600FE07B681B689A68C8
:102410007B681B6822F070629A607B681B689A6810
:102420007B681B6822F040529A607B681B689A6840
:102430007B681B6822F002029A607B681B689968BF
:102440007B681B7E5A007B681B680A439A607B6826
:1024500093F82030002B1BD07B681B685A687B6880
:102460001B6842F400625A607B681B685A687B688C
:102470001B6822F460425A607B681B6859687B685D
:102480005B6A013B5A037B681B680A435A6007E09A
:102490007B681B685A687B681B6822F400625A607C
:1024A0007B681B68DA6A7B681B6822F47002DA6258
:1024B0007B681B68D96A7B68DB69013B1A057B680E
:1024C0001B680A43DA627B681B689A687B681B6832
:1024D00022F400729A607B681B6899687B6893F8A5
:1024E00030305A027B681B680A439A607B681B681D
:1024F0009A687B681B6822F480629A607B681B681C
:1025000099687B685B699A027B681B680A439A60DA
:1025100000BF1437BD465DF8047B704700230140BF
:102520000100000F80B584B000AF78607B689B6BC2
:10253000FB60FB681B6C03F05003002B3CD1FB6875
:102540001B6C43F40072FB681A64FB681B689B6891
:1025500003F04053002B2BD1FB681B7E002B27D1AF
:10256000FB681B68DB6A03F47003002B06D0FB6872
:102570001B689B6803F48063002B19D1FB681B6800
:102580005A68FB681B6822F020025A60FB681B6CCB
:1025900023F48072FB681A64FB681B6C03F480539D
:1025A000002B05D1FB681B6C43F00102FB681A6429
:1025B000F868FEF7FFFC0EE0FB681B6C03F01003ED
:1025C000002B03D0F868FFF775FD04E0FB689B6BF8
:1025D000DB6C7868984700BF1037BD4680BD80B57A
:1025E00084B000AF78607B689B6BFB60F868FFF796
:1025F0004DFD00BF1037BD4680BD80B584B000AF33
:1026000078607B689B6BFB60FB6840221A64FB6808
:102610005B6C43F00402FB685A64F868FFF74AFDFC
:1026200000BF1037BD4680BD80B483B000AF786076
:1026300000BF0C37BD465DF8047B704780B584B0A1
:1026400000AF786039607B68002B01D10123CCE0BA
:10265000684B1B6803F00F033A689A420CD9654B2C
:102660003A68D2B21A70634B1B6803F00F033A68E2
:102670009A4201D00123B8E07B681B6803F0020393
:10268000002B20D07B681B6803F00403002B05D0CF
:10269000594B9B68584A43F4E05393607B681B682E
:1026A00003F00803002B05D0534B9B68524A43F4B8
:1026B00060439360504B9B6823F0F0027B689B68FB
:1026C0004D4913438B607B681B6803F00103002BAB
:1026D00044D07B685B68012B07D1474B1B6803F430
:1026E0000033002B19D101237FE07B685B68022B4C
:1026F00003D07B685B68032B07D13F4B1B6803F05B
:102700000073002B09D101236FE03B4B1B6803F0E2
:102710000203002B01D1012367E0374B9B6823F0B4
:1027200003027B685B68344913438B6001F0A4FFAC
:10273000F8600AE001F0A0FF0246FB68D31A41F2FC
:102740008832934201D903234FE02B4B9B6803F05F
:102750000C027B685B689B009A42EBD1254B1B689F
:1027600003F00F033A689A420CD2224B3A68D2B275
:102770001A70204B1B6803F00F033A689A4201D08D
:10278000012332E07B681B6803F00403002B08D0B0
:10279000194B9B6823F4E0527B68DB6816491343AE
:1027A0008B607B681B6803F00803002B09D0124B79
:1027B0009B6823F460427B681B69DB000E4913436E
:1027C0008B6000F005FC02460B4B9B681B0903F075
:1027D0000F030A49CB5C22FA03F3094A1360094B41
:1027E0001B68184608F0F2FB002318461037BD4658
:1027F00080BD00BF003C024000380240E8100108E4
:10280000080000200000002080B58CB000AFF86008
:10281000B9607A60FB68002B29D10023BB612B4B88
:102820001B6B2A4A43F001031363284B1B6B03F015
:102830000103BB61BB694FF48073FB6102233B6200
:102840000323BB6200237B620023FB6207F11C03AE
:1028500019461F4801F08AF81C4B9B6823F0EC6274
:10286000B9687B680B43194913438B6029E0002347
:102870007B61164B1B6B154A43F004031363134B28
:102880001B6B03F004037B617B694FF40073FB61F6
:1028900002233B620323BB6200237B620023FB62B3
:1028A00007F11C0319460B4801F060F8074B9B68C1
:1028B00023F078427B68D900BB680B43034913437C
:1028C0008B6000BF3037BD4680BD00BF003802407E
:1028D000000002400008024080B400AF034B1B68B8
:1028E0001846BD465DF8047B704700BF0800002015
:1028F00080B500AFFFF7F0FF0246054B9B685B0B0E
:1029000003F007030349CB5C22FA03F3184680BDAA
:1029100000380240F810010880B483B000AF78603E
:1029200039607B680F221A60124B9B6803F0030228
:102930007B685A600F4B9B6803F0F0027B689A60DB
:102940000C4B9B6803F4E0527B68DA60094B9B6890
:10295000DB0803F4E0527B681A61074B1B6803F045
:102960000F023B681A6000BF0C37BD465DF8047B60
:10297000704700BF00380240003C024080B58CB078
:1029800000AF786000237B6200233B620023FB6181
:102990000023BB6100237B6100233B610023FB60BC
:1029A0000023FB620023BB627B681B6803F001030A
:1029B000002B10D06F4BD3F88C3023F0C0627B68B3
:1029C0009B6B6C491343C1F88C307B689B6B002B6D
:1029D00001D10123FB627B681B6803F00203002B1B
:1029E00010D0644BD3F88C3023F0C0527B68DB6B83
:1029F00060491343C1F88C307B68DB6B002B01D13D
:102A00000123FB627B681B6803F00403002B17D0D3
:102A1000584BD3F88C3023F440127B681B6B55491C
:102A20001343C1F88C307B681B6BB3F5801F01D159
:102A30000123FB627B681B6B002B01D10123BB626E
:102A40007B681B6803F00803002B17D0494BD3F8B1
:102A50008C3023F440027B685B6B46491343C1F81A
:102A60008C307B685B6BB3F5800F01D10123FB6277
:102A70007B685B6B002B01D10123BB627B681B6809
:102A800003F02003002B00F08A800023BB60394B49
:102A90001B6C384A43F080531364364B1B6C03F0B5
:102AA0008053BB60BB68344B1B68334A43F480736C
:102AB000136001F0E1FD786208E001F0DDFD0246FF
:102AC0007B6AD31A022B01D9032378E22A4B1B68B5
:102AD00003F48073002BF0D0264B1B6F03F440737C
:102AE0003B623B6A002B2FD07B681B6C03F4407366
:102AF0003A6A9A4228D01F4B1B6F23F440733B6203
:102B00001E4B01221A601D4B00221A60194A3B6AB3
:102B10001367184B1B6F03F00103012B14D101F055
:102B2000ABFD78620AE001F0A7FD02467B6AD31A8A
:102B300041F28832934201D9032340E20D4B1B6FCF
:102B400003F00203002BEED07B681B6C03F4407390
:102B5000B3F5407F14D1074B9B6823F4F8127B68D0
:102B60001B6C23F0704323F44073024913438B60C2
:102B70000CE000BF0038024000700040400E4742A9
:102B80004A4B9B68494A23F4F8139360474B1A6FEA
:102B90007B681B6CC3F30B03444913430B677B68CF
:102BA0001B6803F01003002B04D07B6893F85820B7
:102BB0003F4B1A607B681B6803F08003002B0AD030
:102BC0003A4BD3F8943023F440027B68DB6C3749EE
:102BD0001343C1F894307B681B6803F04003002B5B
:102BE0000AD0324BD3F8943023F080627B689B6C20
:102BF0002E491343C1F894307B681B6803F480733B
:102C0000002B11D0294BD3F8943023F000627B685D
:102C10005B6D26491343C1F894307B685B6DB3F15B
:102C2000006F01D10123BB627B681B6803F4007352
:102C3000002B0AD01D4BD3F8943023F080527B68D0
:102C40005B6C1A491343C1F894307B681B6803F42A
:102C50008063002B11D0154BD3F8943023F0005231
:102C60007B681B6D11491343C1F894307B681B6D61
:102C7000B3F1005F01D10123FB62FB6A012B05D098
:102C80007B681B68B3F5006F40F0FF80094B0022A2
:102C90001A6001F0F1FC78620EE001F0EDFC0246F2
:102CA0007B6AD31A022B07D9032388E1003802403C
:102CB000E0114742680047427E4B1B6803F0006307
:102CC000002BEAD17B681B6803F00103002B03D0C3
:102CD0007B689B6B002B09D07B681B6803F00203A9
:102CE000002B28D07B68DB6B002B24D1714BD3F8F1
:102CF00084301B0C03F0030301335B00FB616D4B5D
:102D0000D3F884301B0E03F00F03BB617B685A6855
:102D10007B689B689B011A43FB695B08013B1B04B2
:102D20001A43BB691B061A437B685B691B07614931
:102D30001343C1F884307B681B6803F00403002B45
:102D400004D07B681B6BB3F5801F0AD07B681B68BF
:102D500003F00803002B35D07B685B6BB3F5800F65
:102D600030D1544BD3F884301B0C03F003030133F0
:102D70005B00FB614F4BD3F884301B0F03F007035C
:102D80007B617B685A687B689B689B011A43FB697F
:102D90005B08013B1B041A437B681B691B061A4333
:102DA0007B691B0743491343C1F88430414BD3F877
:102DB0008C3023F01F027B689B6A013B3D49134323
:102DC000C1F88C307B681B6803F48063002B29D02A
:102DD0007B681B6DB3F1005F24D1364BD3F8843090
:102DE0001B0C03F0030301335B00BB61314BD3F8D1
:102DF00084301B0F03F007037B617B685A687B6894
:102E00009B689B011A437B68DB685B08013B1B04E2
:102E10001A43BB691B061A437B691B0725491343E9
:102E2000C1F884307B681B6803F40063002B16D064
:102E30007B685A687B689B689B011A437B68DB68E8
:102E40005B08013B1B041A437B681B691B061A4382
:102E50007B685B691B0717491343C1F88430164B25
:102E600001221A6001F008FC786208E001F004FC1D
:102E700002467B6AD31A022B01D903239FE00D4B34
:102E80001B6803F00063002BF0D0BB6A012B40F0FD
:102E900095800A4B00221A6001F0EEFB78620FE089
:102EA00001F0EAFB02467B6AD31A022B08D90323FE
:102EB00085E000BF0038024068004742700047428A
:102EC000414B1B6803F00053B3F1005FE8D07B680F
:102ED0001B6803F00403002B03D07B681B6B002BE3
:102EE00009D07B681B6803F00803002B2BD07B689C
:102EF0005B6B002B27D1344BD3F888301B0C03F0CD
:102F0000030301335B003B617B689A697B68DB6983
:102F10009B011A433B695B08013B1B041A437B6816
:102F20005B6A1B0628491343C1F88830264BD3F847
:102F30008C3023F4F8527B68DB6A013B1B02224988
:102F40001343C1F88C307B681B6803F48073002B3B
:102F50001DD07B685B6DB3F1006F18D11A4BD3F8AD
:102F600088301B0E03F00F03FB607B689A697B6857
:102F7000DB699B011A437B681B6A5B08013B1B04EE
:102F80001A43FB681B0610491343C1F888300F4BE6
:102F900001221A6001F070FB786208E001F06CFB1E
:102FA00002467B6AD31A022B01D9032307E0064BA2
:102FB0001B6803F00053B3F1005FEFD10023184604
:102FC0003037BD4680BD00BF003802407000474228
:102FD0002DE9B04FAEB000AF0023C7F8AC300023EE
:102FE000C7F8B4300023C7F8A8300023C7F8A430CE
:102FF0000023C7F8B030CB4B9B6803F00C030C2BBD
:1030000000F2068201A252F823F000BF413000080E
:103010001134000811340008113400084930000848
:103020001134000811340008113400085130000830
:10303000113400081134000811340008413200082E
:10304000B94BC7F8B030E7E1B84BC7F8B030E3E1AF
:10305000B44B5B6803F03F03C7F8AC30B14B5B681F
:1030600003F48003002B71D0AE4B5B689B090022F8
:10307000C7F89830C7F89C20D7F89830C3F30803F6
:10308000C7F890300023C7F89430D7E9244522468A
:103090002B464FF000004FF00001590141EAD26188
:1030A000500102460B462146511A3964294663EB0A
:1030B00001037B644FF000024FF00003D7E9108951
:1030C00049468B01414643EA916341468A014146A4
:1030D000511AB963494663EB0103FB634FF00002E9
:1030E0004FF00003D7E90E894946CB00414643EA39
:1030F00051734146CA0010461946034622469B18A2
:103100003B632B460A4642EB03037B634FF000020E
:103110004FF00003D7E90C4529464B02214643EA0C
:10312000D15321464A0210461946D7F8AC30002246
:10313000C7F88830C7F88C20D7E92223FDF754FD63
:1031400002460B461346C7F8B43067E0754B5B6820
:103150009B090022C7F88030C7F88420D7F8803058
:10316000C3F30803BB670023FB67D7E91E4522466C
:103170002B464FF000004FF00001590141EAD261A7
:10318000500102460B462146511AB962294663EBAB
:103190000103FB624FF000024FF00003D7E90A89F8
:1031A00049468B01414643EA916341468A014146C3
:1031B000B2EB010A494663EB010B4FF000024FF0FE
:1031C00000034FEACB0343EA5A734FEACA0292461E
:1031D0009B4623461AEB03033B622B464BEB030350
:1031E0007B624FF000024FF00003D7E90845294603
:1031F0008B02214643EA915321468A021046194622
:10320000D7F8AC3000223B677A67D7E91C23FDF77B
:10321000EBFC02460B461346C7F8B430414B5B68E3
:103220001B0C03F0030301335B00C7F8A830D7F889
:10323000B420D7F8A830B2FBF3F3C7F8B030EBE016
:10324000384B5B6803F03F03C7F8AC30354B5B6825
:1032500003F48003002B6BD0324B5B689B09002288
:10326000BB66FA66BB6EC3F308033B6600237B664E
:10327000D7E9184522462B464FF000004FF00001D9
:10328000590141EAD261500102460B462146511ACA
:10329000B961294663EB0103FB614FF000024FF077
:1032A0000003D7E906AB59468B01514643EA9163C7
:1032B00051468A015146B2EB0108594663EB0109B8
:1032C0004FF000024FF000034FEAC90343EA58737E
:1032D0004FEAC80290469946234618EB03033B6128
:1032E0002B4649EB03037B614FF000024FF00003D4
:1032F000D7E9044529464B02214643EAD1532146EA
:103300004A0210461946D7F8AC300022BB65FA6570
:10331000D7E91623FDF768FC02460B461346C7F8AB
:10332000B43065E0003802400024F40000127A0056
:103330003D4B5B689B09002218461146C0F3080309
:103340003B6500237B65D7E9148942464B464FF025
:1033500000004FF00001590141EAD26150010246DC
:103360000B464146511AB960494663EB0103FB60C5
:103370004FF000024FF00003D7E902AB59468B0132
:10338000514643EA916351468A015146541A5946BF
:1033900063EB01054FF000024FF00003EB0043EA3E
:1033A0005473E20014461D464346E3183B604B4607
:1033B00045EB03037B604FF000024FF00003D7E9B9
:1033C000004529468B02214643EA915321468A0251
:1033D00010461946D7F8AC300022BB64FA64D7E92E
:1033E0001223FDF701FC02460B461346C7F8B43022
:1033F0000D4B5B681B0F03F00703C7F8A430D7F829
:10340000B420D7F8A430B2FBF3F3C7F8B03003E030
:10341000064BC7F8B03000BFD7F8B0301846B83701
:10342000BD46BDE8B08F00BF003802400024F40064
:1034300080B586B000AF78607B68002B01D1012396
:103440008DE27B681B6803F00103002B00F0838092
:10345000944B9B6803F00C03042B19D0914B9B6891
:1034600003F00C03082B06D18E4B5B6803F480033A
:10347000B3F5800F0CD08B4B9B6803F00C030C2B27
:1034800012D1884B5B6803F48003B3F5800F0BD136
:10349000844B1B6803F40033002B5BD07B685B68B4
:1034A000002B57D101235AE27B685B68B3F5803F5C
:1034B00006D17C4B1B687B4A43F4803313601DE0CC
:1034C0007B685B68B3F5A02F0CD1764B1B68754AFF
:1034D00043F480231360734B1B68724A43F48033B8
:1034E00013600BE06F4B1B686E4A23F4803313604C
:1034F0006C4B1B686B4A23F4802313607B685B680A
:10350000002B13D001F0B8F8386108E001F0B4F8EE
:1035100002463B69D31A642B01D903231FE2614B96
:103520001B6803F40033002BF0D014E001F0A4F882
:10353000386108E001F0A0F802463B69D31A642B19
:1035400001D903230BE2574B1B6803F40033002B14
:10355000F0D100E000BF7B681B6803F00203002B82
:103560006FD0504B9B6803F00C03002B17D04D4BD2
:103570009B6803F00C03082B05D14A4B5B6803F4EE
:103580008003002B0BD0474B9B6803F00C030C2BE4
:103590001CD1444B5B6803F48003002B16D1414BD4
:1035A0001B6803F00203002B05D07B68DB68012B4E
:1035B00001D00123D3E13B4B1B6823F0F8027B6869
:1035C0001B69DB00374913430B603AE07B68DB681B
:1035D000002B20D0344B01221A6001F04DF83861E5
:1035E00008E001F049F802463B69D31A022B01D9E1
:1035F0000323B4E12B4B1B6803F00203002BF0D034
:10360000284B1B6823F0F8027B681B69DB00254907
:1036100013430B6015E0244B00221A6001F02CF8D4
:10362000386108E001F028F802463B69D31A022B02
:1036300001D9032393E11B4B1B6803F00203002B0A
:10364000F0D17B681B6803F00803002B36D07B6841
:103650005B69002B16D0154B01221A6001F00CF8A3
:10366000386108E001F008F802463B69D31A022BE2
:1036700001D9032373E10B4B5B6F03F00203002BB3
:10368000F0D01BE0094B00221A6000F0F5FF386112
:103690000EE000F0F1FF02463B69D31A022B07D976
:1036A00003235CE10038024000004742800E47429D
:1036B0008A4B5B6F03F00203002BEAD17B681B6827
:1036C00003F00403002B00F097800023FB75834B6D
:1036D0001B6C03F08053002B0FD10023BB607F4B8A
:1036E0001B6C7E4A43F0805313647C4B1B6C03F0CD
:1036F0008053BB60BB680123FB75794B1B6803F4E7
:103700008073002B18D1764B1B68754A43F4807385
:10371000136000F0B1FF386108E000F0ADFF024631
:103720003B69D31A022B01D9032318E16C4B1B68A8
:1037300003F48073002BF0D07B689B68012B06D1CB
:10374000664B1B6F654A43F0010313671CE07B68FF
:103750009B68052B0CD1614B1B6F604A43F004033F
:1037600013675E4B1B6F5D4A43F0010313670BE069
:103770005A4B1B6F594A23F001031367574B1B6FBA
:10378000564A23F0040313677B689B68002B15D00F
:1037900000F072FF38610AE000F06EFF02463B69FC
:1037A000D31A41F28832934201D90323D7E04B4B1D
:1037B0001B6F03F00203002BEED014E000F05CFF5F
:1037C00038610AE000F058FF02463B69D31A41F223
:1037D0008832934201D90323C1E0404B1B6F03F0B1
:1037E0000203002BEED1FB7D012B05D13B4B1B6C63
:1037F0003A4A23F0805313647B689B69002B00F0E6
:10380000AD80364B9B6803F00C03082B60D07B68BF
:103810009B69022B45D1334B00221A6000F02CFF2C
:10382000386108E000F028FF02463B69D31A022BFA
:1038300001D9032393E0294B1B6803F00073002B8D
:10384000F0D17B68DA697B681B6A1A437B685B6A24
:103850009B011A437B689B6A5B08013B1B041A436C
:103860007B68DB6A1B061A437B681B6B1B071B49C3
:1038700013434B601B4B01221A6000F0FDFE3861C0
:1038800008E000F0F9FE02463B69D31A022B01D989
:10389000032364E0114B1B6803F00073002BF0D08E
:1038A0005CE0104B00221A6000F0E6FE386108E090
:1038B00000F0E2FE02463B69D31A022B01D9032332
:1038C0004DE0064B1B6803F00073002BF0D145E080
:1038D0007B689B69012B07D1012340E0003802403F
:1038E00000700040600047421F4B5B68FB607B68D4
:1038F0009B69012B30D0FB6803F480027B68DB6995
:103900009A4229D1FB6803F03F027B681B6A9A4206
:1039100022D1FA6847F6C07313407A68526A92015E
:10392000934219D1FB6803F440327B689B6A5B08C1
:10393000013B1B049A420FD1FB6803F070627B6865
:10394000DB6A1B069A4207D1FB6803F0E0427B6802
:103950001B6B1B079A4201D0012300E0002318468D
:103960001837BD4680BD00BF0038024080B489B022
:1039700000AF7860396000237B6100233B61002346
:10398000BB610023FB6165E10122FB6902FA03F3DD
:103990007B613B681B687A6913403B613A697B69CC
:1039A0009A4240F054813B685B6803F00303012BAB
:1039B00005D03B685B6803F00303022B30D17B68C2
:1039C0009B68BB61FB695B00032202FA03F3DB43E4
:1039D000BA691340BB613B68DA68FB695B0002FAB5
:1039E00003F3BA691343BB617B68BA699A607B6869
:1039F0005B68BB610122FB6902FA03F3DB43BA692E
:103A00001340BB613B685B681B0903F00102FB6963
:103A100002FA03F3BA691343BB617B68BA695A605F
:103A20003B685B6803F00303032B17D07B68DB68FC
:103A3000BB61FB695B00032202FA03F3DB43BA6953
:103A40001340BB613B689A68FB695B0002FA03F3B1
:103A5000BA691343BB617B68BA69DA603B685B682B
:103A600003F00303022B23D1FB69DA087B680832D9
:103A700053F82230BB61FB6903F007039B000F2260
:103A800002FA03F3DB43BA691340BB613B681A696E
:103A9000FB6903F007039B0002FA03F3BA691343BF
:103AA000BB61FB69DA087B680832B96943F8221008
:103AB0007B681B68BB61FB695B00032202FA03F3AE
:103AC000DB43BA691340BB613B685B6803F00302E8
:103AD000FB695B0002FA03F3BA691343BB617B68BD
:103AE000BA691A603B685B6803F44033002B00F04E
:103AF000AE800023FB605D4B5B6C5C4A43F480430B
:103B000053645A4B5B6C03F48043FB60FB68584A78
:103B1000FB699B08023352F82330BB61FB6903F059
:103B200003039B000F2202FA03F3DB43BA6913403D
:103B3000BB617B684F4A934225D07B684E4A9342D3
:103B40001FD07B684D4A934219D07B684C4A934200
:103B500013D07B684B4A93420DD07B684A4A93420C
:103B600007D07B68494A934201D106230CE0072322
:103B70000AE0052308E0042306E0032304E002230F
:103B800002E0012300E00023FA6902F00302920040
:103B90009340BA691343BB613549FB699B08023303
:103BA000BA6941F823203A4B9B68BB613B69DB4310
:103BB000BA691340BB613B685B6803F48013002B58
:103BC00003D0BA693B691343BB61314ABB69936057
:103BD0002F4BDB68BB613B69DB43BA691340BB61B8
:103BE0003B685B6803F40013002B03D0BA693B69A0
:103BF0001343BB61264ABB69D360254B5B68BB613D
:103C00003B69DB43BA691340BB613B685B6803F403
:103C10000033002B03D0BA693B691343BB611C4AD4
:103C2000BB6953601A4B1B68BB613B69DB43BA69D4
:103C30001340BB613B685B6803F48033002B03D007
:103C4000BA693B691343BB61114ABB691360FB69E5
:103C50000133FB61FB690F2B7FF696AE00BF00BFFF
:103C60002437BD465DF8047B704700BF0038024032
:103C700000380140000002400004024000080240F9
:103C8000000C0240001002400014024000180240E4
:103C9000003C014080B483B000AF78600B467B806D
:103CA00013467B707B78002B03D07A887B689A61FF
:103CB00003E07B881A047B689A6100BF0C37BD461D
:103CC0005DF8047B7047000080B586B000AF786077
:103CD00000237B6100F0D0FC38617B68002B01D1B0
:103CE000012399E07B68022283F835207B6800225B
:103CF00083F834207B681B681A687B681B6822F095
:103D000001021A600FE000F0B7FC02463B69D31ACB
:103D1000052B08D97B6820225A657B68032283F82B
:103D20003520032378E07B681B681B6803F00103E0
:103D3000002BE8D17B681B681B687B617A69384B74
:103D400013407B617B685A687B689B681A437B6879
:103D5000DB681A437B681B691A437B685B691A43FB
:103D60007B689B691A437B68DB691A437B681B6A23
:103D700013437A6913437B617B685B6A042B07D129
:103D80007B68DA6A7B681B6B13437A6913437B6138
:103D90007B681B687A691A607B681B685B697B615A
:103DA0007B6923F007037B617B685B6A7A69134355
:103DB0007B617B685B6A042B17D17B689B6A7A699D
:103DC00013437B617B68DB6A002B0ED0786800F0C0
:103DD0006FFA0346002B08D07B6840225A657B6847
:103DE000012283F83520012316E07B681B687A697D
:103DF0005A61786800F026FA0346FB607B68DB6D49
:103E00003F229A40FB689A607B6800225A657B6873
:103E1000012283F83520002318461837BD4680BD9F
:103E20003F8010F080B586B000AFF860B9607A606E
:103E30003B600023FB75FB689B6D3B61FB6893F85F
:103E40003430012B01D1022340E0FB68012283F8CA
:103E50003420FB6893F83530DBB2012B2FD1FB689F
:103E6000022283F83520FB6800225A653B687A6895
:103E7000B968F86800F0B8F9FB68DB6D3F229A403A
:103E80003B699A60FB681B681A68FB681B6842F014
:103E900016021A60FB681B6C002B07D0FB681B68BE
:103EA0001A68FB681B6842F008021A60FB681B680E
:103EB0001A68FB681B6842F001021A6005E0FB68A3
:103EC000002283F834200223FB75FB7D1846183747
:103ED000BD4680BD80B586B000AF78600023BB6072
:103EE0008E4B1B688E4AA2FB03239B0A7B617B6877
:103EF0009B6D3B613B691B68FB607B68DB6D082247
:103F00009A40FB681340002B1AD07B681B681B6823
:103F100003F00403002B13D07B681B681A687B68CE
:103F20001B6822F004021A607B68DB6D08229A404D
:103F30003B699A607B685B6D43F001027B685A6560
:103F40007B68DB6D01229A40FB681340002B12D086
:103F50007B681B685B6903F08003002B0BD07B68D8
:103F6000DB6D01229A403B699A607B685B6D43F090
:103F700002027B685A657B68DB6D04229A40FB680D
:103F80001340002B12D07B681B681B6803F00203F0
:103F9000002B0BD07B68DB6D04229A403B699A6052
:103FA0007B685B6D43F004027B685A657B68DB6D60
:103FB00010229A40FB681340002B43D07B681B689B
:103FC0001B6803F00803002B3CD07B68DB6D1022DC
:103FD0009A403B699A607B681B681B6803F48023E6
:103FE000002B18D07B681B681B6803F40023002B90
:103FF00008D17B681B6C002B24D07B681B6C786815
:1040000098471FE07B689B6C002B1BD07B689B6CE8
:104010007868984716E07B681B681B6803F4807318
:10402000002B07D17B681B681A687B681B6822F02D
:1040300008021A607B681B6C002B03D07B681B6C2A
:10404000786898477B68DB6D20229A40FB681340B4
:10405000002B00F08F807B681B681B6803F0100347
:10406000002B00F087807B68DB6D20229A403B6943
:104070009A607B6893F83530DBB2052B36D17B68CC
:104080001B681A687B681B6822F016021A607B683E
:104090001B685A697B681B6822F080025A617B6842
:1040A0001B6C002B03D17B689B6C002B07D07B68BB
:1040B0001B681A687B681B6822F008021A607B681C
:1040C000DB6D3F229A403B699A607B68012283F84E
:1040D00035207B68002283F834207B681B6D002B21
:1040E0007ED07B681B6D7868984779E07B681B6899
:1040F0001B6803F48023002B1DD07B681B681B68A2
:1041000003F40023002B0DD17B685B6C002B31D0B6
:104110007B685B6C786898472CE000BF0800002043
:10412000B5814E1B7B68DB6B002B23D07B68DB6B80
:10413000786898471EE07B681B681B6803F48073EF
:10414000002B0FD17B681B681A687B681B6822F004
:1041500010021A607B68012283F835207B680022F8
:1041600083F834207B68DB6B002B03D07B68DB6B30
:10417000786898477B685B6D002B32D07B685B6DFD
:1041800003F00103002B22D07B68052283F8352041
:104190007B681B681A687B681B6822F001021A6042
:1041A000BB680133BB607A699A4207D37B681B689E
:1041B0001B6803F00103002BF2D100E000BF7B6815
:1041C000012283F835207B68002283F834207B6845
:1041D000DB6C002B05D07B68DB6C7868984700E0CF
:1041E00000BF1837BD4680BD80B485B000AFF86011
:1041F000B9607A603B60FB681B681A68FB681B68E3
:1042000022F480221A60FB681B683A685A60FB68D7
:104210009B68402B08D1FB681B687A689A60FB6832
:104220001B68BA68DA6007E0FB681B68BA689A60C6
:10423000FB681B687A68DA6000BF1437BD465DF81A
:10424000047B704780B485B000AF78607B681B68E2
:10425000DBB2103B144AA2FB03231B09FB60134A89
:10426000FB6813441B781A467B68DA65FB68032BEE
:1042700009D97B681B6823F47F7323F003031A1D9D
:104280007B689A6507E07B681B6823F47F7323F0E3
:1042900003037A6893657B689B6D18461437BD46A7
:1042A0005DF8047B704700BFABAAAAAAE010010822
:1042B00080B485B000AF78600023FB737B689B6A95
:1042C000BB607B689B69002B1FD1BB68032B56D852
:1042D00001A252F823F000BFE9420008FB420008A7
:1042E000E94200087F4300087B68DB6A03F08073C3
:1042F000002B46D00123FB7343E07B68DB6AB3F1FC
:10430000C07F40D10123FB733DE07B689B69B3F51F
:10431000005F21D1BB68032B37D801A252F823F0EC
:10432000314300083743000831430008494300087F
:104330000123FB7330E07B68DB6A03F08073002BA2
:1043400025D00123FB7322E07B68DB6AB3F1C07FD9
:104350001FD10123FB731CE0BB68022B03D9BB6890
:10436000032B03D018E00123FB7315E07B68DB6AA5
:1043700003F08073002B0ED00123FB730BE000BF12
:104380000AE000BF08E000BF06E000BF04E000BF95
:1043900002E000BF00E000BFFB7B18461437BD46BB
:1043A0005DF8047B704700BF80B582B000AF00238A
:1043B0007B6000233B60204B1B6C1F4A43F0805303
:1043C00013641D4B1B6C03F080533B603B681B4B1D
:1043D00001221A6000F050F9786009E000F04CF911
:1043E00002467B68D31AB3F57A7F01D903231FE015
:1043F000134B5B6803F48033B3F5803FEED1114B70
:1044000001221A6000F038F9786009E000F034F910
:1044100002467B68D31AB3F57A7F01D9032307E0FC
:10442000074B5B6803F40033B3F5003FEED1002384
:1044300018460837BD4680BD0038024040000E4295
:104440000070004044000E4280B485B000AF786038
:104450007B6803F00703FB600C4BDB68BB60BA684A
:104460004FF6FF031340BB60FB681A02BB6813439F
:1044700043F0BF6343F40033BB60044ABB68D360BE
:1044800000BF1437BD465DF8047B704700ED00E0C7
:1044900080B400AF044BDB681B0A03F00703184627
:1044A000BD465DF8047B704700ED00E080B483B04A
:1044B00000AF0346FB7197F90730002B0BDBFB794C
:1044C00003F01F02074997F907305B09012000FA42
:1044D00002F241F8232000BF0C37BD465DF8047B93
:1044E000704700BF00E100E080B483B000AF034636
:1044F0003960FB7197F90730002B0ADB3B68DAB2B1
:104500000C4997F907301201D2B20B4483F800230B
:104510000AE03B68DAB20849FB7903F00F03043B79
:104520001201D2B20B441A7600BF0C37BD465DF8BB
:10453000047B704700E100E000ED00E080B489B04A
:1045400000AFF860B9607A60FB6803F00703FB61B5
:10455000FB69C3F10703042B28BF0423BB61FB697C
:104560000433062B02D9FB69033B00E000237B6187
:104570004FF0FF32BB6902FA03F3DA43BB681A401B
:104580007B699A404FF0FF317B6901FA03F3D9430D
:104590007B680B40134318462437BD465DF8047B07
:1045A000704780B582B000AF78607868FFF74CFF45
:1045B00000BF0837BD4680BD80B586B000AF03465A
:1045C000B9607A60FB7300237B61FFF761FF78615C
:1045D0007A68B9687869FFF7B1FF024697F90F303A
:1045E00011461846FFF780FF00BF1837BD4680BD53
:1045F00080B582B000AF0346FB7197F907301846CB
:10460000FFF754FF00BF0837BD4680BD80B500AF3F
:104610000E4B1B680D4A43F4007313600B4B1B6871
:104620000A4A43F480631360084B1B68074A43F44B
:10463000807313600320FFF7B4FF0F2006F0C6FC61
:10464000FDF712F90023184680BD00BF003C024070
:1046500080B400AF064B1B781A46064B1B68134408
:10466000044A136000BFBD465DF8047B704700BF7D
:10467000040000206C18002080B400AF034B1B68BE
:104680001846BD465DF8047B704700BF6C180020DB
:1046900080B584B000AF7860FFF7EEFFB8607B684C
:1046A000FB60FB68B3F1FF3F05D00A4B1B781A464D
:1046B000FB681344FB6000BFFFF7DEFF0246BB68E8
:1046C000D31AFA689A42F7D800BF00BF1037BD4628
:1046D00080BD00BF0400002080B584B000AF7860CA
:1046E0007B68002B01D10123EDE07B6893F820303B
:1046F000DBB2002B02D17868FDF704FA7B681B68F7
:104700001A687B681B6842F001021A60FFF7B4FF69
:10471000F86012E0FFF7B0FF0246FB68D31A0A2BDD
:104720000BD97B685B6A43F400327B685A627B6812
:10473000052283F820200123C5E07B681B685B68A5
:1047400003F00103002BE5D07B681B681A687B68C7
:104750001B6822F002021A60FFF78EFFF86012E079
:10476000FFF78AFF0246FB68D31A0A2B0BD97B6836
:104770005B6A43F400327B685A627B68052283F8E7
:10478000202001239FE07B681B685B6803F0020325
:10479000002BE5D17B681B7E012B08D17B681B6851
:1047A0001A687B681B6842F080021A6007E07B6829
:1047B0001B681A687B681B6822F080021A607B689D
:1047C0005B7E012B08D17B681B681A687B681B68BD
:1047D00042F040021A6007E07B681B681A687B6839
:1047E0001B6822F040021A607B689B7E012B08D177
:1047F0007B681B681A687B681B6842F020021A609D
:1048000007E07B681B681A687B681B6822F020023F
:104810001A607B68DB7E012B08D17B681B681A68F5
:104820007B681B6822F010021A6007E07B681B6837
:104830001A687B681B6842F010021A607B681B7F55
:10484000012B08D17B681B681A687B681B6842F0E3
:1048500008021A6007E07B681B681A687B681B689F
:1048600022F008021A607B685B7F012B08D17B680D
:104870001B681A687B681B6842F004021A6007E034
:104880007B681B681A687B681B6822F004021A6048
:104890007B689A687B68DB681A437B681B691A43EC
:1048A0007B685B6942EA03017B685B685A1E7B6830
:1048B0001B680A43DA617B6800225A627B68012226
:1048C00083F82020002318461037BD4680BD000025
:1048D00080B487B000AF786039607B681B687B610B
:1048E0007B6893F82030FB74FB7C012B03D0FB7CAE
:1048F000022B40F0BE80654B7B617B69D3F80032B0
:1049000043F001027B69C3F800227B69D3F80032CF
:1049100023F47C527B69C3F800227B69D3F8002220
:104920003B685B6A1B021A437B69C3F800223B6841
:104930005B6903F01F03012202FA03F3FB607B694A
:10494000D3F81C22FB68DB431A407B69C3F81C22A6
:104950003B68DB69002B23D17B69D3F80C22FB6811
:10496000DB431A407B69C3F80C223B68DB681904FF
:104970003B685B689BB23A68526919437B6948326D
:1049800043F832103B689B6819043B681B689AB275
:104990003B685B690A4379694833DB000B445A6022
:1049A0003B68DB69012B22D17B69D3F80C22FB68C1
:1049B0001A437B69C3F80C223B681B6819043B68E7
:1049C0005B689BB23A68526919437B69483243F885
:1049D00032103B689B6819043B68DB689AB23B68FD
:1049E0005B690A4379694833DB000B445A603B68D2
:1049F0009B69002B09D17B69D3F80422FB68DB4358
:104A00001A407B69C3F8042207E07B69D3F80422CB
:104A1000FB681A437B69C3F804223B681B69002BBF
:104A200009D17B69D3F81422FB68DB431A407B6908
:104A3000C3F8142207E07B69D3F81422FB681A43F9
:104A40007B69C3F814223B681B6A012B07D17B6981
:104A5000D3F81C22FB681A437B69C3F81C227B69CC
:104A6000D3F8003223F001027B69C3F8002200234F
:104A700006E07B685B6A43F480227B685A6201230C
:104A800018461C37BD465DF8047B70470064004043
:104A900080B487B000AFF860B9607A603B60FB68B3
:104AA00093F82030FB75FB7D012B03D0FB7D022B9F
:104AB00040F0F380BB68002B0ED1FB681B68DB68FD
:104AC00003F00303002B16D1FB685B6A43F400126A
:104AD000FB685A620123E7E0FB681B681B6903F06F
:104AE0000303002B07D1FB685B6A43F40012FB68E9
:104AF0005A620123D8E0FB681A68BB681B331B01AC
:104B000013441B6803F004027B689A607B689B680F
:104B1000002B0CD1FB681A68BB681B331B011344C4
:104B20001B685B0DC3F30A027B681A600BE0FB682D
:104B30001A68BB681B331B0113441B68DB0823F096
:104B400060427B685A60FB681A68BB681B331B01B4
:104B500013441B6803F002027B68DA60FB681A6882
:104B6000BB681B331B01134404331B6803F00F02A3
:104B70007B681A61FB681A68BB681B331B0113440E
:104B800004331B681B0ADAB27B689A61FB681A68F7
:104B9000BB681B331B01134404331B681B0C9AB204
:104BA0007B685A61FB681A68BB681B01134403F5F4
:104BB000DC731B68DAB23B681A70FB681A68BB6862
:104BC0001B01134403F5DC731B681A0A3B680133AD
:104BD000D2B21A70FB681A68BB681B01134403F554
:104BE000DC731B681A0C3B680233D2B21A70FB6884
:104BF0001A68BB681B01134403F5DC731B681A0EAB
:104C00003B680333D2B21A70FB681A68BB681B0199
:104C1000134403F5DE731A683B680433D2B21A708A
:104C2000FB681A68BB681B01134403F5DE731B683D
:104C30001A0A3B680533D2B21A70FB681A68BB685F
:104C40001B01134403F5DE731B681A0C3B68063323
:104C5000D2B21A70FB681A68BB681B01134403F5D3
:104C6000DE731B681A0E3B680733D2B21A70BB683A
:104C7000002B08D1FB681B68DA68FB681B6842F0F0
:104C80002002DA6007E0FB681B681A69FB681B6892
:104C900042F020021A61002306E0FB685B6A43F4DD
:104CA0008022FB685A62012318461C37BD465DF816
:104CB000047B704780B485B000AF786039607B6852
:104CC00093F82030FB73FB7B012B02D0FB7B022B84
:104CD00009D17B681B6859697B681B683A680A437D
:104CE0005A61002306E07B685B6A43F480227B689C
:104CF0005A62012318461437BD465DF8047B70479D
:104D000080B58AB000AF786000237B627B681B6847
:104D10005B693B627B681B685B68FB617B681B6847
:104D20009B68BB617B681B68DB687B617B681B6879
:104D30001B693B617B681B689B69FB603B6A03F0F6
:104D40000103002B7CD0BB6903F00103002B23D0AF
:104D50007B681B6801229A60BB6903F00203002B89
:104D600003D07868FCF708F916E0BB6903F0040388
:104D7000002B04D07B6A43F400637B620CE0BB69C8
:104D800003F00803002B04D07B6A43F480537B625A
:104D900002E0786800F06BF9BB6903F48073002BC4
:104DA00024D07B681B684FF480729A60BB6903F45F
:104DB0000073002B03D07868FCF7E8F816E0BB69B5
:104DC00003F48063002B04D07B6A43F400537B62BE
:104DD0000CE0BB6903F40063002B04D07B6A43F44E
:104DE00080437B6202E0786800F04BF9BB6903F412
:104DF0008033002B24D07B681B684FF480329A608C
:104E0000BB6903F40033002B03D07868FCF7C8F8C3
:104E100016E0BB6903F48023002B04D07B6A43F4C3
:104E200000437B620CE0BB6903F40023002B04D039
:104E30007B6A43F480337B6202E0786800F02BF9F0
:104E40003B6A03F00803002B0CD07B6903F01003CE
:104E5000002B07D07B6A43F400737B627B681B687E
:104E60001022DA603B6A03F00403002B0BD07B694D
:104E700003F00803002B06D07B681B680822DA6069
:104E8000786800F012F93B6A03F00203002B09D0A6
:104E90007B681B68DB6803F00303002B02D0786893
:104EA000FCF736F83B6A03F04003002B0CD03B695B
:104EB00003F01003002B07D07B6A43F480637B620E
:104EC0007B681B6810221A613B6A03F02003002BE9
:104ED0000BD03B6903F00803002B06D07B681B68EE
:104EE00008221A61786800F0EAF83B6A03F01003C0
:104EF000002B09D07B681B681B6903F00303002BA0
:104F000002D07868FCF71EF83B6A03F40033002BEC
:104F10000BD0FB6903F01003002B06D07B681B68E5
:104F200010225A60786800F0D4F83B6A03F48033AA
:104F3000002B0BD0FB6903F00803002B06D07B6825
:104F40001B6808225A60786800F0CDF83B6A03F4C9
:104F50000043002B7BD0FB6903F00403002B72D0CD
:104F60003B6A03F48073002B08D0FB6803F0010355
:104F7000002B03D07B6A43F001037B623B6A03F49E
:104F80000073002B08D0FB6803F00203002B03D052
:104F90007B6A43F002037B623B6A03F48063002B6D
:104FA00008D0FB6803F00403002B03D07B6A43F0B6
:104FB00004037B623B6A03F40063002B43D0FB686D
:104FC00003F07003002B3ED0FB6803F07003602BEE
:104FD0002BD0602B2ED8502B22D0502B2AD8402BF0
:104FE00019D0402B26D8302B10D0302B22D8102BA4
:104FF00002D0202B05D01DE07B6A43F008037B62C2
:1050000019E07B6A43F010037B6214E07B6A43F093
:1050100020037B620FE07B6A43F040037B620AE07F
:105020007B6A43F080037B6205E07B6A43F4807314
:105030007B6200E000BF7B681B689A697B681B6825
:1050400022F070029A617B681B6804225A607B6AB6
:10505000002B08D07B685A6A7B6A1A437B685A62C5
:10506000786800F04AF800BF2837BD4680BD80B49C
:1050700083B000AF786000BF0C37BD465DF8047B9D
:10508000704780B483B000AF786000BF0C37BD4676
:105090005DF8047B704780B483B000AF786000BFD8
:1050A0000C37BD465DF8047B704780B483B000AF19
:1050B000786000BF0C37BD465DF8047B704780B454
:1050C00083B000AF786000BF0C37BD465DF8047B4D
:1050D000704780B483B000AF786000BF0C37BD4626
:1050E0005DF8047B704780B483B000AF786000BF88
:1050F0000C37BD465DF8047B704780B483B000AFC9
:10510000786000BF0C37BD465DF8047B704780B502
:1051100082B000AF78607B68002B01D1012341E0B1
:105120007B6893F83D30DBB2002B06D17B68002210
:1051300083F83C20786800F039F87B68022283F815
:105140003D207B681A687B6804331946104600F0DE
:10515000D7F97B68012283F846207B68012283F817
:105160003E207B68012283F83F207B68012283F880
:1051700040207B68012283F841207B68012283F86C
:1051800042207B68012283F843207B68012283F858
:1051900044207B68012283F845207B68012283F844
:1051A0003D20002318460837BD4680BD80B483B03B
:1051B00000AF786000BF0C37BD465DF8047B7047D8
:1051C00080B485B000AF78607B6893F83D30DBB287
:1051D000012B01D001234EE07B68022283F83D20A1
:1051E0007B681B68DA687B681B6842F00102DA6042
:1051F0007B681B68234A934222D07B681B68B3F10B
:10520000804F1DD07B681B681F4A934218D07B6873
:105210001B681E4A934213D07B681B681C4A93424A
:105220000ED07B681B681B4A934209D07B681B68C1
:10523000194A934204D07B681B68184A934211D1E3
:105240007B681B689B6803F00703FB60FB68062B09
:1052500010D07B681B681A687B681B6842F00102EB
:105260001A6007E07B681B681A687B681B6842F05D
:1052700001021A60002318461437BD465DF8047B0E
:10528000704700BF000001400004004000080040DB
:10529000000C0040000401400040014000180040A4
:1052A00080B582B000AF78607B681B681B6903F033
:1052B0000203022B22D17B681B68DB6803F0020328
:1052C000022B1BD17B681B686FF002021A617B689E
:1052D00001221A777B681B689B6903F00303002B8C
:1052E00003D0786800F0EEF805E0786800F0E0F8A8
:1052F000786800F0F1F87B6800221A777B681B68F9
:105300001B6903F00403042B22D17B681B68DB6854
:1053100003F00403042B1BD17B681B686FF00402AD
:105320001A617B6802221A777B681B689B6903F409
:105330004073002B03D0786800F0C4F805E078686B
:1053400000F0B6F8786800F0C7F87B6800221A779A
:105350007B681B681B6903F00803082B22D17B685C
:105360001B68DB6803F00803082B1BD17B681B68F4
:105370006FF008021A617B6804221A777B681B6849
:10538000DB6903F00303002B03D0786800F09AF880
:1053900005E0786800F08CF8786800F09DF87B688C
:1053A00000221A777B681B681B6903F01003102B1F
:1053B00022D17B681B68DB6803F01003102B1BD124
:1053C0007B681B686FF010021A617B6808221A77ED
:1053D0007B681B68DB6903F44073002B03D078689B
:1053E00000F070F805E0786800F062F8786800F086
:1053F00073F87B6800221A777B681B681B6903F0CF
:105400000103012B0ED17B681B68DB6803F00103ED
:10541000012B07D17B681B686FF001021A61786865
:10542000FCF7A0F97B681B681B6903F08003802BE5
:105430000ED17B681B68DB6803F08003802B07D1EB
:105440007B681B686FF080021A61786800F002F9CF
:105450007B681B681B6903F04003402B0ED17B68FF
:105460001B68DB6803F04003402B07D17B681B6897
:105470006FF040021A61786800F038F87B681B68AA
:105480001B6903F02003202B0ED17B681B68DB68AF
:1054900003F02003202B07D17B681B686FF02002EC
:1054A0001A61786800F0CCF800BF0837BD4680BDAF
:1054B00080B483B000AF786000BF0C37BD465DF8A4
:1054C000047B704780B483B000AF786000BF0C37B6
:1054D000BD465DF8047B704780B483B000AF786050
:1054E00000BF0C37BD465DF8047B704780B483B0C5
:1054F00000AF786000BF0C37BD465DF8047B704795
:1055000080B485B000AF786039607B681B68FB6051
:105510007B68404A934213D07B68B3F1804F0FD031
:105520007B683D4A93420BD07B683C4A934207D04C
:105530007B683B4A934203D07B683A4A934208D146
:10554000FB6823F07003FB603B685B68FA681343F9
:10555000FB607B682F4A93422BD07B68B3F1804F6E
:1055600027D07B682C4A934223D07B682B4A9342F6
:105570001FD07B682A4A93421BD07B68294A9342FA
:1055800017D07B68284A934213D07B68274A9342FE
:105590000FD07B68264A93420BD07B68254A934202
:1055A00007D07B68244A934203D07B68234A934206
:1055B00008D1FB6823F44073FB603B68DB68FA6842
:1055C0001343FB60FB6823F080023B685B69134375
:1055D000FB607B68FA681A603B689A687B68DA62ED
:1055E0003B681A687B689A627B680A4A934203D0D8
:1055F0007B680C4A934203D13B681A697B681A6343
:105600007B6801225A6100BF1437BD465DF8047BF8
:10561000704700BF00000140000400400008004047
:10562000000C0040000401400040014000440140E3
:105630000048014000180040001C004000200040CD
:1056400080B483B000AF786000BF0C37BD465DF812
:10565000047B704780B483B000AF786000BF0C3724
:10566000BD465DF8047B7047F0B58FB00AAF786037
:105670007B68002B01D1012316E17B681B68BB60AE
:105680007B6893F8BD34DBB2002B06D17B68002227
:1056900083F8BC24786803F023F97B68032283F83D
:1056A000BD24BB68DB6B03F48073002B02D17B68E5
:1056B00000221A617B681B68184601F0B4FB7B6806
:1056C0001B683B607E686D4606F110040FCC0FC569
:1056D0000FCC0FC594E8030085E80300331D0ECB03
:1056E000386801F08BFA0346002B05D07B68022254
:1056F00083F8BD240123D7E07B681B68002118468E
:1057000001F0A2FB0023FB734AE0FA7B79681346A1
:10571000DB0013449B000B443D3301221A70FA7BDB
:1057200079681346DB0013449B000B443C33FA7B3F
:105730001A70FA7BFB7B98B279681346DB0013443E
:105740009B000B44443302461A80FA7B7968134667
:10575000DB0013449B000B44403300221A70FA7B99
:1057600079681346DB0013449B000B444833002246
:105770001A60FA7B79681346DB0013449B000B44E4
:105780004C3300221A60FA7B79681346DB0013441D
:105790009B000B44543300221A60FB7B0133FB73E4
:1057A000FA7B7B685B689A42AFD30023FB7344E0CB
:1057B000FA7B79681346DB0013449B000B4403F229
:1057C0007D2300221A70FA7B79681346DB001344AC
:1057D0009B000B4403F51F73FA7B1A70FA7B796800
:1057E0001346DB0013449B000B4403F52073002297
:1057F0001A70FA7B79681346DB0013449B000B4454
:1058000003F5227300221A60FA7B79681346DB00E5
:1058100013449B000B4403F5237300221A60FA7BA8
:1058200079681346DB0013449B000B4403F5257392
:1058300000221A60FB7B0133FB73FA7B7B685B6899
:105840009A42B5D37B681B683B607E686D4606F163
:1058500010040FCC0FC50FCC0FC594E8030085E8EA
:105860000300331D0ECB386801F03AFB0346002BD2
:1058700005D07B68022283F8BD24012314E07B68F5
:10588000002283F838207B68012283F8BD247B68DE
:105890005B6A012B02D1786801F08CF97B681B6888
:1058A000184602F07CFC002318461437BD46F0BDB4
:1058B00080B584B000AF78607B681B68FB607B6854
:1058C00093F8BC34012B01D1022320E07B68012234
:1058D00083F8BC247B689B6A012B09D17B689B6998
:1058E000012B05D0FB689B6B43F48032FB689A6305
:1058F0007B681B68184601F085FA7B681B681846B0
:1059000002F02CFC7B68002283F8BC24002318469C
:105910001037BD4680BD90B58DB000AF78607B6814
:105920001B683B623B6AFB617B681B68184602F0A0
:10593000EAFC0346002B40F0B7847B681B681846DE
:1059400002F04EFC0346002B00F0AD84FB6903F52A
:1059500000639B681B0AC3F30D027B68C3F8FC2439
:105960007B681B68184602F03BFC034603F0020309
:10597000022B07D17B681B685A697B681B6802F0A1
:1059800002025A617B681B68184602F029FC034634
:1059900003F01003102B61D17B681B689A697B6848
:1059A0001B6822F010029A613B6A1B6ABB61BB69EB
:1059B00003F00F021346DB0013449B0003F51E7334
:1059C0007A68134404337B61BB695B0C03F00F03FB
:1059D000022B24D1BA6947F6F0731340002B35D05F
:1059E0007B691969BB691B099BB2C3F30A039BB2AC
:1059F0001A46386A02F060FA7B691A69BB691B09AA
:105A0000C3F30A031A447B691A617B691A6ABB698A
:105A10001B09C3F30A031A447B691A6216E0BB69C7
:105A20005B0C03F00F03062B10D17B6803F2C44319
:105A300008221946386A02F03FFA7B691A6ABB6984
:105A40001B09C3F30A031A447B691A627B681B684B
:105A50009A697B681B6842F010029A617B681B6838
:105A6000184602F0BDFB034603F40023B3F5002FF4
:105A700040F0A78000237B627B681B68184602F019
:105A8000C2FBB86299E0BB6A03F00103002B00F08F
:105A90008E807B681B687A6AD2B21146184602F083
:105AA000E6FB38613B6903F00103002B0CD07B6AF5
:105AB0005A01FB69134403F530631A4601239360CE
:105AC000796A786800F0F0FE3B6903F00803002B68
:105AD0000CD07B6A5A01FB69134403F530631A4604
