:020000040800F2
:1000000000000420D90F0008F50E0008FB0E0008C0
:10001000010F0008070F00080D0F00080000000086
:100020000000000000000000000000003135000862
:10003000130F00080000000041370008A93700082E
:1000400029100008291000082910000829100008AC
:10005000291000082910000829100008291000089C
:10006000291000082910000829100008291000088C
:10007000291000082910000829100008291000087C
:10008000291000082910000829100008291000086C
:10009000291000082910000829100008291000085C
:1000A00029100008210F0008291000082910000855
:1000B000291000082910000829100008291000083C
:1000C000291000082910000829100008291000082C
:1000D000291000082910000829100008291000081C
:1000E000291000082910000829100008291000080C
:1000F00029100008291000082910000829100008FC
:1001000029100008291000082910000829100008EB
:1001100029100008291000082910000829100008DB
:1001200029100008291000082910000829100008CB
:10013000291000080000000000000000000000007E
:10014000000000000000000000000000350F000863
:10015000291000082910000829100008291000089B
:10016000291000082910000829100008291000088B
:1001700029100008291000080000000000000000FD
:10018000291000082910000829100008291000086B
:10019000291000082910000800000000291000089C
:1001A000000000000000000000000000291000080E
:1001B00029100008291000080000000000000000BD
:1001C000000000000000000000000000000000002F
:1001D00000000000000000000000000029100008DE
:1001E00010B5054C237833B9044B13B10448AFF371
:1001F00000800123237010BD740100200000000066
:1002000004C0000808B5034B1BB103490348AFF312
:10021000008008BD000000007801002004C0000834
:1002200053B94AB9002908BF00281CBF4FF0FF315D
:100230004FF0FF3000F074B9ADF1080C6DE904CE59
:1002400000F006F8DDF804E0DDE9022304B07047B1
:100250002DE9F047089D04468E46002B4DD18A4279
:10026000944669D9B2FA82F252B101FA02F3C2F1AC
:10027000200120FA01F10CFA02FC41EA030E94403D
:100280004FEA1C48210CBEFBF8F61FFA8CF708FB5E
:1002900016E341EA034306FB07F199420AD91CEB36
:1002A000030306F1FF3080F01F81994240F21C8168
:1002B000023E63445B1AA4B2B3FBF8F008FB1033B0
:1002C00044EA034400FB07F7A7420AD91CEB0404E5
:1002D00000F1FF3380F00A81A74240F207816444B5
:1002E000023840EA0640E41B00261DB1D44000233A
:1002F000C5E900433146BDE8F0878B4209D9002D9E
:1003000000F0EF800026C5E9000130463146BDE827
:10031000F087B3FA83F6002E4AD18B4202D3824291
:1003200000F2F980841A61EB030301209E46002D40
:10033000E0D0C5E9004EDDE702B9FFDEB2FA82F295
:10034000002A40F09280A1EB0C014FEA1C471FFAF3
:100350008CFE0126200CB1FBF7F307FB131140EADA
:1003600001410EFB03F0884208D91CEB010103F1A7
:10037000FF3802D2884200F2CB804346091AA4B269
:10038000B1FBF7F007FB101144EA01440EFB00FE3D
:10039000A64508D91CEB040400F1FF3102D2A645A2
:1003A00000F2BB800846A4EB0E0440EA03409CE741
:1003B000C6F12007B34022FA07FC4CEA030C20FAEE
:1003C00007F401FA06F31C43F9404FEA1C4900FA0E
:1003D00006F3B1FBF9F8200C1FFA8CFE09FB18118B
:1003E00040EA014108FB0EF0884202FA06F20BD9FE
:1003F0001CEB010108F1FF3A80F08880884240F24E
:100400008580A8F102086144091AA4B2B1FBF9F091
:1004100009FB101144EA014100FB0EFE8E4508D98C
:100420001CEB010100F1FF346CD28E456AD9023811
:10043000614440EA0840A0FB0294A1EB0E01A142F6
:10044000C846A64656D353D05DB1B3EB080261EB64
:100450000E0101FA07F722FA06F3F1401F43C5E93E
:10046000007100263146BDE8F087C2F12003D84074
:100470000CFA02FC21FA03F3914001434FEA1C47B6
:100480001FFA8CFEB3FBF7F007FB10360B0C43EAA8
:10049000064300FB0EF69E4204FA02F408D91CEB58
:1004A000030300F1FF382FD29E422DD90238634456
:1004B0009B1B89B2B3FBF7F607FB163341EA0341F6
:1004C00006FB0EF38B4208D91CEB010106F1FF3845
:1004D00016D28B4214D9023E6144C91A46EA00463C
:1004E00038E72E46284605E70646E3E61846F8E6CE
:1004F0004B45A9D2B9EB020864EB0C0E0138A3E717
:100500004646EAE7204694E74046D1E7D0467BE7F7
:10051000023B614432E7304609E76444023842E76F
:10052000704700BF80B500AF09F0B0F900F022F8C5
:1005300000F020FA00F08CF800F0DCF800F02CF964
:1005400000F07CF900F0B0F900F0EEF902F062FD85
:10055000054A0021054802F0C7FD0346044A13601E
:1005600002F08CFDFEE700BF98C00008550A0008A5
:100570000403002080B594B000AF07F120033022BF
:10058000002118460BF038FC07F10C0300221A601A
:100590005A609A60DA601A612B4B1B6C2A4A43F04E
:1005A00080531364284B1B6C03F08053BB60BB6803
:1005B000264B1B68254A43F440431360234B1B68BA
:1005C00003F440437B607B6809233B624FF4A02324
:1005D0007B6201237B630223BB634FF48003FB63D5
:1005E00004233B64C8237B640223BB640823FB64AD
:1005F00007F12003184608F079F80346002B01D0D4
:1006000000F056FA07F0D8FC0346002B01D000F0AA
:100610004FFA0F23FB6002233B6100237B614FF401
:10062000A053BB614FF48053FB6107F10C0306211B
:10063000184608F0FFFA0346002B01D000F038FA04
:1006400000BF5037BD4680BD0038024000700040FA
:1006500080B584B000AF3B4600221A605A609A60B1
:10066000DA60214B214A1A601F4B4FF480325A60E6
:100670001D4B00229A601C4B00221A611A4B00226B
:100680009A61194B002283F82020174B0022DA626E
:10069000154B174A9A62144B0022DA60124B012262
:1006A000DA61114B002283F830200F4B01225A618E
:1006B0000D4805F07BFA0346002B01D000F0F8F955
:1006C00002233B6001237B600023BB603B4619464D
:1006D000054805F0AFFA0346002B01D000F0E8F919
:1006E00000BF1037BD4680BD9001002000200140B2
:1006F0000100000F80B584B000AF3B4600221A60B5
:100700005A609A60DA60214B214A1A601F4B4FF4FD
:1007100080325A601D4B00229A601C4B00221A61E5
:100720001A4B00229A61194B002283F82020174BA4
:100730000022DA62154B174A9A62144B0022DA60E3
:10074000124B0122DA61114B002283F830200F4B4B
:1007500001225A610D4805F029FA0346002B01D009
:1007600000F0A6F903233B6001237B600023BB60FC
:100770003B461946054805F05DFA0346002B01D0BB
:1007800000F096F900BF1037BD4680BDD8010020AB
:10079000002101400100000F80B584B000AF3B464E
:1007A00000221A605A609A60DA60214B214A1A606E
:1007B0001F4B4FF480325A601D4B00229A601C4B35
:1007C00000221A611A4B00229A61194B002283F809
:1007D0002020174B0022DA62154B174A9A62144BFD
:1007E0000022DA60124B0122DA61114B002283F8F9
:1007F00030200F4B01225A610D4805F0D7F903460E
:10080000002B01D000F054F901233B6001237B60F1
:100810000023BB603B461946054805F00BFA03462A
:10082000002B01D000F044F900BF1037BD4680BD59
:1008300020020020002201400100000F80B500AF1F
:10084000174B184A1A60164B0A225A60144B0022A2
:100850009A60134B0022DA60114B4FF400321A6198
:100860000F4B00225A610E4B00221A760C4B0022CD
:100870005A760B4B00229A76094B0022DA76084B07
:1008800000221A77064B00225A77054805F022FC11
:100890000346002B01D000F00BF900BF80BD00BF64
:1008A000680200200064004080B500AF1B4B1C4A6A
:1008B0001A601A4B1B4A5A60184B00229A60174B59
:1008C0000122DA60154B00221A61144B00225A6192
:1008D000124B00229A61114B0022DA610F4B002269
:1008E0001A620E4806F020F80346002B01D000F0F3
:1008F000DFF80021094805F080FF0346002B01D0F6
:1009000000F0D6F80021054805F0C2FF0346002B91
:1009100001D000F0CDF800BF80BD00BF90020020E4
:1009200000540040FFEAC00080B500AF0F4B104AF2
:100930001A600E4B00225A600C4B7F229A600B4BC0
:10094000FF22DA60094B00221A61084B00225A612B
:10095000064B00229A61054808F0B0FB0346002BC5
:1009600001D000F0A5F800BF80BD00BFE402002068
:100970000028004080B58AB000AF07F114030022C0
:100980001A605A609A60DA601A612F4B1B6B2E4A0C
:1009900043F0040313632C4B1B6B03F004033B6114
:1009A0003B69294B1B6B284A43F080031363264B9A
:1009B0001B6B03F08003FB60FB68234B1B6B224A1D
:1009C00043F001031363204B1B6B03F00103BB6077
:1009D000BB681D4B1B6B1C4A43F0020313631A4B8D
:1009E0001B6B03F002037B607B6800224FF4005115
:1009F000164805F0E9FE00224FF4F071144805F0A6
:100A0000E3FE4FF400537B610123BB610223FB61D2
:100A100000233B6207F1140319460C4805F038FD2A
:100A20004FF4F0737B610123BB610223FB61002360
:100A30003B6207F114031946054805F029FD00BF84
:100A40002837BD4680BD00BF003802400008024084
:100A50000000024080B594B000AF78600AF0F4FB6B
:100A6000084BDB6807F14C0107F10C021046984770
:100A70000F2105480AF0A6FC4FF4FA7002F0DAFBE9
:100A8000EEE700BF9C00002028C0000880B582B0BF
:100A900000AF78607B681B68044A934201D108F07C
:100AA00003FF00BF0837BD4680BD00BF0000014006
:100AB00080B400AF72B600BFFEE7000080B582B020
:100AC00000AF114B1B6C104A43F0805313640E4B64
:100AD0001B6C03F080537B607B680B4B5B6C0A4A9A
:100AE00043F480435364084B5B6C03F480433B60E6
:100AF0003B6800220F216FF0010005F09FFC00BF52
:100B00000837BD4680BD00BF0038024080B58EB0BA
:100B100000AF786007F1240300221A605A609A60DF
:100B2000DA601A617B681B684B4A934224D14B4BB5
:100B30005B6C4A4A43F480735364484B5B6C03F428
:100B400080733B623B6A454B1B6B444A43F0010395
:100B50001363424B1B6B03F00103FB61FB6914231E
:100B60007B620323BB620023FB6207F12403194667
:100B70003B4805F08DFC6AE07B681B68394A93426C
:100B80003CD1364B5B6C354A43F400735364334BB2
:100B90005B6C03F40073BB61BB69304B1B6B2F4A6A
:100BA00043F0040313632D4B1B6B03F004037B61C1
:100BB0007B692A4B1B6B294A43F001031363274BC4
:100BC0001B6B03F001033B613B6908237B6203233A
:100BD000BB620023FB6207F124031946224805F09B
:100BE00057FC09237B620323BB620023FB6207F1EE
:100BF000240319461A4805F04BFC28E07B681B6863
:100C00001A4A934223D1154B5B6C144A43F4806318
:100C10005364124B5B6C03F48063FB60FB680F4B07
:100C20001B6B0E4A43F0010313630C4B1B6B03F069
:100C30000103BB60BB6802237B620323BB6200230A
:100C4000FB6207F124031946054805F021FC00BFAB
:100C50003837BD4680BD00BF00200140003802404B
:100C60000000024000210140000802400022014033
:100C700080B58AB000AF786007F1140300221A60D3
:100C80005A609A60DA601A617B681B68174A93425F
:100C900028D1174B1B6C164A43F000731364144B96
:100CA0001B6C03F000733B613B69114B1B6B104ADB
:100CB00043F0020313630E4B1B6B03F00203FB6054
:100CC000FB684FF440737B610223BB610023FB612F
:100CD00003233B6209237B6207F11403194605488D
:100CE00005F0D6FB00BF2837BD4680BD006400403C
:100CF000003802400004024080B5AAB000AF78601E
:100D000007F1940300221A605A609A60DA601A614F
:100D100007F114038022002118460BF06DF87B6860
:100D20001B68214A93423BD14FF480437B610023EF
:100D30003B6707F11403184607F08EF90346002BB2
:100D400001D0FFF7B5FE194B1B6B184A43F00203A5
:100D50001363164B1B6B03F002033B613B69C0231B
:100D6000C7F894301223C7F898300023C7F89C3096
:100D70000323C7F8A0300423C7F8A43007F1940375
:100D800019460B4805F084FB084B1B6C074A43F4DB
:100D900000131364054B1B6C03F40013FB60FB682A
:100DA00000BFA837BD4680BD005400400038024057
:100DB0000004024080B5A2B000AF786007F10803DC
:100DC0008022002118460BF017F87B681B680E4A3A
:100DD000934214D12023BB604FF400733B6307F1AF
:100DE0000803184607F038F90346002B01D0FFF737
:100DF0005FFE064B1B6F054A43F40043136700BFB9
:100E00008837BD4680BD00BF002800400038024042
:100E100080B58CB000AF78600023BB6200237B629A
:100E20002F4B5B6C2E4A43F0010353642C4B5B6CDD
:100E300003F00103BB60BB6807F10C0207F110036C
:100E40001146184608F008F908F0F2F803465B006E
:100E5000BB62BB6A234AA2FB03239B0C013B7B6260
:100E6000214B224A1A60204B40F2E732DA601E4AD8
:100E70007B6A53601C4B00221A611B4B00229A6054
:100E8000194B00229A61184808F03EFA034687F889
:100E90002F3097F82F30002B1BD1134808F096FA0B
:100EA000034687F82F3097F82F30002B11D11920E7
:100EB00005F0E0FA7B680F2B08D80022796819202A
:100EC00005F0BCFA0A4A7B68136002E0012387F848
:100ED0002F3097F82F3018463037BD4680BD00BF01
:100EE0000038024083DE1B4308030020000001405D
:100EF0009400002080B400AFFEE780B400AFFEE7AE
:100F000080B400AFFEE780B400AFFEE780B400AF6E
:100F1000FEE780B400AF00BFBD465DF8047B7047BC
:100F200080B500AF024808F0C9FA00BF80BD00BF1D
:100F30000803002080B500AF024805F047FF00BF5E
:100F400080BD00BF8461002080B586B000AF7860AE
:100F5000144A154BD31A7B617B693B61134B1B68A9
:100F6000002B02D1114B124A1A60104B1A687B6891
:100F700013443A699A4207D20AF0F6FE03460C225D
:100F80001A604FF0FF3309E0084B1B68FB60074B0A
:100F90001A687B681344054A1360FB6818461837C3
:100FA000BD4680BD00000420000400005403002062
:100FB000A066002080B400AF064BD3F88830054A05
:100FC00043F47003C2F8883000BFBD465DF8047B6F
:100FD000704700BF00ED00E0DFF834D00D480E4947
:100FE0000E4A002302E0D458C4500433C4188C4283
:100FF000F9D30B4A0B4C002301E013600432A242E8
:10100000FBD3FFF7D7FF0AF0B5FEFFF78BFA704767
:10101000000004200000002074010020E4C000084B
:10102000740100209C660020FEE7000080B584B0BB
:1010300000AF78600B46FB704FF407700AF0BEFEFD
:101040000346FB60FB68002B09D17B68D3F8D422F0
:101050007B68B032002143F822100223D4E04FF421
:1010600007720021F8680AF0C7FE7B68D3F8D42223
:101070007B68B032F96843F822107B68D3F8D42239
:101080007B68B03253F822207B68C3F8BC227B68AF
:101090001B7C002B38D15E4B19784FF40073022271
:1010A00078680AF0BEFC5A4B1B7803F00F0279688F
:1010B00013469B0013449B000B44243301221A80E7
:1010C000544B19784FF40073022278680AF0A9FC97
:1010D000504B1B7803F00F02796813469B001344B2
:1010E0009B000B4403F5B27301221A804A4B1B7814
:1010F00003F00F02796813469B0013449B000B44D6
:10110000263310221A8035E0414B19784023022201
:1011100078680AF086FC3E4B1B7803F00F02796872
:1011200013469B0013449B000B44243301221A8076
:10113000384B19784023022278680AF072FC354B4C
:101140001B7803F00F02796813469B0013449B0041
:101150000B4403F5B27301221A802F4B1B7803F066
:101160000F02796813469B0013449B000B442633FF
:1011700010221A80284B19780823032278680AF075
:1011800050FC254B1B7803F00F02796813469B0037
:1011900013449B000B44243301221A80FB68002275
:1011A000C3F804227B68D3F8D4327A68B0339B004A
:1011B00013445B681B689847FB680022C3F814223D
:1011C000FB680022C3F81822FB68D3F80432002B16
:1011D00001D1022318E07B681B7C002B0AD10D4B48
:1011E0001978FB68D3F804224FF4007378680AF08A
:1011F00007FD08E0074B1978FB68D3F80422402369
:1012000078680AF0FDFC002318461037BD4680BD03
:101210008B0000208C0000208D00002080B582B063
:1012200000AF78600B46FB703A4B1B781946786824
:101230000AF01DFC374B1B7803F00F027968134648
:101240009B0013449B000B44243300221A80324B32
:101250001B78194678680AF00AFC2F4B1B7803F0BC
:101260000F02796813469B0013449B000B4403F55F
:10127000B27300221A80294B1B78194678680AF04D
:10128000F6FB264B1B7803F00F02796813469B0090
:1012900013449B000B44243300221A801F4B1B78FD
:1012A00003F00F02796813469B0013449B000B4424
:1012B000263300221A807B68D3F8D4227B68B032B0
:1012C00053F82230002B1FD07B68D3F8D4327A68D1
:1012D000B0339B0013445B685B6898477B68D3F826
:1012E000D4227B68B03253F8223018460AF06EFDE3
:1012F0007B68D3F8D4227B68B032002143F82210F7
:101300007B680022C3F8BC22002318460837BD467C
:1013100080BD00BF8B0000208C0000208D000020CD
:1013200080B586B000AF786039607B68D3F8D4228E
:101330007B68B03253F822303B6100237B7300237B
:101340007B810023FB753B69002B01D10323BFE0A8
:101350003B681B7803F06003002B50D0202B40F03B
:10136000AF803B68DB88002B3AD03B681B785BB2D0
:10137000002B1BDA7B68D3F8D4327A68B0339B0039
:1013800013445B689B683A68507839693A68D28838
:1013900098473B68DB88072B28BF0723FB813B6905
:1013A000FA891946786801F0ADFD90E03B685A78FB
:1013B0003B6983F800223B68DB883F2B03D83B68FE
:1013C000DB88DAB200E040223B6983F80122396908
:1013D0003B6993F801321A46786801F0BFFD76E068
:1013E0007B68D3F8D4327A68B0339B0013445B68CF
:1013F0009B683A68507800223968984767E03B68F4
:101400005B780B2B51D801A252F823F03D14000851
:10141000B9140008AB140008AB140008AB140008A2
:10142000AB140008AB140008AB140008AB140008A0
:10143000AB14000867140008911400087B6893F847
:101440009C32DBB2032B07D107F10A0302221946B3
:10145000786801F057FD32E03968786801F0E1FC06
:101460000323FB752BE07B6893F89C32DBB2032BE4
:1014700007D107F10D0301221946786801F042FDFA
:101480001DE03968786801F0CCFC0323FB7516E099
:101490007B6893F89C32DBB2032B0FD039687868F5
:1014A00001F0BFFC0323FB7508E03968786801F0A0
:1014B000B8FC0323FB7502E000BF08E000BF06E0B4
:1014C0003968786801F0ADFC0323FB7500BFFB7D34
:1014D00018461837BD4680BD80B584B000AF78602F
:1014E0000B46FB707B68D3F8C832FB607B68D3F88F
:1014F000D4227B68B03253F82230002B01D1032371
:1015000065E07B68D3F8D4227B68B03253F8223090
:10151000BB60FB7803F00F02796813469B0013440D
:101520009B000B4418331B68002B2FD0FB7803F073
:101530000F02796813469B0013449B000B44183339
:101540001A68FB7803F00F01F8680B46DB000B44C8
:101550009B00034448331B68B2FBF3F101FB03F328
:10156000D31A002B12D1FB7803F00F0279681346CF
:101570009B0013449B000B44183300221A60F97837
:101580000023002278680AF01AFB1FE0BB680022E3
:10159000C3F814227B68D3F8D4327A68B0339B0046
:1015A00013445B681B69002B10D07B68D3F8D432DE
:1015B0007A68B0339B0013445B681B69BA68D2F841
:1015C0000802BA6802F50471FA78984700231846B1
:1015D0001037BD4680BD80B584B000AF78600B4643
:1015E000FB707B68D3F8D4227B68B03253F822308A
:1015F000FB607B68D3F8D4227B68B03253F822308A
:10160000002B01D103231AE0FB78194678680AF011
:1016100018FB0246FB68C3F80C227B68D3F8D4326F
:101620007A68B0339B0013445B68DB68FA68D2F8D1
:101630000402FA6802F5037211469847002318461F
:101640001037BD4680BD80B584B000AF78607B6840
:10165000D3F8D4227B68B03253F82230FB60FB68A9
:10166000002B01D1032325E07B68D3F8D4327A68BC
:10167000B0339B0013445B68002B1AD0FB6893F8CF
:101680000032FF2B15D07B68D3F8D4327A68B033A0
:101690009B0013445B689B68FA6892F80002F96843
:1016A000FA6892F8012292B29847FB68FF2283F809
:1016B0000022002318461037BD4680BD80B586B095
:1016C00000AF78608221184800F049FD786101215F
:1016D000154800F044FD38618121134800F03FFDBA
:1016E000F8607B69002B02D07B6910229A713B69FC
:1016F000002B06D03B69002242F040021A71002202
:101700005A71FB68002B06D0FB68002242F04002B1
:101710001A7100225A717B6843221A80024B1846C4
:101720001837BD4680BD00BF4800002080B586B098
:1017300000AF78608221184800F011FD7861012126
:10174000154800F00CFD38618121134800F007FDB9
:10175000F8607B69002B02D07B6910229A713B698B
:10176000002B06D03B6900221A71002242F00202CF
:101770005A71FB68002B06D0FB6800221A71002208
:1017800042F002025A717B6843221A80024B1846CB
:101790001837BD4680BD00BF4800002080B586B028
:1017A00000AF78608221184800F0D9FC78610121EF
:1017B000154800F0D4FC38618121134800F0CFFCBB
:1017C000F8607B69002B02D07B6910229A713B691B
:1017D000002B06D03B69002242F040021A71002221
:1017E0005A71FB68002B06D0FB68002242F04002D1
:1017F0001A7100225A717B6843221A80024B1846E4
:101800001837BD4680BD00BF4800002080B483B0BB
:1018100000AF78607B680A221A80034B18460C37A9
:10182000BD465DF8047B70470400002080B483B09F
:1018300000AF786039603B68002B01D1032309E0D9
:101840007B68D3F8D4327A68B0339B0013443A688B
:101850005A60002318460C37BD465DF8047B70477C
:1018600080B487B000AFF860B9607A60FB68D3F8E5
:10187000D422FB68B03253F822307B617B69002BA5
:1018800001D1032308E07B69BA68C3F808227B69A9
:101890007A68C3F81022002318461C37BD465DF84D
:1018A000047B704780B485B000AF786039607B6896
:1018B000D3F8D4227B68B03253F82230FB60FB6847
:1018C000002B01D1032304E0FB683A68C3F804222B
:1018D000002318461437BD465DF8047B70470000AE
:1018E00080B584B000AF78607B68D3F8D4227B6881
:1018F000B03253F82230BB600123FB73BB68002B6E
:1019000001D1032325E0BB68D3F81432002B1FD18B
:10191000BB680122C3F81422104B1B7803F00F029E
:10192000BB68D3F81012786813469B0013449B00E1
:10193000034418331960094B1978BB68D3F808229F
:10194000BB68D3F8103278680AF039F90023FB73CA
:10195000FB7B18461037BD4680BD00BF8B000020C2
:1019600080B584B000AF78607B68D3F8D4227B6800
:10197000B03253F82230FB607B68D3F8D4227B6806
:10198000B03253F82230002B01D1032318E07B68DA
:101990001B7C002B0AD10C4B1978FB68D3F804226E
:1019A0004FF4007378680AF02BF908E0064B1978B9
:1019B000FB68D3F80422402378680AF021F9002359
:1019C00018461037BD4680BD8C00002080B586B01B
:1019D00000AFF860B9601346FB71FB68002B01D1C2
:1019E00003231FE0FB680022C3F8B822FB68002233
:1019F000C3F8C422FB680022C3F8D022BB68002BC6
:101A000003D0FB68BA68C3F8B422FB68012283F8EC
:101A10009C22FB68FA791A70F86809F09BFF03466C
:101A2000FB75FB7D18461837BD4680BD80B584B078
:101A300000AF786039600023FB813B68002B01D147
:101A4000032325E07B683A68C3F8B8227B68D3F8A3
:101A5000D4227B68AE3253F82230DB6A002B0FD0E1
:101A60007B68D3F8D4227B68AE3253F82230DB6A2D
:101A700007F10E021046984702467B68C3F8D02251
:101A80007B68D3F8D8325A1C7B68C3F8D82200236D
:101A900018461037BD4680BD80B582B000AF786073
:101AA000786809F0A3FF034618460837BD4680BD95
:101AB00080B483B000AF7860002318460C37BD4671
:101AC0005DF8047B704780B584B000AF78600B464A
:101AD000FB700023FB737B68D3F8B832002B09D06E
:101AE0007B68D3F8B8321B68FA7811467868984753
:101AF0000346FB73FB7B18461037BD4680BD80B59F
:101B000084B000AF78600B46FB700023FB737B68EA
:101B1000D3F8B8325B68FA7811467868984703467C
:101B2000002B01D00323FB73FB7B18461037BD4607
:101B300080BD80B584B000AF786039607B6803F207
:101B4000AA233968184601F032F97B680122C3F8EC
:101B500094227B68B3F8B0321A467B68C3F89822A7
:101B60007B6893F8AA3203F01F03022B1AD0022BD2
:101B700022D8002B02D0012B0AD01DE07B6803F293
:101B8000AA231946786800F05FFB0346FB7320E048
:101B90007B6803F2AA231946786800F0C7FB034666
:101BA000FB7316E07B6803F2AA231946786800F0FD
:101BB00029FC0346FB730CE07B6893F8AA3223F000
:101BC0007F03DBB21946786809F070FF0346FB73A8
:101BD00000BFFB7B18461037BD4680BD80B586B080
:101BE00000AFF8600B467A60FB720023FB75FB7A4E
:101BF000002B6ED1FB6803F5AA733B61FB68D3F839
:101C00009432032B40F098803B699A683B69DB680B
:101C10009A4213D93B699A683B69DB68D21A3B69DF
:101C20009A603B69DA683B699B68934228BF134618
:101C30001A467968F86801F0AEF97DE0FB6893F820
:101C4000AA3203F01F03022B14D0022B1DD8002B45
:101C500002D0012B03D018E00023BB7518E0FB680D
:101C6000B3F8AE32DBB21946F86800F05EFA03460C
:101C7000BB750DE0FB68B3F8AE32DBB21946F8680D
:101C800000F060FA0346BB7502E00023BB7500BF9D
:101C9000BB7D002B19D1FB6893F89C32DBB2032B80
:101CA00013D1BA7DFB68AE3253F822301B69002B8A
:101CB0000BD0BA7DFB68C3F8D422BA7DFB68AE3284
:101CC00053F822301B69F8689847F86801F074F9F6
:101CD00032E0FB7A03F07F03DBB21946F86800F0CC
:101CE00031FA0346BB75BB7DFF2B25D0BB7D002B96
:101CF00022D1FB6893F89C32DBB2032B17D1BA7D5B
:101D0000FB68AE3253F822309B69002B0FD0BA7DAE
:101D1000FB68C3F8D422BA7DFB68AE3253F8223098
:101D20009B69FA7A1146F86898470346FB75FB7D74
:101D3000002B01D0FB7D00E0002318461837BD467C
:101D400080BD80B586B000AFF8600B467A60FB724C
:101D5000FB7A002B6FD1FB6814333B61FB68D3F82F
:101D60009432022B5AD13B699A683B69DB689A42EC
:101D700014D93B699A683B69DB68D21A3B699A605F
:101D80003B699B681A467968F86801F0D6F8002329
:101D900000220021F86809F033FF3FE03B69DA6870
:101DA0003B699B689A421CD13B695A683B69DB6876
:101DB0009A4216D33B695A68FB68D3F898329A4224
:101DC0000FD200220021F86801F0B7F8FB6800226A
:101DD000C3F89822002300220021F86809F010FFC0
:101DE0001CE0FB6893F89C32DBB2032B0FD1FB683D
:101DF000D3F8B832DB68002B09D0FB680022C3F8A7
:101E0000D422FB68D3F8B832DB68F86898478021A1
:101E1000F86809F04BFEF86801F0E1F8FB6893F808
:101E2000A032002B3AD0F868FFF742FEFB68002290
:101E300083F8A02232E0FB7A63F07F03DBB219461D
:101E4000F86800F07FF90346FB75FB7DFF2B25D07A
:101E5000FB7D002B22D1FB6893F89C32DBB2032B75
:101E60001CD1FA7DFB68AE3253F822305B69002B3F
:101E700014D0FA7DFB68C3F8D422FA7DFB68AE3239
:101E800053F822305B69FA7A1146F868984703469E
:101E9000BB75BB7D002B01D0BB7D00E00023184645
:101EA0001837BD4680BD80B584B000AF7860002390
:101EB000FB737B68012283F89C227B680022C3F8B5
:101EC00094227B6800225A607B680022C3F8A42217
:101ED0007B68002283F8A0227B68D3F8B832002BFD
:101EE00014D07B68D3F8B8325B68002B0ED07B68C7
:101EF000D3F8B8325B687A685268D2B21146786813
:101F000098470346002B01D00323FB734023002294
:101F10000021786809F085FD7B680122A3F864211F
:101F20007B684022C3F8602140230022802178682A
:101F300009F077FD7B6801229A847B6840221A624F
:101F4000FB7B18461037BD4680BD80B483B000AF20
:101F500078600B46FB707B68FA781A740023184689
:101F60000C37BD465DF8047B704780B483B000AF8A
:101F700078607B6893F89C32DAB27B6883F89D22A4
:101F80007B68042283F89C22002318460C37BD4648
:101F90005DF8047B704780B483B000AF78607B68E5
:101FA00093F89C32DBB2042B06D17B6893F89D3208
:101FB000DAB27B6883F89C22002318460C37BD46B2
:101FC0005DF8047B704780B582B000AF78607B68B5
:101FD00093F89C32DBB2032B10D17B68D3F8B83274
:101FE000002B0BD07B68D3F8B832DB69002B05D00F
:101FF0007B68D3F8B832DB697868984700231846C5
:102000000837BD4680BD80B582B000AF78600B4612
:10201000FB707B68D3F8D4227B68AE3253F8223051
:10202000002B01D103231CE07B6893F89C32DBB2C8
:10203000032B15D17B68D3F8D4227B68AE3253F8DA
:1020400022301B6A002B0BD07B68D3F8D4227B682C
:10205000AE3253F822301B6AFA78114678689847F6
:10206000002318460837BD4680BD80B582B000AF5A
:1020700078600B46FB707B68D3F8D4227B68AE3265
:1020800053F82230002B01D103231CE07B6893F826
:102090009C32DBB2032B15D17B68D3F8D4227B684A
:1020A000AE3253F822305B6A002B0BD07B68D3F83A
:1020B000D4227B68AE3253F822305B6AFA7811463C
:1020C00078689847002318460837BD4680BD80B41D
:1020D00083B000AF7860002318460C37BD465DF82A
:1020E000047B704780B584B000AF78600023FB7339
:1020F0007B68012283F89C227B68D3F8B832002BDE
:102100000ED07B68D3F8B8325B687A685268D2B276
:102110001146786898470346002B01D00323FB73D0
:10212000FB7B18461037BD4680BD80B483B000AF3E
:1021300078600B46FB70002318460C37BD465DF8EF
:10214000047B704780B483B000AF78600B46FB70AF
:10215000002318460C37BD465DF8047B704780B5F8
:1021600086B000AF78600B46FB707B687B617B6854
:10217000FB6000233B61FB685B889AB2FB681B78BD
:102180009BB29A4220D9FB681B789BB27B8113E0FB
:1021900007F10A031946786900F01BF878617B693A
:1021A0005B78052B08D17B693B613B699B78FA78AA
:1021B0009A4208D000233B61FB685B889AB27B8916
:1021C0009A42E5D800E000BF3B6918461837BD4683
:1021D00080BD80B485B000AF786039607B68FB60FB
:1021E0003B681A88FB681B789BB213449AB23B6821
:1021F0001A80FB681B781A467B681344FB60FB68F7
:1022000018461437BD465DF8047B704780B487B02C
:1022100000AF78607B687B617B691B787B827B6920
:1022200001337B617B691B783B823B8A1B021AB2BC
:10223000B7F9123013431BB2FB81FB8918461C37D8
:10224000BD465DF8047B704780B584B000AF786010
:1022500039600023FB733B681B7803F06003402B5D
:1022600005D0402B57D8002B0FD0202B53D17B68A3
:10227000D3F8D4227B68AE3253F822309B68396899
:10228000786898470346FB734AE03B685B78092B04
:102290003BD801A252F823F0ED22000801230008E8
:1022A0000B230008F72200080B230008CB220008AC
:1022B000C12200080B230008E3220008D5220008F1
:1022C0003968786800F03CFA24E03968786800F0F2
:1022D000CBFB1FE03968786800F00AFC0346FB730B
:1022E00018E03968786800F0ADFC13E03968786868
:1022F00000F0DEFC0EE03968786800F00DFD09E0C2
:102300003968786800F031FD04E03968786800F0D9
:1023100088FD00BF04E03968786800F082FD00BFE6
:10232000FB7B18461037BD4680BD00BF80B584B02A
:1023300000AF786039600023FB733B681B7803F0C3
:102340006003402B05D0402B52D8002B01D0202B0E
:102350004ED17B6893F89C32DBB2013B022B40D814
:102360003B689B88DBB2012B36D83B689B88DBB28D
:1023700019467868FFF7D9FE0346BB73BB7BFF2B7A
:102380001DD0BB7B002B1AD1BA7B7B68AE3253F8D1
:1023900022309B68002B0FD0BA7B7B68C3F8D42215
:1023A000BA7B7B68AE3253F822309B683968786814
:1023B00098470346FB7304E00323FB7301E0032308
:1023C000FB733B68DB88002B10D1FB7B002B0DD10E
:1023D000786800F0F1FD09E03968786800F021FDC7
:1023E00004E03968786800F01CFD00E000BF04E0FC
:1023F0003968786800F015FD00BFFB7B1846103780
:10240000BD4680BD80B584B000AF786039600023E0
:10241000FB733B689B88BB733B681B7803F06003CE
:10242000402B07D0402B00F27F81002B2AD0202B9D
:1024300040F07A81BB7B19467868FFF783FE03463C
:102440007B737B7BFF2B00F074817B7B002B40F048
:1024500070817A7B7B68C3F8D4227A7B7B68AE324A
:1024600053F822309B68002B00F063817A7B7B68F5
:10247000AE3253F822309B68396878689847034633
:10248000FB7356E13B685B78032B08D0032B00F30A
:102490004581002B00F09B80012B3CD03EE17B6806
:1024A00093F89C32DBB2022B02D0032B16D02CE027
:1024B000BB7B002B0DD0BB7B802B0AD0BB7B19468E
:1024C000786809F0F3FA8021786809F0EFFA00BF24
:1024D00020E03968786800F0A4FC1BE03B685B886A
:1024E000002B0ED1BB7B002B0BD0BB7B802B08D0ED
:1024F0003B68DB88002B04D1BB7B1946786809F068
:10250000D5FA786800F058FD04E03968786800F082
:1025100088FC00BF07E17B6893F89C32DBB2022B9A
:1025200002D0032B16D04BE0BB7B002B0DD0BB7B26
:10253000802B0AD0BB7B1946786809F0B7FA802156
:10254000786809F0B3FA00BF40E03968786800F0B5
:1025500068FC3BE03B685B88002B36D1BB7B03F01B
:102560007F03002B04D0BB7B1946786809F0BDFAC5
:10257000786800F021FDBB7B19467868FFF7E2FD23
:1025800003467B737B7BFF2B1FD07B7B002B1CD1F7
:102590007A7B7B68C3F8D4227A7B7B68AE3253F8AF
:1025A00022309B68002B10D07A7B7B68AE3253F8C8
:1025B00022309B683968786898470346FB7304E0CB
:1025C0003968786800F02DFC00E000BFABE07B6864
:1025D00093F89C32DBB2022B02D0032B32D097E06F
:1025E000BB7B002B07D0BB7B802B04D0396878687D
:1025F00000F017FC91E097F90E30002B0BDABB7B53
:1026000003F07F0213469B0013449B0010337A684B
:10261000134404330BE0BB7B03F07F0213469B00A3
:1026200013449B0003F5A8737A6813440433BB601A
:10263000BB6800221A60BB6802221946786800F065
:1026400061FC6AE097F90E30002B11DABB7B03F0D6
:102650000F02796813469B0013449B000B442433FC
:102660001B88002B17D13968786800F0DAFB54E03A
:10267000BB7B03F00F02796813469B0013449B0059
:102680000B4403F5B2731B88002B04D139687868BA
:1026900000F0C7FB41E097F90E30002B0BDABB7B53
:1026A00003F07F0213469B0013449B0010337A68AB
:1026B000134404330BE0BB7B03F07F0213469B0003
:1026C00013449B0003F5A8737A6813440433BB607A
:1026D000BB7B002B02D0BB7B802B03D1BB680022CD
:1026E0001A600EE0BB7B1946786809F01DFA0346B4
:1026F000002B03D0BB6801221A6002E0BB680022F5
:102700001A60BB6802221946786800F0FBFB04E0FF
:102710003968786800F085FB00BF04E039687868A4
:1027200000F07FFB00BF05E03968786800F079FBB6
:1027300000E000BFFB7B18461037BD4680BD00009F
:1027400080B584B000AF7860396000233B810023FE
:10275000FB600023FB723B685B881B0A9BB2013B5A
:102760000E2B00F2528101A252F823F0DD2700085F
:10277000F5270008352800080B2A00080B2A000856
:10278000AB290008D72900080B2A00080B2A0008EB
:102790000B2A00080B2A00080B2A00080B2A000845
:1027A0000B2A0008A92700087B68D3F8B432DB693C
:1027B000002B0BD07B68D3F8B432DB697A68127CCB
:1027C00007F1080110469847F86026E139687868F3
:1027D00000F027FBFB7A0133FB721EE17B68D3F824
:1027E000B4321B687A68127C07F1080110469847DA
:1027F000F86012E17B681B7C002B0DD17B68D3F85D
:10280000B8329B6A07F1080210469847F860FB68E7
:10281000013302221A7000E17B68D3F8B832DB6A18
:1028200007F1080210469847F860FB68013302225E
:102830001A70F2E03B685B88DBB2052B00F2AC80DB
:1028400001A252F823F000BF612800089528000873
:10285000C9280008FD28000831290008652900085A
:102860007B68D3F8B4325B68002B0BD07B68D3F85D
:10287000B4325B687A68127C07F108011046984709
:10288000F86091E03968786800F0CBFAFB7A0133A0
:10289000FB7289E07B68D3F8B4329B68002B0BD0C5
:1028A0007B68D3F8B4329B687A68127C07F1080120
:1028B00010469847F86077E03968786800F0B1FA18
:1028C000FB7A0133FB726FE07B68D3F8B432DB68CC
:1028D000002B0BD07B68D3F8B432DB687A68127CAB
:1028E00007F1080110469847F8605DE0396878689C
:1028F00000F097FAFB7A0133FB7255E07B68D3F85E
:10290000B4321B69002B0BD07B68D3F8B4321B693F
:102910007A68127C07F1080110469847F86043E096
:102920003968786800F07DFAFB7A0133FB723BE08E
:102930007B68D3F8B4325B69002B0BD07B68D3F88B
:10294000B4325B697A68127C07F108011046984737
:10295000F86029E03968786800F063FAFB7A01339F
:10296000FB7221E07B68D3F8B4329B69002B0BD05B
:102970007B68D3F8B4329B697A68127C07F108014E
:1029800010469847F8600FE03968786800F049FA17
:10299000FB7A0133FB7207E03968786800F041FA8E
:1029A000FB7A0133FB7200BF37E07B681B7C002B96
:1029B00009D17B68D3F8B8325B6B07F10802104687
:1029C0009847F86029E03968786800F02AFAFB7ABD
:1029D0000133FB7221E07B681B7C002B0DD17B68EF
:1029E000D3F8B8321B6B07F1080210469847F8601D
:1029F000FB68013307221A700FE03968786800F02D
:102A000010FAFB7A0133FB7207E03968786800F04E
:102A100008FAFB7A0133FB7200BFFB7A002B1ED150
:102A20003B68DB88002B16D03B89002B0ED03B681F
:102A3000DA883B89934228BF13469BB23B813B898E
:102A40001A46F968786800F05DFA09E03968786834
:102A500000F0E7F904E0786800F0AEFA00E000BFAB
:102A60001037BD4680BD00BF80B584B000AF786030
:102A700039603B689B88002B31D13B68DB88002B99
:102A80002DD13B685B887F2B29D83B685B88DBB204
:102A900003F07F03FB737B6893F89C32DBB2032B5C
:102AA00004D13968786800F0BCF91DE07B68FA7BD6
:102AB00083F89E22FB7B1946786809F061F87868F4
:102AC00000F07AFAFB7B002B04D07B68022283F8AB
:102AD0009C2209E07B68012283F89C2204E039688B
:102AE000786800F09EF900BF00BF1037BD4680BD7A
:102AF00080B584B000AF786039600023FB733B6819
:102B00005B88DAB24E4B1A704D4B1B78012B05D9FE
:102B10003968786800F085F903238CE07B6893F8C6
:102B20009C32DBB2022B02D0032B29D075E0444B40
:102B30001B78002B20D0424B1B781A467B685A60CA
:102B40003F4B1B7819467868FEF7BDFF0346FB73C1
:102B5000FB7B002B08D03968786800F062F97B684D
:102B6000022283F89C2265E0786800F025FA7B68F1
:102B7000032283F89C225DE0786800F01DFA59E09A
:102B80002F4B1B78002B12D17B68022283F89C22EA
:102B90002B4B1B781A467B685A60294B1B781946C9
:102BA0007868FEF7ACFF786800F006FA42E0244B44
:102BB0001B781A467B685B689A422AD07B685B6800
:102BC000DBB219467868FEF79AFF1D4B1B781A4650
:102BD0007B685A601A4B1B7819467868FEF773FFBA
:102BE0000346FB73FB7B002B0FD03968786800F03D
:102BF00018F97B685B68DBB219467868FEF77FFFDF
:102C00007B68022283F89C2214E0786800F0D4F9F3
:102C100010E0786800F0D0F90CE03968786800F0CE
:102C200000F9074B1B7819467868FEF768FF032305
:102C3000FB7300BFFB7B18461037BD4680BD00BF4D
:102C40005803002080B582B000AF786039603B68DF
:102C5000DB88012B04D03968786800F0E2F823E0C3
:102C60007B6893F89C32DBB2022B02DC002B03DC86
:102C700015E0032B0BD012E07B6800229A607B6882
:102C8000083301221946786800F03CF90CE07B68B3
:102C9000043301221946786800F034F904E03968F9
:102CA000786800F0BEF800BF00BF0837BD4680BDA1
:102CB00080B582B000AF786039607B6893F89C3251
:102CC000DBB2013B022B1ED83B68DB88022B04D011
:102CD0003968786800F0A5F81AE07B680122DA60AC
:102CE0007B68D3F8A432002B05D07B68DB6843F007
:102CF00002027B68DA607B680C330222194678682E
:102D000000F000F904E03968786800F08AF800BF44
:102D100000BF0837BD4680BD80B582B000AF786087
:102D200039603B685B88012B07D17B680122C3F8BF
:102D3000A422786800F040F913E03B685B88022B1E
:102D40000BD13B689B881B0A9BB2DAB27B6883F885
:102D5000A022786800F030F903E03968786800F064
:102D600060F800BF0837BD4680BD80B582B000AFB7
:102D7000786039607B6893F89C32DBB2013B022BB0
:102D80000BD83B685B88012B0CD17B680022C3F811
:102D9000A422786800F010F904E03968786800F03F
:102DA00040F800E000BF00BF0837BD4680BD80B5D9
:102DB00084B000AF786039603B68FB60FB681A78CC
:102DC0007B681A70FB680133FB60FB681A787B68CC
:102DD0005A70FB680133FB60F868FFF717FA034687
:102DE0001A467B685A80FB680133FB60FB6801333D
:102DF000FB60F868FFF70AFA03461A467B689A8078
:102E0000FB680133FB60FB680133FB60F868FFF788
:102E1000FDF903461A467B68DA8000BF1037BD46CD
:102E200080BD80B582B000AF78603960802178685D
:102E300008F03CFE0021786808F038FE00BF083733
:102E4000BD4680BD80B586B000AFF860B9607A60DD
:102E50000023FB75FB68002B36D0FB683B613869AB
:102E600000F036F8034601339BB25B009AB27B68F0
:102E70001A80FB7DBA6813447A6812781A70FB7D59
:102E80000133FB75FB7DBA68134403221A70FB7D86
:102E90000133FB7513E0FB7DBA6813443A6912787D
:102EA0001A703B6901333B61FB7D0133FB75FB7D90
:102EB000BA68134400221A70FB7D0133FB753B692D
:102EC0001B78002BE7D100E000BF1837BD4680BD5E
:102ED00080B485B000AF78600023FB737B68BB6073
:102EE00005E0FB7B0133FB73BB680133BB60BB6850
:102EF0001B78002BF5D1FB7B18461437BD465DF8D7
:102F0000047B704780B584B000AFF860B9607A6028
:102F1000FB680222C3F89422FB687A689A61FB6816
:102F20007A68DA617B68BA680021F86808F047FEC1
:102F3000002318461037BD4680BD80B584B000AF71
:102F4000F860B9607A607B68BA680021F86808F0B8
:102F500036FE002318461037BD4680BD80B584B0CC
:102F600000AFF860B9607A60FB680322C3F894226E
:102F7000FB687A68C3F85821FB687A68C3F85C215B
:102F80007B68BA680021F86808F03AFE002318460A
:102F90001037BD4680BD80B584B000AFF860B96021
:102FA0007A607B68BA680021F86808F029FE00237F
:102FB00018461037BD4680BD80B582B000AF78603E
:102FC0007B680422C3F89422002300220021786841
:102FD00008F0F5FD002318460837BD4680BD80B5D2
:102FE00082B000AF78607B680522C3F8942200238A
:102FF00000220021786808F003FE002318460837F5
:10300000BD4680BD80B400AF00BFBD465DF8047B07
:103010007047000080B485B000AFEFF30583BB605C
:10302000BB68002B0FD1EFF310837B607B68002B14
:1030300005D1EFF311833B603B68002B07D00E4BAB
:103040001B68022B03D16FF00503FB600CE00A4BF9
:103050001B68002B05D1084B01221A600023FB607E
:1030600002E04FF0FF33FB60FB6818461437BD46A3
:103070005DF8047B704700BF5C03002080B584B01E
:1030800000AFEFF30583BB60BB68002B0FD1EFF3FC
:1030900010837B607B68002B05D1EFF311833B60CD
:1030A0003B68002B07D00F4B1B68022B03D16FF03E
:1030B0000503FB6010E00B4B1B68012B09D1FFF7E8
:1030C000A1FF084B02221A6001F0D2FC0023FB6032
:1030D00002E04FF0FF33FB60FB6818461037BD4637
:1030E00080BD00BF5C03002080B590B004AFF860E5
:1030F000B9607A6000233B61EFF30583FB61FB69F4
:10310000002B40F08F80EFF31083BB61BB69002B75
:1031100005D1EFF311837B617B69002B03D0444B16
:103120001B68022B7ED0FB68002B7BD08023BB6208
:1031300018237B620023FB624FF0FF333B627B6806
:10314000002B45D07B681B68002B02D07B681B6876
:10315000FB627B689B69002B02D07B689B697B626A
:103160007B6A002B08D07B6A382B05D87B685B68AC
:1031700003F00103002B01D0002354E07B685B695E
:10318000002B03D07B685B699B08BB627B689B68F4
:10319000002B0ED07B68DB685B2B0AD97B681B6930
:1031A000002B06D07B685B69002B02D001233B62B9
:1031B00010E07B689B68002B0CD17B68DB68002BE0
:1031C00008D17B681B69002B04D100233B6201E01E
:1031D00000233B623B6A012B10D17B681B697A6834
:1031E0009268029201937B6A0093BB68BA6AF96A9B
:1031F000F86801F05DFA03463B6113E03B6A002B7F
:1032000010D1BB6A9AB207F1100301937B6A009355
:10321000BB68F96AF86801F0AEFA0346012B01D0E9
:1032200000233B613B6918463037BD4680BD00BF77
:103230005C03002080B586B000AF7860EFF30583B3
:103240003B613B69002B0FD1EFF31083FB60FB6800
:10325000002B05D1EFF31183BB60BB68002B07D0B7
:103260000A4B1B68022B03D16FF005037B6107E05B
:1032700000237B617B68002B02D0786801F0C2FBE1
:103280007B6918461837BD4680BD00BF5C0300202F
:1032900080B485B000AFF860B9607A60FB68074A17
:1032A0001A60BB68064A1A607B6880221A6000BFF9
:1032B0001437BD465DF8047B704700BF60030020F3
:1032C000BC03002080B485B000AFF860B9607A60BC
:1032D000FB68074A1A60BB68064A1A607B684FF4AD
:1032E00080721A6000BF1437BD465DF8047B7047DA
:1032F000BC0500201806002080B483B000AF7860C1
:103300007B6803F108027B685A607B684FF0FF32EC
:103310009A607B6803F108027B68DA607B6803F1DE
:1033200008027B681A617B6800221A6000BF0C37B4
:10333000BD465DF8047B704780B483B000AF786011
:103340007B6800221A6100BF0C37BD465DF8047B24
:10335000704780B485B000AF786039607B685B6887
:10336000FB603B68FA685A60FB689A683B689A6041
:10337000FB689B683A685A60FB683A689A603B68E9
:103380007A681A617B681B685A1C7B681A6000BFE8
:103390001437BD465DF8047B704780B485B000AF3C
:1033A000786039603B681B68BB60BB68B3F1FF3F66
:1033B00003D17B681B69FB600CE07B680833FB6012
:1033C00002E0FB685B68FB60FB685B681B68BA68CF
:1033D0009A42F6D2FB685A683B685A603B685B6861
:1033E0003A689A603B68FA689A60FB683A685A6083
:1033F0003B687A681A617B681B685A1C7B681A6094
:1034000000BF1437BD465DF8047B704780B485B0BB
:1034100000AF78607B681B69FB607B685B687A68DB
:1034200092689A607B689B687A6852685A60FB6809
:103430005B687A689A4203D17B689A68FB685A6035
:103440007B6800221A61FB681B685A1EFB681A60C1
:10345000FB681B6818461437BD465DF8047B70474F
:1034600080B485B000AFF860B9607A60FB68043B57
:10347000FB60FB684FF080721A60FB68043BFB60E6
:10348000BB6823F00102FB681A60FB68043BFB6029
:103490000C4AFB681A60FB68143BFB607A68FB68A7
:1034A0001A60FB68043BFB60FB686FF002021A6065
:1034B000FB68203BFB60FB6818461437BD465DF88F
:1034C000047B7047C934000880B485B000AF002386
:1034D0007B60144B1B68B3F1FF3F0CD04FF05003DF
:1034E00072B683F31188BFF36F8FBFF34F8F62B64D
:1034F000FB6000BFFEE74FF0500372B683F3118804
:10350000BFF36F8FBFF34F8F62B6BB6000BF00BFCA
:103510007B68002BFCD000BF00BF1437BD465DF8B0
:10352000047B7047900000200000000000000000B5
:10353000074B19680868B0E8F04F80F30988BFF3BB
:103540006F8F4FF0000080F311887047AFF3008059
:103550007846002000BF00BF08480068006880F37C
:1035600008884FF0000080F3148862B661B6BFF39C
:103570004F8FBFF36F8F00DF00BF00BF08ED00E08B
:1035800080B584B000AF374BFB60FB681B78DBB2C3
:103590007B60FB68FF221A70FB681B78DBB2FB7054
:1035A000FB78DBB203F05003DAB22F4B1A702F4BCB
:1035B00007221A6009E02D4B1B68013B2B4A136060
:1035C000FB78DBB25B00DBB2FB70FB78DBB203F0B5
:1035D0008003802BEFD0254B1B68C3F10703042B1E
:1035E0000CD04FF0500372B683F31188BFF36F8F86
:1035F000BFF34F8F62B6BB6000BFFEE71B4B1B687B
:103600001B021A4A1360194B1B6803F4E063174A44
:1036100013607B68DAB2FB681A70154B1B68144A9A
:1036200043F470031360124B1B68114A43F070435C
:10363000136000F0DDF80F4B00221A6000F0FCF878
:103640000D4B1B680C4A43F040431360FFF784FFA7
:1036500001F0F2FBFFF738FF002318461037BD4694
:1036600080BD00BF00E400E0180A00201C0A002012
:1036700020ED00E09000002034EF00E080B483B043
:1036800000AF4FF0500372B683F31188BFF36F8F12
:10369000BFF34F8F62B67B6000BF104B1B680133D6
:1036A0000E4A13600D4B1B68012B11D10C4B1B688C
:1036B000DBB2002B0CD04FF0500372B683F31188AD
:1036C000BFF36F8FBFF34F8F62B63B6000BFFEE763
:1036D00000BF0C37BD465DF8047B704790000020AA
:1036E00004ED00E080B483B000AF134B1B68002BE7
:1036F0000CD14FF0500372B683F31188BFF36F8F74
:10370000BFF34F8F62B67B6000BFFEE70A4B1B68BA
:10371000013B094A1360084B1B68002B05D10023AD
:103720003B603B6883F3118800BF00BF0C37BD4688
:103730005DF8047B704700BF90000020000000008F
:10374000EFF30980BFF36F8F154B1A681EF0100F4F
:1037500008BF20ED108A20E9F04F10602DE9090024
:103760004FF0500072B680F31188BFF34F8FBFF354
:103770006F8F62B601F060FB4FF0000080F311889C
:1037800009BC19680868B0E8F04F1EF0100F08BFB8
:10379000B0EC108A80F30988BFF36F8F704700BFC9
:1037A0007846002000BF00BF80B582B000AF4FF068
:1037B000500372B683F31188BFF36F8FBFF34F8F3F
:1037C00062B67B6000BF01F07BFA0346002B03D09A
:1037D000064B4FF080521A6000233B603B6883F336
:1037E000118800BF00BF0837BD4680BD04ED00E072
:1037F00080B400AF0B4B00221A600B4B00221A6002
:103800000A4B1B680A4AA2FB03239B09094A013B96
:103810001360044B07221A6000BFBD465DF8047BAD
:10382000704700BF10E000E018E000E0000000205A
:10383000D34D621014E000E0DFF80C00016841F4A1
:1038400070010160704700BF88ED00E080B485B072
:1038500000AFEFF30583FB60FB680F2B16D9194A05
:10386000FB6813441B78FB72174B1B78FA7A9A4259
:103870000CD24FF0500372B683F31188BFF36F8FF1
:10388000BFF34F8F62B67B6000BFFEE70F4B1B6834
:1038900003F4E0620E4B1B689A420CD94FF05003C0
:1038A00072B683F31188BFF36F8FBFF34F8F62B689
:1038B0003B6000BFFEE700BF1437BD465DF8047BE8
:1038C000704700BFF0E300E0180A00200CED00E0B4
:1038D0001C0A002080B58AB000AF78600023FB612D
:1038E00001F030F95B4B1B68002B01D100F01AF995
:1038F000594B1A687B681340002B40F092807B681C
:10390000002B1FD008227B6813447B607B6803F088
:103910000703002B16D07B6823F0070308337B6076
:103920007B6803F00703002B0CD04FF0500372B6F6
:1039300083F31188BFF36F8FBFF34F8F62B67B6144
:1039400000BFFEE77B68002B6BD0444B1B687A6896
:103950009A4266D8424B3B62414B1B687B6204E053
:103960007B6A3B627B6A1B687B627B6A5B687A6806
:103970009A4203D97B6A1B68002BF1D1354B1B6837
:103980007A6A9A424DD03B6A1B6808221344FB6155
:103990007B6A1A683B6A1A607B6A5A687B68D21A2B
:1039A00008235B009A4221D97A6A7B681344BB6181
:1039B000BB6903F00703002B0CD04FF0500372B625
:1039C00083F31188BFF36F8FBFF34F8F62B63B61F4
:1039D00000BFFEE77B6A5A687B68D21ABB695A60EF
:1039E0007B6A7A685A60B86900F0FEF81B4B1A6867
:1039F0007B6A5B68D31A194A1360184B1A68194B13
:103A00001B689A4203D2154B1B68164A13607B6AE7
:103A10005A68114B1B681A437B6A5A607B6A002202
:103A20001A6001F09DF8FB6903F00703002B0CD02E
:103A30004FF0500372B683F31188BFF36F8FBFF35B
:103A40004F8F62B6FB6000BFFEE7FB691846283760
:103A5000BD4680BD28460020344600202C4600206C
:103A6000204600203046002080B586B000AF786048
:103A70007B687B617B68002B4CD008235B427A69B2
:103A800013447B617B693B613B695A68234B1B682C
:103A90001340002B0CD14FF0500372B683F3118802
:103AA000BFF36F8FBFF34F8F62B6FB6000BFFEE7BF
:103AB0003B691B68002B0CD04FF0500372B683F3A8
:103AC0001188BFF36F8FBFF34F8F62B6BB6000BF2B
:103AD000FEE73B695A68114B1B681340002B19D055
:103AE0003B691B68002B15D13B695A680B4B1B685F
:103AF000DB431A403B695A6001F024F83B695A687D
:103B0000074B1B681344064A1360386900F06CF8D1
:103B100001F026F800BF1837BD4680BD34460020AE
:103B20002C46002080B485B000AF4FF47053BB60CA
:103B3000274BFB60FB6803F00703002B0CD0FB68EE
:103B40000733FB60FB6823F00703FB60BA68FB6880
:103B5000D31A1F4A1344BB60FB687B601D4A7B6815
:103B600013601C4B00225A607B68BA681344FB60E8
:103B70000822FB689B1AFB60FB6823F00703FB60CD
:103B8000FB68154A1360144B1B6800225A60124BE5
:103B90001B6800221A607B683B603B68FA68D21A97
:103BA0003B685A600C4B1A683B681A603B685B685C
:103BB0000A4A13603B685B68094A1360094B4FF07F
:103BC00000421A6000BF1437BD465DF8047B7047A1
:103BD000200A0020204600202846002030460020F1
:103BE0002C4600203446002080B485B000AF7860B9
:103BF000284BFB6002E0FB681B68FB60FB681B68EE
:103C00007A689A42F7D8FB68BB60FB685B68BA6861
:103C100013447A689A4208D1FB685A687B685B68EB
:103C20001A44FB685A60FB687B607B68BB607B68FA
:103C30005B68BA681A44FB681B689A4218D1FB6833
:103C40001A68154B1B689A420DD07B685A68FB684E
:103C50001B685B681A447B685A60FB681B681A68BB
:103C60007B681A6008E00C4B1A687B681A6003E0F6
:103C7000FB681A687B681A60FA687B689A4202D00F
:103C8000FB687A681A6000BF1437BD465DF8047B94
:103C9000704700BF204600202846002080B584B031
:103CA00000AF786039607B68FB60FB68002B0CD14B
:103CB0004FF0500372B683F31188BFF36F8FBFF3D9
:103CC0004F8F62B6BB6000BFFEE7FFF7D7FCFB6813
:103CD0001A68FB68DB6BF968096C01FB03F31A4493
:103CE000FB689A60FB6800229A63FB681A68FB68AD
:103CF0005A60FB681A68FB68DB6B013BF968096C6A
:103D000001FB03F31A44FB68DA60FB68FF2283F8C7
:103D10004420FB68FF2283F845203B68002B14D128
:103D2000FB681B69002B1AD0FB681033184601F0A2
:103D300037F90346002B12D00C4B4FF080521A601B
:103D4000BFF34F8FBFF36F8F09E0FB681033184646
:103D5000FFF7D2FAFB6824331846FFF7CDFAFFF7D6
:103D6000C1FC012318461037BD4680BD04ED00E0BC
:103D700080B58EB002AFF860B9607A603B60FB68D6
:103D8000002B0CD14FF0500372B683F31188BFF3B0
:103D90006F8FBFF34F8F62B6BB6200BFFEE73B6819
:103DA000002B0CD14FF0500372B683F31188BFF390
:103DB0006F8FBFF34F8F62B67B6200BFFEE77B68F9
:103DC000002B02D0BB68002B01D0012300E00023B0
:103DD000002B0CD14FF0500372B683F31188BFF360
:103DE0006F8FBFF34F8F62B63B6200BFFEE77B6809
:103DF000002B02D1BB68002B01D1012300E000237E
:103E0000002B0CD14FF0500372B683F31188BFF32F
:103E10006F8FBFF34F8F62B6FB6100BFFEE7502389
:103E20007B617B69502B0CD04FF0500372B683F34B
:103E30001188BFF36F8FBFF34F8F62B6BB6100BFB6
:103E4000FEE77B693B68FB62FB6A002B0DD0FB6AD7
:103E5000012283F8462097F83820FB6A0093134626
:103E60007A68B968F86800F005F8FB6A18463037D8
:103E7000BD4680BD80B584B000AFF860B9607A609F
:103E8000FB70BB68002B03D1BB69BA691A6002E002
:103E9000BB697A681A60BB69FA68DA63BB69BA6899
:103EA0001A640121B869FFF7F9FEBB69FA7883F853
:103EB0004C2000BF1037BD4680BD000080B58EB0DD
:103EC00000AFF860B9607A603B6000237B63FB68F9
:103ED0003B633B6B002B0CD14FF0500372B683F366
:103EE0001188BFF36F8FBFF34F8F62B6BB6200BF05
:103EF000FEE7BB68002B03D13B6B1B6C002B01D191
:103F0000012300E00023002B0CD14FF0500372B6C8
:103F100083F31188BFF36F8FBFF34F8F62B67B625D
:103F200000BFFEE73B68022B03D13B6BDB6B012B31
:103F300001D1012300E00023002B0CD14FF05003EE
:103F400072B683F31188BFF36F8FBFF34F8F62B6E2
:103F50003B6200BFFEE701F0E9F90346002B02D106
:103F60007B68002B01D1012300E00023002B0CD142
:103F70004FF0500372B683F31188BFF36F8FBFF316
:103F80004F8F62B6FB6100BFFEE7FFF777FB3B6B2D
:103F90009A6B3B6BDB6B9A4202D33B68022B29D1B5
:103FA0003A68B968386B00F015FAF8623B6B5B6AE7
:103FB000002B10D03B6B2433184600F0F1FF034672
:103FC000002B13D03F4B4FF080521A60BFF34F8F3E
:103FD000BFF36F8F0AE0FB6A002B07D0394B4FF01D
:103FE00080521A60BFF34F8FBFF36F8FFFF77AFBDA
:103FF000012363E07B68002B03D1FFF773FB0023F1
:104000005CE07B6B002B06D107F11403184601F02E
:104010002DF801237B63FFF765FB00F093FDFFF7AD
:104020002DFB3B6B93F844305BB2B3F1FF3F03D100
:104030003B6B002283F844203B6B93F845305BB226
:10404000B3F1FF3F03D13B6B002283F84520FFF71C
:1040500049FB3A1D07F114031146184601F01CF8FC
:104060000346002B24D1386B00F0ACFA0346002B3A
:1040700018D03B6B10337A681146184600F03CFFAD
:10408000386B00F037FA00F06BFD0346002B7FF42D
:104090007CAF0C4B4FF080521A60BFF34F8FBFF3D1
:1040A0006F8F72E7386B00F025FA00F059FD6CE76E
:1040B000386B00F01FFA00F053FD00231846383724
:1040C000BD4680BD04ED00E080B58EB000AFF86065
:1040D000B9607A603B60FB683B633B6B002B0CD1A3
:1040E0004FF0500372B683F31188BFF36F8FBFF3A5
:1040F0004F8F62B67B6200BFFEE7BB68002B03D127
:104100003B6B1B6C002B01D1012300E00023002B33
:104110000CD14FF0500372B683F31188BFF36F8F49
:10412000BFF34F8F62B63B6200BFFEE73B68022BD6
:1041300003D13B6BDB6B012B01D1012300E000239A
:10414000002B0CD14FF0500372B683F31188BFF3EC
:104150006F8FBFF34F8F62B6FB6100BFFEE7FFF7C3
:1041600075FBEFF311824FF0500372B683F31188A1
:10417000BFF36F8FBFF34F8F62B6BA617B61BB69CC
:10418000FB623B6B9A6B3B6BDB6B9A4202D33B68E7
:10419000022B2CD13B6B93F8453087F82B303A68D3
:1041A000B968386B00F016F997F92B30B3F1FF3F7F
:1041B00012D13B6B5B6A002B16D03B6B2433184645
:1041C00000F0EEFE0346002B0ED07B68002B0BD0D8
:1041D0007B6801221A6007E097F82B300133DBB2CD
:1041E0005AB23B6B83F8452001237B6301E0002337
:1041F0007B63FB6A3B613B6983F3118800BF7B6B88
:1042000018463837BD4680BD80B58CB000AFF86029
:10421000B9607A600023FB62FB68BB62BB6A002B5B
:104220000CD14FF0500372B683F31188BFF36F8F38
:10423000BFF34F8F62B63B6200BFFEE7BB68002B47
:1042400003D1BB6A1B6C002B01D1012300E00023CA
:10425000002B0CD14FF0500372B683F31188BFF3DB
:104260006F8FBFF34F8F62B6FB6100BFFEE701F0B7
:104270005DF80346002B02D17B68002B01D101239E
:1042800000E00023002B0CD14FF0500372B683F3F3
:104290001188BFF36F8FBFF34F8F62B6BB6100BF52
:1042A000FEE7FFF7EBF9BB6A9B6B7B627B6A002B37
:1042B0001FD0B968B86A00F0F7F87B6A5A1EBB6A6B
:1042C0009A63BB6A1B69002B0FD0BB6A1033184678
:1042D00000F066FE0346002B07D03D4B4FF08052A6
:1042E0001A60BFF34F8FBFF36F8FFFF7FBF9012306
:1042F00069E07B68002B03D1FFF7F4F9002362E04B
:10430000FB6A002B06D107F11003184600F0AEFE41
:104310000123FB62FFF7E6F900F014FCFFF7AEF9AA
:10432000BB6A93F844305BB2B3F1FF3F03D1BB6A81
:10433000002283F84420BB6A93F845305BB2B3F1A6
:10434000FF3F03D1BB6A002283F84520FFF7CAF97B
:104350003A1D07F110031146184600F09DFE034672
:10436000002B23D1B86A00F017F90346002B17D0B1
:10437000BB6A24337A681146184600F0BDFDB86A5E
:1043800000F0B8F800F0ECFB0346002B89D1104B8D
:104390004FF080521A60BFF34F8FBFF36F8F80E7EB
:1043A000B86A00F0A7F800F0DBFB7AE7B86A00F023
:1043B000A1F800F0D5FBB86A00F0EEF80346002B38
:1043C0003FF46FAF002318463037BD4680BD00BFB5
:1043D00004ED00E080B586B000AFF860B9607A60A7
:1043E00000237B61FB689B6B3B61FB681B6C002BB4
:1043F0000DD1FB681B68002B4DD1FB689B681846EC
:1044000000F0B2FF7861FB6800229A6043E07B68AD
:10441000002B19D1FB685868FB681B6C1A46B968F9
:1044200007F0DCFCFB685A68FB681B6C1A44FB68ED
:104430005A60FB685A68FB689B689A422BD3FB68FA
:104440001A68FB685A6026E0FB68D868FB681B6C3A
:104450001A46B96807F0C2FCFB68DA68FB681B6C97
:104460005B421A44FB68DA60FB68DA68FB681B6829
:104470009A4207D2FB689A68FB681B6C5B421A443D
:10448000FB68DA607B68022B05D13B69002B02D008
:104490003B69013B3B613B695A1CFB689A637B6942
:1044A00018461837BD4680BD80B582B000AF786031
:1044B00039607B681B6C002B18D07B68DA687B68DE
:1044C0001B6C1A447B68DA607B68DA687B689B68DF
:1044D0009A4203D37B681A687B68DA607B68D96884
:1044E0007B681B6C1A46386807F078FC00BF0837F9
:1044F000BD4680BD80B584B000AF7860FFF7BEF8E0
:104500007B6893F84530FB7311E07B685B6A002B96
:1045100012D07B682433184600F042FD0346002B7E
:1045200001D000F01FFEFB7B013BDBB2FB7397F970
:104530000F30002BE9DC00E000BF7B68FF2283F82E
:104540004520FFF7CFF8FFF799F87B6893F84430E0
:10455000BB7311E07B681B69002B12D07B681033A2
:10456000184600F01DFD0346002B01D000F0FAFDB7
:10457000BB7B013BDBB2BB7397F90E30002BE9DC50
:1045800000E000BF7B68FF2283F84420FFF7AAF811
:1045900000BF1037BD4680BD80B584B000AF7860E5
:1045A000FFF76CF87B689B6B002B02D10123FB604B
:1045B00001E00023FB60FFF795F8FB681846103711
:1045C000BD4680BD80B584B000AF7860FFF756F877
:1045D0007B689A6B7B68DB6B9A4202D10123FB609C
:1045E00001E00023FB60FFF77DF8FB6818461037F9
:1045F000BD4680BD80B485B000AF786039600023CF
:10460000FB6014E00F4AFB6852F83330002B0BD1EB
:104610000C49FB683A6841F833200A4AFB68DB0022
:1046200013447A685A6006E0FB680133FB60FB685C
:10463000072BE7D900BF00BF1437BD465DF8047BE8
:10464000704700BF3846002080B586B000AFF860E4
:10465000B9607A60FB687B61FFF710F87B6993F8BB
:1046600044305BB2B3F1FF3F03D17B69002283F892
:1046700044207B6993F845305BB2B3F1FF3F03D12F
:104680007B69002283F84520FFF72CF87B699B6B40
:10469000002B06D17B6924337A68B968184600F08C
:1046A00051FC7869FFF726FF00BF1837BD4680BD73
:1046B00080B58EB004AFF860B9607A603B607B6B08
:1046C000002B0CD14FF0500372B683F31188BFF367
:1046D0006F8FBFF34F8F62B63B6200BFFEE7BB6BCD
:1046E000002B0CD14FF0500372B683F31188BFF347
:1046F0006F8FBFF34F8F62B6FB6100BFFEE75C2395
:104700003B613B695C2B0CD04FF0500372B683F3D6
:104710001188BFF36F8FBFF34F8F62B6BB6100BFCD
:10472000FEE73B69BB6B002B1ED07B6B002B1BD0C5
:10473000BB6B7B627B6A7A6B1A637B6A022283F8AB
:104740005920002303937B6A029307F1140301931A
:104750003B6B00933B687A68B968F86800F050F8E2
:10476000786A00F0DFF801E000237B617B6918467E
:104770002837BD4680BD80B58CB004AFF860B96005
:104780003B601346FB80FB889B001846FFF7A2F8AE
:1047900078617B69002B0ED05C20FFF79BF8F861F5
:1047A000FB69002B03D0FB697A691A6305E078691D
:1047B000FFF75AF901E00023FB61FB69002B17D0DA
:1047C000FB69002283F85920FA8800230393FB69D0
:1047D0000293FB6A0193BB6A00933B68B968F8686F
:1047E00000F00EF8F86900F09DF80123BB6102E0CB
:1047F0004FF0FF33BB61BB6918462037BD4680BD13
:1048000080B588B000AFF860B9607A603B603B6B00
:10481000186B7B689B001A46A52107F0EDFA3B6BED
:104820001A6B79686FF040430B449B001344BB61E3
:10483000BB6923F00703BB61BB6903F00703002BCF
:104840000CD04FF0500372B683F31188BFF36F8F13
:10485000BFF34F8F62B67B6100BFFEE7BB68002BE2
:104860001FD00023FB6112E0BA68FB69134419787A
:104870003A6BFB69134434330A461A70BA68FB6911
:1048800013441B78002B06D0FB690133FB61FB69E5
:104890000F2BE9D900E000BF3B6B002283F84320D7
:1048A00003E03B6B002283F83420BB6A372B01D92D
:1048B0003723BB623B6BBA6ADA623B6BBA6ADA6473
:1048C0003B6B00221A653B6B04331846FEF734FD40
:1048D0003B6B18331846FEF72FFD3B6B3A6B1A61A2
:1048E000BB6AC3F138023B6B9A613B6B3A6B5A620D
:1048F0003B6B00225A653B6B002283F858203A68D4
:10490000F968B869FEF7ACFD02463B6B1A60FB6ABA
:10491000002B02D0FB6A3A6B1A6000BF2037BD46FD
:1049200080BD000080B582B000AF7860FEF7A6FEC3
:104930002D4B1B6801332C4A13602C4B1B68002B3A
:1049400009D12A4A7B681360274B1B68012B10D1C1
:1049500000F02CFC0DE0264B1B68002B09D1234BEB
:104960001B68DA6A7B68DB6A9A4202D81F4A7B6856
:104970001360204B1B6801331E4A13601D4B1A68DD
:104980007B685A647B68DA6A1B4B1B689A4203D9BE
:104990007B68DB6A184A13607B68DA6A13469B00FF
:1049A00013449B00154A1A447B6804331946104689
:1049B000FEF7CFFCFEF796FE0D4B1B68002B0ED0CA
:1049C0000A4B1B68DA6A7B68DB6A9A4207D20C4B97
:1049D0004FF080521A60BFF34F8FBFF36F8F00BF4D
:1049E0000837BD4680BD00BF4C4B002078460020F4
:1049F000584B0020684B0020544B00207C46002080
:104A000004ED00E080B584B000AF78600023FB6067
:104A10007B68002B19D0144B1B68002B0CD04FF077
:104A2000500372B683F31188BFF36F8FBFF34F8FBC
:104A300062B6BB6000BFFEE700F084F80021786832
:104A400000F004FD00F08CF8F860FB68002B07D143
:104A5000064B4FF080521A60BFF34F8FBFF36F8F3A
:104A600000BF1037BD4680BD744B002004ED00E050
:104A700080B58AB004AF0023BB6000237B603A4658
:104A8000391D07F108031846FEF702FC39687B68F8
:104A9000BA68029201930023009300230A46234937
:104AA0002348FFF705FE0346224A1360214B1B688B
:104AB000002B02D001237B6101E000237B617B6935
:104AC000012B02D100F016FD78617B69012B18D112
:104AD0004FF0500372B683F31188BFF36F8FBFF3AB
:104AE0004F8F62B63B6100BF134B4FF0FF321A602D
:104AF000124B01221A60124B00221A60FEF740FD91
:104B000010E07B69B3F1FF3F0CD14FF0500372B658
:104B100083F31188BFF36F8FBFF34F8F62B6FB60D3
:104B200000BFFEE700BF1837BD4680BD38C0000893
:104B30007D510008704B00206C4B0020584B00202A
:104B4000504B002080B400AF044B1B680133034A74
:104B5000136000BFBD465DF8047B7047744B0020B6
:104B600080B584B000AF0023FB600023BB60434BE3
:104B70001B68002B0CD14FF0500372B683F31188E1
:104B8000BFF36F8FBFF34F8F62B63B6000BFFEE78E
:104B9000FEF774FD394B1B68013B384A1360374BF5
:104BA0001B68002B62D1364B1B68002B5ED02FE0B8
:104BB000344BDB68DB68FB60FB6818331846FEF794
:104BC00025FCFB6804331846FEF720FCFB68DA6A14
:104BD0002D4B1B689A4203D9FB68DB6A2A4A136093
:104BE000FB68DA6A13469B0013449B00274A1A4469
:104BF000FB68043319461046FEF7ABFBFB68DA6A24
:104C0000234B1B68DB6A9A4202D3224B01221A60B3
:104C10001C4B1B68002BCBD1FB68002B01D000F094
:104C200065FB1D4B1B687B607B68002B10D000F080
:104C300047F80346002B02D0164B01221A607B680E
:104C4000013B7B607B68002BF1D1134B00221A6083
:104C5000104B1B68002B09D00123BB600F4B4FF09A
:104C600080521A60BFF34F8FBFF36F8FFEF73AFD8C
:104C7000BB6818461037BD4680BD00BF744B00208E
:104C80004C4B00200C4B0020544B00207C46002055
:104C900078460020604B00205C4B002004ED00E0D3
:104CA00080B483B000AF054B1B687B607B681846FF
:104CB0000C37BD465DF8047B704700BF504B0020A9
:104CC00080B586B000AF00237B61504B1B68002B82
:104CD00040F08B804E4B1B6801333B614C4A3B6973
:104CE00013603B69002B22D14A4B1B681B68002BC9
:104CF0000CD04FF0500372B683F31188BFF36F8F5F
:104D0000BFF34F8F62B63B6000BFFEE7414B1B68AD
:104D1000FB60414B1B683F4A13603F4AFB681360CE
:104D20003E4B1B6801333D4A136000F0DFFA3C4BF9
:104D30001B683A699A4249D3364B1B681B68002BA3
:104D400004D1374B4FF0FF321A603FE0314B1B6804
:104D5000DB68DB68BB60BB685B687B603A697B686B
:104D60009A4203D22E4A7B6813602FE0BB6804335B
:104D70001846FEF74BFBBB689B6A002B04D0BB6850
:104D800018331846FEF742FBBB68DA6A254B1B68EE
:104D90009A4203D9BB68DB6A224A1360BB68DA6AAD
:104DA00013469B0013449B001F4A1A44BB680433FC
:104DB00019461046FEF7CDFABB68DA6A1B4B1B6832
:104DC000DB6A9A42B8D301237B61B5E7174B1B68B6
:104DD000DA6A154913469B0013449B000B441B6879
:104DE000012B07D901237B6104E0114B1B680133C0
:104DF0000F4A13600F4B1B68002B01D001237B610E
:104E00007B6918461837BD4680BD00BF744B002033
:104E1000504B0020044B0020084B0020644B002026
:104E20006C4B0020544B00207C460020784600202C
:104E30005C4B0020604B002080B485B000AF294B54
:104E40001B68002B03D0284B01221A6043E0264B3D
:104E500000221A60254B1B68FB6012E0FB68002BE8
:104E60000CD14FF0500372B683F31188BFF36F8FEC
:104E7000BFF34F8F62B67B6000BFFEE7FB68013B6C
:104E8000FB601B49FA6813469B0013449B000B44CC
:104E90001B68002BE2D0FA6813469B0013449B006A
:104EA000134A1344BB60BB685B685A68BB685A60AE
:104EB000BB685A68BB6808339A4204D1BB685B6818
:104EC0005A68BB685A60BB685B68DB68094A136054
:104ED000064AFB68136000BF1437BD465DF8047BCB
:104EE000704700BF744B0020604B0020544B0020E3
:104EF0007C4600207846002080B584B000AF786002
:104F000039607B68002B0CD14FF0500372B683F3ED
:104F10001188BFF36F8FBFF34F8F62B6FB6000BF86
:104F2000FEE7074B1B68183319467868FEF735FA19
:104F30000121386800F08AFA00BF1037BD4680BDF5
:104F40007846002080B586B000AFF860B9607A601E
:104F5000FB68002B0CD14FF0500372B683F311881D
:104F6000BFF36F8FBFF34F8F62B67B6100BFFEE769
:104F70000A4B1B6818331946F868FEF7EAF97B6894
:104F8000002B02D04FF0FF33BB607968B86800F0A7
:104F90005DFA00BF1837BD4680BD00BF78460020CF
:104FA00080B586B000AF78607B68DB68DB683B610A
:104FB0003B69002B0CD14FF0500372B683F311887C
:104FC000BFF36F8FBFF34F8F62B6FB6000BFFEE78A
:104FD0003B6918331846FEF719FA1E4B1B68002B65
:104FE0001DD13B6904331846FEF710FA3B69DA6AB3
:104FF000194B1B689A4203D93B69DB6A164A136056
:105000003B69DA6A13469B0013449B00134A1A4417
:105010003B69043319461046FEF79BF905E03B69EE
:10502000183319460E48FEF794F93B69DA6A0D4BBE
:105030001B68DB6A9A4205D901237B610A4B012276
:105040001A6001E000237B617B6918461837BD4672
:1050500080BD00BF744B0020544B00207C460020D4
:105060000C4B002078460020604B002080B483B0B9
:1050700000AF7860064B1A687B681A60054B1A68A7
:105080007B685A6000BF0C37BD465DF8047B7047F3
:10509000644B0020504B002080B588B000AF786092
:1050A00039607B68002B0CD14FF0500372B683F34C
:1050B0001188BFF36F8FBFF34F8F62B63B6100BFA4
:1050C000FEE73B68002B0CD14FF0500372B683F320
:1050D0001188BFF36F8FBFF34F8F62B6FB6000BFC5
:1050E000FEE7FEF7CBFA1D4B1B68BB617B685B6874
:1050F000BA69D31A7B613B681B68B3F1FF3F02D1E9
:105100000023FB6123E07B681A68154B1B689A42F9
:1051100007D07B685B68BA699A4202D30123FB61BE
:1051200015E03B681B687A699A420BD23B681A68A3
:105130007B69D21A3B681A607868FFF797FF0023F3
:10514000FB6104E03B6800221A600123FB61FEF76B
:10515000C9FAFB6918462037BD4680BD504B002078
:10516000644B002080B400AF034B01221A6000BFE3
:10517000BD465DF8047B7047604B002080B582B06F
:1051800000AF786000F052F8064B1B68012BF9D98C
:10519000054B4FF080521A60BFF34F8FBFF36F8FF4
:1051A000F0E700BF7C46002004ED00E080B582B04F
:1051B00000AF00237B600CE07A6813469B00134429
:1051C0009B00124A13441846FEF796F87B68013399
:1051D0007B607B68372BEFD90D48FEF78DF80D48C3
:1051E000FEF78AF80C48FEF787F80C48FEF784F8BB
:1051F0000B48FEF781F80B4B054A1A600A4B054A2B
:105200001A6000BF0837BD4680BD00BF7C46002045
:10521000DC4A0020F04A00200C4B0020204B0020EC
:10522000384B0020044B0020084B002080B582B092
:1052300000AF19E0FEF722FA104BDB68DB687B60F9
:105240007B6804331846FEF7E1F80D4B1B68013B01
:105250000B4A13600B4B1B68013B0A4A1360FEF7B5
:1052600041FA786800F010F8064B1B68002BE1D17A
:1052700000BF00BF0837BD4680BD00BF204B0020E7
:105280004C4B0020344B002080B584B000AF7860D8
:105290007B6893F85930002B08D17B681B6B18464C
:1052A000FEF7E2FB7868FEF7DFFB1AE07B6893F815
:1052B0005930012B03D17868FEF7D6FB11E07B68EB
:1052C00093F85930022B0CD04FF0500372B683F391
:1052D0001188BFF36F8FBFF34F8F62B6FB6000BFC3
:1052E000FEE700BF1037BD4680BD000080B483B02C
:1052F00000AF0C4B1B681B68002B04D10A4B4FF00E
:10530000FF321A6008E0074B1B68DB68DB687B60D4
:105310007B685B68044A136000BF0C37BD465DF8CC
:10532000047B7047044B00206C4B002080B483B09A
:1053300000AF0B4B1B68002B02D101237B6008E000
:10534000084B1B68002B02D102237B6001E0002385
:105350007B607B6818460C37BD465DF8047B704760
:10536000584B0020744B002080B586B000AF7860A9
:105370007B683B6100237B617B68002B5AD0304BFC
:105380001B683A699A420CD04FF0500372B683F30F
:105390001188BFF36F8FBFF34F8F62B6FB6000BF02
:1053A000FEE73B691B6D002B0CD14FF0500372B62A
:1053B00083F31188BFF36F8FBFF34F8F62B6BB606B
:1053C00000BFFEE73B691B6D5A1E3B691A653B69CE
:1053D000DA6A3B69DB6C9A422CD03B691B6D002B6F
:1053E00028D13B6904331846FEF710F83B69DA6CA4
:1053F0003B69DA623B69DB6AC3F138023B699A6157
:105400003B69DA6A0F4B1B689A4203D93B69DB6A36
:105410000C4A13603B69DA6A13469B0013449B00F5
:10542000094A1A443B69043319461046FDF791FFB7
:1054300001237B617B6918461837BD4680BD00BFDC
:1054400078460020544B00207C46002080B584B074
:1054500000AF78603960214B1B68FB60204B1B68F4
:1054600004331846FDF7D2FF7B68B3F1FF3F0AD142
:105470003B68002B07D01A4B1B68043319461948A8
:10548000FDF767FF26E0FA687B681344BB60144BA6
:105490001B68BA685A60BA68FB689A4209D2124B14
:1054A0001A680F4B1B68043319461046FDF775FF49
:1054B00010E00E4B1A680A4B1B680433194610465D
:1054C000FDF76BFF0A4B1B68BA689A4202D2084A82
:1054D000BB68136000BF1037BD4680BD504B002035
:1054E00078460020384B0020084B0020044B002059
:1054F0006C4B002080B58AB004AF00237B6100F0C4
:1055000015FB1D4B1B68002B21D00023FB600023E3
:10551000BB603A1D07F1080107F10C031846FDF7BF
:10552000D1FE7968BB68FA68029201930223009366
:1055300000230A4611491248FFF7BAF80346114AF8
:105540001360104B1B68002B01D001237B617B692A
:10555000002B0CD14FF0500372B683F31188BFF3C8
:105560006F8FBFF34F8F62B63B6100BFFEE77B6971
:1055700018461837BD4680BDA84B002040C0000823
:10558000C5560008AC4B002080B58AB000AFF8606B
:10559000B9607A603B6000237B62FB68002B0CD112
:1055A0004FF0500372B683F31188BFF36F8FBFF3D0
:1055B0004F8F62B63B6200BFFEE71A4B1B68002BA1
:1055C0002AD0BB683B617B687B61FB68BB61BB68C1
:1055D000052B18DCFFF7AAFE0346022B09D1114B5D
:1055E000186807F1100100233A6BFEF767FC786238
:1055F00012E00C4B186807F1100100230022FEF79F
:105600005DFC786208E0074B186807F11001002381
:105610003A68FEF759FD78627B6A18462837BD461E
:1056200080BD00BFA84B002080B588B002AF786075
:105630003960234B1B68DB68DB687B617B69043363
:105640001846FDF7E3FE7B6993F8283003F0040366
:10565000002B24D07B699A697B68D1187B683A68F3
:10566000786900F0D3F80346002B21D00023009383
:1056700000237A6800217869FFF786FF38613B696B
:10568000002B15D14FF0500372B683F31188BFF38E
:105690006F8FBFF34F8F62B6FB6000BFFEE77B6981
:1056A00093F8283023F00103DAB27B6983F82820CD
:1056B0007B691B6A7869984700BF1837BD4680BD73
:1056C000A04B002080B584B000AF786007F10803DC
:1056D000184600F057F8F860BB681946F86800F003
:1056E00003F800F0D5F8F1E780B584B000AF78603A
:1056F0003960FFF727FA07F10803184600F066F84B
:10570000F860BB68002B30D13B68002B0AD17A6867
:10571000FB689A4206D8FFF723FAF9687868FFF722
:1057200083FF24E03B68002B08D0134B1B681B68E9
:10573000002B01D1012300E000233B600F4B1868D0
:105740007A68FB68D31A3A681946FEF77DFFFFF7BF
:1057500007FA0346002B0AD1094B4FF080521A601A
:10576000BFF34F8FBFF36F8F01E0FFF7F9F900BF71
:105770001037BD4680BD00BFA44B0020A84B0020C1
:1057800004ED00E080B485B000AF78600E4B1B687C
:105790001B68002B01D1012200E000227B681A6007
:1057A0007B681B68002B05D1074B1B68DB681B68F7
:1057B000FB6001E00023FB60FB6818461437BD4620
:1057C0005DF8047B704700BFA04B002080B584B01B
:1057D00000AF7860FFF764FAF8600B4B1B68FA685B
:1057E0009A4205D200F03CF97B6801221A6002E07F
:1057F0007B6800221A60044AFB681360FB68184645
:105800001037BD4680BD00BFB04B002080B586B0CC
:1058100000AFF860B9607A603B6000237B61FB6891
:10582000BA685A60FB68FA681A61BA687B689A427B
:1058300012D87A683B68D21AFB689B699A4202D3F5
:1058400001237B611BE0104B1A68FB680433194687
:105850001046FDF7A2FD12E07A683B689A4206D234
:10586000BA683B689A4202D301237B6107E0074B89
:105870001A68FB68043319461046FDF78EFD7B69F4
:1058800018461837BD4680BDA44B0020A04B002011
:1058900080B58EB002AFD0E07B68002B1ADA3B1DDA
:1058A0000433FB62FB6A002B0CD14FF0500372B63D
:1058B00083F31188BFF36F8FBFF34F8F62B6FB6125
:1058C00000BFFEE7FB6A1B68FA6A5068FA6A9268D2
:1058D000114698477B68002BC0F2AE80FB68BB6224
:1058E000BB6A5B69002B04D0BB6A04331846FDF722
:1058F0008DFD3B461846FFF769FF78627B68092BF0
:1059000000F29B8001A252F823F000BF3559000835
:105910003559000835590008AD590008C15900082B
:105920000F5A00083559000835590008AD590008CC
:10593000C1590008BB6A93F8283043F00103DAB27A
:10594000BB6A83F82820BA68BB6A9B69D118BB6818
:105950007A6AB86AFFF75AFF0346002B6DD0BB6A1C
:105960001B6AB86A9847BB6A93F8283003F00403AF
:10597000002B62D0BA68BB6A9B691A44002300936B
:1059800000230021B86AFFF7FFFD38623B6A002B55
:1059900053D14FF0500372B683F31188BFF36F8F6A
:1059A000BFF34F8F62B6BB6100BFFEE7BB6A93F8DF
:1059B000283023F00103DAB2BB6A83F828203CE0E8
:1059C000BB6A93F8283043F00103DAB2BB6A83F86C
:1059D0002820BA68BB6A9A61BB6A9B69002B0CD10C
:1059E0004FF0500372B683F31188BFF36F8FBFF38C
:1059F0004F8F62B67B6100BFFEE7BB6A9A697B6A24
:105A0000D1187B6A7A6AB86AFFF700FF15E0BB6AB3
:105A100093F8283003F00203002B03D1B86AFEF795
:105A200023F80AE0BB6A93F8283023F00103DAB2C6
:105A3000BB6A83F8282000E000BF084B1B68391DB3
:105A400000221846FEF7E0FB0346002B7FF424AF4C
:105A500000BF00BF3037BD4680BD00BFA84B00204F
:105A600080B588B002AF4AE02E4B1B68DB681B682C
:105A70003B612C4B1B68DB68DB68FB60FB68043315
:105A80001846FDF7C3FCFB681B6AF8689847FB687B
:105A900093F8283003F00403002B30D0FB689B6997
:105AA0003A691344BB60BA683B699A420ED9FB68F5
:105AB000BA685A60FB68FA681A611A4B1A68FB6880
:105AC000043319461046FDF768FC18E000230093E4
:105AD00000233A690021F868FFF756FD78607B687B
