:020000040800F2
:1000000000000220FDC000084548000849480008DB
:10001000C1480008C3480008C548000800000000A7
:1000200000000000000000000000000031BE0008D9
:10003000C748000800000000D1BE0008DBB6000879
:100040004DC100084DC100084DC100084DC1000858
:100050004DC100084DC100084DC100084DC1000848
:100060004DC100084DC100084DC100084DC1000838
:100070004DC100084DC100084DC100084DC1000828
:100080004DC100084DC10008C9480008E1480008FA
:10009000F1480008014900084DC100084DC10008A1
:1000A0004DC10008114900084DC100084DC10008AC
:1000B0004DC100084DC100084DC100084DC10008E8
:1000C0004DC100084DC100084DC100084DC10008D8
:1000D0004DC100084DC100084DC100084DC10008C8
:1000E0004DC100084DC100084DC100084DC10008B8
:1000F0004DC100084DC100084DC100084DC10008A8
:100100004DC100084DC100084DC100084DC1000897
:100110004DC100084DC100084DC100084DC1000887
:10012000214900084DC10008314900084DC10008AF
:100130004DC1000800000000000000004DC1000893
:100140004DC100084DC100084DC1000841490008DB
:100150004DC100084DC100084DC100084DC1000847
:100160004DC100084DC100084DC100084DC1000837
:100170004DC100084DC100084DC10008000000003D
:10018000000000004DC10008000000000000000059
:100190004DC1000800000000000000004DC1000833
:1001A0000000000000000000000000004DC1000839
:1001B0004DC100084DC100084DC100084DC10008E7
:0401C0004DC1000825
:1001D00010B5054C237833B9044B13B10448AFF381
:1001E00000800123237010BDDC020020000000000D
:1001F00048C2000808B5034B1BB103490348AFF3DD
:10020000008008BD00000000E002002048C2000895
:10021000034613F8012B002AFBD1181A0138704746
:1002200001F0FF01102A2BDB10F0070F08D010F8A7
:10023000013B013A8B422DD010F0070F42B3F6D1AB
:10024000F0B441EA012141EA014122F007047FF0C4
:1002500000070023F0E80256083C85EA010586EA1B
:10026000010685FA47F5A3FA87F586FA47F6A5FA57
:1002700087F68EB9EED1F0BC01F0FF0102F0070263
:1002800032B110F8013B013A83EA010313B1F8D10E
:100290000020704701387047002D06BF35460338EF
:1002A000073815F0010F07D1013015F4807F02BF28
:1002B000013015F4C03F0130F0BC0138704700BF79
:1002C00081F0004102E000BF83F0004330B54FEA07
:1002D00041044FEA430594EA050F08BF90EA020F74
:1002E0001FBF54EA000C55EA020C7FEA645C7FEA07
:1002F000655C00F0E2804FEA5454D4EB5555B8BF2A
:100300006D420CDD2C4480EA020281EA030382EA9A
:10031000000083EA010180EA020281EA0303362D2C
:1003200088BF30BD11F0004F4FEA01314FF4801CFF
:100330004CEA113102D0404261EB410113F0004F11
:100340004FEA03334CEA133302D0524263EB4303C8
:1003500094EA050F00F0A780A4F10104D5F1200E66
:100360000DDB02FA0EFC22FA05F2801841F10001C1
:1003700003FA0EF2801843FA05F359410EE0A5F195
:1003800020050EF1200E012A03FA0EFC28BF4CF0C6
:10039000020C43FA05F3C01851EBE37101F000457C
:1003A00007D54FF0000EDCF1000C7EEB00006EEB89
:1003B0000101B1F5801F1BD3B1F5001F0CD3490813
:1003C0005FEA30004FEA3C0C04F101044FEA44526A
:1003D00012F5800F80F09A80BCF1004F08BF5FEAF1
:1003E000500C50F1000041EB045141EA050130BDD1
:1003F0005FEA4C0C404141EB0101013C28BFB1F5E3
:10040000801FE9D291F0000F04BF01460020B1FA2D
:1004100081F308BF2033A3F10B03B3F120020CDA00
:100420000C3208DD02F1140CC2F10C0201FA0CF0DE
:1004300021FA02F10CE002F11402D8BFC2F1200C43
:1004400001FA02F120FA0CFCDCBF41EA0C019040F9
:10045000E41AA2BF01EB0451294330BD6FEA040442
:100460001F3C1CDA0C340EDC04F11404C4F120022D
:1004700020FA04F001FA02F340EA030021FA04F33F
:1004800045EA030130BDC4F10C04C4F1200220FA96
:1004900002F001FA04F340EA0300294630BD21FAD4
:1004A00004F0294630BD94F0000F83F4801306BF9A
:1004B00081F480110134013D4EE77FEA645C18BF8E
:1004C0007FEA655C29D094EA050F08BF90EA020F25
:1004D00005D054EA000C04BF1946104630BD91EA1D
:1004E000030F1EBF0021002030BD5FEA545C05D120
:1004F0004000494128BF41F0004130BD14F580045F
:100500003CBF01F5801130BD01F0004545F0FE41D2
:1005100041F470014FF0000030BD7FEA645C1ABF07
:10052000194610467FEA655C1CBF0B46024650EA3E
:10053000013406BF52EA033591EA030F41F400216A
:1005400030BD00BF90F0000F04BF0021704730B5F0
:100550004FF4806404F132044FF000054FF00001C5
:1005600050E700BF90F0000F04BF0021704730B586
:100570004FF4806404F1320410F0004548BF40425B
:100580004FF000013EE700BF42004FEAE2014FEAB0
:1005900031014FEA02701FBF12F07F4393F07F4F8B
:1005A00081F06051704732F07F4208BF704793F08E
:1005B0007F4F04BF41F40021704730B54FF46074A1
:1005C00001F0004521F000411CE700BF50EA0102A4
:1005D00008BF704730B54FF000050AE050EA01024D
:1005E00008BF704730B511F0004502D5404261EBBD
:1005F00041014FF4806404F132045FEA915C3FF4FE
:10060000D8AE4FF003025FEADC0C18BF03325FEA9A
:10061000DC0C18BF033202EBDC02C2F1200300FA4B
:1006200003FC20FA02F001FA03FE40EA0E0021FA70
:1006300002F11444BDE600BF70B54FF0FF0C4CF45E
:10064000E06C1CEA11541DBF1CEA135594EA0C0F10
:1006500095EA0C0F00F0DEF82C4481EA030621EA4B
:100660004C5123EA4C5350EA013518BF52EA033586
:1006700041F4801143F4801338D0A0FB02CE4FF038
:100680000005E1FB02E506F00042E0FB03E54FF068
:100690000006E1FB03569CF0000F18BF4EF0010E60
:1006A000A4F1FF04B6F5007F64F5407404D25FEA5C
:1006B0004E0E6D4146EB060642EAC62141EA55510F
:1006C0004FEAC52040EA5E504FEACE2EB4F1FD0C51
:1006D00088BFBCF5E06F1ED8BEF1004F08BF5FEACF
:1006E000500E50F1000041EB045170BD06F0004681
:1006F00046EA010140EA020081EA0301B4EB5C042E
:10070000C2BFD4EB0C0541EA045170BD41F4801125
:100710004FF0000E013C00F3AB8014F1360FDEBF4A
:10072000002001F0004170BDC4F10004203C35DA26
:100730000C341BDC04F11404C4F1200500FA05F3A9
:1007400020FA04F001FA05F240EA020001F000424A
:1007500021F0004110EBD37021FA04F642EB0601C0
:100760005EEA430E08BF20EAD37070BDC4F10C04EA
:10077000C4F1200500FA04F320FA05F001FA04F2AE
:1007800040EA020001F0004110EBD37041F100019A
:100790005EEA430E08BF20EAD37070BDC4F12005A5
:1007A00000FA05F24EEA020E20FA04F301FA05F20D
:1007B00043EA020321FA04F001F0004121FA04F2B5
:1007C00020EA020000EBD3705EEA430E08BF20EA85
:1007D000D37070BD94F0000F0FD101F000464000BF
:1007E00041EB010111F4801F08BF013CF7D041EA41
:1007F000060195F0000F18BF704703F00046520045
:1008000043EB030313F4801F08BF013DF7D043EA15
:100810000603704794EA0C0F0CEA135518BF95EACB
:100820000C0F0CD050EA410618BF52EA4306D1D152
:1008300081EA030101F000414FF0000070BD50EA71
:10084000410606BF1046194652EA430619D094EAFB
:100850000C0F02D150EA013613D195EA0C0F05D1E5
:1008600052EA03361CBF104619460AD181EA030139
:1008700001F0004141F0FE4141F470014FF00000F1
:1008800070BD41F0FE4141F4780170BD70B54FF08C
:10089000FF0C4CF4E06C1CEA11541DBF1CEA13550C
:1008A00094EA0C0F95EA0C0F00F0A7F8A4EB0504EE
:1008B00081EA030E52EA03354FEA013100F08880E5
:1008C0004FEA03334FF0805545EA131343EA1263AE
:1008D0004FEA022245EA111545EA10654FEA002663
:1008E0000EF000419D4208BF964244F1FD0404F51C
:1008F000407402D25B084FEA3202B61A65EB030578
:100900005B084FEA32024FF480104FF4002CB6EB34
:10091000020E75EB030E22BFB61A754640EA0C00B4
:100920005B084FEA3202B6EB020E75EB030E22BFF4
:10093000B61A754640EA5C005B084FEA3202B6EB35
:10094000020E75EB030E22BFB61A754640EA9C00F4
:100950005B084FEA3202B6EB020E75EB030E22BFC4
:10096000B61A754640EADC0055EA060E18D04FEA82
:10097000051545EA16754FEA06164FEAC30343EA22
:1009800052734FEAC2025FEA1C1CC0D111F4801FEF
:100990000BD141EA00014FF000004FF0004CB6E7E8
:1009A00011F4801F04BF01430020B4F1FD0C88BF87
:1009B000BCF5E06F3FF6AFAEB5EB030C04BFB6EB92
:1009C000020C5FEA500C50F1000041EB045170BD85
:1009D0000EF0004E4EEA113114EB5C04C2BFD4EBB2
:1009E0000C0541EA045170BD41F480114FF0000E36
:1009F000013C90E645EA060E8DE60CEA135594EAB2
:100A00000C0F08BF95EA0C0F3FF43BAF94EA0C0FB4
:100A10000AD150EA01347FF434AF95EA0C0F7FF429
:100A200025AF104619462CE795EA0C0F06D152EA7D
:100A300003353FF4FDAE1046194622E750EA410661
:100A400018BF52EA43067FF4C5AE50EA41047FF472
:100A50000DAF52EA43057FF4EBAE12E74FF0FF3CD7
:100A600006E000BF4FF0010C02E000BF4FF0010CA8
:100A70004DF804CD4FEA410C7FEA6C5C4FEA430C21
:100A800018BF7FEA6C5C1BD001B050EA410C0CBF70
:100A900052EA430C91EA030F02BF90EA020F0020D2
:100AA000704710F1000F91EA030F58BF994208BF39
:100AB00090422CBFD8176FEAE37040F001007047F6
:100AC0004FEA410C7FEA6C5C02D150EA013C07D14D
:100AD0004FEA430C7FEA6C5CD6D152EA033CD3D098
:100AE0005DF8040B704700BF8446104662468C4692
:100AF0001946634600E000BF01B5FFF7B7FF0028C5
:100B000048BF10F1000F01BD4DF808EDFFF7F4FFED
:100B10000CBF012000205DF808FB00BF4DF808ED78
:100B2000FFF7EAFF34BF012000205DF808FB00BF9B
:100B30004DF808EDFFF7E0FF94BF012000205DF8BD
:100B400008FB00BF4DF808EDFFF7CEFF94BF012072
:100B500000205DF808FB00BF4DF808EDFFF7C4FF6B
:100B600034BF012000205DF808FB00BF4FEA410CB4
:100B70007FEA6C5C02D150EA013C0AD14FEA430C97
:100B80007FEA6C5C02D152EA033C02D14FF00000D4
:100B900070474FF0010070474FEA410212F5001212
:100BA00015D211D56FF47873B3EB625212D94FEAB4
:100BB000C12343F0004343EA505311F0004F23FA9E
:100BC00002F018BF404270474FF00000704750EAF3
:100BD000013005D111F0004008BF6FF000407047B0
:100BE0004FF00000704700BF4FEA4102B2F1E0430E
:100BF00024BFB3F5001CDCF1FE5C0DD901F0004C04
:100C00004FEAC0024CEA5070B2F1004F40EB830053
:100C100008BF20F00100704711F0804F21D113F17F
:100C20003872BCBF01F00040704741F480114FEAB8
:100C30005252C2F11802C2F1200C10FA0CF320FA41
:100C400002F018BF40F001004FEAC1234FEAD3235E
:100C500003FA0CFC40EA0C0023FA02F34FEA4303C8
:100C6000CCE77FEA625307D150EA01331EBF4FF051
:100C7000FE4040F44000704701F0004040F0FE406C
:100C800040F40000704700BF53B94AB9002908BFBB
:100C900000281CBF4FF0FF314FF0FF3000F074B957
:100CA000ADF1080C6DE904CE00F006F8DDF804E0C3
:100CB000DDE9022304B070472DE9F047089D0446A2
:100CC0008E46002B4DD18A42944669D9B2FA82F2FF
:100CD00052B101FA02F3C2F1200120FA01F10CFA3B
:100CE00002FC41EA030E94404FEA1C48210CBEFB73
:100CF000F8F61FFA8CF708FB16E341EA034306FBFC
:100D000007F199420AD91CEB030306F1FF3080F08A
:100D10001F81994240F21C81023E63445B1AA4B2D7
:100D2000B3FBF8F008FB103344EA034400FB07F779
:100D3000A7420AD91CEB040400F1FF3380F00A81BA
:100D4000A74240F207816444023840EA0640E41BAF
:100D500000261DB1D4400023C5E900433146BDE85B
:100D6000F0878B4209D9002D00F0EF800026C5E9FD
:100D7000000130463146BDE8F087B3FA83F6002E15
:100D80004AD18B4202D3824200F2F980841A61EB8D
:100D9000030301209E46002DE0D0C5E9004EDDE7AB
:100DA00002B9FFDEB2FA82F2002A40F09280A1EB93
:100DB0000C014FEA1C471FFA8CFE0126200CB1FBE8
:100DC000F7F307FB131140EA01410EFB03F08842E1
:100DD00008D91CEB010103F1FF3802D2884200F26E
:100DE000CB804346091AA4B2B1FBF7F007FB101100
:100DF00044EA01440EFB00FEA64508D91CEB04049E
:100E000000F1FF3102D2A64500F2BB800846A4EBF8
:100E10000E0440EA03409CE7C6F12007B34022FAE3
:100E200007FC4CEA030C20FA07F401FA06F31C4312
:100E3000F9404FEA1C4900FA06F3B1FBF9F8200C1F
:100E40001FFA8CFE09FB181140EA014108FB0EF065
:100E5000884202FA06F20BD91CEB010108F1FF3AB5
:100E600080F08880884240F28580A8F102086144C1
:100E7000091AA4B2B1FBF9F009FB101144EA0141CF
:100E800000FB0EFE8E4508D91CEB010100F1FF347A
:100E90006CD28E456AD90238614440EA0840A0FB12
:100EA0000294A1EB0E01A142C846A64656D353D0E8
:100EB0005DB1B3EB080261EB0E0101FA07F722FA0C
:100EC00006F3F1401F43C5E9007100263146BDE835
:100ED000F087C2F12003D8400CFA02FC21FA03F398
:100EE000914001434FEA1C471FFA8CFEB3FBF7F019
:100EF00007FB10360B0C43EA064300FB0EF69E423E
:100F000004FA02F408D91CEB030300F1FF382FD2D6
:100F10009E422DD9023863449B1B89B2B3FBF7F67E
:100F200007FB163341EA034106FB0EF38B4208D957
:100F30001CEB010106F1FF3816D28B4214D9023E98
:100F40006144C91A46EA004638E72E46284605E7B6
:100F50000646E3E61846F8E64B45A9D2B9EB020887
:100F600064EB0C0E0138A3E74646EAE7204694E717
:100F70004046D1E7D0467BE7023B614432E730464A
:100F800009E76444023842E7704700BF70B50D4D71
:100F90000D4C641BA4100026A64209D10B4D0C4C2D
:100FA0000BF052F9641BA4100026A64205D170BDB7
:100FB00055F8043B98470136EEE755F8043B98474F
:100FC0000136F2E7F4C70008F4C70008F4C70008C8
:100FD000F8C7000802440346934200D1704703F863
:100FE000011BF9E72DE9FF4755EC104B002D0E468C
:100FF00019462B46BBBF05F100431D4600232D2398
:101000000B700D9BDDF830A0914623F02008BCBF8B
:1010100022461446B8F1460F05D0B8F1450F00D16D
:101020000136022100E0032103AB019302AB0093E0
:1010300045EC104B5346324600F0CAFCB8F1470F5E
:10104000074602D119F0010F22D0B8F1460F07EB85
:10105000060910D13B78302B0AD10022002320460C
:101060002946FFF751FD18B9C6F10106CAF800601C
:10107000DAF8003099440022002320462946FFF781
:1010800043FD08B1CDF80C903022039B4B4507D3AC
:10109000039B0E9ADB1B3846136004B0BDE8F08753
:1010A000591C03911A70F0E7F7B503460029B8BF41
:1010B000494203F8022BB4BF2D222B22092942708A
:1010C0002ADD0DF10704A4460A27A6460A4691FB2D
:1010D000F7F607FB16153035632A04F1FF340EF8D6
:1010E000015C3146F1DC3031AEF1020504F8011C3F
:1010F000441C294661450AD30DF10902A2EB0E02F8
:10110000654588BF00221344181A03B0F0BD11F8DA
:10111000012B04F8012FEDE7302330318370C170CB
:10112000031DF1E72DE9F04F2DED028B8DB00C463C
:10113000DDF8608016461F46054601F037FAD0F804
:1011400000A05046FFF764F800230A932368059334
:10115000D8F8003094F818B0073323F0070303F1F0
:101160000802C8F80020D3E90023C4E91223D4E917
:10117000128929F000430793CDF8188008EE100A71
:101180009F4BDDE906014FF0FF32FFF7EFFC88BB14
:10119000DDE906019A4B4FF0FF32FFF7C9FC48BB6F
:1011A0000022002340464946FFF7B8FC10B12D232A
:1011B00084F84330934B9448BBF1470F94BF984653
:1011C000804603232361059B23F0040222604FF035
:1011D0000009009733460BAA2146284600F0D8F9AB
:1011E000013040F090804FF0FF300DB0BDEC028B2D
:1011F000BDE8F08F42464B4640464946FFF7B6FCF5
:1012000040B14B46002BBCBF2D2384F843307F48B0
:101210007F4BD1E763680BF0DF0206925A1C3FD187
:1012200006236360059B616843F480620023039397
:101230000AABCDE901B309AB49EC108B00932260F6
:101240000DF123032846FFF7CDFE069B0999472B96
:10125000804608D1C81C02DB6368994241DDABF1CE
:10126000020B5FFA8BFBBBF1650F20D801395A46A0
:1012700004F150000991FFF717FF0A9A1318012A89
:101280008146236102DC2268D20701D50133236144
:101290009DF82330002B9CD02D2384F8433098E711
:1012A000069A472ABED1002BBCD10123B9E7BBF176
:1012B000660F18D1002963680BDD216113B922681C
:1012C000D00702D501330B442361A1654FF000091B
:1012D000DEE713B92268D20701D50233F4E7012310
:1012E000F2E74FF0670B0A9B994205DB2368216107
:1012F000D807EAD54B1CE7E70029D4BFC1F10202A9
:1013000001221344E0E723685A0507D423694246C3
:1013100031462846B84701302CD164E7BBF1650F50
:1013200040F2E080D4E9120100220023FFF7ECFB39
:10133000002834D0374A012331462846B8470130C7
:101340003FF451AFDDE909239A4202DB2368D80755
:1013500010D518EE103A524631462846B8470130AB
:101360003FF441AF4FF0000804F11A090A9B013B1A
:10137000434509DC23689B0700F10581E0680B9B6E
:101380009842B8BF184630E701234A4631462846FE
:10139000B84701303FF427AF08F10108E6E7099BA1
:1013A000002B39DC1B4A012331462846B84701305F
:1013B0003FF419AFDDE90923134302D12368D907AC
:1013C000D8D518EE103A524631462846B847013073
:1013D0003FF409AF4FF0000904F11A0A099B5B4280
:1013E0004B4501DC0A9B92E70123524631462846D1
:1013F000B84701303FF4F7AE09F10109EEE700BF4D
:10140000FFFFEF7F64C2000868C2000870C20008D6
:101410006CC2000874C200080A9AA36D9A42A8BF61
:101420001A46002A914637DC4FF0000B29EAE97989
:1014300004F11A02A36D0593A3EB09035B4533DCAA
:10144000DDE909239A423BDB2368DA0738D40A9B9B
:10145000059A09999A1AA3EB01099145A8BF9146EB
:10146000B9F1000F35DC4FF0000829EAE97904F101
:101470001A0ADDE909239B1AA3EB090343457FF709
:1014800079AF0123524631462846B84701303FF430
:10149000AAAE08F10108ECE7134631464246284659
:1014A000B8470130C0D19EE6012331462846059257
:1014B000B84701303FF497AE059A0BF1010BB9E73D
:1014C00018EE103A524631462846B8470130BED190
:1014D00089E6059A4B46424431462846B8470130D2
:1014E000C1D180E60A9A012A01DCDB0738D5012345
:1014F000424631462846B84701303FF474AE18EEF4
:10150000103A524631462846B84701303FF46BAE98
:10151000D4E9120100220023FFF7F6FAD8B90A9B9A
:1015200008F10102013B31462846B84701300ED18F
:1015300059E60123524631462846B84701303FF468
:1015400052AE08F101080A9B013B4345F1DC4B46D2
:1015500004F15002DCE64FF0000804F11A0AF2E749
:1015600001234246DFE701234A4631462846B84771
:1015700001303FF438AE08F10108E3680B995B1ABB
:101580004345F0DCFAE64FF0000804F11909F4E7EE
:101590002DE9F047164699468A680B69DDF82080E8
:1015A0009342B8BF1346336091F8432007460C4678
:1015B0000AB1013333602368990642BF33680233AE
:1015C0003360256815F0060506D104F1190AE368B1
:1015D00032689B1AAB4226DC94F84320131E226823
:1015E00018BF012392062BD404F143024946384622
:1015F000C04701301ED02368E568326803F0060357
:10160000042B08BFAD1AA36822690CBF25EAE57553
:1016100000259342C4BF9B1AED1800261A34B54228
:101620001AD1002008E00123524649463846C047F7
:10163000013003D14FF0FF30BDE8F0870135C6E738
:10164000E1185A1C302081F84300224494F84510D8
:1016500082F843100233C7E7012322464946384641
:10166000C0470130E6D00136D9E700002DE9FF4739
:101670000F7E0C9D782F914680460C469A4601F1CC
:10168000430207D8622F0AD8002F00F0D880582FC5
:1016900000F0A38004F1420584F842703AE0A7F11B
:1016A0006303152BF6D801A151F823F005170008A4
:1016B00019170008951600089516000895160008D9
:1016C00095160008191700089516000895160008C9
:1016D00095160008951600082518000849170008F7
:1016E0000718000895160008951600084718000806
:1016F0009516000849170008951600089516000869
:101700000F1800082B681A1D1B682A6004F1420597
:1017100084F842300123A3E020682968060601F11D
:1017200004030AD50E682B60002E03DA2D237642BF
:1017300084F843305E480A2319E00E682B6010F0ED
:10174000400F18BF36B2EFE72B682068191D2960DB
:10175000010601D51E6802E04606FBD51E885448E6
:101760006F2F0CBF08230A23002184F843106568FB
:10177000A560002DA2BF216821F0040121600EB9EF
:10178000002D4DD01546B6FBF3F103FB1167C75D85
:1017900005F8017D3746BB420E46F4D9082B0BD124
:1017A0002368DE0708D5236961689942DEBF3023CC
:1017B00005F8013C05F1FF35521B2261CDF800A070
:1017C0004B4603AA21464046FFF7E2FE01304CD1CA
:1017D0004FF0FF3004B0BDE8F087354881F8457020
:1017E0002968236851F8046B29601D0614D5DF07AA
:1017F00044BF43F0200323601EB9236823F0200375
:1018000023601023B0E7236843F02003236078238C
:10181000284884F84530E3E7590648BFB6B2E6E702
:101820001546BBE72B6826686169181D28603506D8
:101830001B6801D5196002E07006FBD519800023F2
:1018400023611546BAE72B681A1D2A601D68626875
:1018500000212846FEF7E4FC08B1401B6060636885
:101860002361002384F84330A8E723692A464946C8
:101870004046D0470130ABD023689B0713D4E068C3
:10188000039B9842B8BF1846A4E701233246494655
:101890004046D04701309BD00135E36803995B1A7D
:1018A000AB42F2DCEBE7002504F11906F5E700BFD7
:1018B00076C2000887C200082DE9F74F03690C695A
:1018C000A3420746C0F28180013C01F1140800F1F7
:1018D000140505EB8403019358F8243055F82420AF
:1018E00001339A424FEA840B08EB8409B2FBF3F60A
:1018F00031D34FF0000E4046AC46F24650F8042B70
:1019000093B206FB03E34FEA134E9BB2AAEB030329
:10191000DCF800A0120C13FA8AF306FB02E2009333
:10192000009B4FEA124E92B2C2EB1A4202EB2342E4
:10193000BDF80030814543EA02434CF8043B4FEACE
:10194000224ADBD255F80B302BB9019B043B9D4258
:101950001A462ED33C61384601F0C4F8002824DB37
:10196000013628464FF0000C58F8042BD0F800E060
:1019700093B2ACEB0303120C13FA8EF3C2EB1E42CC
:1019800002EB23429BB243EA0243C14540F8043BC9
:101990004FEA224CE8D255F8242005EB840322B903
:1019A000043B9D421A460AD33C61304603B0BDE871
:1019B000F08F1268043B002ACCD1013CC7E71268C3
:1019C000043B002AF0D1013CEBE70020EEE70000E9
:1019D0002DE9F04F2DED048B57EC106B93B0456A59
:1019E000DDF88080069110EE10AA044609920C934F
:1019F000BB4675B9102000F0DDFD0246606220B9DB
:101A0000A74BEA21A74801F075FAC0E90155056026
:101A1000C560636A196851B15A684A6001239340EE
:101A20008B60204600F01CFE636A00221A603B1E99
:101A3000AABF002323F0004BC8F800309A4BBCBF6C
:101A40000122C8F8002033EA0B031BD10C9A42F2A2
:101A50000F731360CBF31303334300F09285219B84
:101A600063B9924B22E0924B01930833219A1360A1
:101A7000019813B0BDEC048BBDE8F08F8B4B019344
:101A80000333F3E70022002350465946FFF73CF8A2
:101A90004BEC19AB804658B10C9A01231360219B83
:101AA000002B00F06B8583481860431E0193DFE72D
:101AB0004BEC10AB10AA11A9204601F0B9F8CBF3FA
:101AC0000A5508EE100A002D00F0848019EE903AB5
:101AD000C3F3130343F07F57564647F44017A5F26C
:101AE000FF35CDF83880744B002230463946FEF77A
:101AF000EBFB65A3D3E90023FEF79EFD64A3D3E9C6
:101B00000023FEF7E3FB064628460F46FEF72AFDB4
:101B100061A3D3E90023FEF78FFD02460B46304652
:101B20003946FEF7D3FB06460F46FFF735F800228D
:101B30000090002330463946FEF7F0FF50B1009880
:101B4000FEF710FD32463B46FEF7DEFF10B9009B64
:101B5000013B0093009B162B5AD8009A574B03EB7E
:101B6000C203D3E9002351EC190BFEF7D7FF00287D
:101B700050D0009B013B009300230B93109B5D1BF7
:101B80006B1E059345BFC5F1010304930023002399
:101B90004CBF05930493009B002B3DDB059B009AF3
:101BA0000A921344059300230793069B092B00F226
:101BB0008980052BC4BF043B0693069BA3F1020357
:101BC000CCBF00250125032B00F28780DFE803F05E
:101BD0002D3A3859DDE910531D4405F23243202BCC
:101BE000C1BFC3F1400305F212400BFA03F326FA1A
:101BF00000F0DABFC3F1200306FA03F01843FEF742
:101C0000A1FC01230646A1F1F877013D0E936AE796
:101C10000123B2E70B90B1E7049B009A9B1A04934F
:101C20005342079300230A93BFE700230893099BBD
:101C3000002B55DC0123CDE902331A4609920CE052
:101C40000123F3E70023099A0893009B13440293AE
:101C50000133012B0393B8BF0123606A0022426065
:101C6000042202F114069E4241683DD9204600F04C
:101C7000B7FC019000283BD1114B02464FF4D571BF
:101C8000C0E60123DFE700BF61436F63A787D23F50
:101C9000B3C8608B288AC63FFB799F501344D33F5B
:101CA000A5C20008BCC200080000F07FA1C2000865
:101CB00098C2000875C200080000F83FF8C3000889
:101CC0003AC3000801250023069308954FF0FF331F
:101CD000CDE9023300221223B0E701230893F5E790
:101CE000099BCDE90233B8E7013141605200B8E702
:101CF000636A019A1A60039B0E2B00F29D80002DEF
:101D000000F09A80009B002B32DDB74A03F00F03EE
:101D100002EBC303D3E90089009BD8054FEA2317E0
:101D200016D5B24B51EC190BD3E90823FEF7AEFDE3
:101D300007F00F0782468B460325AC4E57B9424643
:101D40004B4650465946FEF7A1FD82468B4628E099
:101D50000225F2E7F90708D540464946D6E90023AF
:101D6000FEF76AFC0135804689467F100836E5E7B4
:101D700000F09B80009B9D4F5E429B4B06F00F0244
:101D800003EBC203D3E9002351EC190BFEF754FC1B
:101D9000361182468B4600230225002E7AD1002B75
:101DA000D3D10B9B002B00F08280914B0022504638
:101DB0005946FEF7B3FE002879D0039B002B76D05E
:101DC000029B002B36DD009B504659465F1E0022C9
:101DD000884BFEF731FC029E82468B460135284631
:101DE000FEF7C0FB52465B46FEF726FC824B002204
:101DF000FEF76CFAD046D9468246A1F1507B002E00
:101E000058D17E4B002240464946FEF75DFA5246C5
:101E10005B4680468946FEF79FFE002840F095828B
:101E200052460BF1004340464946FEF777FE002834
:101E300040F089825BEC19AB119B002BC0F248810A
:101E4000009A0E2A00F34481674B03EBC203D3E9E7
:101E50000089099B002B80F2D580039B002B00F3A7
:101E6000D18040F06F82654B002240464946FEF724
:101E7000E3FB52465B46FEF765FE039E37460028AD
:101E800040F04582019D312305F8013B009B013361
:101E9000009340E2F20705D5D7E90023FEF7CCFB1B
:101EA000013501237610083777E7022579E7009F8F
:101EB000039E94E701994C4B31440D91089903EB33
:101EC000C60353E90223002943D04D490020FEF701
:101ED000DDFC52465B46FEF7F7F9019D82468B46D4
:101EE00049464046FEF758FE0646FEF73BFB0246D3
:101EF0000B4640464946FEF7E7F9303605F8016BD8
:101F000052465B4680468946FEF708FE002863D1AC
:101F100042464B4636490020FEF7D6F952465B460C
:101F2000FEF7FCFD002840F0B5800D9B9D4281D05E
:101F3000304B002250465946FEF77EFB2D4B824621
:101F40008B46404649460022FEF776FB804689468E
:101F5000C6E750465946FEF76FFB0D9B019D0F9358
:101F600082468B4649464046FEF716FE0646FEF779
:101F7000F9FA303602460B4640464946FEF7A4F9C8
:101F800005F8016B0D9B9D42804689464FF000028B
:101F900024D11B4B50465946FEF798F902460B4692
:101FA00040464946FEF7D8FD002873D152465B46AD
:101FB00013490020FEF788F902460B464046494681
:101FC000FEF7ACFD00283FF435AF0F9D6B1E0F935D
:101FD00015F8013C302BF8D0009749E0054BFEF78F
:101FE0002BFB80468946BDE7F8C30008D0C3000834
:101FF0000000F03F0000244000001C40000014409E
:102000000000E03F019D56465F4642464B46304643
:102010003946FEF73BFCFEF7BFFD8246FEF7A2FA0B
:1020200042464B46FEF708FB02460B463046394611
:102030000AF13006FEF748F905F8016B019E039F8F
:10204000AE1BB74202460B4635D1FEF73FF942467A
:102050004B4606460F46FEF77FFDD0B942464B463B
:1020600030463946FEF750FD10B11AF0010F10D17D
:10207000204618EE101A00F0F3FA002300982B7097
:102080000C9B01301860219B002B3FF4F1AC1D60CC
:10209000EEE4009F2B461D4613F8012D392A06D188
:1020A000019A9A42F7D10199302201370A701A78C1
:1020B00001321A7090E7A64B0022FEF7BDFA00220B
:1020C000002306460F46FEF71FFD00289DD0CFE7F0
:1020D000089A002A00F0D780069A012A00F3BA80F5
:1020E0000E9A002A00F0B28003F23343079E049D4B
:1020F000049A1A440492059A01211A442046059232
:1021000000F066FB0746002D0CDD059B002B09DD6A
:10211000AB42049AA8BF2B46D21A0492059AED1A34
:10212000D31A0593079B1BB3089B002B00F0AF80CD
:10213000002E13DD39463246204600F009FC18EE29
:10214000102A01460746204600F058FB18EE101AE8
:102150008046204600F084FA08EE108A079B9A1BFE
:1021600006D018EE101A204600F0F2FB08EE100A16
:102170000121204600F02CFB0A9B002B064640F371
:1021800088801A460146204600F0E2FB069B012BA0
:10219000064640F381804FF00008336906EB830365
:1021A000186900F0C5FAC0F12000059B184410F032
:1021B0001F0000F09280C0F12003042B40F38A80BE
:1021C000C0F11C00049B03440493059B0344054495
:1021D0000593049B002B07DD18EE101A1A462046C3
:1021E00000F010FC08EE100A059B002B05DD3146BF
:1021F0001A46204600F006FC06460B9B002B6ED0CC
:1022000018EE100A314600F06DFC002867DA009BDA
:10221000013B18EE101A00930A220023204600F01A
:1022200041FA089B08EE100A002B00F0B181002350
:1022300039460A22204600F035FA029B002B074659
:1022400000F38E80069B022B51DC89E0109BC3F1CA
:1022500036034BE7039B5E1E079BB342BFBF079B42
:102260000796F21A0A9BB6BF9B189E1B0A93039B04
:10227000B8BF0026002BB7BFDDE90323DDE9033536
:102280009D1A002334E7079E049D089F3BE7079AA9
:1022900067E7069B012B18DCBAF1000F15D1CBF3D1
:1022A000130393B92BF000431B0D1B0583B1049B53
:1022B00001330493059B013305934FF001080A9BFA
:1022C000002B7FF46AAF01206FE74FF00008F6E7BC
:1022D0009846F4E73FF47DAF18461C3072E7039B45
:1022E000002B37DC069B022B34DD039B0293029B01
:1022F0006BB931460522204600F0D4F90146064666
:1023000018EE100A00F0EEFB00283FF7BBAD099B6A
:10231000019DDB4300934FF000083146204600F05A
:102320009FF9002F3FF4A4AEB8F1000F05D0B845D7
:1023300003D04146204600F093F93946204600F08C
:102340008FF995E600263746E1E70097374699E58D
:1023500000002440089B002B00F0CA80039B0293DE
:10236000002D05DD39462A46204600F04BFB074686
:10237000B8F1000F5BD07968204600F031F90546CE
:1023800028B9874B024640F2EA21FFF73BBB3A6986
:102390000232920007F10C010C3000F013F9012217
:1023A0002946204600F02EFB019B03F10109DDE9DF
:1023B0000123134405930AF00103B846049307462A
:1023C000314618EE100AFFF777FA4146029000F105
:1023D000300A18EE100A00F085FB3A4603903146A9
:1023E000204600F09BFBC26809F1FF3B054602BB9B
:1023F000014618EE100A00F075FB024629462046F9
:10240000079200F02DF9DDE9063243EA0201049B50
:102410000B434D460FD1BAF1390F2AD0039B002B45
:1024200002DD029B03F1310A8BF800A075E7384604
:10243000BAE70122E2E7039B002B04DB06990B437A
:1024400004990B4322D1002AEEDD18EE101A012266
:10245000204600F0D7FA314608EE100A00F042FBA1
:10246000002803DCE0D11AF0010FDDD0BAF1390FFA
:10247000D7D139238BF800302B461D46013B15F888
:10248000012C392A71D001321A7046E7002A07DD83
:10249000BAF1390FEDD00AF101038BF800303CE7B7
:1024A000059B09F801AC994547D018EE101A002396
:1024B0000A22204600F0F6F8B84508EE100A4FF060
:1024C00000034FF00A024146204606D100F0EAF828
:1024D0008046074609F1010972E700F0E3F8394642
:1024E000804600230A22204600F0DCF80746F1E788
:1024F000039B0293019D18EE100A3146FFF7DCF9A9
:1025000000F1300A019B05F801ABEA1A029B9342E5
:1025100009DD18EE101A00230A22204600F0C2F846
:1025200008EE100AE7E7029B002BC8BF1D46019B7F
:10253000D8BF01251D444FF0000818EE101A0122E3
:10254000204600F05FFA314608EE100A00F0CAFAA1
:10255000002891DC02D11AF0010F8DD12B461D46C7
:1025600013F8012D302AFAD0D7E6019A9A4284D185
:10257000009B0133009331231370CEE6094BFFF724
:1025800095BA219B002B7FF46EAA074BFFF78EBAFA
:10259000029B002BAEDC069B022B3FF7A8AEA9E7FF
:1025A0003AC3000874C2000898C200080048704787
:1025B00054010020024B0146186800F017BC00BF10
:1025C000000000200A44914200F1FF3300D170471F
:1025D00010B511F8014B03F8014F9142F9D110BD2C
:1025E00070B5466A04460D4676B91020FFF7E2FF43
:1025F0000246606220B9184B1848662100F07AFC48
:10260000C0E901660660C660666AF36883B1636A02
:10261000DB6853F82500B8B9012101FA05F6721DEF
:102620009200204600F060FB60B1C0E901560EE068
:1026300021220421204600F057FB636AF060DB682A
:10264000002BE4D1002070BD026843F82520002350
:10265000C0E90333F7E700BFA5C200084BC3000879
:1026600070B5466A05460C4676B91020FFF7A2FF02
:102670000246686220B9094B09488A2100F03AFCF9
:10268000C0E901660660C6603CB16B6A6268DB68DF
:1026900053F82210216043F8224070BDA5C2000803
:1026A0004BC300082DE9F0410D6907460C461E4654
:1026B00001F1140C0020DCF8003099B202FB01613A
:1026C0001E0C0B0C02FB063389B2013001EB0341F7
:1026D00085424CF8041B4FEA1346ECDC0EB3A368AA
:1026E000AB4219DC616838460131FFF779FF80465B
:1026F00028B902460C4B0D48B52100F0FBFB2269BE
:10270000023204F10C0192000C30FFF75BFF21460E
:102710003846FFF7A5FF444604EB850301355E61AB
:1027200025612046BDE8F0813AC300084BC300088C
:10273000030C1B04D3B90004102310F07F4F04BF17
:102740000002083310F0704F04BF0001043310F092
:10275000404F04BF80000233002805DB10F0804F9B
:1027600003F1010308BF2023184670470023E4E764
:10277000036813F0070201460BD0DA0723D4980749
:1027800049BF5B089B0801200B605CBF0B60022007
:10279000704798B2A8B91B0C1020DAB20AB90830F9
:1027A0001B0A1A0704BF1B0904309A0704BF9B08C1
:1027B0000230DA0703D45B0800F1010005D00B609A
:1027C00070471046E9E7002070472020704700005E
:1027D00010B50C460121FFF703FF024628B9054B4F
:1027E00005484FF4A07100F085FB012344610361AB
:1027F00010BD00BF3AC300084BC300082DE9F04FDD
:1028000091460A69D9F810309A42B8BF0B460C4677
:10281000BCBF4C4699462769D9F810A0A3686168E7
:1028200007EB0A06B34285B0B8BF0131FFF7D8FE07
:1028300030B90246444B454840F25D1100F05AFB66
:1028400000F1140505EB86082B460022434521D3F1
:1028500004F1140303EB870709F1140303EB8A0265
:1028600002923A1B153A22F00302043204F11501D8
:102870008F4238BF04220192029A03939A420CD8E5
:10288000002E03DD58F8043D002B5AD0066105B038
:10289000BDE8F08F43F8042BD8E7B3F800A0BAF1F5
:1028A000000F24D004F1140EA9464FF0000C5EF87E
:1028B000042BD9F800101FFA82FB89B20AFB0B1116
:1028C0004FEA124BD9F8002061444FEA124C0AFB40
:1028D0000BC202EB114289B241EA0241774549F845
:1028E000041B4FEA124CE2D8019A45F802C0039A41
:1028F000B2F802900433B9F1000F20D0296804F136
:10290000140CAE464FF0000ABCF800B0BEF802202E
:1029100009FB0B22924489B241EA0A414EF8041B9A
:102920005CF8042BBEF80010120C09FB021101EB3D
:102930001A4167454FEA114AE6D8019AA950043571
:102940009AE7013E9CE700BF3AC300084BC300086A
:102950002DE9F843154612F0030206460F4607D04C
:10296000254C013A002354F82220FFF79BFE07462E
:10297000AD103DD0746A7CB91020FFF71BFE0246F3
:10298000706228B91D4B1E484FF4D77100F0B2FA9F
:10299000C0E901440460C460D6F82480D8F8084037
:1029A0004CB940F271213046FFF712FF0023C8F8FE
:1029B0000800044603604FF00009EB070AD53946CA
:1029C00022463046FFF71AFF394680463046FFF769
:1029D00047FE47466D100BD0206838B92246214685
:1029E0003046FFF70BFF2060C0F800900446E4E794
:1029F0003846BDE8F88300BFC0C40008A5C200087F
:102A00004BC300082DE9F0470C464968236903EBE6
:102A10006218A368074691464FEA621A08F1010658
:102A2000B3420BDB3846FFF7DBFD054648B90246EB
:102A30002A4B2B4840F2D91100F05CFA01315B00BF
:102A4000EEE7002300F1140100F11002184653458F
:102A500037DB20692AEAEA7A04F1140319F01F0926
:102A600001EB8A0103EB80002FD0C9F1200E8A46CA
:102A70004FF0000C1A6802FA09F242EA0C024AF816
:102A8000042B53F8042B984222FA0EFCF2D8031BB5
:102A9000153B23F00303043304F11502904238BFC1
:102AA000042341F803C0BCF1000F01D008F1020675
:102AB000013E38462E612146FFF7D2FD2846BDE88B
:102AC000F08742F8040F0133C1E7043953F8042BAF
:102AD00041F8042F9842F9D8EAE700BF3AC300084A
:102AE0004BC3000830B502690C69121B0ED100F10E
:102AF0001403143103EB840001EB840150F8045DEE
:102B000051F8044DA54203D005D30122104630BD33
:102B10008342F3D3FAE74FF0FF32F7E72DE9F84F9E
:102B20000C460646114620469046FFF7DBFF051E81
:102B300010D129463046FFF753FD30B93A4B0246D3
:102B400040F23221394800F0D5F90123C0E90435BB
:102B5000BDE8F88FA4BF4346A0463046D8F804101D
:102B6000A6BF1C4600250125FFF73AFD20B92E4BD4
:102B700002464FF41071E5E7D8F810702669C56079
:102B800004F1140908F1140500F1140E05EB870C8B
:102B900009EB860608F11002F246002159F8043BC1
:102BA00052F804BF1FFA83F811FA8BF11B0CA1EB4A
:102BB0000808C3EB1B4303EB28431FFA88F81914DA
:102BC0004E4548EA03434AF8043BE7D8331B153B1C
:102BD00023F0030304331534A64238BF04231D44F5
:102BE00073449E462E4666450ED30CF10302521BDB
:102BF00022F00302033DAC4538BF00221A4452F8CC
:102C0000043D7BB10761A3E756F8048B11FA88F203
:102C1000141404EB184492B242EA04424EF8042B16
:102C20002114E0E7013FEAE73AC300084BC300087C
:102C30002DE9F7438946012157EC106B9046FFF7C9
:102C4000CFFC044630B90246254B264840F20A31F3
:102C500000F050F9C7F30A55C7F3130335BB002E34
:102C6000019328D068460096FFF782FD009900B3D3
:102C7000019AC0F1200302FA03F30B43C2406361DF
:102C80000192019BA361002B14BF02220122226149
:102C9000D5B1A5F233450544C9F80050C0F135005F
:102CA000C8F80000204603B0BDE8F08343F4801369
:102CB000D5E76161E5E701A8FFF75AFD019B636174
:102CC000012222612030E3E704EB8203A0F23240CC
:102CD000C9F800001869FFF72BFDC0EB4210DFE7D1
:102CE0003AC300084BC3000837B5A1FB02244CB916
:102CF0001146019200F07AF8019A054630B928464B
:102D000003B030BD0C2202600025F8E72146FEF733
:102D100061F9F4E737B5002944D051F8043C01903B
:102D2000002BA1F10404B8BFE41800F025F91E4AF5
:102D30000198136833B96360146003B0BDE8304094
:102D400000F020B9A34208D9256861198B4201BF60
:102D500019685B6849192160EDE71A465B680BB199
:102D6000A342FAD911685518A5420BD12468214411
:102D70005418A3421160E0D11C685B685360214481
:102D80001160DAE702D90C230360D6E725686119E0
:102D90008B4204BF19685B68636004BF49192160F6
:102DA0005460CAE703B030BDF802002070B50E4E83
:102DB0000C463168054611B900F08CF830602146A8
:102DC000284600F087F8431C0AD0C41C24F00304F2
:102DD000A04207D0211A284600F07CF8013001D12A
:102DE0004FF0FF34204670BDFC0200202DE9F04179
:102DF000CD1C25F0030508350C2D38BF0C25002D02
:102E0000074601DBA94205D90C233B60002630466A
:102E1000BDE8F0812E4E00F0AFF833681C4634BB9D
:102E200029463846FFF7C2FF431C04464DD134689B
:102E30002646002E40D123683146384604EB03086D
:102E400000F048F880453AD1216803356D1A25F025
:102E5000030508350C2D38BF0C2529463846FFF7E9
:102E6000A5FF01302BD023682B4423600EE022689D
:102E7000521B1ED40B2A16D96119A342256018BF14
:102E80005960636808BF316062514B60384604F195
:102E90000B0600F077F826F00706231DF21AB6D0CD
:102EA0009B1BA350B3E76268A3420CBF32605A6019
:102EB000ECE723466468B2E734467668B9E70C234A
:102EC0003B60384600F05EF8A1E72560DEE700BF12
:102ED000F802002038B5064D0023044608462B6052
:102EE00001F056FD431C02D12B6803B1236038BDAD
:102EF000000300201FB514461A46094B1B680546FF
:102F0000D8684CB1074B0091CDE9013406492B46F6
:102F100000F00EF800F0CEFA044B1C46F3E700BFB9
:102F200000000020CCC40008D9C4000807C5000870
:102F30000EB403B5014603AB054853F8042B0068F3
:102F4000019300F04FF802B05DF804EB03B0704756
:102F50000000002082B001B901A942B14BB1137841
:102F60000B601278101E18BF012002B07047104687
:102F7000FBE76FF00100F8E7014800F05BBC00BF21
:102F800004030020014800F056BC00BF04030020E9
:102F90009368013B002B10B4936008DA9469A34254
:102FA00001DB0A2903D15DF8044B00F0B5B91368C1
:102FB000581C1060197008465DF8044B7047F8B54E
:102FC00006460F461446D518AC4201D1002007E052
:102FD00014F8011B3A463046FFF7DAFF431CF3D1E1
:102FE000F8BD00002DE9F04F0D469DB014469846FF
:102FF000064618B183690BB900F07EFB894B9D42F0
:103000001BD175686B6ED90705D4AB899A0502D4BC
:10301000A86D00F00FFCAB891B0701D52B69EBB93C
:103020002946304600F0D8F9C0B16B6EDC070ED5EA
:103030004FF0FF301DB0BDE8F08F7B4B9D4201D1BA
:10304000B568DFE7794B9D4208BFF568DAE7AB89E1
:103050009805EDD4A86D00F0EEFBE9E70023099395
:1030600020238DF82930CDF80C803023DFF8C08183
:103070008DF82A304FF0010923469A4613F8012BA8
:103080000AB1252AF9D1BAEB040B0BD05B462246D4
:1030900029463046FFF793FF013000F0AA80099AD5
:1030A0005A4409929AF80030002B00F0A2800023C5
:1030B0004FF0FF32CDE905230AF1010A049307938B
:1030C0008DF853301A935446052214F8011B5848C2
:1030D000FDF7A6F8049AD8B9D10644BF20238DF88D
:1030E0005330130744BF2B238DF853309AF8003028
:1030F0002A2B15D0079A544600204FF00A0C21467F
:1031000011F8013B303B092B4ED9B0B1079214E0C6
:10311000A0EB080309FA03F313430493A246D2E792
:10312000039B191D1B680391002BBBBF5B4242F040
:10313000020207930793B8BF049223782E2B0CD179
:1031400063782A2B35D1039B1A1D1B680392002B31
:10315000B8BF4FF0FF3302340593DFF8E4A02178C5
:1031600003225046FDF75CF840B14023A0EB0A0073
:1031700003FA00F0049B03430134049314F8011B89
:103180002C488DF828100622FDF74AF800283FD079
:10319000294B1BBB039B073323F00703083303931F
:1031A000099B3B44099367E70CFB02320C46012064
:1031B000A5E700230134059319464FF00A0C204679
:1031C00010F8012B303A092A03D9002BC5D00591FC
:1031D000C3E70CFB012104460123F0E703AB009396
:1031E0002A46164B04A93046FDF79CFF0746781C7B
:1031F000D6D16B6ED90705D4AB899A0502D4A86DD8
:1032000000F019FBAB895B063FF512AF099811E797
:1032100003AB00932A46094B04A93046FEF726FA71
:10322000E4E700BF44C6000864C6000824C60008DE
:1032300012C500081CC5000825110008BF2F000892
:1032400018C5000838B50C460968054609B1FFF7EE
:10325000F9FF21462846BDE83840FFF75BBD000076
:103260002C4B1B68834270B5044651D0436A43B16E
:10327000DB68002B4AD1636A196811B12046FFF759
:1032800049FD616911B12046FFF744FD616A11B142
:103290002046FFF73FFDA16B11B12046FFF73AFD35
:1032A000E16B11B12046FFF735FD216C11B12046CD
:1032B000FFF730FDE16D11B12046FFF72BFDA16D49
:1032C00011B12046FFF726FD616B11B12046FFF7D3
:1032D00021FDA369E3B1A36A20469847A16CB9B167
:1032E0002046BDE87040FFF7ADBF495941B90435EC
:1032F000636A802DD968F8D12046FFF70BFDBAE745
:103300000E682046FFF706FD3146EFE70025EFE7A0
:1033100070BD00BF00000020F8B50E4614460546FB
:1033200018B183690BB900F0E7F9214B9C422BD10E
:103330006C68A369A360A3891A072FD523696BB3AF
:1033400023692068C01A6369F6B28342374604DCF9
:103350002146284600F03CF930BBA368013BA3603E
:1033600023685A1C22601E7063690130834204D0B6
:10337000A389DB0706D50A2E04D12146284600F092
:1033800027F988B93846F8BD0A4B9C4201D1AC6890
:10339000CFE7094B9C4208BFEC68CAE721462846A4
:1033A00000F01AF80028CBD04FF0FF37EAE700BF53
:1033B00044C6000864C6000824C6000849B1FF2AB4
:1033C00085BF8A2303600A704FF0FF3098BF012049
:1033D0007047084670470000324B70B51D680646BE
:1033E0000C4625B1AB6913B9284600F085F92E4B80
:1033F0009C420FD16C68A389B4F90C2019072CD416
:10340000DD0611D40923336042F04003A3814FF05D
:10341000FF303EE0254B9C4201D1AC68EBE7244BEA
:103420009C4208BFEC68E6E7580712D5616B41B1D2
:1034300004F14403994202D03046FFF76BFC0023AD
:103440006363A38923F02403A381002363602369BA
:103450002360A38943F00803A38123694BB9A3899F
:1034600003F42073B3F5007F03D02146304600F00B
:1034700009FAA089B4F90C2010F001030AD0002346
:10348000A36063695B42A361236943B910F08000C4
:10349000BAD170BD810758BF6369A360F4E700200B
:1034A000F7E700BF0000002044C6000864C600081B
:1034B00024C6000808B5062000F04CFA012001F0EF
:1034C00051FA00008A892DE9F041054610070C46A3
:1034D00058D44B68002B05DC0B6C002B02DC002061
:1034E000BDE8F081E66A002EF9D0002312F4805284
:1034F0002F682B6032D0606DA3895A0705D56368A9
:10350000C01A636B0BB1236CC01A00230246E66A33
:10351000216A2846B047431CA38906D129681D2982
:103520002CD82A4ACA40D60728D500226260D9047E
:103530002269226004D5421C01D12B6803B9606561
:10354000616B2F600029CAD004F14403994202D074
:103550002846FFF7DFFB00206063C1E7216A0123F3
:103560002846B047411CC7D12B68002BC4D01D2B67
:1035700001D0162B01D12F60B1E7A38943F040039E
:10358000A381ADE70F69002FA9D093070E6808BF8C
:103590004B690F6018BF0023A6EB07088B60B8F1DA
:1035A000000F9CDD216AA66A43463A462846B0478A
:1035B000002806DCA38943F04003A3814FF0FF30CD
:1035C0008EE70744A8EB0008E9E700BF01004020B0
:1035D00038B50B6905460C4613B90025284638BD99
:1035E00018B183690BB900F087F8144B9C421BD1CA
:1035F0006C68B4F90C30002BEFD0626ED00704D4A5
:10360000990502D4A06D00F015F928462146FFF770
:1036100059FF636EDA070546E0D4A3899B05DDD424
:10362000A06D00F008F9D9E7054B9C4201D1AC68C8
:10363000DFE7044B9C4208BFEC68DAE744C60008A9
:1036400064C6000824C60008002310B50446C0E97B
:103650000033C0E90433836081814366C2818361A2
:10366000194608225C30FDF7B5FC054B6362054B3B
:10367000A362054BE362054B2462236310BD00BFC8
:103680008D390008AF390008E73900080B3A000807
:10369000014900F0AFB800BFD135000870B568220D
:1036A0004D1E55430E4605F17401FFF79FFB04467E
:1036B00040B10021C0E900160C30A06005F168029D
:1036C000FDF788FC204670BD014800F0B3B800BF8C
:1036D00005030020014800F0AEB800BF050300203C
:1036E000014800F0A7B800BF06030020014800F021
:1036F000A2B800BF0603002010B50446FFF7F0FF94
:10370000A3691BB1BDE81040FFF7F0BFC4E9123355
:103710002365134B134A1B68A262A34204BF012313
:10372000A361204600F020F86060204600F01CF8FD
:10373000A060204600F018F80022E06004216068D4
:10374000FFF782FFA06801220921FFF77DFFE068F3
:1037500002221221FFF778FF0123A361D2E700BF05
:1037600060C2000891360008F8B50746FFF7ACFFC5
:103770001E4B1E68B36913B93046FFF7BDFF4836CC
:10378000D6E90134013B03D533680BB33668F7E75C
:10379000B4F90C50D5B9164BE36004F158006566D6
:1037A00000F047F8FFF796FFC4E90155C4E9045556
:1037B0002560A5610822294604F15C00FDF70AFC9A
:1037C000C4E90D55C4E912552046F8BD6834D9E75F
:1037D00004213846FFF762FF044630600028D5D147
:1037E000FFF778FF0C233B60EEE700BF60C20008E4
:1037F0000100FFFF2DE9F8430646884600F1480422
:103800000027D4E90195B9F1010905D52468002CF8
:10381000F7D13846BDE8F883AB89012B07D9B5F954
:103820000E30013303D029463046C0470743683580
:10383000E9E770477047704770B50E46B1F90E1052
:10384000002996B014461D4608DAB6F90C3000225D
:103850002A601A0610D44FF480630EE06A4600F026
:10386000FBF80028F1DB019A02F47042A2F5005344
:103870005A425A412A60EEE740230020236016B0E6
:1038800070BD00008B8973B59D0706460C4607D5B1
:1038900004F14703236023610123636102B070BD1B
:1038A00001AB6A46FFF7C8FF009905463046FFF7AF
:1038B0009DFA48B9B4F90C309A05EFD423F003030C
:1038C00043F00203A381E3E70D4BB362A3892060B9
:1038D00043F08003A381009B6361019B20615BB186
:1038E000B4F90E10304600F0C9F828B1A38923F0CE
:1038F000030343F00103A381A0890543A581CDE71C
:10390000913600081F2938B504460D4604D9162300
:1039100003604FF0FF3038BD426C12B152F82130D5
:103920004BB9204600F030F82A4601462046BDE853
:10393000384000F017B8012B0AD0591C03D11623C8
:1039400003600120E7E7002442F825402846984715
:103950000020E0E7024B01461868FFF7D3BF00BF25
:103960000000002038B5074D0023044608461146E4
:103970002B6000F0EFFF431C02D12B6803B12360E2
:1039800038BD00BF0003002000F0E2BF10B50C46B8
:10399000B1F90E1000F094F80028ABBF636DA38955
:1039A0001B1823F48053ACBF6365A38110BD2DE9C0
:1039B000F0411F468B89DB0505460C46164605D5AA
:1039C000B1F90E100223002200F068F8A389B4F9BF
:1039D0000E1023F48053A38132463B462846BDE8AF
:1039E000F04100F017B810B50C46B1F90E1000F018
:1039F00055F8431CA38915BF606523F4805343F435
:103A00008053A38118BFA38110BDB1F90E1000F03F
:103A100013B8000038B5074D044608461146002289
:103A20002A601A4600F050FA431C02D12B6803B1F9
:103A3000236038BD0003002038B5064D002304463E
:103A400008462B6000F0CAFF431C02D12B6803B16B
:103A5000236038BD0003002038B5074D002304461D
:103A6000084611462B6000F0BCFF431C02D12B68B6
:103A700003B1236038BD00BF0003002038B5064DF8
:103A80000023044608462B6000F0B0FF431C02D11F
:103A90002B6803B1236038BD0003002038B5074D03
:103AA00004460846114600222A601A4600F0A0FF8C
:103AB000431C02D12B6803B1236038BD00030020F2
:103AC00038B5074D04460846114600222A601A46BA
:103AD00000F04EFF431C02D12B6803B1236038BDB8
:103AE000000300202DE9F0438BB0002405940694D8
:103AF0000794089409940094434B1A6B42F0040213
:103B00001A631A6B02F004020092009A01941A6B75
:103B100042F080021A631A6B02F080020192019A4D
:103B200002941A6B42F001021A631A6B02F001024E
:103B30000292029A03941A6B42F002021A631A6B01
:103B400002F002020392039A04941A6B42F00802F4
:103B50001A631B6B03F008030493049B2B4E22464D
:103B60004FF28741304602F0E3F94FF6CF53059309
:103B7000032506950794DFF8A09005A9484602F0B2
:103B8000EBF848F20F63059306950794204F05A9BB
:103B9000384602F0E1F84FF287430593012306937C
:103BA0000794089405A9304602F0D6F84FF4007344
:103BB00005934FF00208CDF81880079408940994F3
:103BC00005A9484602F0C8F84FF480730593CDF874
:103BD000188007940894099405A9384602F0BCF8A7
:103BE000042305930695079405A90A4802F0B4F842
:103BF000782305930695079405A9304602F0ACF8A2
:103C00000BB0BDE8F08300BF003802400004024062
:103C100000000240000C02400008024010B582B0D3
:103C2000002401940D4B1A6B42F480021A631B6B43
:103C300003F480030193019B22460521382002F002
:103C4000D7FB382002F00CFC224605213A2002F076
:103C5000CFFB3A2002F004FC02B010BD0038024055
:103C600008B504F0EDFD354C0221204602F0E0FEDF
:103C70001021204602F0DCFE0121204602F0D8FE91
:103C80002F4B00221A700BE000224FF207412D4803
:103C900002F04EF92C4808F0CFFA0A2007F0B6FDE2
:103CA000274B1B780D2BF5D801A252F823F000BF4B
:103CB000893C0008953C0008053D0008953C00083B
:103CC000953C0008953C0008E93C0008953C00083C
:103CD000953C0008953C0008953C0008953C000880
:103CE000953C0008213D0008164C00224CF204418E
:103CF000204602F01DF9012243F20301204602F0A2
:103D000017F9C7E70F4C00224DF20541204602F09B
:103D10000FF9012242F20201204602F009F9B9E747
:103D2000084C002242F20201204602F001F9012271
:103D30004DF20541204602F0FBF8ABE71C0C0020D9
:103D4000040D00200004024084C6000870B52DED6B
:103D5000048B504900238B804B800B804E4CA380FA
:103D60006380238003224D4800F014FF0322214684
:103D70004B4800F00FFF87E0464E33889BB207EEBA
:103D8000903AF8EEE77ADFED478A67EEA87A9FED82
:103D9000468A87EE887A454C84ED007A73889BB218
:103DA00007EE903AF8EEE77A67EEA87A87EE887A1F
:103DB00084ED047AB3889BB207EE903AF8EEE77A86
:103DC00067EEA87A9FED3A9AC7EE897A17EE900AC5
:103DD000FCF7DAFB0022374BFCF776FA0022364B71
:103DE000FCF72AFCFCF700FF60602B4D2B889BB290
:103DF00007EE903AF8EEE77A67EEA87AC7EE897A8E
:103E000017EE900AFCF7C0FB00222A4BFCF75CFA85
:103E10000022294BFCF710FCFCF7E6FEE0606B8803
:103E20009BB207EE903AF8EEE77A67EEA87AC7EE13
:103E3000897A17EE900AFCF7A7FB00221F4BFCF7CC
:103E400043FA00221E4BFCF7F7FBFCF7CDFE606146
:103E5000AB889BB207EE903AF8EEE77A67EEA87A65
:103E600087EE887A84ED027A164B00221A600322CC
:103E700031460A4800F08EFE03222946084800F029
:103E800089FE0A2007F0C2FC0E4B1B68022B3FF490
:103E900073AFF6E7700B0020780B00208C0B00202E
:103EA000D40B00203333533AD122DB3D080D0020E0
:103EB00083C02A3F0000E03F00002940000004408A
:103EC00000003940880B002010B50846144691B216
:103ED00004F0A8FD204610BD38B5144C144B224602
:103EE000012102F0F0FC00231A4621461148006827
:103EF00007F06EFD236943B1042B07D800231A464F
:103F00000B490C48006807F063FD38BD084D094CAB
:103F100000231A462946206807F05AFD00231A4656
:103F2000291D206807F054FDEFE700BF500B00206B
:103F3000480B0020840B002008B5064B1B68012BA2
:103F400000D008BD044B186807F0C8FC014B0022E4
:103F50001A60F6E76C0B0020800B002008B5064BBA
:103F60001B68022B00D008BD044B186807F0B6FC94
:103F7000014B00221A60F6E76C0B0020800B00203A
:103F800008B5064B1B68042B00D008BD044B18680D
:103F900007F0A4FC014B00221A60F6E76C0B00202E
:103FA000800B002002680A4B1B689A4205D0026809
:103FB000084B1B689A4205D07047074A13680133C3
:103FC0001360F4E7044A136801331360F4E700BF99
:103FD0008C0B0020D40B0020880B0020F0B587B09C
:103FE00005461C460023029301938DF814300C9B68
:103FF00003930091049202F067FA064623462A468C
:104000006946074802F0EAFB074630B102F05CFA65
:10401000801B41F287318842F0D9384607B0F0BDA5
:104020001C0C002000B587B00123049329E040F266
:104030000312934222D12D4B1A6802925B680393BC
:10404000002300932A4B082240F203110DEB0200DB
:10405000FFF7C4FF12E00A23002205A925480068E3
:1040600007F0F8FC9DF81420234B1A7000230093EE
:104070001F4B0422032104A8FFF7B0FF0A2007F01A
:10408000C5FB4FF0FF33002205A91A48006807F06E
:10409000E1FC0028F2D1059BB3F5817F16D0C6D88C
:1040A000032BD8D040F201129342E7D10F4B1A698B
:1040B00002925B690393002300930D4B082240F2A8
:1040C00001110DEB0200FFF789FFD7E7074B9A6854
:1040D0000292DB68039300230093054B08224FF400
:1040E00081710DEB0200FFF779FFC7E7080D002093
:1040F0006C0B0020840B0020040D002008B5026822
:10410000034B9A4200D008BD02F0D2F9FBE700BF92
:104110000000014008B572B6094C00224FF470410E
:10412000204601F005FF642002F0D4F901224FF48B
:104130007041204601F0FCFE642002F0CBF9EBE771
:104140000004024038B5174B174A002102F0BBFBB0
:10415000164B186807F0BFFC98B1134C00231A46A1
:1041600021461248006807F033FC236943B1042B51
:1041700009D800231A460B490C48006807F028FCB0
:1041800038BDFFF7C7FF074D084C00231A462946E4
:10419000206807F01DFC00231A46291D206807F03F
:1041A00017FCEDE7480B0020500B0020840B00208B
:1041B00000B58BB02648274B0360032343600023E0
:1041C0008360C3604FF4102202614FF440124261D9
:1041D000037643768376C3760377437702F08EF9CE
:1041E00000282CD100230593069301220792009307
:1041F00001934FF47E410291039304930892694620
:10420000134802F021FAE0B9012205920023069337
:10421000079242F22001009101934FF6E071029162
:104220000393049308926946094802F00DFA50B9C5
:10423000074802F0A5FA40B90BB05DF804FBFFF7A0
:1042400069FFFFF767FFFFF765FFFFF763FF00BF39
:104250001C0C00200064004000B585B000230093D2
:104260000193029303932048204A02604FF4803266
:104270004260836001220261037680F82030C362CD
:104280001B498162C3600321C16180F83030426103
:1042900000F054FCF8B90423009301230193072391
:1042A00002936946104800F031FEB0B9062300932E
:1042B0000223019369460C4800F028FE78B90F23C9
:1042C0000093032301936946074800F01FFE40B99D
:1042D00005B05DF804FBFFF71DFFFFF71BFFFFF7BD
:1042E00019FFFFF717FF00BF8C0B002000200140D3
:1042F0000100000F00B585B00023009301930293E5
:1043000003932048204A02604FF480324260836069
:1043100001220261037680F82030C3621B4981626A
:10432000C3600321C16180F83030426100F006FCB7
:10433000F8B90523009301230193002302936946F2
:10434000104800F0E3FDB0B9072300930223019366
:1043500069460C4800F0DAFD78B90E230093032378
:1043600001936946074800F0D1FD40B905B05DF8FA
:1043700004FBFFF7CFFEFFF7CDFEFFF7CBFEFFF705
:10438000C9FE00BFD40B0020002101400100000F36
:1043900000B595B03422002107A8FCF71BFE0023CE
:1043A000029303930493059306930093294A116C97
:1043B00041F080511164126C02F080520092009A18
:1043C0000193254B1A6842F440421A601B6803F4BB
:1043D00040430193019B012307934FF4A0230893CB
:1043E00002230D934FF480020E9204220F92B42206
:1043F0001092119305221292139307A801F08AFAE2
:1044000010BB01F0A5FF08BB0F2302930223039307
:10441000002304934FF4A05305934FF48053069365
:10442000052102A800F098FE90B900224FF4800107
:10443000104600F043FE4FF0E0620021012000F042
:104440003DFE15B05DF804FBFFF764FEFFF762FE6A
:10445000FFF760FE003802400070004008B502F02F
:104460000DF8FFF795FFFFF73DFBFFF7D7FBFFF7D1
:104470009FFEFFF7F1FEFFF73DFF07F03BF9134A00
:104480000021012007F0D0F9114B1860114A0421D6
:10449000202007F052FA104B1860104A00211048F3
:1044A00007F056F90F4B18600F4A00210F4807F02C
:1044B0004FF90F4B18600F4A00210F4807F048F9D9
:1044C0000E4B186007F028F9FEE700BF44C700084C
:1044D000800B002054C70008840B002020C7000870
:1044E000613C0008440B0020FCC600082540000881
:1044F00084080020D8C600084D3D0008C4050020EF
:1045000000B583B0002200920D4B596C41F48041FC
:104510005964596C01F48041009100990192196C21
:1045200041F0805119641B6C03F080530193019B8F
:104530000F216FF0010001F05BFF03B05DF804FB99
:104540000038024070B58CB00446002307930893EE
:1045500009930A930B9303685A4A934204D05A4A28
:10456000934257D00CB070BD00250195574B5A6C43
:1045700042F480725A645A6C02F480720192019A79
:1045800002951A6B42F001021A631A6B02F00102E3
:104590000292029A03951A6B42F004021A631B6B93
:1045A00003F004030393039B502307930326089609
:1045B00007A9474801F0D0FB2023079308960995E7
:1045C00007A9444801F0C8FB4348444B03604560D9
:1045D0008560C5604FF4806303614FF400634361FD
:1045E0004FF4005383614FF48073C36105624562E9
:1045F00001F024FD58B9384BA3639C6300220521C8
:10460000122001F0F5FE122001F02AFFAAE7FFF7C1
:1046100081FDF0E7002504952C4B5A6C42F40072A2
:104620005A645A6C02F400720492049A05951A6B4B
:1046300042F001021A631A6B02F001020592059A18
:1046400006951A6B42F004021A631B6B03F0040315
:104650000693069BA02307930326089607A91C48E8
:1046600001F07AFB102307930896099507A91948CA
:1046700001F072FB1A481B4B03604FF0007343605C
:104680008560C5604FF4806303614FF4006343614C
:104690004FF4005383614FF48073C3610562456238
:1046A00001F0CCFC58B90E4BA3639C63002205219A
:1046B000122001F09DFE122001F0D2FE52E7FFF71A
:1046C00029FDF0E7002001400021014000380240B0
:1046D0000000024000080240440C00201064024028
:1046E000A40C0020406402402DE9F04188B0002372
:1046F000039304930593069307930268294B9A4208
:1047000002D008B0BDE8F0810024019403F5EA333B
:104710001A6C42F000721A641A6C02F00072019274
:10472000019A02941A6B42F002021A631B6B03F0A7
:1047300002030293029B4FF4807303934FF002082D
:10474000CDF81080012305930327069709260796C5
:10475000154D03A9284601F0FFFA4FF400730393A7
:10476000CDF8108005940697079603A9284601F016
:10477000F3FA22460521132001F03AFE132001F03E
:104780006FFE22460521142001F032FE142001F0B4
:1047900067FE22460521152001F02AFE152001F0B2
:1047A0005FFEAEE7006400400004024030B589B00F
:1047B0000546002401941E4B5A6C42F001025A64D3
:1047C0005B6C03F001030193019B02A903A800F0B5
:1047D00089FD00F077FD43001648A0FB03239B0CE6
:1047E000013B1548154A026040F2E732C26043605F
:1047F00004618460846102F0BFFB044610B120466E
:1048000009B030BD0C4802F053FA04460028F6D136
:10481000192001F025FE0F2D01D90124EFE7002218
:104820002946192001F0E4FD054B1D60E7E700BFB4
:104830000038024083DE1B43200D002000000140B1
:10484000D8010020FEE7000000B587B000230193E7
:1048500002930393049305930093164B1A6B42F053
:1048600002021A631B6B03F002030093009B4FF4D8
:10487000704301930123029301A90F4801F06CFAE0
:104880000FE001330D4A9342FBDD01224FF47041EA
:10489000094801F04DFB002300E00133074A934231
:1048A000FBDD00224FF47041034801F041FB00237F
:1048B000E8E700BF00380240000402403F420F001A
:1048C000FEE7FEE7FEE7704708B5034800F038FA58
:1048D000024800F035FA08BD8C0B0020D40B0020F4
:1048E00008B5024802F0BEF808BD00BF1C0C00204D
:1048F00008B5024802F0B6F808BD00BF1C0C002045
:1049000008B5024802F0AEF808BD00BF1C0C00203C
:1049100008B5024802F014FA08BD00BF200D0020BF
:1049200008B5024801F026FC08BD00BF440C002079
:1049300008B5024801F01EFC08BD00BFA40C002011
:1049400008B5024802F07DFE08BD00BF4C220020E1
:104950000120704708B507F0FBFB162303604FF0FA
:10496000FF3008BD08B54FF0FF31FFF7F3FFFEE75A
:1049700070B50C461646002506E0AFF300802146D0
:1049800001F8010B01350C46B542F6DB304670BD2F
:1049900008B503460D4A12685AB10C4A1068034420
:1049A0000B4A11780B4A521A934206D8074A1360F1
:1049B00008BD064A08491160EFE700BE07F0C8FBD2
:1049C0000C2303604FF0FF30F2E700BF680D0020BA
:1049D0000004000000000220687300204FF0FF3048
:1049E00070474FF400534B60002070470120704720
:1049F00000207047034AD2F8883043F47003C2F8AD
:104A00008830704700ED00E04A4B5A6822F440328B
:104A10005A605A6841680A435A600268536823F42E
:104A20008073536002685368016943EA012353604D
:104A30000268536823F040735360026853688168CA
:104A40000B4353600268936823F400639360026829
:104A50009368C1680B439360826A374B9A4257D080
:104A60000268936823F07063936002689368816AB8
:104A70000B4393600268936823F04053936002688D
:104A80009368C16A0B4393600268936823F0020342
:104A9000936002689368017E43EA4103936090F853
:104AA0002030002B3FD00268536843F4006353600A
:104AB0000268536823F46043536001684B68426A9C
:104AC000013A43EA42334B600268D36A23F470032D
:104AD000D3620168CB6AC269013A43EA0253CB62EE
:104AE0000268936823F4007393600268936890F8F7
:104AF000301043EA412393600268936823F4806393
:104B0000936002689368416943EA81239360704728
:104B10000268936823F0706393600268936823F0DF
:104B200040539360B0E70268536823F40063536016
:104B3000CAE700BF002301400100000F38B310B5E1
:104B40000446036C43B1236C13F0100F0BD001200B
:104B5000002384F83C3010BDFFF7F4FC00236364AD
:104B600084F83C30EFE7236C23F4885323F00203EE
:104B700043F0020323642046FFF746FF00206064F1
:104B8000236C23F0030343F001032364E0E70120D7
:104B90007047000010B582B013460022019290F8D1
:104BA0003C20012A00F0AE800446012280F83C201F
:104BB0000268906810F0010F13D1906840F0010076
:104BC0009060534A1068534AA2FB0020800C00EB0F
:104BD0004000019002E001980138019001980028FE
:104BE000F9D12268906810F4807F03D0906820F497
:104BF000807090602268906810F0010F77D0206C70
:104C000020F4E06020F0010040F4807020645268DD
:104C100012F4806F05D0226C22F4405242F480528C
:104C20002264226C12F4805F36D0626C22F006029D
:104C30006264002284F83C20A26B3748D063A26BE8
:104C400036481064A26B3648D06422686FF02200A8
:104C500010602068426842F080624260206882688A
:104C600042F48072826020680A4600F14C01A06B19
:104C700001F04AFA2B4B5B6813F01F0F27D1236812
:104C8000294A934211D002F58072934207D0274AF5
:104C9000934214D0002033E000226264C9E702F599
:104CA0000072526812F01F0FF1D19A6812F0405F43
:104CB0002AD19A6842F080429A60002020E002F5F2
:104CC0008072526812F0100FEFD0002018E02368B5
:104CD000154A934201D0002012E09A6812F0405F1A
:104CE00014D19A6842F080429A60002008E0236C58
:104CF00043F010032364636C43F0010363640020FA
:104D000002B010BD0220FBE70020F9E70020F7E722
:104D1000D001002083DE1B43994E0008334D00086C
:104D2000834E000800230140002001400022014082
:104D3000704708B5806BFFF7FBFF08BD70477047F1
:104D400070B5044603681E685D6816F0020F2FD028
:104D500005F0200262B3026C12F0100F03D1026C56
:104D600042F4007202649A6812F0405F19D1227E08
:104D7000BAB9DA6A12F4700F03D09A6812F4806F2D
:104D80000FD15A6822F020025A60236C23F48073FA
:104D90002364236C13F4805F03D1236C43F001037D
:104DA00023642046FFF7FEF823686FF012021A60B2
:104DB00005F0800316F0040F37D0002B35D0236C9C
:104DC00013F0100F03D1236C43F4005323642368C2
:104DD0009A6812F4401F21D19A6B12F4401F03D03D
:104DE0009A6812F4806F19D15A6812F4806F15D145
:104DF0009A6812F0405F11D1227E7AB95A6822F087
:104E000080025A60236C23F480532364236C13F4D0
:104E1000807F03D1236C43F001032364204600F01C
:104E20004BF923686FF00C021A6005F0400316F08E
:104E3000010F05D023B123681B6813F0010F06D1C1
:104E400005F0806516F0200F00D065B970BD236CA9
:104E500043F4803323642046FFF770FF23686FF02C
:104E600001021A60ECE7636C43F002036364236899
:104E70006FF020051D602046FFF761FF23681D606D
:104E8000E4E708B5806B40230364436C43F00403FC
:104E90004364FFF754FF08BD08B50346806B026CFE
:104EA00012F0500F25D1036C43F4007303640368C0
:104EB0009A6812F0405F19D1027EBAB9DA6A12F428
:104EC000700F03D09A6812F4806F0FD15A6822F0E5
:104ED00020025A60036C23F480730364036C13F4A0
:104EE000805F03D1036C43F001030364FFF75AF8BA
:104EF00008BD026C12F0100F04D1826BD26C184600
:104F00009047F5E7FFF71BFFF2E7000030B482B0EF
:104F10000023019390F83C30012B00F0C080012366
:104F200080F83C300B68092B41D90468E2689BB2D9
:104F300003EB43031E3B4FF0070C0CFA03F322EA8A
:104F40000303E3600468E2680B8803EB43031E3B42
:104F50008D6805FA03F31343E3604B68062B3DD8D5
:104F60000468626B03EB8303053B4FF01F0C0CFAE4
:104F700003F322EA030363630468626B4B6803EB89
:104F80008303053BB1F800C00CFA03F313436363DA
:104F90000268444B9A4251D00268424B9A425AD01E
:104FA000002380F83C30184602B030BC70470468DB
:104FB00022699BB203EB43034FF0070C0CFA03F397
:104FC00022EA03032361046822690B8803EB43038D
:104FD0008D6805FA03F313432361BEE70C2B16D843
:104FE00005682A6B03EB8303233B1F2404FA03F3B6
:104FF00022EA03032B6305682A6B4B6803EB8303E8
:10500000233B0C8804FA03F313432B63C0E70568C2
:10501000EA6A03EB8303413B1F2404FA03F322EA09
:105020000303EB620568EA6A4B6803EB8303413BC9
:105030000C8804FA03F31343EB62A9E70B68122B05
:10504000AAD1194B5A6822F400025A605A6842F4F5
:1050500080025A60A0E70B68144A934201D0112BDA
:105060009ED1114B5A6822F480025A605A6842F469
:1050700000025A600A680D4B9A4291D10C4B1B6892
:105080000C4AA2FB03239B0C03EB83035B000193FD
:10509000019B002B84D0019B013B0193F8E7022088
:1050A00082E700BF002001400023014012000010F1
:1050B000D001002083DE1B437047000070B588B02C
:1050C0000C46154600BB00230193204E326B42F084
:1050D00001023263326B02F001020192019A4FF435
:1050E0008072039202220492032206920593079390
:1050F00003A9174800F030FEB36823F0EC632543A2
:105100001D43B56008B070BD002302930F4E326B93
:1051100042F004023263326B02F004020292029AFD
:105120004FF4007203920222049203220692059326
:10513000079303A9074800F00FFEB36823F07843F4
:1051400044EAC5041C43B460DCE700BF00380240F9
:105150000000024000080240002800F09B8070B56B
:105160000D4604464F4B1B6803F00F038B4208D2D9
:10517000CBB24C4A1370136803F00F038B4240F01C
:105180008B80236813F0020F17D013F0040F04D0A4
:10519000454A936843F4E0539360236813F0080F83
:1051A00004D0414A936843F4604393603E4A936855
:1051B00023F0F003A1680B439360236813F0010F01
:1051C00032D06368012B21D09A1E012A25D9364A94
:1051D000126812F0020F61D033498A6822F003028C
:1051E00013438B6001F070F906462F4B9B6803F068
:1051F0000C036268B3EB820F16D001F065F9801BD7
:1052000041F288339842F0D9032042E0264A1268DE
:1052100012F4003FE0D101203BE0234A126812F073
:10522000007FD9D1012034E01E4B1B6803F00F032F
:10523000AB4207D9EAB21B4B1A701B6803F00F038D
:10524000AB422DD1236813F0040F06D0164A9368A1
:1052500023F4E053E1680B439360236813F0080FD5
:1052600007D0114A936823F46043216943EAC103DC
:10527000936000F08FFA0C4B9B68C3F303130B4A47
:10528000D35CD8400A4B18600A4B1868FFF78EFAB7
:10529000002070BD012070470120FAE70120F8E7E7
:1052A0000120F6E7003C0240003802406CC70008CD
:1052B000D0010020D8010020014B1868704700BFC2
:1052C000D001002008B5FFF7F7FF044B9B68C3F33C
:1052D0004233034AD35CD84008BD00BF00380240C7
:1052E0007CC700080F2303600B4B9A6802F003028F
:1052F00042609A6802F0F00282609A6802F4E0521A
:10530000C2609B68DB0803F4E0530361034B1B6836
:1053100003F00F030B60704700380240003C02406E
:10532000F0B583B00446066816F001060DD0964A23
:10533000D2F88C3023F0C063816B0B43C2F88C3001
:10534000836B002B00F09B800026236813F0020F74
:105350000BD08D4AD2F88C3023F0C053E16B0B4355
:10536000C2F88C30E36B03B90126256815F00405FB
:105370000FD0854AD2F88C3023F44013216B0B43B5
:10538000C2F88C30236BB3F5801F7AD0002B7AD013
:105390000025236813F0080F0ED07B4AD2F88C301A
:1053A00023F44003616B0B43C2F88C30636BB3F59D
:1053B000800F6AD003B90125236813F0200F66D14E
:1053C000236813F0100F04D094F858206F4BC3F8E3
:1053D000E021236813F0800F08D06B4AD2F8943094
:1053E00023F44003E16C0B43C2F89430236813F0BC
:1053F000400F08D0644AD2F8943023F08063A16C47
:105400000B43C2F89430236813F4807F0DD05E4ABA
:10541000D2F8943023F00063616D0B43C2F89430EE
:10542000636DB3F1006F00F09B80236813F4007F7D
:1054300008D0554AD2F8943023F08053616C0B4366
:10544000C2F89430236813F4806F0CD04E4AD2F81F
:10545000943023F00053216D0B43C2F89430236D38
:10546000B3F1005F7ED0002E7CD12368B3F5006FCE
:1054700078D0012D00F02581002003B0F0BD012679
:1054800063E7012682E7012583E7012692E70023EF
:1054900001933D4B1A6C42F080521A641B6C03F06E
:1054A00080530193019B3A4A136843F4807313605D
:1054B00001F00AF80746364B1B6813F4807F06D1CB
:1054C00001F002F8C01B0228F5D90320D5E72E4BC6
:1054D0001B6F13F4407314D0226C02F440729A4292
:1054E0000FD0294B1A6F22F440722A490120C1F8CB
:1054F000400E0020C1F8400E1A671B6F13F0010F19
:1055000012D1236C03F44072B2F5407F1DD01E4AC5
:10551000936823F4F81393601B490B6F226CC2F35A
:105520000B0213430B674BE700F0CEFF0746164B09
:105530001B6F13F0020FE4D100F0C6FFC01B41F255
:1055400088339842F3D9032097E70F498A6822F4F9
:10555000F81223F0704323F4407313438B60DBE7AE
:10556000012562E70B4B00229A6600F0ADFF06466C
:10557000054B1B6813F0006F0ED000F0A5FF801BD9
:105580000228F5D9032078E700380240001047428E
:105590000070004000004742236813F0010F01D063
:1055A000A26B22B113F0020F15D0E36B9BB9774ABF
:1055B000D2F88400D2F884106368A66843EA8613A0
:1055C00000F44030034301F070610B43616943EA2A
:1055D0000173C2F88430236813F0040F03D0226BE8
:1055E000B2F5801F06D013F0080F20D0636BB3F51F
:1055F000800F1CD1654AD2F88400D2F88410636809
:10560000A66843EA861300F440300343206943EA66
:10561000006301F0E0410B43C2F88430D2F88C30D3
:1056200023F01F03A16A01390B43C2F88C302368B1
:1056300013F4806F03D0236DB3F1005F28D023688B
:1056400013F4006F11D06368A26843EA8213E26822
:105650005208013A43EA0243226943EA026362695B
:1056600043EA0273494AC2F88430494B01229A66E0
:1056700000F02AFF0646454B1B6813F0006F7FF4CD
:10568000F8AE00F021FF801B0228F4D90320F4E6D5
:105690003E48D0F88430C3F301435A1CD0F88460EC
:1056A0006368A16843EA8113E1684908013943EA64
:1056B000014343EA426306F0E0421343C0F88430FA
:1056C000BDE7334B00221A6700F0FEFE05462F4B64
:1056D0001B6813F0005F06D000F0F6FE401B0228A6
:1056E000F5D90320C9E6236813F0040F01D0226B1B
:1056F00022B113F0080F1AD0636BC3B9234AD2F852
:105700008810A369E06943EA801301F440310B4338
:10571000616A43EA0163C2F88830D2F88C3023F41E
:10572000F853E16A013943EA0123C2F88C30236857
:1057300013F4807F03D0636DB3F1006F11D0144B6D
:1057400001221A6700F0C0FE0446104B1B6813F0DC
:10575000005F18D100F0B8FE001B0228F5D9032025
:105760008BE60A48D0F88810A369E26943EA8213FD
:10577000226A5208013A43EA024301F0706213437D
:10578000C0F88830DBE7002077E600BF0038024031
:105790000000474208B55C4B9B6803F00C03082BE4
:1057A00007D00C2B5BD0042B01D0584808BD5848BB
:1057B000FCE7554B5A6802F03F025B6813F4800F18
:1057C0002AD0514B5968C1F3881C4FEA4C11B1EBF8
:1057D0000C006EEB0E0E4FEA8E1343EA90638101CC
:1057E000091A63EB0E03DB0043EA5173C90011EBA6
:1057F0000C0C43F10003590200234FEA4C2041EA0C
:10580000DC51FBF741FA404B5B68C3F301430133C2
:105810005B00B0FBF3F0C9E73B4B5968C1F3881C50
:105820004FEA4C11B1EB0C006EEB0E0E4FEA8E13EB
:1058300043EA90638101091A63EB0E03DB0043EA3C
:105840005173C90011EB0C0C43F1000399020023C2
:105850004FEA8C2041EA9C51FBF716FAD3E72A4B1A
:105860005A6802F03F025B6813F4800F28D0264B81
:105870005968C1F3881C4FEA4C11B1EB0C006EEB78
:105880000E0E4FEA8E1343EA90638101091A63EB0F
:105890000E03DB0043EA5173C90011EB0C0C43F11A
:1058A0000003590200234FEA4C2041EADC51FBF788
:1058B000EBF9154B5B68C3F30273B0FBF3F075E7CC
:1058C000114B5968C1F3881C4FEA4C11B1EB0C0025
:1058D0006EEB0E0E4FEA8E1343EA90638101091AB4
:1058E00063EB0E03DB0043EA5173C90011EB0C0CB0
:1058F00043F10003990200234FEA8C2041EA9C51B6
:10590000FBF7C2F9D5E700BF003802400024F400DD
:1059100000127A00002800F0018270B582B00446BF
:10592000036813F0010F41D0994B9B6803F00C03FF
:10593000042B32D0964B9B6803F00C03082B27D026
:10594000934B9B6803F00C030C2B59D06368B3F5A1
:10595000803F5BD0B3F5A02F5ED08D4B1A6822F448
:1059600080321A601A6822F480221A606368002B61
:105970005CD000F0A9FD0546854B1B6813F4003F81
:1059800014D100F0A1FD401B6428F5D90320CCE11F
:105990007F4B5B6813F4800FD2D07D4B1B6813F4F0
:1059A000003F03D06368002B00F0BA81236813F036
:1059B000020F60D0764B9B6813F00C0F4AD0744BEB
:1059C0009B6803F00C03082B3FD0714B9B6803F0DE
:1059D0000C030C2B69D0E368002B75D06D4B0122B2
:1059E0001A6000F071FD0546694B1B6813F0020F49
:1059F00061D100F069FD401B0228F5D9032094E134
:105A0000634B5B6813F4800FA0D0C6E7604A13684D
:105A100043F480331360A9E75D4B1A6842F4802297
:105A20001A601A6842F480321A609FE700F04CFD59
:105A30000546574B1B6813F4003FB7D000F044FDF8
:105A4000401B6428F5D903206FE1514B5B6813F4C8
:105A5000800FBAD14E4B1B6813F0020F03D0E368DE
:105A6000012B40F05F814A4A136823F0F803216953
:105A700043EAC1031360236813F0080F49D0636938
:105A8000002B33D0434B0122C3F8802E00F01CFDC5
:105A900005463F4B5B6F13F0020F3AD100F014FD47
:105AA000401B0228F5D903203FE1394B5B6813F412
:105AB000800F90D1CEE7364A136823F0F8032169AE
:105AC00043EAC1031360D6E7324B00221A6000F0AC
:105AD000FBFC05462E4B1B6813F0020FCBD000F0E9
